{
	"data": {
		"bytecode": {
			"linkReferences": {
				".deps/FundoorLib.sol": {
					"FundoorLib": [
						{
							"length": 20,
							"start": 4966
						},
						{
							"length": 20,
							"start": 5113
						},
						{
							"length": 20,
							"start": 16723
						}
					]
				},
				"remix_tests.sol": {
					"Assert": [
						{
							"length": 20,
							"start": 445
						},
						{
							"length": 20,
							"start": 704
						}
					]
				}
			},
			"object": "608060405234801561000f575f80fd5b506152028061001d5f395ff3fe608060405234801561000f575f80fd5b506004361061004a575f3560e01c80633186505d1461004e5780637fea0d4b14610058578063c45a015514610060578063e5a6b10f1461008e575b5f80fd5b6100566100a1565b005b610056610309565b5f54610072906001600160a01b031681565b6040516001600160a01b03909116815260200160405180910390f35b600154610072906001600160a01b031681565b73d7acd2a9fd159e69bb102a1ca21c9a3e3a5f771b737ef2e0048f5baede046f6bf797943daf4ed8cb476001805f6100dc4262015180610383565b5f805460015460405163d9bd7c9160e01b81526001600160a01b039182166004820152898216602482015288821660448201528715156064820152861515608482015260a48101859052939450919291169063d9bd7c919060c4016020604051808303815f875af1158015610153573d5f803e3d5ffd5b505050506040513d601f19601f8201168201806040525081019061017791906103a8565b604080516339df137f60e01b8152821515600482015260248101919091525f604482015290915073__$acbfb1c35000d78352310b16a054a6b106$__906339df137f90606401602060405180830381865af41580156101d8573d5f803e3d5ffd5b505050506040513d601f19601f820116820180604052508101906101fc91906103a8565b505f805f9054906101000a90046001600160a01b03166001600160a01b031663dcc601286040518163ffffffff1660e01b81526004015f60405180830381865afa15801561024c573d5f803e3d5ffd5b505050506040513d5f823e601f3d908101601f1916820160405261027391908101906103fd565b805160405163055e6bcb60e51b8152600481019190915260016024820152606060448201525f606482015290915073__$acbfb1c35000d78352310b16a054a6b106$__9063abcd796090608401602060405180830381865af41580156102db573d5f803e3d5ffd5b505050506040513d601f19601f820116820180604052508101906102ff91906103a8565b5050505050505050565b600180546001600160a01b03191673d9145cce52d386f254917e481eb44e9943f3913817905560405161033b90610376565b604051809103905ff080158015610354573d5f803e3d5ffd5b505f80546001600160a01b0319166001600160a01b0392909216919091179055565b614d0f806104be83390190565b808201808211156103a257634e487b7160e01b5f52601160045260245ffd5b92915050565b5f602082840312156103b8575f80fd5b815180151581146103c7575f80fd5b9392505050565b634e487b7160e01b5f52604160045260245ffd5b80516001600160a01b03811681146103f8575f80fd5b919050565b5f602080838503121561040e575f80fd5b825167ffffffffffffffff80821115610425575f80fd5b818501915085601f830112610438575f80fd5b81518181111561044a5761044a6103ce565b8060051b604051601f19603f8301168101818110858211171561046f5761046f6103ce565b60405291825284820192508381018501918883111561048c575f80fd5b938501935b828510156104b1576104a2856103e2565b84529385019392850192610491565b9897505050505050505056fe608060405234801561000f575f80fd5b50614cf28061001d5f395ff3fe608060405234801561000f575f80fd5b5060043610610034575f3560e01c8063d9bd7c9114610038578063dcc6012814610060575b5f80fd5b61004b6100463660046101d5565b610075565b60405190151581526020015b60405180910390f35b61006861013e565b6040516100579190610244565b5f803388888888888860405161008a9061019d565b6001600160a01b039788168152958716602087015293861660408601529490911660608401521515608083015291151560a082015260c081019190915260e001604051809103905ff0801580156100e3573d5f803e3d5ffd5b505f8054600180820183559180527f290decd9548b62a8d60345a988386fc84ba6bc95484008f6362f93160ef3e5630180546001600160a01b0319166001600160a01b03939093169290921790915598975050505050505050565b60605f80548060200260200160405190810160405280929190818152602001828054801561019357602002820191905f5260205f20905b81546001600160a01b03168152600190910190602001808311610175575b5050505050905090565b614a2c8061029183390190565b6001600160a01b03811681146101be575f80fd5b50565b803580151581146101d0575f80fd5b919050565b5f805f805f8060c087890312156101ea575f80fd5b86356101f5816101aa565b95506020870135610205816101aa565b94506040870135610215816101aa565b9350610223606088016101c1565b9250610231608088016101c1565b915060a087013590509295509295509295565b602080825282518282018190525f9190848201906040850190845b818110156102845783516001600160a01b03168352928401929184019160010161025f565b5090969550505050505056fe608060405234801562000010575f80fd5b5060405162004a2c38038062004a2c8339810160408190526200003391620002bd565b60408051602081019091525f81526200004c816200021f565b50620000583362000231565b600480546001600160a01b038088166001600160a01b031992831617909255600580549287169290911691909117905582156200010157306040516200009e9062000282565b6001600160a01b039091168152602001604051809103905ff080158015620000c8573d5f803e3d5ffd5b50600680546001600160a01b0319166001600160a01b0392909216919091179055600c805463ff00000019166301000000841515021790555b600780546001600160a01b0319166001600160a01b038916908117909155600b82905560408051918252602082018390527fc6b5d036565220527ce1cfc38a372c78adb8308d835c5c803fb3a17d0a106549910160405180910390a1600880546001810182555f919091527ff3f7a9fe364faab93b216da50a3214154f22a0a2b415b23a84c8169e8b636ee30180546001600160a01b0319166001600160a01b0388169081179091556040519081527fec38796d17f4fa8c88de20f9fb9da605573fdcb1dd79c6d39683df6d64175e5f9060200160405180910390a1600c805460ff191660011790556040517f1611757e154fd5430178688b28bebeab61bb8acec2b806091026e8b0fc3e7164905f90a150505050505050620004b7565b60026200022d8282620003ef565b5050565b600380546001600160a01b038381166001600160a01b0319831681179093556040519116919082907f8be0079c531659141344cd1fd0a4f28419497f9722a3daafe3b4186f6b6457e0905f90a35050565b611a618062002fcb83390190565b6001600160a01b0381168114620002a5575f80fd5b50565b80518015158114620002b8575f80fd5b919050565b5f805f805f805f60e0888a031215620002d4575f80fd5b8751620002e18162000290565b6020890151909750620002f48162000290565b6040890151909650620003078162000290565b60608901519095506200031a8162000290565b93506200032a60808901620002a8565b92506200033a60a08901620002a8565b915060c0880151905092959891949750929550565b634e487b7160e01b5f52604160045260245ffd5b600181811c908216806200037857607f821691505b6020821081036200039757634e487b7160e01b5f52602260045260245ffd5b50919050565b601f821115620003ea575f81815260208120601f850160051c81016020861015620003c55750805b601f850160051c820191505b81811015620003e657828155600101620003d1565b5050505b505050565b81516001600160401b038111156200040b576200040b6200034f565b62000423816200041c845462000363565b846200039d565b602080601f83116001811462000459575f8415620004415750858301515b5f19600386901b1c1916600185901b178555620003e6565b5f85815260208120601f198616915b82811015620004895788860151825594840194600190910190840162000468565b5085821015620004a757878501515f19600388901b60f8161c191681555b5050505050600190811b01905550565b612b0680620004c55f395ff3fe608060405234801561000f575f80fd5b50600436106101fc575f3560e01c8063853828b611610114578063c57380a2116100a9578063e6d6859511610079578063e6d685951461041c578063e985e9c51461042d578063f242432a14610468578063f2fde38b1461047b578063fb166f911461048e575f80fd5b8063c57380a2146103e3578063c8a62968146103f4578063cb0e0d7d146103fc578063d47f4d2a14610416575f80fd5b8063a22cb465116100e4578063a22cb46514610396578063aa771d39146103a9578063bbffd04c146103c8578063bffa55d5146103d0575f80fd5b8063853828b6146103435780638ab234b61461034b5780638d4727091461035e5780638da5cb5b14610371575f80fd5b80633cdfe2101161019557806353462d6b1161016557806353462d6b14610303578063715018a61461030b57806374f60d36146103135780637f1660a11461033357806384dac7021461033b575f80fd5b80633cdfe210146102b25780634e1273f4146102c55780634e4cffce146102e55780634fb2e45d146102f0575f80fd5b8063244c60b5116101d0578063244c60b51461027c5780632eb2c2d614610284578063348917ca146102995780633cb78fe0146102aa575f80fd5b8062fdd58e1461020057806301ffc9a7146102265780630e89341c1461024957806320eaac7d14610269575b5f80fd5b61021361020e3660046120b5565b610496565b6040519081526020015b60405180910390f35b6102396102343660046120f4565b61052d565b604051901515815260200161021d565b61025c610257366004612116565b61057c565b60405161021d9190612170565b61023961027736600461218f565b61060e565b6102396109ce565b610297610292366004612310565b610a5c565b005b600c5462010000900460ff16610239565b610239610aa8565b6102396102c03660046123b7565b610b78565b6102d86102d33660046123d2565b610bad565b60405161021d91906124d2565b600c5460ff16610239565b6102396102fe3660046123b7565b610cd5565b600b54610213565b610297610d26565b610326610321366004612116565b610d39565b60405161021d91906124e4565b610239610d9a565b610239610dd3565b610239610e07565b6102396103593660046123b7565b610f62565b61023961036c366004612530565b61100e565b6003546001600160a01b03165b6040516001600160a01b03909116815260200161021d565b6102976103a436600461256e565b611142565b6102136103b7366004612116565b5f9081526009602052604090205490565b610239611151565b6102396103de3660046123b7565b6111b5565b6004546001600160a01b031661037e565b6102396113d8565b61021361040a3660046123b7565b6001600160a01b031690565b3061037e565b6007546001600160a01b031661037e565b61023961043b3660046125a5565b6001600160a01b039182165f90815260016020908152604080832093909416825291909152205460ff1690565b6102976104763660046125d1565b611404565b6102976104893660046123b7565b611449565b6102396114c2565b5f6001600160a01b0383166105055760405162461bcd60e51b815260206004820152602a60248201527f455243313135353a2061646472657373207a65726f206973206e6f742061207660448201526930b634b21037bbb732b960b11b60648201526084015b60405180910390fd5b505f818152602081815260408083206001600160a01b03861684529091529020545b92915050565b5f6001600160e01b03198216636cdb3d1360e11b148061055d57506001600160e01b031982166303a24d0760e21b145b8061052757506301ffc9a760e01b6001600160e01b0319831614610527565b60606002805461058b90612635565b80601f01602080910402602001604051908101604052809291908181526020018280546105b790612635565b80156106025780601f106105d957610100808354040283529160200191610602565b820191905f5260205f20905b8154815290600101906020018083116105e557829003601f168201915b50505050509050919050565b5f600b5442101561064c5760405162461bcd60e51b81526020600482015260086024820152672a37b79039b7b7b760c11b60448201526064016104fc565b6004546001600160a01b031633146106765760405162461bcd60e51b81526004016104fc9061266d565b600c54610100900460ff161561068e5761068e6126b2565b6040516370a0823160e01b81523060048201525f906001600160a01b038616906370a0823190602401602060405180830381865afa1580156106d2573d5f803e3d5ffd5b505050506040513d601f19601f820116820180604052508101906106f691906126c6565b604051637ae2b5c760e01b815260048101869052602481018290529091505f9073__$1fcfe7ddd81b6f7ea106a2bbe0e5e67adc$__90637ae2b5c790604401602060405180830381865af4158015610750573d5f803e3d5ffd5b505050506040513d601f19601f8201168201806040525081019061077491906126c6565b600c549091506301000000900460ff16156108e757600654604051636582b41d60e11b81526001600160a01b03888116600483015273__$1fcfe7ddd81b6f7ea106a2bbe0e5e67adc$__92637ae2b5c79291169063cb05683a90602401602060405180830381865afa1580156107ec573d5f803e3d5ffd5b505050506040513d601f19601f8201168201806040525081019061081091906126c6565b876040518363ffffffff1660e01b8152600401610837929190918252602082015260400190565b602060405180830381865af4158015610852573d5f803e3d5ffd5b505050506040513d601f19601f8201168201806040525081019061087691906126c6565b6006546040516336dd7cf760e11b81526001600160a01b038981166004830152929350911690636dbaf9ee906024016020604051808303815f875af11580156108c1573d5f803e3d5ffd5b505050506040513d601f19601f820116820180604052508101906108e591906126dd565b505b60075460405163a9059cbb60e01b81526001600160a01b039182166004820152602481018390529087169063a9059cbb906044016020604051808303815f875af1158015610937573d5f803e3d5ffd5b505050506040513d601f19601f8201168201806040525081019061095b91906126dd565b50600754604080516001600160a01b039283168152918816602083015281018290527fd1c19fbcd4551a5edfb66d43d2e337c04837afda3482b42bdf569a8fccdae5fb9060600160405180910390a183156109c257600c805462ff00ff1916620100001790555b50600195945050505050565b6004545f906001600160a01b031633146109fa5760405162461bcd60e51b81526004016104fc9061266d565b5f5b600854811015610a5357610a3560088281548110610a1c57610a1c6126f8565b5f918252602090912001546001600160a01b03166114ee565b610a4157610a416126b2565b80610a4b81612720565b9150506109fc565b50600190505b90565b6001600160a01b038516331480610a785750610a78853361043b565b610a945760405162461bcd60e51b81526004016104fc90612738565b610aa185858585856115e4565b5050505050565b6004545f906001600160a01b03163314610ad45760405162461bcd60e51b81526004016104fc9061266d565b600c5462010000900460ff1615610b3d5760405162461bcd60e51b815260206004820152602760248201527f556e61626c6520746f20726561637469766174652077697468647261776e20706044820152663937b532b1ba1760c91b60648201526084016104fc565b600c805460ff191660011790556040517f1611757e154fd5430178688b28bebeab61bb8acec2b806091026e8b0fc3e7164905f90a150600190565b6006545f906001600160a01b03163314610ba45760405162461bcd60e51b81526004016104fc90612786565b610527826114ee565b60608151835114610c125760405162461bcd60e51b815260206004820152602960248201527f455243313135353a206163636f756e747320616e6420696473206c656e677468604482015268040dad2e6dac2e8c6d60bb1b60648201526084016104fc565b5f835167ffffffffffffffff811115610c2d57610c2d6121ce565b604051908082528060200260200182016040528015610c56578160200160208202803683370190505b5090505f5b8451811015610ccd57610ca0858281518110610c7957610c796126f8565b6020026020010151858381518110610c9357610c936126f8565b6020026020010151610496565b828281518110610cb257610cb26126f8565b6020908102919091010152610cc681612720565b9050610c5b565b509392505050565b6004545f906001600160a01b03163314610d015760405162461bcd60e51b81526004016104fc9061266d565b50600780546001600160a01b0383166001600160a01b03199091161790556001919050565b610d2e6117bc565b610d375f611816565b565b6060600880548060200260200160405190810160405280929190818152602001828054801561060257602002820191905f5260205f20905b81546001600160a01b03168152600190910190602001808311610d715750505050509050919050565b6006545f906001600160a01b03163314610dc65760405162461bcd60e51b81526004016104fc90612786565b610dce611867565b905090565b6006545f906001600160a01b03163314610dff5760405162461bcd60e51b81526004016104fc90612786565b610dce61190e565b5f600b54421015610e455760405162461bcd60e51b81526020600482015260086024820152672a37b79039b7b7b760c11b60448201526064016104fc565b6004546001600160a01b03163314610e6f5760405162461bcd60e51b81526004016104fc9061266d565b5f5b600854811015610a5357610f4460088281548110610e9157610e916126f8565b5f91825260209091200154600880546001600160a01b039092169184908110610ebc57610ebc6126f8565b5f918252602090912001546040516370a0823160e01b81523060048201526001600160a01b03909116906370a0823190602401602060405180830381865afa158015610f0a573d5f803e3d5ffd5b505050506040513d601f19601f82011682018060405250810190610f2e91906126c6565b600854610f3d906001906127c9565b841461060e565b610f5057610f506126b2565b80610f5a81612720565b915050610e71565b600c545f9060ff16610f865760405162461bcd60e51b81526004016104fc906127dc565b600880546001810182555f919091527ff3f7a9fe364faab93b216da50a3214154f22a0a2b415b23a84c8169e8b636ee30180546001600160a01b0319166001600160a01b0384169081179091556040519081527fec38796d17f4fa8c88de20f9fb9da605573fdcb1dd79c6d39683df6d64175e5f9060200160405180910390a1506001919050565b600c545f9060ff166110325760405162461bcd60e51b81526004016104fc906127dc565b6005546001600160a01b031633146110a35760405162461bcd60e51b815260206004820152602e60248201527f4f6e6c7920636f6e747269627574696f6e20726f757465722063616e2072756e60448201526d103a3434b990333ab731ba34b7b760911b60648201526084016104fc565b5f836001600160a01b031690506110ca85828560405180602001604052805f8152506119b9565b5f81815260096020526040812080548592906110e7908490612826565b9091555050604080516001600160a01b038088168252861660208201529081018490527f188177a91f9b084dadc3c86215ff29aa75ddaf05ed75983c8c498c40989d58c99060600160405180910390a1506001949350505050565b61114d338383611ac8565b5050565b6004545f906001600160a01b0316331461117d5760405162461bcd60e51b81526004016104fc9061266d565b600c805460ff191690556040517fa45acec63f6ac615004262a66fb13bfbc1eb0d6428dcced53efa9500185dc4a5905f90a150600190565b6001600160a01b0381165f908152600a60205260408120546112195760405162461bcd60e51b815260206004820152601760248201527f4e6f2066756e647320746f20626520726566756e64656400000000000000000060448201526064016104fc565b6001600160a01b0382165f61122e3383610496565b90505f811161127f5760405162461bcd60e51b815260206004820152601e60248201527f4e6f20726566756e6473206f77656420746f206d73672073656e6465722e000060448201526064016104fc565b5f828152600960205260408082205490516370a0823160e01b81523060048201526001600160a01b038716906370a0823190602401602060405180830381865afa1580156112cf573d5f803e3d5ffd5b505050506040513d601f19601f820116820180604052508101906112f391906126c6565b6112fd9084612839565b6113079190612850565b60405163a9059cbb60e01b8152336004820152602481018290529091506001600160a01b0386169063a9059cbb906044016020604051808303815f875af1158015611354573d5f803e3d5ffd5b505050506040513d601f19601f8201168201806040525081019061137891906126dd565b50611384338484611ba7565b604080513381526001600160a01b03871660208201529081018290527fec1e5ed733e00f1a00915d56caef57b4f52312dde4f9b3165f213319a0da156b9060600160405180910390a1506001949350505050565b6004545f906001600160a01b03163314610dff5760405162461bcd60e51b81526004016104fc9061266d565b6001600160a01b0385163314806114205750611420853361043b565b61143c5760405162461bcd60e51b81526004016104fc90612738565b610aa18585858585611d1e565b6114516117bc565b6001600160a01b0381166114b65760405162461bcd60e51b815260206004820152602660248201527f4f776e61626c653a206e6577206f776e657220697320746865207a65726f206160448201526564647265737360d01b60648201526084016104fc565b6114bf81611816565b50565b6004545f906001600160a01b03163314610dc65760405162461bcd60e51b81526004016104fc9061266d565b600c545f9062010000900460ff161561155c5760405162461bcd60e51b815260206004820152602a60248201527f4e6f2066756e647320746f20726566756e6420666f722077697468647261776e60448201526910383937b532b1ba399760b11b60648201526084016104fc565b6040516370a0823160e01b81523060048201526001600160a01b038316906370a0823190602401602060405180830381865afa15801561159e573d5f803e3d5ffd5b505050506040513d601f19601f820116820180604052508101906115c291906126c6565b6001600160a01b039092165f908152600a602052604090209190915550600190565b81518351146116465760405162461bcd60e51b815260206004820152602860248201527f455243313135353a2069647320616e6420616d6f756e7473206c656e677468206044820152670dad2e6dac2e8c6d60c31b60648201526084016104fc565b6001600160a01b03841661166c5760405162461bcd60e51b81526004016104fc9061286f565b335f5b845181101561174e575f85828151811061168b5761168b6126f8565b602002602001015190505f8583815181106116a8576116a86126f8565b6020908102919091018101515f84815280835260408082206001600160a01b038e1683529093529190912054909150818110156116f75760405162461bcd60e51b81526004016104fc906128b4565b5f838152602081815260408083206001600160a01b038e8116855292528083208585039055908b16825281208054849290611733908490612826565b925050819055505050508061174790612720565b905061166f565b50846001600160a01b0316866001600160a01b0316826001600160a01b03167f4a39dc06d4c0dbc64b70af90fd698a233a518aa5d07e595d983b8c0526c8f7fb878760405161179e9291906128fe565b60405180910390a46117b4818787878787611e44565b505050505050565b6003546001600160a01b03163314610d375760405162461bcd60e51b815260206004820181905260248201527f4f776e61626c653a2063616c6c6572206973206e6f7420746865206f776e657260448201526064016104fc565b600380546001600160a01b038381166001600160a01b0319831681179093556040519116919082907f8be0079c531659141344cd1fd0a4f28419497f9722a3daafe3b4186f6b6457e0905f90a35050565b600c805461ff0019169055604080516301e5bc7f60e51b815290515f913091633cb78fe091600480820192602092909190829003018187875af11580156118b0573d5f803e3d5ffd5b505050506040513d601f19601f820116820180604052508101906118d491906126dd565b6118e0576118e06126b2565b6040517f156d027f9d371e1464249dbd8daacdce9fa6f2a0d9fda528482a22c1583b0ea6905f90a150600190565b600c805461ff00191661010017905560408051632efff41360e21b815290515f91309163bbffd04c91600480820192602092909190829003018187875af115801561195b573d5f803e3d5ffd5b505050506040513d601f19601f8201168201806040525081019061197f91906126dd565b61198b5761198b6126b2565b6040517fa5baf151492801d3b7a89ece73c1ed0b6dde992d47a0e283ff7d352bba70e0f5905f90a150600190565b6001600160a01b038416611a195760405162461bcd60e51b815260206004820152602160248201527f455243313135353a206d696e7420746f20746865207a65726f206164647265736044820152607360f81b60648201526084016104fc565b335f611a2485611f9e565b90505f611a3085611f9e565b90505f868152602081815260408083206001600160a01b038b16845290915281208054879290611a61908490612826565b909155505060408051878152602081018790526001600160a01b03808a16925f92918716917fc3d58168c5ae7397731d063d5bbf3d657854427343f4c083240f7aacaa2d0f62910160405180910390a4611abf835f89898989611fe7565b50505050505050565b816001600160a01b0316836001600160a01b031603611b3b5760405162461bcd60e51b815260206004820152602960248201527f455243313135353a2073657474696e6720617070726f76616c20737461747573604482015268103337b91039b2b63360b91b60648201526084016104fc565b6001600160a01b038381165f81815260016020908152604080832094871680845294825291829020805460ff191686151590811790915591519182527f17307eab39ab6107e8899845ad3d59bd9653f200f220920489ca2b5937696c31910160405180910390a3505050565b6001600160a01b038316611c095760405162461bcd60e51b815260206004820152602360248201527f455243313135353a206275726e2066726f6d20746865207a65726f206164647260448201526265737360e81b60648201526084016104fc565b335f611c1484611f9e565b90505f611c2084611f9e565b60408051602080820183525f918290528882528181528282206001600160a01b038b1683529052205490915084811015611ca85760405162461bcd60e51b8152602060048201526024808201527f455243313135353a206275726e20616d6f756e7420657863656564732062616c604482015263616e636560e01b60648201526084016104fc565b5f868152602081815260408083206001600160a01b038b81168086529184528285208a8703905582518b81529384018a90529092908816917fc3d58168c5ae7397731d063d5bbf3d657854427343f4c083240f7aacaa2d0f62910160405180910390a460408051602081019091525f9052611abf565b6001600160a01b038416611d445760405162461bcd60e51b81526004016104fc9061286f565b335f611d4f85611f9e565b90505f611d5b85611f9e565b90505f868152602081815260408083206001600160a01b038c16845290915290205485811015611d9d5760405162461bcd60e51b81526004016104fc906128b4565b5f878152602081815260408083206001600160a01b038d8116855292528083208985039055908a16825281208054889290611dd9908490612826565b909155505060408051888152602081018890526001600160a01b03808b16928c821692918816917fc3d58168c5ae7397731d063d5bbf3d657854427343f4c083240f7aacaa2d0f62910160405180910390a4611e39848a8a8a8a8a611fe7565b505050505050505050565b6001600160a01b0384163b156117b45760405163bc197c8160e01b81526001600160a01b0385169063bc197c8190611e88908990899088908890889060040161292b565b6020604051808303815f875af1925050508015611ec2575060408051601f3d908101601f19168201909252611ebf91810190612988565b60015b611f6e57611ece6129a3565b806308c379a003611f075750611ee26129bb565b80611eed5750611f09565b8060405162461bcd60e51b81526004016104fc9190612170565b505b60405162461bcd60e51b815260206004820152603460248201527f455243313135353a207472616e7366657220746f206e6f6e2d455243313135356044820152732932b1b2b4bb32b91034b6b83632b6b2b73a32b960611b60648201526084016104fc565b6001600160e01b0319811663bc197c8160e01b14611abf5760405162461bcd60e51b81526004016104fc90612a44565b6040805160018082528183019092526060915f91906020808301908036833701905050905082815f81518110611fd657611fd66126f8565b602090810291909101015292915050565b6001600160a01b0384163b156117b45760405163f23a6e6160e01b81526001600160a01b0385169063f23a6e619061202b9089908990889088908890600401612a8c565b6020604051808303815f875af1925050508015612065575060408051601f3d908101601f1916820190925261206291810190612988565b60015b61207157611ece6129a3565b6001600160e01b0319811663f23a6e6160e01b14611abf5760405162461bcd60e51b81526004016104fc90612a44565b6001600160a01b03811681146114bf575f80fd5b5f80604083850312156120c6575f80fd5b82356120d1816120a1565b946020939093013593505050565b6001600160e01b0319811681146114bf575f80fd5b5f60208284031215612104575f80fd5b813561210f816120df565b9392505050565b5f60208284031215612126575f80fd5b5035919050565b5f81518084525f5b8181101561215157602081850181015186830182015201612135565b505f602082860101526020601f19601f83011685010191505092915050565b602081525f61210f602083018461212d565b80151581146114bf575f80fd5b5f805f606084860312156121a1575f80fd5b83356121ac816120a1565b92506020840135915060408401356121c381612182565b809150509250925092565b634e487b7160e01b5f52604160045260245ffd5b601f8201601f1916810167ffffffffffffffff81118282101715612208576122086121ce565b6040525050565b5f67ffffffffffffffff821115612228576122286121ce565b5060051b60200190565b5f82601f830112612241575f80fd5b8135602061224e8261220f565b60405161225b82826121e2565b83815260059390931b850182019282810191508684111561227a575f80fd5b8286015b84811015612295578035835291830191830161227e565b509695505050505050565b5f82601f8301126122af575f80fd5b813567ffffffffffffffff8111156122c9576122c96121ce565b6040516122e0601f8301601f1916602001826121e2565b8181528460208386010111156122f4575f80fd5b816020850160208301375f918101602001919091529392505050565b5f805f805f60a08688031215612324575f80fd5b853561232f816120a1565b9450602086013561233f816120a1565b9350604086013567ffffffffffffffff8082111561235b575f80fd5b61236789838a01612232565b9450606088013591508082111561237c575f80fd5b61238889838a01612232565b9350608088013591508082111561239d575f80fd5b506123aa888289016122a0565b9150509295509295909350565b5f602082840312156123c7575f80fd5b813561210f816120a1565b5f80604083850312156123e3575f80fd5b823567ffffffffffffffff808211156123fa575f80fd5b818501915085601f83011261240d575f80fd5b8135602061241a8261220f565b60405161242782826121e2565b83815260059390931b8501820192828101915089841115612446575f80fd5b948201945b8386101561246d57853561245e816120a1565b8252948201949082019061244b565b96505086013592505080821115612482575f80fd5b5061248f85828601612232565b9150509250929050565b5f8151808452602080850194508084015f5b838110156124c7578151875295820195908201906001016124ab565b509495945050505050565b602081525f61210f6020830184612499565b602080825282518282018190525f9190848201906040850190845b818110156125245783516001600160a01b0316835292840192918401916001016124ff565b50909695505050505050565b5f805f60608486031215612542575f80fd5b833561254d816120a1565b9250602084013561255d816120a1565b929592945050506040919091013590565b5f806040838503121561257f575f80fd5b823561258a816120a1565b9150602083013561259a81612182565b809150509250929050565b5f80604083850312156125b6575f80fd5b82356125c1816120a1565b9150602083013561259a816120a1565b5f805f805f60a086880312156125e5575f80fd5b85356125f0816120a1565b94506020860135612600816120a1565b93506040860135925060608601359150608086013567ffffffffffffffff811115612629575f80fd5b6123aa888289016122a0565b600181811c9082168061264957607f821691505b60208210810361266757634e487b7160e01b5f52602260045260245ffd5b50919050565b60208082526025908201527f4f6e6c7920636f6e74726f6c6c65722063616e2072756e20746869732066756e60408201526431ba34b7b760d91b606082015260800190565b634e487b7160e01b5f52600160045260245ffd5b5f602082840312156126d6575f80fd5b5051919050565b5f602082840312156126ed575f80fd5b815161210f81612182565b634e487b7160e01b5f52603260045260245ffd5b634e487b7160e01b5f52601160045260245ffd5b5f600182016127315761273161270c565b5060010190565b6020808252602e908201527f455243313135353a2063616c6c6572206973206e6f7420746f6b656e206f776e60408201526d195c881bdc88185c1c1c9bdd995960921b606082015260800190565b60208082526023908201527f4f6e6c79206f766572736565722063616e2072756e20746869732066756e637460408201526234b7b760e91b606082015260800190565b818103818111156105275761052761270c565b6020808252602a908201527f4f6e6c79206163746976652070726f6a6563742063616e2072756e207468697360408201526910333ab731ba34b7b71760b11b606082015260800190565b808201808211156105275761052761270c565b80820281158282048414176105275761052761270c565b5f8261286a57634e487b7160e01b5f52601260045260245ffd5b500490565b60208082526025908201527f455243313135353a207472616e7366657220746f20746865207a65726f206164604082015264647265737360d81b606082015260800190565b6020808252602a908201527f455243313135353a20696e73756666696369656e742062616c616e636520666f60408201526939103a3930b739b332b960b11b606082015260800190565b604081525f6129106040830185612499565b82810360208401526129228185612499565b95945050505050565b6001600160a01b0386811682528516602082015260a0604082018190525f9061295690830186612499565b82810360608401526129688186612499565b9050828103608084015261297c818561212d565b98975050505050505050565b5f60208284031215612998575f80fd5b815161210f816120df565b5f60033d1115610a595760045f803e505f5160e01c90565b5f60443d10156129c85790565b6040516003193d81016004833e81513d67ffffffffffffffff81602484011181841117156129f857505050505090565b8285019150815181811115612a105750505050505090565b843d8701016020828501011115612a2a5750505050505090565b612a39602082860101876121e2565b509095945050505050565b60208082526028908201527f455243313135353a204552433131353552656365697665722072656a656374656040820152676420746f6b656e7360c01b606082015260800190565b6001600160a01b03868116825285166020820152604081018490526060810183905260a0608082018190525f90612ac59083018461212d565b97965050505050505056fea2646970667358221220ba71b134d053604b0e1227d0b3f61c84444890e5b04deae92d19437f61e8756464736f6c6343000814003360806040526078600e55348015610014575f80fd5b50604051611a61380380611a6183398101604081905261003391610057565b5f80546001600160a01b0319166001600160a01b0392909216919091179055610084565b5f60208284031215610067575f80fd5b81516001600160a01b038116811461007d575f80fd5b9392505050565b6119d0806100915f395ff3fe608060405234801561000f575f80fd5b50600436106100e5575f3560e01c8063bc197c8111610088578063d04e62d111610063578063d04e62d114610211578063d186c21714610224578063f23a6e6114610237578063fe0d94c114610256575f80fd5b8063bc197c8114610190578063c9d27afe146101c8578063cb05683a146101db575f80fd5b80635d250f96116100c35780635d250f96146101445780636dbaf9ee146101575780637ac924561461016a5780639b5b9b181461017d575f80fd5b806301ffc9a7146100e957806335f23e271461011157806341ad7e1d14610124575b5f80fd5b6100fc6100f7366004611432565b610269565b60405190151581526020015b60405180910390f35b6100fc61011f366004611487565b61029f565b6101376101323660046114d1565b61054d565b60405161010891906114fe565b6100fc610152366004611524565b6105ab565b6100fc61016536600461154e565b6107aa565b6100fc610178366004611524565b610843565b6100fc61018b366004611524565b610a38565b6101af61019e366004611697565b63bc197c8160e01b95945050505050565b6040516001600160e01b03199091168152602001610108565b6100fc6101d636600461174b565b610b8a565b6102036101e936600461154e565b6001600160a01b03165f908152600f602052604090205490565b604051908152602001610108565b6100fc61021f36600461154e565b610df9565b6100fc610232366004611524565b610ee4565b6101af610245366004611779565b63f23a6e6160e01b95945050505050565b6100fc6102643660046117dd565b610f82565b5f6001600160e01b03198216630271189760e51b148061029957506301ffc9a760e01b6001600160e01b03198316145b92915050565b5f805f9054906101000a90046001600160a01b03166001600160a01b031663348917ca6040518163ffffffff1660e01b8152600401602060405180830381865afa1580156102ef573d5f803e3d5ffd5b505050506040513d601f19601f8201168201806040525081019061031391906117f4565b156103395760405162461bcd60e51b81526004016103309061180f565b60405180910390fd5b5f6103438661054d565b6003811115610354576103546114ea565b146103ad5760198360ff1610156103ad5760405162461bcd60e51b815260206004820152601e60248201527f51756f72756d2073686f756c64206265206174206c65617374203235252e00006044820152606401610330565b60648360ff1611156104015760405162461bcd60e51b815260206004820152601960248201527f51756f72756d2077696c6c206e65766572206265206d65742e000000000000006044820152606401610330565b600a5461040e9042611867565b82116104775760405162461bcd60e51b815260206004820152603260248201527f446561646c696e65206d75737420626520616674657220766f7465506572696f6044820152713226b4b734b6bab690333937b6903737bb9760711b6064820152608401610330565b600180546004805492830181555f527f8a35acfbc15ff81a39ae7d344fd709f28e8600b4aa8c65c6b64bfe7fe36bd19b909101556104b48561054d565b600180545f9081526008602052604090208054909160ff19909116908360038111156104e2576104e26114ea565b0217905550600180545f90815260056020908152604080832080546001600160a01b0319166001600160a01b038a16179055835483526006825280832086905583548352600990915281204290558154919061053d8361187a565b9091555060019695505050505050565b5f60048260ff16106105965760405162461bcd60e51b8152602060048201526012602482015271496e646578206f7574206f662072616e676560701b6044820152606401610330565b8160ff166003811115610299576102996114ea565b5f805f9054906101000a90046001600160a01b03166001600160a01b031663348917ca6040518163ffffffff1660e01b8152600401602060405180830381865afa1580156105fb573d5f803e3d5ffd5b505050506040513d601f19601f8201168201806040525081019061061f91906117f4565b1561063c5760405162461bcd60e51b81526004016103309061180f565b5f8054906101000a90046001600160a01b03166001600160a01b031663e6d685956040518163ffffffff1660e01b8152600401602060405180830381865afa15801561068a573d5f803e3d5ffd5b505050506040513d601f19601f820116820180604052508101906106ae9190611892565b6001600160a01b0316336001600160a01b0316146107035760405162461bcd60e51b815260206004820152601260248201527170726f6a656374206f776e6572206f6e6c7960701b6044820152606401610330565b60125460ff16156107565760405162461bcd60e51b815260206004820152601960248201527f50726f706f73616c20616c726561647920696e20706c616365000000000000006044820152606401610330565b6001600160a01b0383165f908152600f602052604081208390556012805460ff19166001179055600e54600a5461079592918691839161011f91611867565b6107a1576107a16118ad565b50600192915050565b5f80546001600160a01b031633146107fe5760405162461bcd60e51b815260206004820152601760248201527663616c6c656420627920636f6e7472616374206f6e6c7960481b6044820152606401610330565b6001600160a01b0382165f908152600f602090815260408083208390556010825280832083905560119091528120556012805460ff191690556001610299565b919050565b5f805f9054906101000a90046001600160a01b03166001600160a01b031663348917ca6040518163ffffffff1660e01b8152600401602060405180830381865afa158015610893573d5f803e3d5ffd5b505050506040513d601f19601f820116820180604052508101906108b791906117f4565b156108d45760405162461bcd60e51b81526004016103309061180f565b5f546001600160a01b031633146109275760405162461bcd60e51b815260206004820152601760248201527663616c6c656420627920636f6e7472616374206f6e6c7960481b6044820152606401610330565b60125460ff166109495760405162461bcd60e51b8152600401610330906118c1565b6001600160a01b0383165f90815260106020908152604080832054600f90925282205473__$1fcfe7ddd81b6f7ea106a2bbe0e5e67adc$__91637ae2b5c791869161099391611903565b6040516001600160e01b031960e085901b16815260048101929092526024820152604401602060405180830381865af41580156109d2573d5f803e3d5ffd5b505050506040513d601f19601f820116820180604052508101906109f69190611916565b6001600160a01b0385165f908152601160209081526040808320849055600f90915281205491925003610a2e576012805460ff191690555b5060019392505050565b5f8054604051627eeac760e11b81523360048201526001600160a01b03808616602483018190528693909285929091169062fdd58e90604401602060405180830381865afa158015610a8c573d5f803e3d5ffd5b505050506040513d601f19601f82011682018060405250810190610ab09190611916565b11610aeb5760405162461bcd60e51b815260206004820152600b60248201526a486f6c646572206f6e6c7960a81b6044820152606401610330565b5f54604051637921219560e11b81526001600160a01b0380881692169063f242432a90610b22903390309086908b9060040161192d565b5f604051808303815f87803b158015610b39575f80fd5b505af1158015610b4b573d5f803e3d5ffd5b5050335f90815260026020908152604080832086845290915281208054899450909250610b79908490611867565b909155506001979650505050505050565b5f805f9054906101000a90046001600160a01b03166001600160a01b031663348917ca6040518163ffffffff1660e01b8152600401602060405180830381865afa158015610bda573d5f803e3d5ffd5b505050506040513d601f19601f82011682018060405250810190610bfe91906117f4565b15610c1b5760405162461bcd60e51b81526004016103309061180f565b6001545f90815260056020908152604080832054338452600283528184206001600160a01b0390911680855292528220549091819003610c8b5760405162461bcd60e51b815260206004820152600b60248201526a2b37ba32b91037b7363c9760a91b6044820152606401610330565b5f858152600c6020908152604080832033845290915290205460ff1615610ce95760405162461bcd60e51b815260206004820152601260248201527120b2323932b9b9903430b2103b37ba32b21760711b6044820152606401610330565b5f85815260066020526040902054421115610d465760405162461bcd60e51b815260206004820152601960248201527f566f74696e6720646561646c696e652068617320706173742e000000000000006044820152606401610330565b335f908152600360209081526040808320858452825280832054888452600690925290912054811015610d99575f8681526006602090815260408083205433845260038352818420878552909252909120555b5f868152600b60209081526040808320881515845290915281208054849290610dc3908490611867565b9091555050505f858152600c602090815260408083203384529091529020805460ff191660019081179091559250505092915050565b5f805f9054906101000a90046001600160a01b03166001600160a01b031663e6d685956040518163ffffffff1660e01b8152600401602060405180830381865afa158015610e49573d5f803e3d5ffd5b505050506040513d601f19601f82011682018060405250810190610e6d9190611892565b6001600160a01b0316336001600160a01b031614610ec25760405162461bcd60e51b815260206004820152601260248201527170726f6a656374206f776e6572206f6e6c7960701b6044820152606401610330565b60125460ff166107fe5760405162461bcd60e51b8152600401610330906118c1565b5f8054604051637921219560e11b81526001600160a01b0380861692169063f242432a90610f1c90309033908690899060040161192d565b5f604051808303815f87803b158015610f33575f80fd5b505af1158015610f45573d5f803e3d5ffd5b5050335f90815260026020908152604080832086845290915281208054879450909250610f73908490611903565b90915550600195945050505050565b5f805f9054906101000a90046001600160a01b03166001600160a01b031663348917ca6040518163ffffffff1660e01b8152600401602060405180830381865afa158015610fd2573d5f803e3d5ffd5b505050506040513d601f19601f82011682018060405250810190610ff691906117f4565b156110135760405162461bcd60e51b81526004016103309061180f565b5f8281526008602052604081205460ff166003811115611035576110356114ea565b0361108e5760405162461bcd60e51b8152602060048201526024808201527f4f626a656374696f6e2070726f706f73616c206973206e6f742065786563757460448201526361626c6560e01b6064820152608401610330565b5f828152600660205260409020544210156110eb5760405162461bcd60e51b815260206004820152601c60248201527f566f74696e6720646561646c696e65206861736e277420706173742e000000006044820152606401610330565b5f828152600b6020908152604080832083805290915280822054600183529120541161114c5760405162461bcd60e51b815260206004820152601060248201526f13585a9bdc9a5d1e481b9bdd081b595d60821b6044820152606401610330565b5f82815260056020526040808220548254915163aa771d3960e01b81526001600160a01b03918216600482018190529392919091169063aa771d3990602401602060405180830381865afa1580156111a6573d5f803e3d5ffd5b505050506040513d601f19601f820116820180604052508101906111ca9190611916565b5f858152600d60205260409020549091506064906111eb9060ff1683611964565b6111f5919061197b565b5f858152600b60209081526040808320600184529091529020541161124d5760405162461bcd60e51b815260206004820152600e60248201526d145d5bdc9d5b481b9bdd081b595d60921b6044820152606401610330565b60015f8581526008602052604090205460ff166003811115611271576112716114ea565b036112fa575f8054906101000a90046001600160a01b03166001600160a01b03166384dac7026040518163ffffffff1660e01b81526004016020604051808303815f875af11580156112c5573d5f803e3d5ffd5b505050506040513d601f19601f820116820180604052508101906112e991906117f4565b6112f5576112f56118ad565b610a2e565b60025f8581526008602052604090205460ff16600381111561131e5761131e6114ea565b03611372575f8054906101000a90046001600160a01b03166001600160a01b0316637f1660a16040518163ffffffff1660e01b81526004016020604051808303815f875af11580156112c5573d5f803e3d5ffd5b60035f8581526008602052604090205460ff166003811115611396576113966114ea565b036113f1575f805485825260056020526040918290205491516303cdfe2160e41b81526001600160a01b039283166004820152911690633cdfe210906024016020604051808303815f875af11580156112c5573d5f803e3d5ffd5b60405162461bcd60e51b81526020600482015260166024820152754572726f7220696e2070726f706f73616c207479706560501b6044820152606401610330565b5f60208284031215611442575f80fd5b81356001600160e01b031981168114611459575f80fd5b9392505050565b803560ff8116811461083e575f80fd5b6001600160a01b0381168114611484575f80fd5b50565b5f805f806080858703121561149a575f80fd5b6114a385611460565b935060208501356114b381611470565b92506114c160408601611460565b9396929550929360600135925050565b5f602082840312156114e1575f80fd5b61145982611460565b634e487b7160e01b5f52602160045260245ffd5b602081016004831061151e57634e487b7160e01b5f52602160045260245ffd5b91905290565b5f8060408385031215611535575f80fd5b823561154081611470565b946020939093013593505050565b5f6020828403121561155e575f80fd5b813561145981611470565b634e487b7160e01b5f52604160045260245ffd5b604051601f8201601f1916810167ffffffffffffffff811182821017156115a6576115a6611569565b604052919050565b5f82601f8301126115bd575f80fd5b8135602067ffffffffffffffff8211156115d9576115d9611569565b8160051b6115e882820161157d565b9283528481018201928281019087851115611601575f80fd5b83870192505b8483101561162057823582529183019190830190611607565b979650505050505050565b5f82601f83011261163a575f80fd5b813567ffffffffffffffff81111561165457611654611569565b611667601f8201601f191660200161157d565b81815284602083860101111561167b575f80fd5b816020850160208301375f918101602001919091529392505050565b5f805f805f60a086880312156116ab575f80fd5b85356116b681611470565b945060208601356116c681611470565b9350604086013567ffffffffffffffff808211156116e2575f80fd5b6116ee89838a016115ae565b94506060880135915080821115611703575f80fd5b61170f89838a016115ae565b93506080880135915080821115611724575f80fd5b506117318882890161162b565b9150509295509295909350565b8015158114611484575f80fd5b5f806040838503121561175c575f80fd5b82359150602083013561176e8161173e565b809150509250929050565b5f805f805f60a0868803121561178d575f80fd5b853561179881611470565b945060208601356117a881611470565b93506040860135925060608601359150608086013567ffffffffffffffff8111156117d1575f80fd5b6117318882890161162b565b5f602082840312156117ed575f80fd5b5035919050565b5f60208284031215611804575f80fd5b81516114598161173e565b60208082526024908201527f57697468647261776e2070726f6a6563742063616e6e6f7420626520616374696040820152631bdb995960e21b606082015260800190565b634e487b7160e01b5f52601160045260245ffd5b8082018082111561029957610299611853565b5f6001820161188b5761188b611853565b5060010190565b5f602082840312156118a2575f80fd5b815161145981611470565b634e487b7160e01b5f52600160045260245ffd5b60208082526022908201527f4e6f2070726f706f73616c206f7220616c6c6f77616e63652065786861757374604082015261195960f21b606082015260800190565b8181038181111561029957610299611853565b5f60208284031215611926575f80fd5b5051919050565b6001600160a01b0394851681529290931660208301526040820152606081019190915260a0608082018190525f9082015260c00190565b808202811582820484141761029957610299611853565b5f8261199557634e487b7160e01b5f52601260045260245ffd5b50049056fea2646970667358221220bcbff569ad6089a75880f3b24bc74b94b3f50e515233b4d6887cc2861e03d61164736f6c63430008140033a264697066735822122082b582750596c881f2fe863ebd516dfcf8caa16ef9088bbeac26407c28089fc964736f6c63430008140033a26469706673582212205981b4c1858602952ed4fa442e5bfebe56362e3ebb378289bcd7224cd246ba5c64736f6c63430008140033",
			"opcodes": "PUSH1 0x80 PUSH1 0x40 MSTORE CALLVALUE DUP1 ISZERO PUSH2 0xF JUMPI PUSH0 DUP1 REVERT JUMPDEST POP PUSH2 0x5202 DUP1 PUSH2 0x1D PUSH0 CODECOPY PUSH0 RETURN INVALID PUSH1 0x80 PUSH1 0x40 MSTORE CALLVALUE DUP1 ISZERO PUSH2 0xF JUMPI PUSH0 DUP1 REVERT JUMPDEST POP PUSH1 0x4 CALLDATASIZE LT PUSH2 0x4A JUMPI PUSH0 CALLDATALOAD PUSH1 0xE0 SHR DUP1 PUSH4 0x3186505D EQ PUSH2 0x4E JUMPI DUP1 PUSH4 0x7FEA0D4B EQ PUSH2 0x58 JUMPI DUP1 PUSH4 0xC45A0155 EQ PUSH2 0x60 JUMPI DUP1 PUSH4 0xE5A6B10F EQ PUSH2 0x8E JUMPI JUMPDEST PUSH0 DUP1 REVERT JUMPDEST PUSH2 0x56 PUSH2 0xA1 JUMP JUMPDEST STOP JUMPDEST PUSH2 0x56 PUSH2 0x309 JUMP JUMPDEST PUSH0 SLOAD PUSH2 0x72 SWAP1 PUSH1 0x1 PUSH1 0x1 PUSH1 0xA0 SHL SUB AND DUP2 JUMP JUMPDEST PUSH1 0x40 MLOAD PUSH1 0x1 PUSH1 0x1 PUSH1 0xA0 SHL SUB SWAP1 SWAP2 AND DUP2 MSTORE PUSH1 0x20 ADD PUSH1 0x40 MLOAD DUP1 SWAP2 SUB SWAP1 RETURN JUMPDEST PUSH1 0x1 SLOAD PUSH2 0x72 SWAP1 PUSH1 0x1 PUSH1 0x1 PUSH1 0xA0 SHL SUB AND DUP2 JUMP JUMPDEST PUSH20 0xD7ACD2A9FD159E69BB102A1CA21C9A3E3A5F771B PUSH20 0x7EF2E0048F5BAEDE046F6BF797943DAF4ED8CB47 PUSH1 0x1 DUP1 PUSH0 PUSH2 0xDC TIMESTAMP PUSH3 0x15180 PUSH2 0x383 JUMP JUMPDEST PUSH0 DUP1 SLOAD PUSH1 0x1 SLOAD PUSH1 0x40 MLOAD PUSH4 0xD9BD7C91 PUSH1 0xE0 SHL DUP2 MSTORE PUSH1 0x1 PUSH1 0x1 PUSH1 0xA0 SHL SUB SWAP2 DUP3 AND PUSH1 0x4 DUP3 ADD MSTORE DUP10 DUP3 AND PUSH1 0x24 DUP3 ADD MSTORE DUP9 DUP3 AND PUSH1 0x44 DUP3 ADD MSTORE DUP8 ISZERO ISZERO PUSH1 0x64 DUP3 ADD MSTORE DUP7 ISZERO ISZERO PUSH1 0x84 DUP3 ADD MSTORE PUSH1 0xA4 DUP2 ADD DUP6 SWAP1 MSTORE SWAP4 SWAP5 POP SWAP2 SWAP3 SWAP2 AND SWAP1 PUSH4 0xD9BD7C91 SWAP1 PUSH1 0xC4 ADD PUSH1 0x20 PUSH1 0x40 MLOAD DUP1 DUP4 SUB DUP2 PUSH0 DUP8 GAS CALL ISZERO DUP1 ISZERO PUSH2 0x153 JUMPI RETURNDATASIZE PUSH0 DUP1 RETURNDATACOPY RETURNDATASIZE PUSH0 REVERT JUMPDEST POP POP POP POP PUSH1 0x40 MLOAD RETURNDATASIZE PUSH1 0x1F NOT PUSH1 0x1F DUP3 ADD AND DUP3 ADD DUP1 PUSH1 0x40 MSTORE POP DUP2 ADD SWAP1 PUSH2 0x177 SWAP2 SWAP1 PUSH2 0x3A8 JUMP JUMPDEST PUSH1 0x40 DUP1 MLOAD PUSH4 0x39DF137F PUSH1 0xE0 SHL DUP2 MSTORE DUP3 ISZERO ISZERO PUSH1 0x4 DUP3 ADD MSTORE PUSH1 0x24 DUP2 ADD SWAP2 SWAP1 SWAP2 MSTORE PUSH0 PUSH1 0x44 DUP3 ADD MSTORE SWAP1 SWAP2 POP PUSH20 0x0 SWAP1 PUSH4 0x39DF137F SWAP1 PUSH1 0x64 ADD PUSH1 0x20 PUSH1 0x40 MLOAD DUP1 DUP4 SUB DUP2 DUP7 GAS DELEGATECALL ISZERO DUP1 ISZERO PUSH2 0x1D8 JUMPI RETURNDATASIZE PUSH0 DUP1 RETURNDATACOPY RETURNDATASIZE PUSH0 REVERT JUMPDEST POP POP POP POP PUSH1 0x40 MLOAD RETURNDATASIZE PUSH1 0x1F NOT PUSH1 0x1F DUP3 ADD AND DUP3 ADD DUP1 PUSH1 0x40 MSTORE POP DUP2 ADD SWAP1 PUSH2 0x1FC SWAP2 SWAP1 PUSH2 0x3A8 JUMP JUMPDEST POP PUSH0 DUP1 PUSH0 SWAP1 SLOAD SWAP1 PUSH2 0x100 EXP SWAP1 DIV PUSH1 0x1 PUSH1 0x1 PUSH1 0xA0 SHL SUB AND PUSH1 0x1 PUSH1 0x1 PUSH1 0xA0 SHL SUB AND PUSH4 0xDCC60128 PUSH1 0x40 MLOAD DUP2 PUSH4 0xFFFFFFFF AND PUSH1 0xE0 SHL DUP2 MSTORE PUSH1 0x4 ADD PUSH0 PUSH1 0x40 MLOAD DUP1 DUP4 SUB DUP2 DUP7 GAS STATICCALL ISZERO DUP1 ISZERO PUSH2 0x24C JUMPI RETURNDATASIZE PUSH0 DUP1 RETURNDATACOPY RETURNDATASIZE PUSH0 REVERT JUMPDEST POP POP POP POP PUSH1 0x40 MLOAD RETURNDATASIZE PUSH0 DUP3 RETURNDATACOPY PUSH1 0x1F RETURNDATASIZE SWAP1 DUP2 ADD PUSH1 0x1F NOT AND DUP3 ADD PUSH1 0x40 MSTORE PUSH2 0x273 SWAP2 SWAP1 DUP2 ADD SWAP1 PUSH2 0x3FD JUMP JUMPDEST DUP1 MLOAD PUSH1 0x40 MLOAD PUSH4 0x55E6BCB PUSH1 0xE5 SHL DUP2 MSTORE PUSH1 0x4 DUP2 ADD SWAP2 SWAP1 SWAP2 MSTORE PUSH1 0x1 PUSH1 0x24 DUP3 ADD MSTORE PUSH1 0x60 PUSH1 0x44 DUP3 ADD MSTORE PUSH0 PUSH1 0x64 DUP3 ADD MSTORE SWAP1 SWAP2 POP PUSH20 0x0 SWAP1 PUSH4 0xABCD7960 SWAP1 PUSH1 0x84 ADD PUSH1 0x20 PUSH1 0x40 MLOAD DUP1 DUP4 SUB DUP2 DUP7 GAS DELEGATECALL ISZERO DUP1 ISZERO PUSH2 0x2DB JUMPI RETURNDATASIZE PUSH0 DUP1 RETURNDATACOPY RETURNDATASIZE PUSH0 REVERT JUMPDEST POP POP POP POP PUSH1 0x40 MLOAD RETURNDATASIZE PUSH1 0x1F NOT PUSH1 0x1F DUP3 ADD AND DUP3 ADD DUP1 PUSH1 0x40 MSTORE POP DUP2 ADD SWAP1 PUSH2 0x2FF SWAP2 SWAP1 PUSH2 0x3A8 JUMP JUMPDEST POP POP POP POP POP POP POP POP JUMP JUMPDEST PUSH1 0x1 DUP1 SLOAD PUSH1 0x1 PUSH1 0x1 PUSH1 0xA0 SHL SUB NOT AND PUSH20 0xD9145CCE52D386F254917E481EB44E9943F39138 OR SWAP1 SSTORE PUSH1 0x40 MLOAD PUSH2 0x33B SWAP1 PUSH2 0x376 JUMP JUMPDEST PUSH1 0x40 MLOAD DUP1 SWAP2 SUB SWAP1 PUSH0 CREATE DUP1 ISZERO DUP1 ISZERO PUSH2 0x354 JUMPI RETURNDATASIZE PUSH0 DUP1 RETURNDATACOPY RETURNDATASIZE PUSH0 REVERT JUMPDEST POP PUSH0 DUP1 SLOAD PUSH1 0x1 PUSH1 0x1 PUSH1 0xA0 SHL SUB NOT AND PUSH1 0x1 PUSH1 0x1 PUSH1 0xA0 SHL SUB SWAP3 SWAP1 SWAP3 AND SWAP2 SWAP1 SWAP2 OR SWAP1 SSTORE JUMP JUMPDEST PUSH2 0x4D0F DUP1 PUSH2 0x4BE DUP4 CODECOPY ADD SWAP1 JUMP JUMPDEST DUP1 DUP3 ADD DUP1 DUP3 GT ISZERO PUSH2 0x3A2 JUMPI PUSH4 0x4E487B71 PUSH1 0xE0 SHL PUSH0 MSTORE PUSH1 0x11 PUSH1 0x4 MSTORE PUSH1 0x24 PUSH0 REVERT JUMPDEST SWAP3 SWAP2 POP POP JUMP JUMPDEST PUSH0 PUSH1 0x20 DUP3 DUP5 SUB SLT ISZERO PUSH2 0x3B8 JUMPI PUSH0 DUP1 REVERT JUMPDEST DUP2 MLOAD DUP1 ISZERO ISZERO DUP2 EQ PUSH2 0x3C7 JUMPI PUSH0 DUP1 REVERT JUMPDEST SWAP4 SWAP3 POP POP POP JUMP JUMPDEST PUSH4 0x4E487B71 PUSH1 0xE0 SHL PUSH0 MSTORE PUSH1 0x41 PUSH1 0x4 MSTORE PUSH1 0x24 PUSH0 REVERT JUMPDEST DUP1 MLOAD PUSH1 0x1 PUSH1 0x1 PUSH1 0xA0 SHL SUB DUP2 AND DUP2 EQ PUSH2 0x3F8 JUMPI PUSH0 DUP1 REVERT JUMPDEST SWAP2 SWAP1 POP JUMP JUMPDEST PUSH0 PUSH1 0x20 DUP1 DUP4 DUP6 SUB SLT ISZERO PUSH2 0x40E JUMPI PUSH0 DUP1 REVERT JUMPDEST DUP3 MLOAD PUSH8 0xFFFFFFFFFFFFFFFF DUP1 DUP3 GT ISZERO PUSH2 0x425 JUMPI PUSH0 DUP1 REVERT JUMPDEST DUP2 DUP6 ADD SWAP2 POP DUP6 PUSH1 0x1F DUP4 ADD SLT PUSH2 0x438 JUMPI PUSH0 DUP1 REVERT JUMPDEST DUP2 MLOAD DUP2 DUP2 GT ISZERO PUSH2 0x44A JUMPI PUSH2 0x44A PUSH2 0x3CE JUMP JUMPDEST DUP1 PUSH1 0x5 SHL PUSH1 0x40 MLOAD PUSH1 0x1F NOT PUSH1 0x3F DUP4 ADD AND DUP2 ADD DUP2 DUP2 LT DUP6 DUP3 GT OR ISZERO PUSH2 0x46F JUMPI PUSH2 0x46F PUSH2 0x3CE JUMP JUMPDEST PUSH1 0x40 MSTORE SWAP2 DUP3 MSTORE DUP5 DUP3 ADD SWAP3 POP DUP4 DUP2 ADD DUP6 ADD SWAP2 DUP9 DUP4 GT ISZERO PUSH2 0x48C JUMPI PUSH0 DUP1 REVERT JUMPDEST SWAP4 DUP6 ADD SWAP4 JUMPDEST DUP3 DUP6 LT ISZERO PUSH2 0x4B1 JUMPI PUSH2 0x4A2 DUP6 PUSH2 0x3E2 JUMP JUMPDEST DUP5 MSTORE SWAP4 DUP6 ADD SWAP4 SWAP3 DUP6 ADD SWAP3 PUSH2 0x491 JUMP JUMPDEST SWAP9 SWAP8 POP POP POP POP POP POP POP POP JUMP INVALID PUSH1 0x80 PUSH1 0x40 MSTORE CALLVALUE DUP1 ISZERO PUSH2 0xF JUMPI PUSH0 DUP1 REVERT JUMPDEST POP PUSH2 0x4CF2 DUP1 PUSH2 0x1D PUSH0 CODECOPY PUSH0 RETURN INVALID PUSH1 0x80 PUSH1 0x40 MSTORE CALLVALUE DUP1 ISZERO PUSH2 0xF JUMPI PUSH0 DUP1 REVERT JUMPDEST POP PUSH1 0x4 CALLDATASIZE LT PUSH2 0x34 JUMPI PUSH0 CALLDATALOAD PUSH1 0xE0 SHR DUP1 PUSH4 0xD9BD7C91 EQ PUSH2 0x38 JUMPI DUP1 PUSH4 0xDCC60128 EQ PUSH2 0x60 JUMPI JUMPDEST PUSH0 DUP1 REVERT JUMPDEST PUSH2 0x4B PUSH2 0x46 CALLDATASIZE PUSH1 0x4 PUSH2 0x1D5 JUMP JUMPDEST PUSH2 0x75 JUMP JUMPDEST PUSH1 0x40 MLOAD SWAP1 ISZERO ISZERO DUP2 MSTORE PUSH1 0x20 ADD JUMPDEST PUSH1 0x40 MLOAD DUP1 SWAP2 SUB SWAP1 RETURN JUMPDEST PUSH2 0x68 PUSH2 0x13E JUMP JUMPDEST PUSH1 0x40 MLOAD PUSH2 0x57 SWAP2 SWAP1 PUSH2 0x244 JUMP JUMPDEST PUSH0 DUP1 CALLER DUP9 DUP9 DUP9 DUP9 DUP9 DUP9 PUSH1 0x40 MLOAD PUSH2 0x8A SWAP1 PUSH2 0x19D JUMP JUMPDEST PUSH1 0x1 PUSH1 0x1 PUSH1 0xA0 SHL SUB SWAP8 DUP9 AND DUP2 MSTORE SWAP6 DUP8 AND PUSH1 0x20 DUP8 ADD MSTORE SWAP4 DUP7 AND PUSH1 0x40 DUP7 ADD MSTORE SWAP5 SWAP1 SWAP2 AND PUSH1 0x60 DUP5 ADD MSTORE ISZERO ISZERO PUSH1 0x80 DUP4 ADD MSTORE SWAP2 ISZERO ISZERO PUSH1 0xA0 DUP3 ADD MSTORE PUSH1 0xC0 DUP2 ADD SWAP2 SWAP1 SWAP2 MSTORE PUSH1 0xE0 ADD PUSH1 0x40 MLOAD DUP1 SWAP2 SUB SWAP1 PUSH0 CREATE DUP1 ISZERO DUP1 ISZERO PUSH2 0xE3 JUMPI RETURNDATASIZE PUSH0 DUP1 RETURNDATACOPY RETURNDATASIZE PUSH0 REVERT JUMPDEST POP PUSH0 DUP1 SLOAD PUSH1 0x1 DUP1 DUP3 ADD DUP4 SSTORE SWAP2 DUP1 MSTORE PUSH32 0x290DECD9548B62A8D60345A988386FC84BA6BC95484008F6362F93160EF3E563 ADD DUP1 SLOAD PUSH1 0x1 PUSH1 0x1 PUSH1 0xA0 SHL SUB NOT AND PUSH1 0x1 PUSH1 0x1 PUSH1 0xA0 SHL SUB SWAP4 SWAP1 SWAP4 AND SWAP3 SWAP1 SWAP3 OR SWAP1 SWAP2 SSTORE SWAP9 SWAP8 POP POP POP POP POP POP POP POP JUMP JUMPDEST PUSH1 0x60 PUSH0 DUP1 SLOAD DUP1 PUSH1 0x20 MUL PUSH1 0x20 ADD PUSH1 0x40 MLOAD SWAP1 DUP2 ADD PUSH1 0x40 MSTORE DUP1 SWAP3 SWAP2 SWAP1 DUP2 DUP2 MSTORE PUSH1 0x20 ADD DUP3 DUP1 SLOAD DUP1 ISZERO PUSH2 0x193 JUMPI PUSH1 0x20 MUL DUP3 ADD SWAP2 SWAP1 PUSH0 MSTORE PUSH1 0x20 PUSH0 KECCAK256 SWAP1 JUMPDEST DUP2 SLOAD PUSH1 0x1 PUSH1 0x1 PUSH1 0xA0 SHL SUB AND DUP2 MSTORE PUSH1 0x1 SWAP1 SWAP2 ADD SWAP1 PUSH1 0x20 ADD DUP1 DUP4 GT PUSH2 0x175 JUMPI JUMPDEST POP POP POP POP POP SWAP1 POP SWAP1 JUMP JUMPDEST PUSH2 0x4A2C DUP1 PUSH2 0x291 DUP4 CODECOPY ADD SWAP1 JUMP JUMPDEST PUSH1 0x1 PUSH1 0x1 PUSH1 0xA0 SHL SUB DUP2 AND DUP2 EQ PUSH2 0x1BE JUMPI PUSH0 DUP1 REVERT JUMPDEST POP JUMP JUMPDEST DUP1 CALLDATALOAD DUP1 ISZERO ISZERO DUP2 EQ PUSH2 0x1D0 JUMPI PUSH0 DUP1 REVERT JUMPDEST SWAP2 SWAP1 POP JUMP JUMPDEST PUSH0 DUP1 PUSH0 DUP1 PUSH0 DUP1 PUSH1 0xC0 DUP8 DUP10 SUB SLT ISZERO PUSH2 0x1EA JUMPI PUSH0 DUP1 REVERT JUMPDEST DUP7 CALLDATALOAD PUSH2 0x1F5 DUP2 PUSH2 0x1AA JUMP JUMPDEST SWAP6 POP PUSH1 0x20 DUP8 ADD CALLDATALOAD PUSH2 0x205 DUP2 PUSH2 0x1AA JUMP JUMPDEST SWAP5 POP PUSH1 0x40 DUP8 ADD CALLDATALOAD PUSH2 0x215 DUP2 PUSH2 0x1AA JUMP JUMPDEST SWAP4 POP PUSH2 0x223 PUSH1 0x60 DUP9 ADD PUSH2 0x1C1 JUMP JUMPDEST SWAP3 POP PUSH2 0x231 PUSH1 0x80 DUP9 ADD PUSH2 0x1C1 JUMP JUMPDEST SWAP2 POP PUSH1 0xA0 DUP8 ADD CALLDATALOAD SWAP1 POP SWAP3 SWAP6 POP SWAP3 SWAP6 POP SWAP3 SWAP6 JUMP JUMPDEST PUSH1 0x20 DUP1 DUP3 MSTORE DUP3 MLOAD DUP3 DUP3 ADD DUP2 SWAP1 MSTORE PUSH0 SWAP2 SWAP1 DUP5 DUP3 ADD SWAP1 PUSH1 0x40 DUP6 ADD SWAP1 DUP5 JUMPDEST DUP2 DUP2 LT ISZERO PUSH2 0x284 JUMPI DUP4 MLOAD PUSH1 0x1 PUSH1 0x1 PUSH1 0xA0 SHL SUB AND DUP4 MSTORE SWAP3 DUP5 ADD SWAP3 SWAP2 DUP5 ADD SWAP2 PUSH1 0x1 ADD PUSH2 0x25F JUMP JUMPDEST POP SWAP1 SWAP7 SWAP6 POP POP POP POP POP POP JUMP INVALID PUSH1 0x80 PUSH1 0x40 MSTORE CALLVALUE DUP1 ISZERO PUSH3 0x10 JUMPI PUSH0 DUP1 REVERT JUMPDEST POP PUSH1 0x40 MLOAD PUSH3 0x4A2C CODESIZE SUB DUP1 PUSH3 0x4A2C DUP4 CODECOPY DUP2 ADD PUSH1 0x40 DUP2 SWAP1 MSTORE PUSH3 0x33 SWAP2 PUSH3 0x2BD JUMP JUMPDEST PUSH1 0x40 DUP1 MLOAD PUSH1 0x20 DUP2 ADD SWAP1 SWAP2 MSTORE PUSH0 DUP2 MSTORE PUSH3 0x4C DUP2 PUSH3 0x21F JUMP JUMPDEST POP PUSH3 0x58 CALLER PUSH3 0x231 JUMP JUMPDEST PUSH1 0x4 DUP1 SLOAD PUSH1 0x1 PUSH1 0x1 PUSH1 0xA0 SHL SUB DUP1 DUP9 AND PUSH1 0x1 PUSH1 0x1 PUSH1 0xA0 SHL SUB NOT SWAP3 DUP4 AND OR SWAP1 SWAP3 SSTORE PUSH1 0x5 DUP1 SLOAD SWAP3 DUP8 AND SWAP3 SWAP1 SWAP2 AND SWAP2 SWAP1 SWAP2 OR SWAP1 SSTORE DUP3 ISZERO PUSH3 0x101 JUMPI ADDRESS PUSH1 0x40 MLOAD PUSH3 0x9E SWAP1 PUSH3 0x282 JUMP JUMPDEST PUSH1 0x1 PUSH1 0x1 PUSH1 0xA0 SHL SUB SWAP1 SWAP2 AND DUP2 MSTORE PUSH1 0x20 ADD PUSH1 0x40 MLOAD DUP1 SWAP2 SUB SWAP1 PUSH0 CREATE DUP1 ISZERO DUP1 ISZERO PUSH3 0xC8 JUMPI RETURNDATASIZE PUSH0 DUP1 RETURNDATACOPY RETURNDATASIZE PUSH0 REVERT JUMPDEST POP PUSH1 0x6 DUP1 SLOAD PUSH1 0x1 PUSH1 0x1 PUSH1 0xA0 SHL SUB NOT AND PUSH1 0x1 PUSH1 0x1 PUSH1 0xA0 SHL SUB SWAP3 SWAP1 SWAP3 AND SWAP2 SWAP1 SWAP2 OR SWAP1 SSTORE PUSH1 0xC DUP1 SLOAD PUSH4 0xFF000000 NOT AND PUSH4 0x1000000 DUP5 ISZERO ISZERO MUL OR SWAP1 SSTORE JUMPDEST PUSH1 0x7 DUP1 SLOAD PUSH1 0x1 PUSH1 0x1 PUSH1 0xA0 SHL SUB NOT AND PUSH1 0x1 PUSH1 0x1 PUSH1 0xA0 SHL SUB DUP10 AND SWAP1 DUP2 OR SWAP1 SWAP2 SSTORE PUSH1 0xB DUP3 SWAP1 SSTORE PUSH1 0x40 DUP1 MLOAD SWAP2 DUP3 MSTORE PUSH1 0x20 DUP3 ADD DUP4 SWAP1 MSTORE PUSH32 0xC6B5D036565220527CE1CFC38A372C78ADB8308D835C5C803FB3A17D0A106549 SWAP2 ADD PUSH1 0x40 MLOAD DUP1 SWAP2 SUB SWAP1 LOG1 PUSH1 0x8 DUP1 SLOAD PUSH1 0x1 DUP2 ADD DUP3 SSTORE PUSH0 SWAP2 SWAP1 SWAP2 MSTORE PUSH32 0xF3F7A9FE364FAAB93B216DA50A3214154F22A0A2B415B23A84C8169E8B636EE3 ADD DUP1 SLOAD PUSH1 0x1 PUSH1 0x1 PUSH1 0xA0 SHL SUB NOT AND PUSH1 0x1 PUSH1 0x1 PUSH1 0xA0 SHL SUB DUP9 AND SWAP1 DUP2 OR SWAP1 SWAP2 SSTORE PUSH1 0x40 MLOAD SWAP1 DUP2 MSTORE PUSH32 0xEC38796D17F4FA8C88DE20F9FB9DA605573FDCB1DD79C6D39683DF6D64175E5F SWAP1 PUSH1 0x20 ADD PUSH1 0x40 MLOAD DUP1 SWAP2 SUB SWAP1 LOG1 PUSH1 0xC DUP1 SLOAD PUSH1 0xFF NOT AND PUSH1 0x1 OR SWAP1 SSTORE PUSH1 0x40 MLOAD PUSH32 0x1611757E154FD5430178688B28BEBEAB61BB8ACEC2B806091026E8B0FC3E7164 SWAP1 PUSH0 SWAP1 LOG1 POP POP POP POP POP POP POP PUSH3 0x4B7 JUMP JUMPDEST PUSH1 0x2 PUSH3 0x22D DUP3 DUP3 PUSH3 0x3EF JUMP JUMPDEST POP POP JUMP JUMPDEST PUSH1 0x3 DUP1 SLOAD PUSH1 0x1 PUSH1 0x1 PUSH1 0xA0 SHL SUB DUP4 DUP2 AND PUSH1 0x1 PUSH1 0x1 PUSH1 0xA0 SHL SUB NOT DUP4 AND DUP2 OR SWAP1 SWAP4 SSTORE PUSH1 0x40 MLOAD SWAP2 AND SWAP2 SWAP1 DUP3 SWAP1 PUSH32 0x8BE0079C531659141344CD1FD0A4F28419497F9722A3DAAFE3B4186F6B6457E0 SWAP1 PUSH0 SWAP1 LOG3 POP POP JUMP JUMPDEST PUSH2 0x1A61 DUP1 PUSH3 0x2FCB DUP4 CODECOPY ADD SWAP1 JUMP JUMPDEST PUSH1 0x1 PUSH1 0x1 PUSH1 0xA0 SHL SUB DUP2 AND DUP2 EQ PUSH3 0x2A5 JUMPI PUSH0 DUP1 REVERT JUMPDEST POP JUMP JUMPDEST DUP1 MLOAD DUP1 ISZERO ISZERO DUP2 EQ PUSH3 0x2B8 JUMPI PUSH0 DUP1 REVERT JUMPDEST SWAP2 SWAP1 POP JUMP JUMPDEST PUSH0 DUP1 PUSH0 DUP1 PUSH0 DUP1 PUSH0 PUSH1 0xE0 DUP9 DUP11 SUB SLT ISZERO PUSH3 0x2D4 JUMPI PUSH0 DUP1 REVERT JUMPDEST DUP8 MLOAD PUSH3 0x2E1 DUP2 PUSH3 0x290 JUMP JUMPDEST PUSH1 0x20 DUP10 ADD MLOAD SWAP1 SWAP8 POP PUSH3 0x2F4 DUP2 PUSH3 0x290 JUMP JUMPDEST PUSH1 0x40 DUP10 ADD MLOAD SWAP1 SWAP7 POP PUSH3 0x307 DUP2 PUSH3 0x290 JUMP JUMPDEST PUSH1 0x60 DUP10 ADD MLOAD SWAP1 SWAP6 POP PUSH3 0x31A DUP2 PUSH3 0x290 JUMP JUMPDEST SWAP4 POP PUSH3 0x32A PUSH1 0x80 DUP10 ADD PUSH3 0x2A8 JUMP JUMPDEST SWAP3 POP PUSH3 0x33A PUSH1 0xA0 DUP10 ADD PUSH3 0x2A8 JUMP JUMPDEST SWAP2 POP PUSH1 0xC0 DUP9 ADD MLOAD SWAP1 POP SWAP3 SWAP6 SWAP9 SWAP2 SWAP5 SWAP8 POP SWAP3 SWAP6 POP JUMP JUMPDEST PUSH4 0x4E487B71 PUSH1 0xE0 SHL PUSH0 MSTORE PUSH1 0x41 PUSH1 0x4 MSTORE PUSH1 0x24 PUSH0 REVERT JUMPDEST PUSH1 0x1 DUP2 DUP2 SHR SWAP1 DUP3 AND DUP1 PUSH3 0x378 JUMPI PUSH1 0x7F DUP3 AND SWAP2 POP JUMPDEST PUSH1 0x20 DUP3 LT DUP2 SUB PUSH3 0x397 JUMPI PUSH4 0x4E487B71 PUSH1 0xE0 SHL PUSH0 MSTORE PUSH1 0x22 PUSH1 0x4 MSTORE PUSH1 0x24 PUSH0 REVERT JUMPDEST POP SWAP2 SWAP1 POP JUMP JUMPDEST PUSH1 0x1F DUP3 GT ISZERO PUSH3 0x3EA JUMPI PUSH0 DUP2 DUP2 MSTORE PUSH1 0x20 DUP2 KECCAK256 PUSH1 0x1F DUP6 ADD PUSH1 0x5 SHR DUP2 ADD PUSH1 0x20 DUP7 LT ISZERO PUSH3 0x3C5 JUMPI POP DUP1 JUMPDEST PUSH1 0x1F DUP6 ADD PUSH1 0x5 SHR DUP3 ADD SWAP2 POP JUMPDEST DUP2 DUP2 LT ISZERO PUSH3 0x3E6 JUMPI DUP3 DUP2 SSTORE PUSH1 0x1 ADD PUSH3 0x3D1 JUMP JUMPDEST POP POP POP JUMPDEST POP POP POP JUMP JUMPDEST DUP2 MLOAD PUSH1 0x1 PUSH1 0x1 PUSH1 0x40 SHL SUB DUP2 GT ISZERO PUSH3 0x40B JUMPI PUSH3 0x40B PUSH3 0x34F JUMP JUMPDEST PUSH3 0x423 DUP2 PUSH3 0x41C DUP5 SLOAD PUSH3 0x363 JUMP JUMPDEST DUP5 PUSH3 0x39D JUMP JUMPDEST PUSH1 0x20 DUP1 PUSH1 0x1F DUP4 GT PUSH1 0x1 DUP2 EQ PUSH3 0x459 JUMPI PUSH0 DUP5 ISZERO PUSH3 0x441 JUMPI POP DUP6 DUP4 ADD MLOAD JUMPDEST PUSH0 NOT PUSH1 0x3 DUP7 SWAP1 SHL SHR NOT AND PUSH1 0x1 DUP6 SWAP1 SHL OR DUP6 SSTORE PUSH3 0x3E6 JUMP JUMPDEST PUSH0 DUP6 DUP2 MSTORE PUSH1 0x20 DUP2 KECCAK256 PUSH1 0x1F NOT DUP7 AND SWAP2 JUMPDEST DUP3 DUP2 LT ISZERO PUSH3 0x489 JUMPI DUP9 DUP7 ADD MLOAD DUP3 SSTORE SWAP5 DUP5 ADD SWAP5 PUSH1 0x1 SWAP1 SWAP2 ADD SWAP1 DUP5 ADD PUSH3 0x468 JUMP JUMPDEST POP DUP6 DUP3 LT ISZERO PUSH3 0x4A7 JUMPI DUP8 DUP6 ADD MLOAD PUSH0 NOT PUSH1 0x3 DUP9 SWAP1 SHL PUSH1 0xF8 AND SHR NOT AND DUP2 SSTORE JUMPDEST POP POP POP POP POP PUSH1 0x1 SWAP1 DUP2 SHL ADD SWAP1 SSTORE POP JUMP JUMPDEST PUSH2 0x2B06 DUP1 PUSH3 0x4C5 PUSH0 CODECOPY PUSH0 RETURN INVALID PUSH1 0x80 PUSH1 0x40 MSTORE CALLVALUE DUP1 ISZERO PUSH2 0xF JUMPI PUSH0 DUP1 REVERT JUMPDEST POP PUSH1 0x4 CALLDATASIZE LT PUSH2 0x1FC JUMPI PUSH0 CALLDATALOAD PUSH1 0xE0 SHR DUP1 PUSH4 0x853828B6 GT PUSH2 0x114 JUMPI DUP1 PUSH4 0xC57380A2 GT PUSH2 0xA9 JUMPI DUP1 PUSH4 0xE6D68595 GT PUSH2 0x79 JUMPI DUP1 PUSH4 0xE6D68595 EQ PUSH2 0x41C JUMPI DUP1 PUSH4 0xE985E9C5 EQ PUSH2 0x42D JUMPI DUP1 PUSH4 0xF242432A EQ PUSH2 0x468 JUMPI DUP1 PUSH4 0xF2FDE38B EQ PUSH2 0x47B JUMPI DUP1 PUSH4 0xFB166F91 EQ PUSH2 0x48E JUMPI PUSH0 DUP1 REVERT JUMPDEST DUP1 PUSH4 0xC57380A2 EQ PUSH2 0x3E3 JUMPI DUP1 PUSH4 0xC8A62968 EQ PUSH2 0x3F4 JUMPI DUP1 PUSH4 0xCB0E0D7D EQ PUSH2 0x3FC JUMPI DUP1 PUSH4 0xD47F4D2A EQ PUSH2 0x416 JUMPI PUSH0 DUP1 REVERT JUMPDEST DUP1 PUSH4 0xA22CB465 GT PUSH2 0xE4 JUMPI DUP1 PUSH4 0xA22CB465 EQ PUSH2 0x396 JUMPI DUP1 PUSH4 0xAA771D39 EQ PUSH2 0x3A9 JUMPI DUP1 PUSH4 0xBBFFD04C EQ PUSH2 0x3C8 JUMPI DUP1 PUSH4 0xBFFA55D5 EQ PUSH2 0x3D0 JUMPI PUSH0 DUP1 REVERT JUMPDEST DUP1 PUSH4 0x853828B6 EQ PUSH2 0x343 JUMPI DUP1 PUSH4 0x8AB234B6 EQ PUSH2 0x34B JUMPI DUP1 PUSH4 0x8D472709 EQ PUSH2 0x35E JUMPI DUP1 PUSH4 0x8DA5CB5B EQ PUSH2 0x371 JUMPI PUSH0 DUP1 REVERT JUMPDEST DUP1 PUSH4 0x3CDFE210 GT PUSH2 0x195 JUMPI DUP1 PUSH4 0x53462D6B GT PUSH2 0x165 JUMPI DUP1 PUSH4 0x53462D6B EQ PUSH2 0x303 JUMPI DUP1 PUSH4 0x715018A6 EQ PUSH2 0x30B JUMPI DUP1 PUSH4 0x74F60D36 EQ PUSH2 0x313 JUMPI DUP1 PUSH4 0x7F1660A1 EQ PUSH2 0x333 JUMPI DUP1 PUSH4 0x84DAC702 EQ PUSH2 0x33B JUMPI PUSH0 DUP1 REVERT JUMPDEST DUP1 PUSH4 0x3CDFE210 EQ PUSH2 0x2B2 JUMPI DUP1 PUSH4 0x4E1273F4 EQ PUSH2 0x2C5 JUMPI DUP1 PUSH4 0x4E4CFFCE EQ PUSH2 0x2E5 JUMPI DUP1 PUSH4 0x4FB2E45D EQ PUSH2 0x2F0 JUMPI PUSH0 DUP1 REVERT JUMPDEST DUP1 PUSH4 0x244C60B5 GT PUSH2 0x1D0 JUMPI DUP1 PUSH4 0x244C60B5 EQ PUSH2 0x27C JUMPI DUP1 PUSH4 0x2EB2C2D6 EQ PUSH2 0x284 JUMPI DUP1 PUSH4 0x348917CA EQ PUSH2 0x299 JUMPI DUP1 PUSH4 0x3CB78FE0 EQ PUSH2 0x2AA JUMPI PUSH0 DUP1 REVERT JUMPDEST DUP1 PUSH3 0xFDD58E EQ PUSH2 0x200 JUMPI DUP1 PUSH4 0x1FFC9A7 EQ PUSH2 0x226 JUMPI DUP1 PUSH4 0xE89341C EQ PUSH2 0x249 JUMPI DUP1 PUSH4 0x20EAAC7D EQ PUSH2 0x269 JUMPI JUMPDEST PUSH0 DUP1 REVERT JUMPDEST PUSH2 0x213 PUSH2 0x20E CALLDATASIZE PUSH1 0x4 PUSH2 0x20B5 JUMP JUMPDEST PUSH2 0x496 JUMP JUMPDEST PUSH1 0x40 MLOAD SWAP1 DUP2 MSTORE PUSH1 0x20 ADD JUMPDEST PUSH1 0x40 MLOAD DUP1 SWAP2 SUB SWAP1 RETURN JUMPDEST PUSH2 0x239 PUSH2 0x234 CALLDATASIZE PUSH1 0x4 PUSH2 0x20F4 JUMP JUMPDEST PUSH2 0x52D JUMP JUMPDEST PUSH1 0x40 MLOAD SWAP1 ISZERO ISZERO DUP2 MSTORE PUSH1 0x20 ADD PUSH2 0x21D JUMP JUMPDEST PUSH2 0x25C PUSH2 0x257 CALLDATASIZE PUSH1 0x4 PUSH2 0x2116 JUMP JUMPDEST PUSH2 0x57C JUMP JUMPDEST PUSH1 0x40 MLOAD PUSH2 0x21D SWAP2 SWAP1 PUSH2 0x2170 JUMP JUMPDEST PUSH2 0x239 PUSH2 0x277 CALLDATASIZE PUSH1 0x4 PUSH2 0x218F JUMP JUMPDEST PUSH2 0x60E JUMP JUMPDEST PUSH2 0x239 PUSH2 0x9CE JUMP JUMPDEST PUSH2 0x297 PUSH2 0x292 CALLDATASIZE PUSH1 0x4 PUSH2 0x2310 JUMP JUMPDEST PUSH2 0xA5C JUMP JUMPDEST STOP JUMPDEST PUSH1 0xC SLOAD PUSH3 0x10000 SWAP1 DIV PUSH1 0xFF AND PUSH2 0x239 JUMP JUMPDEST PUSH2 0x239 PUSH2 0xAA8 JUMP JUMPDEST PUSH2 0x239 PUSH2 0x2C0 CALLDATASIZE PUSH1 0x4 PUSH2 0x23B7 JUMP JUMPDEST PUSH2 0xB78 JUMP JUMPDEST PUSH2 0x2D8 PUSH2 0x2D3 CALLDATASIZE PUSH1 0x4 PUSH2 0x23D2 JUMP JUMPDEST PUSH2 0xBAD JUMP JUMPDEST PUSH1 0x40 MLOAD PUSH2 0x21D SWAP2 SWAP1 PUSH2 0x24D2 JUMP JUMPDEST PUSH1 0xC SLOAD PUSH1 0xFF AND PUSH2 0x239 JUMP JUMPDEST PUSH2 0x239 PUSH2 0x2FE CALLDATASIZE PUSH1 0x4 PUSH2 0x23B7 JUMP JUMPDEST PUSH2 0xCD5 JUMP JUMPDEST PUSH1 0xB SLOAD PUSH2 0x213 JUMP JUMPDEST PUSH2 0x297 PUSH2 0xD26 JUMP JUMPDEST PUSH2 0x326 PUSH2 0x321 CALLDATASIZE PUSH1 0x4 PUSH2 0x2116 JUMP JUMPDEST PUSH2 0xD39 JUMP JUMPDEST PUSH1 0x40 MLOAD PUSH2 0x21D SWAP2 SWAP1 PUSH2 0x24E4 JUMP JUMPDEST PUSH2 0x239 PUSH2 0xD9A JUMP JUMPDEST PUSH2 0x239 PUSH2 0xDD3 JUMP JUMPDEST PUSH2 0x239 PUSH2 0xE07 JUMP JUMPDEST PUSH2 0x239 PUSH2 0x359 CALLDATASIZE PUSH1 0x4 PUSH2 0x23B7 JUMP JUMPDEST PUSH2 0xF62 JUMP JUMPDEST PUSH2 0x239 PUSH2 0x36C CALLDATASIZE PUSH1 0x4 PUSH2 0x2530 JUMP JUMPDEST PUSH2 0x100E JUMP JUMPDEST PUSH1 0x3 SLOAD PUSH1 0x1 PUSH1 0x1 PUSH1 0xA0 SHL SUB AND JUMPDEST PUSH1 0x40 MLOAD PUSH1 0x1 PUSH1 0x1 PUSH1 0xA0 SHL SUB SWAP1 SWAP2 AND DUP2 MSTORE PUSH1 0x20 ADD PUSH2 0x21D JUMP JUMPDEST PUSH2 0x297 PUSH2 0x3A4 CALLDATASIZE PUSH1 0x4 PUSH2 0x256E JUMP JUMPDEST PUSH2 0x1142 JUMP JUMPDEST PUSH2 0x213 PUSH2 0x3B7 CALLDATASIZE PUSH1 0x4 PUSH2 0x2116 JUMP JUMPDEST PUSH0 SWAP1 DUP2 MSTORE PUSH1 0x9 PUSH1 0x20 MSTORE PUSH1 0x40 SWAP1 KECCAK256 SLOAD SWAP1 JUMP JUMPDEST PUSH2 0x239 PUSH2 0x1151 JUMP JUMPDEST PUSH2 0x239 PUSH2 0x3DE CALLDATASIZE PUSH1 0x4 PUSH2 0x23B7 JUMP JUMPDEST PUSH2 0x11B5 JUMP JUMPDEST PUSH1 0x4 SLOAD PUSH1 0x1 PUSH1 0x1 PUSH1 0xA0 SHL SUB AND PUSH2 0x37E JUMP JUMPDEST PUSH2 0x239 PUSH2 0x13D8 JUMP JUMPDEST PUSH2 0x213 PUSH2 0x40A CALLDATASIZE PUSH1 0x4 PUSH2 0x23B7 JUMP JUMPDEST PUSH1 0x1 PUSH1 0x1 PUSH1 0xA0 SHL SUB AND SWAP1 JUMP JUMPDEST ADDRESS PUSH2 0x37E JUMP JUMPDEST PUSH1 0x7 SLOAD PUSH1 0x1 PUSH1 0x1 PUSH1 0xA0 SHL SUB AND PUSH2 0x37E JUMP JUMPDEST PUSH2 0x239 PUSH2 0x43B CALLDATASIZE PUSH1 0x4 PUSH2 0x25A5 JUMP JUMPDEST PUSH1 0x1 PUSH1 0x1 PUSH1 0xA0 SHL SUB SWAP2 DUP3 AND PUSH0 SWAP1 DUP2 MSTORE PUSH1 0x1 PUSH1 0x20 SWAP1 DUP2 MSTORE PUSH1 0x40 DUP1 DUP4 KECCAK256 SWAP4 SWAP1 SWAP5 AND DUP3 MSTORE SWAP2 SWAP1 SWAP2 MSTORE KECCAK256 SLOAD PUSH1 0xFF AND SWAP1 JUMP JUMPDEST PUSH2 0x297 PUSH2 0x476 CALLDATASIZE PUSH1 0x4 PUSH2 0x25D1 JUMP JUMPDEST PUSH2 0x1404 JUMP JUMPDEST PUSH2 0x297 PUSH2 0x489 CALLDATASIZE PUSH1 0x4 PUSH2 0x23B7 JUMP JUMPDEST PUSH2 0x1449 JUMP JUMPDEST PUSH2 0x239 PUSH2 0x14C2 JUMP JUMPDEST PUSH0 PUSH1 0x1 PUSH1 0x1 PUSH1 0xA0 SHL SUB DUP4 AND PUSH2 0x505 JUMPI PUSH1 0x40 MLOAD PUSH3 0x461BCD PUSH1 0xE5 SHL DUP2 MSTORE PUSH1 0x20 PUSH1 0x4 DUP3 ADD MSTORE PUSH1 0x2A PUSH1 0x24 DUP3 ADD MSTORE PUSH32 0x455243313135353A2061646472657373207A65726F206973206E6F7420612076 PUSH1 0x44 DUP3 ADD MSTORE PUSH10 0x30B634B21037BBB732B9 PUSH1 0xB1 SHL PUSH1 0x64 DUP3 ADD MSTORE PUSH1 0x84 ADD JUMPDEST PUSH1 0x40 MLOAD DUP1 SWAP2 SUB SWAP1 REVERT JUMPDEST POP PUSH0 DUP2 DUP2 MSTORE PUSH1 0x20 DUP2 DUP2 MSTORE PUSH1 0x40 DUP1 DUP4 KECCAK256 PUSH1 0x1 PUSH1 0x1 PUSH1 0xA0 SHL SUB DUP7 AND DUP5 MSTORE SWAP1 SWAP2 MSTORE SWAP1 KECCAK256 SLOAD JUMPDEST SWAP3 SWAP2 POP POP JUMP JUMPDEST PUSH0 PUSH1 0x1 PUSH1 0x1 PUSH1 0xE0 SHL SUB NOT DUP3 AND PUSH4 0x6CDB3D13 PUSH1 0xE1 SHL EQ DUP1 PUSH2 0x55D JUMPI POP PUSH1 0x1 PUSH1 0x1 PUSH1 0xE0 SHL SUB NOT DUP3 AND PUSH4 0x3A24D07 PUSH1 0xE2 SHL EQ JUMPDEST DUP1 PUSH2 0x527 JUMPI POP PUSH4 0x1FFC9A7 PUSH1 0xE0 SHL PUSH1 0x1 PUSH1 0x1 PUSH1 0xE0 SHL SUB NOT DUP4 AND EQ PUSH2 0x527 JUMP JUMPDEST PUSH1 0x60 PUSH1 0x2 DUP1 SLOAD PUSH2 0x58B SWAP1 PUSH2 0x2635 JUMP JUMPDEST DUP1 PUSH1 0x1F ADD PUSH1 0x20 DUP1 SWAP2 DIV MUL PUSH1 0x20 ADD PUSH1 0x40 MLOAD SWAP1 DUP2 ADD PUSH1 0x40 MSTORE DUP1 SWAP3 SWAP2 SWAP1 DUP2 DUP2 MSTORE PUSH1 0x20 ADD DUP3 DUP1 SLOAD PUSH2 0x5B7 SWAP1 PUSH2 0x2635 JUMP JUMPDEST DUP1 ISZERO PUSH2 0x602 JUMPI DUP1 PUSH1 0x1F LT PUSH2 0x5D9 JUMPI PUSH2 0x100 DUP1 DUP4 SLOAD DIV MUL DUP4 MSTORE SWAP2 PUSH1 0x20 ADD SWAP2 PUSH2 0x602 JUMP JUMPDEST DUP3 ADD SWAP2 SWAP1 PUSH0 MSTORE PUSH1 0x20 PUSH0 KECCAK256 SWAP1 JUMPDEST DUP2 SLOAD DUP2 MSTORE SWAP1 PUSH1 0x1 ADD SWAP1 PUSH1 0x20 ADD DUP1 DUP4 GT PUSH2 0x5E5 JUMPI DUP3 SWAP1 SUB PUSH1 0x1F AND DUP3 ADD SWAP2 JUMPDEST POP POP POP POP POP SWAP1 POP SWAP2 SWAP1 POP JUMP JUMPDEST PUSH0 PUSH1 0xB SLOAD TIMESTAMP LT ISZERO PUSH2 0x64C JUMPI PUSH1 0x40 MLOAD PUSH3 0x461BCD PUSH1 0xE5 SHL DUP2 MSTORE PUSH1 0x20 PUSH1 0x4 DUP3 ADD MSTORE PUSH1 0x8 PUSH1 0x24 DUP3 ADD MSTORE PUSH8 0x2A37B79039B7B7B7 PUSH1 0xC1 SHL PUSH1 0x44 DUP3 ADD MSTORE PUSH1 0x64 ADD PUSH2 0x4FC JUMP JUMPDEST PUSH1 0x4 SLOAD PUSH1 0x1 PUSH1 0x1 PUSH1 0xA0 SHL SUB AND CALLER EQ PUSH2 0x676 JUMPI PUSH1 0x40 MLOAD PUSH3 0x461BCD PUSH1 0xE5 SHL DUP2 MSTORE PUSH1 0x4 ADD PUSH2 0x4FC SWAP1 PUSH2 0x266D JUMP JUMPDEST PUSH1 0xC SLOAD PUSH2 0x100 SWAP1 DIV PUSH1 0xFF AND ISZERO PUSH2 0x68E JUMPI PUSH2 0x68E PUSH2 0x26B2 JUMP JUMPDEST PUSH1 0x40 MLOAD PUSH4 0x70A08231 PUSH1 0xE0 SHL DUP2 MSTORE ADDRESS PUSH1 0x4 DUP3 ADD MSTORE PUSH0 SWAP1 PUSH1 0x1 PUSH1 0x1 PUSH1 0xA0 SHL SUB DUP7 AND SWAP1 PUSH4 0x70A08231 SWAP1 PUSH1 0x24 ADD PUSH1 0x20 PUSH1 0x40 MLOAD DUP1 DUP4 SUB DUP2 DUP7 GAS STATICCALL ISZERO DUP1 ISZERO PUSH2 0x6D2 JUMPI RETURNDATASIZE PUSH0 DUP1 RETURNDATACOPY RETURNDATASIZE PUSH0 REVERT JUMPDEST POP POP POP POP PUSH1 0x40 MLOAD RETURNDATASIZE PUSH1 0x1F NOT PUSH1 0x1F DUP3 ADD AND DUP3 ADD DUP1 PUSH1 0x40 MSTORE POP DUP2 ADD SWAP1 PUSH2 0x6F6 SWAP2 SWAP1 PUSH2 0x26C6 JUMP JUMPDEST PUSH1 0x40 MLOAD PUSH4 0x7AE2B5C7 PUSH1 0xE0 SHL DUP2 MSTORE PUSH1 0x4 DUP2 ADD DUP7 SWAP1 MSTORE PUSH1 0x24 DUP2 ADD DUP3 SWAP1 MSTORE SWAP1 SWAP2 POP PUSH0 SWAP1 PUSH20 0x0 SWAP1 PUSH4 0x7AE2B5C7 SWAP1 PUSH1 0x44 ADD PUSH1 0x20 PUSH1 0x40 MLOAD DUP1 DUP4 SUB DUP2 DUP7 GAS DELEGATECALL ISZERO DUP1 ISZERO PUSH2 0x750 JUMPI RETURNDATASIZE PUSH0 DUP1 RETURNDATACOPY RETURNDATASIZE PUSH0 REVERT JUMPDEST POP POP POP POP PUSH1 0x40 MLOAD RETURNDATASIZE PUSH1 0x1F NOT PUSH1 0x1F DUP3 ADD AND DUP3 ADD DUP1 PUSH1 0x40 MSTORE POP DUP2 ADD SWAP1 PUSH2 0x774 SWAP2 SWAP1 PUSH2 0x26C6 JUMP JUMPDEST PUSH1 0xC SLOAD SWAP1 SWAP2 POP PUSH4 0x1000000 SWAP1 DIV PUSH1 0xFF AND ISZERO PUSH2 0x8E7 JUMPI PUSH1 0x6 SLOAD PUSH1 0x40 MLOAD PUSH4 0x6582B41D PUSH1 0xE1 SHL DUP2 MSTORE PUSH1 0x1 PUSH1 0x1 PUSH1 0xA0 SHL SUB DUP9 DUP2 AND PUSH1 0x4 DUP4 ADD MSTORE PUSH20 0x0 SWAP3 PUSH4 0x7AE2B5C7 SWAP3 SWAP2 AND SWAP1 PUSH4 0xCB05683A SWAP1 PUSH1 0x24 ADD PUSH1 0x20 PUSH1 0x40 MLOAD DUP1 DUP4 SUB DUP2 DUP7 GAS STATICCALL ISZERO DUP1 ISZERO PUSH2 0x7EC JUMPI RETURNDATASIZE PUSH0 DUP1 RETURNDATACOPY RETURNDATASIZE PUSH0 REVERT JUMPDEST POP POP POP POP PUSH1 0x40 MLOAD RETURNDATASIZE PUSH1 0x1F NOT PUSH1 0x1F DUP3 ADD AND DUP3 ADD DUP1 PUSH1 0x40 MSTORE POP DUP2 ADD SWAP1 PUSH2 0x810 SWAP2 SWAP1 PUSH2 0x26C6 JUMP JUMPDEST DUP8 PUSH1 0x40 MLOAD DUP4 PUSH4 0xFFFFFFFF AND PUSH1 0xE0 SHL DUP2 MSTORE PUSH1 0x4 ADD PUSH2 0x837 SWAP3 SWAP2 SWAP1 SWAP2 DUP3 MSTORE PUSH1 0x20 DUP3 ADD MSTORE PUSH1 0x40 ADD SWAP1 JUMP JUMPDEST PUSH1 0x20 PUSH1 0x40 MLOAD DUP1 DUP4 SUB DUP2 DUP7 GAS DELEGATECALL ISZERO DUP1 ISZERO PUSH2 0x852 JUMPI RETURNDATASIZE PUSH0 DUP1 RETURNDATACOPY RETURNDATASIZE PUSH0 REVERT JUMPDEST POP POP POP POP PUSH1 0x40 MLOAD RETURNDATASIZE PUSH1 0x1F NOT PUSH1 0x1F DUP3 ADD AND DUP3 ADD DUP1 PUSH1 0x40 MSTORE POP DUP2 ADD SWAP1 PUSH2 0x876 SWAP2 SWAP1 PUSH2 0x26C6 JUMP JUMPDEST PUSH1 0x6 SLOAD PUSH1 0x40 MLOAD PUSH4 0x36DD7CF7 PUSH1 0xE1 SHL DUP2 MSTORE PUSH1 0x1 PUSH1 0x1 PUSH1 0xA0 SHL SUB DUP10 DUP2 AND PUSH1 0x4 DUP4 ADD MSTORE SWAP3 SWAP4 POP SWAP2 AND SWAP1 PUSH4 0x6DBAF9EE SWAP1 PUSH1 0x24 ADD PUSH1 0x20 PUSH1 0x40 MLOAD DUP1 DUP4 SUB DUP2 PUSH0 DUP8 GAS CALL ISZERO DUP1 ISZERO PUSH2 0x8C1 JUMPI RETURNDATASIZE PUSH0 DUP1 RETURNDATACOPY RETURNDATASIZE PUSH0 REVERT JUMPDEST POP POP POP POP PUSH1 0x40 MLOAD RETURNDATASIZE PUSH1 0x1F NOT PUSH1 0x1F DUP3 ADD AND DUP3 ADD DUP1 PUSH1 0x40 MSTORE POP DUP2 ADD SWAP1 PUSH2 0x8E5 SWAP2 SWAP1 PUSH2 0x26DD JUMP JUMPDEST POP JUMPDEST PUSH1 0x7 SLOAD PUSH1 0x40 MLOAD PUSH4 0xA9059CBB PUSH1 0xE0 SHL DUP2 MSTORE PUSH1 0x1 PUSH1 0x1 PUSH1 0xA0 SHL SUB SWAP2 DUP3 AND PUSH1 0x4 DUP3 ADD MSTORE PUSH1 0x24 DUP2 ADD DUP4 SWAP1 MSTORE SWAP1 DUP8 AND SWAP1 PUSH4 0xA9059CBB SWAP1 PUSH1 0x44 ADD PUSH1 0x20 PUSH1 0x40 MLOAD DUP1 DUP4 SUB DUP2 PUSH0 DUP8 GAS CALL ISZERO DUP1 ISZERO PUSH2 0x937 JUMPI RETURNDATASIZE PUSH0 DUP1 RETURNDATACOPY RETURNDATASIZE PUSH0 REVERT JUMPDEST POP POP POP POP PUSH1 0x40 MLOAD RETURNDATASIZE PUSH1 0x1F NOT PUSH1 0x1F DUP3 ADD AND DUP3 ADD DUP1 PUSH1 0x40 MSTORE POP DUP2 ADD SWAP1 PUSH2 0x95B SWAP2 SWAP1 PUSH2 0x26DD JUMP JUMPDEST POP PUSH1 0x7 SLOAD PUSH1 0x40 DUP1 MLOAD PUSH1 0x1 PUSH1 0x1 PUSH1 0xA0 SHL SUB SWAP3 DUP4 AND DUP2 MSTORE SWAP2 DUP9 AND PUSH1 0x20 DUP4 ADD MSTORE DUP2 ADD DUP3 SWAP1 MSTORE PUSH32 0xD1C19FBCD4551A5EDFB66D43D2E337C04837AFDA3482B42BDF569A8FCCDAE5FB SWAP1 PUSH1 0x60 ADD PUSH1 0x40 MLOAD DUP1 SWAP2 SUB SWAP1 LOG1 DUP4 ISZERO PUSH2 0x9C2 JUMPI PUSH1 0xC DUP1 SLOAD PUSH3 0xFF00FF NOT AND PUSH3 0x10000 OR SWAP1 SSTORE JUMPDEST POP PUSH1 0x1 SWAP6 SWAP5 POP POP POP POP POP JUMP JUMPDEST PUSH1 0x4 SLOAD PUSH0 SWAP1 PUSH1 0x1 PUSH1 0x1 PUSH1 0xA0 SHL SUB AND CALLER EQ PUSH2 0x9FA JUMPI PUSH1 0x40 MLOAD PUSH3 0x461BCD PUSH1 0xE5 SHL DUP2 MSTORE PUSH1 0x4 ADD PUSH2 0x4FC SWAP1 PUSH2 0x266D JUMP JUMPDEST PUSH0 JUMPDEST PUSH1 0x8 SLOAD DUP2 LT ISZERO PUSH2 0xA53 JUMPI PUSH2 0xA35 PUSH1 0x8 DUP3 DUP2 SLOAD DUP2 LT PUSH2 0xA1C JUMPI PUSH2 0xA1C PUSH2 0x26F8 JUMP JUMPDEST PUSH0 SWAP2 DUP3 MSTORE PUSH1 0x20 SWAP1 SWAP2 KECCAK256 ADD SLOAD PUSH1 0x1 PUSH1 0x1 PUSH1 0xA0 SHL SUB AND PUSH2 0x14EE JUMP JUMPDEST PUSH2 0xA41 JUMPI PUSH2 0xA41 PUSH2 0x26B2 JUMP JUMPDEST DUP1 PUSH2 0xA4B DUP2 PUSH2 0x2720 JUMP JUMPDEST SWAP2 POP POP PUSH2 0x9FC JUMP JUMPDEST POP PUSH1 0x1 SWAP1 POP JUMPDEST SWAP1 JUMP JUMPDEST PUSH1 0x1 PUSH1 0x1 PUSH1 0xA0 SHL SUB DUP6 AND CALLER EQ DUP1 PUSH2 0xA78 JUMPI POP PUSH2 0xA78 DUP6 CALLER PUSH2 0x43B JUMP JUMPDEST PUSH2 0xA94 JUMPI PUSH1 0x40 MLOAD PUSH3 0x461BCD PUSH1 0xE5 SHL DUP2 MSTORE PUSH1 0x4 ADD PUSH2 0x4FC SWAP1 PUSH2 0x2738 JUMP JUMPDEST PUSH2 0xAA1 DUP6 DUP6 DUP6 DUP6 DUP6 PUSH2 0x15E4 JUMP JUMPDEST POP POP POP POP POP JUMP JUMPDEST PUSH1 0x4 SLOAD PUSH0 SWAP1 PUSH1 0x1 PUSH1 0x1 PUSH1 0xA0 SHL SUB AND CALLER EQ PUSH2 0xAD4 JUMPI PUSH1 0x40 MLOAD PUSH3 0x461BCD PUSH1 0xE5 SHL DUP2 MSTORE PUSH1 0x4 ADD PUSH2 0x4FC SWAP1 PUSH2 0x266D JUMP JUMPDEST PUSH1 0xC SLOAD PUSH3 0x10000 SWAP1 DIV PUSH1 0xFF AND ISZERO PUSH2 0xB3D JUMPI PUSH1 0x40 MLOAD PUSH3 0x461BCD PUSH1 0xE5 SHL DUP2 MSTORE PUSH1 0x20 PUSH1 0x4 DUP3 ADD MSTORE PUSH1 0x27 PUSH1 0x24 DUP3 ADD MSTORE PUSH32 0x556E61626C6520746F20726561637469766174652077697468647261776E2070 PUSH1 0x44 DUP3 ADD MSTORE PUSH7 0x3937B532B1BA17 PUSH1 0xC9 SHL PUSH1 0x64 DUP3 ADD MSTORE PUSH1 0x84 ADD PUSH2 0x4FC JUMP JUMPDEST PUSH1 0xC DUP1 SLOAD PUSH1 0xFF NOT AND PUSH1 0x1 OR SWAP1 SSTORE PUSH1 0x40 MLOAD PUSH32 0x1611757E154FD5430178688B28BEBEAB61BB8ACEC2B806091026E8B0FC3E7164 SWAP1 PUSH0 SWAP1 LOG1 POP PUSH1 0x1 SWAP1 JUMP JUMPDEST PUSH1 0x6 SLOAD PUSH0 SWAP1 PUSH1 0x1 PUSH1 0x1 PUSH1 0xA0 SHL SUB AND CALLER EQ PUSH2 0xBA4 JUMPI PUSH1 0x40 MLOAD PUSH3 0x461BCD PUSH1 0xE5 SHL DUP2 MSTORE PUSH1 0x4 ADD PUSH2 0x4FC SWAP1 PUSH2 0x2786 JUMP JUMPDEST PUSH2 0x527 DUP3 PUSH2 0x14EE JUMP JUMPDEST PUSH1 0x60 DUP2 MLOAD DUP4 MLOAD EQ PUSH2 0xC12 JUMPI PUSH1 0x40 MLOAD PUSH3 0x461BCD PUSH1 0xE5 SHL DUP2 MSTORE PUSH1 0x20 PUSH1 0x4 DUP3 ADD MSTORE PUSH1 0x29 PUSH1 0x24 DUP3 ADD MSTORE PUSH32 0x455243313135353A206163636F756E747320616E6420696473206C656E677468 PUSH1 0x44 DUP3 ADD MSTORE PUSH9 0x40DAD2E6DAC2E8C6D PUSH1 0xBB SHL PUSH1 0x64 DUP3 ADD MSTORE PUSH1 0x84 ADD PUSH2 0x4FC JUMP JUMPDEST PUSH0 DUP4 MLOAD PUSH8 0xFFFFFFFFFFFFFFFF DUP2 GT ISZERO PUSH2 0xC2D JUMPI PUSH2 0xC2D PUSH2 0x21CE JUMP JUMPDEST PUSH1 0x40 MLOAD SWAP1 DUP1 DUP3 MSTORE DUP1 PUSH1 0x20 MUL PUSH1 0x20 ADD DUP3 ADD PUSH1 0x40 MSTORE DUP1 ISZERO PUSH2 0xC56 JUMPI DUP2 PUSH1 0x20 ADD PUSH1 0x20 DUP3 MUL DUP1 CALLDATASIZE DUP4 CALLDATACOPY ADD SWAP1 POP JUMPDEST POP SWAP1 POP PUSH0 JUMPDEST DUP5 MLOAD DUP2 LT ISZERO PUSH2 0xCCD JUMPI PUSH2 0xCA0 DUP6 DUP3 DUP2 MLOAD DUP2 LT PUSH2 0xC79 JUMPI PUSH2 0xC79 PUSH2 0x26F8 JUMP JUMPDEST PUSH1 0x20 MUL PUSH1 0x20 ADD ADD MLOAD DUP6 DUP4 DUP2 MLOAD DUP2 LT PUSH2 0xC93 JUMPI PUSH2 0xC93 PUSH2 0x26F8 JUMP JUMPDEST PUSH1 0x20 MUL PUSH1 0x20 ADD ADD MLOAD PUSH2 0x496 JUMP JUMPDEST DUP3 DUP3 DUP2 MLOAD DUP2 LT PUSH2 0xCB2 JUMPI PUSH2 0xCB2 PUSH2 0x26F8 JUMP JUMPDEST PUSH1 0x20 SWAP1 DUP2 MUL SWAP2 SWAP1 SWAP2 ADD ADD MSTORE PUSH2 0xCC6 DUP2 PUSH2 0x2720 JUMP JUMPDEST SWAP1 POP PUSH2 0xC5B JUMP JUMPDEST POP SWAP4 SWAP3 POP POP POP JUMP JUMPDEST PUSH1 0x4 SLOAD PUSH0 SWAP1 PUSH1 0x1 PUSH1 0x1 PUSH1 0xA0 SHL SUB AND CALLER EQ PUSH2 0xD01 JUMPI PUSH1 0x40 MLOAD PUSH3 0x461BCD PUSH1 0xE5 SHL DUP2 MSTORE PUSH1 0x4 ADD PUSH2 0x4FC SWAP1 PUSH2 0x266D JUMP JUMPDEST POP PUSH1 0x7 DUP1 SLOAD PUSH1 0x1 PUSH1 0x1 PUSH1 0xA0 SHL SUB DUP4 AND PUSH1 0x1 PUSH1 0x1 PUSH1 0xA0 SHL SUB NOT SWAP1 SWAP2 AND OR SWAP1 SSTORE PUSH1 0x1 SWAP2 SWAP1 POP JUMP JUMPDEST PUSH2 0xD2E PUSH2 0x17BC JUMP JUMPDEST PUSH2 0xD37 PUSH0 PUSH2 0x1816 JUMP JUMPDEST JUMP JUMPDEST PUSH1 0x60 PUSH1 0x8 DUP1 SLOAD DUP1 PUSH1 0x20 MUL PUSH1 0x20 ADD PUSH1 0x40 MLOAD SWAP1 DUP2 ADD PUSH1 0x40 MSTORE DUP1 SWAP3 SWAP2 SWAP1 DUP2 DUP2 MSTORE PUSH1 0x20 ADD DUP3 DUP1 SLOAD DUP1 ISZERO PUSH2 0x602 JUMPI PUSH1 0x20 MUL DUP3 ADD SWAP2 SWAP1 PUSH0 MSTORE PUSH1 0x20 PUSH0 KECCAK256 SWAP1 JUMPDEST DUP2 SLOAD PUSH1 0x1 PUSH1 0x1 PUSH1 0xA0 SHL SUB AND DUP2 MSTORE PUSH1 0x1 SWAP1 SWAP2 ADD SWAP1 PUSH1 0x20 ADD DUP1 DUP4 GT PUSH2 0xD71 JUMPI POP POP POP POP POP SWAP1 POP SWAP2 SWAP1 POP JUMP JUMPDEST PUSH1 0x6 SLOAD PUSH0 SWAP1 PUSH1 0x1 PUSH1 0x1 PUSH1 0xA0 SHL SUB AND CALLER EQ PUSH2 0xDC6 JUMPI PUSH1 0x40 MLOAD PUSH3 0x461BCD PUSH1 0xE5 SHL DUP2 MSTORE PUSH1 0x4 ADD PUSH2 0x4FC SWAP1 PUSH2 0x2786 JUMP JUMPDEST PUSH2 0xDCE PUSH2 0x1867 JUMP JUMPDEST SWAP1 POP SWAP1 JUMP JUMPDEST PUSH1 0x6 SLOAD PUSH0 SWAP1 PUSH1 0x1 PUSH1 0x1 PUSH1 0xA0 SHL SUB AND CALLER EQ PUSH2 0xDFF JUMPI PUSH1 0x40 MLOAD PUSH3 0x461BCD PUSH1 0xE5 SHL DUP2 MSTORE PUSH1 0x4 ADD PUSH2 0x4FC SWAP1 PUSH2 0x2786 JUMP JUMPDEST PUSH2 0xDCE PUSH2 0x190E JUMP JUMPDEST PUSH0 PUSH1 0xB SLOAD TIMESTAMP LT ISZERO PUSH2 0xE45 JUMPI PUSH1 0x40 MLOAD PUSH3 0x461BCD PUSH1 0xE5 SHL DUP2 MSTORE PUSH1 0x20 PUSH1 0x4 DUP3 ADD MSTORE PUSH1 0x8 PUSH1 0x24 DUP3 ADD MSTORE PUSH8 0x2A37B79039B7B7B7 PUSH1 0xC1 SHL PUSH1 0x44 DUP3 ADD MSTORE PUSH1 0x64 ADD PUSH2 0x4FC JUMP JUMPDEST PUSH1 0x4 SLOAD PUSH1 0x1 PUSH1 0x1 PUSH1 0xA0 SHL SUB AND CALLER EQ PUSH2 0xE6F JUMPI PUSH1 0x40 MLOAD PUSH3 0x461BCD PUSH1 0xE5 SHL DUP2 MSTORE PUSH1 0x4 ADD PUSH2 0x4FC SWAP1 PUSH2 0x266D JUMP JUMPDEST PUSH0 JUMPDEST PUSH1 0x8 SLOAD DUP2 LT ISZERO PUSH2 0xA53 JUMPI PUSH2 0xF44 PUSH1 0x8 DUP3 DUP2 SLOAD DUP2 LT PUSH2 0xE91 JUMPI PUSH2 0xE91 PUSH2 0x26F8 JUMP JUMPDEST PUSH0 SWAP2 DUP3 MSTORE PUSH1 0x20 SWAP1 SWAP2 KECCAK256 ADD SLOAD PUSH1 0x8 DUP1 SLOAD PUSH1 0x1 PUSH1 0x1 PUSH1 0xA0 SHL SUB SWAP1 SWAP3 AND SWAP2 DUP5 SWAP1 DUP2 LT PUSH2 0xEBC JUMPI PUSH2 0xEBC PUSH2 0x26F8 JUMP JUMPDEST PUSH0 SWAP2 DUP3 MSTORE PUSH1 0x20 SWAP1 SWAP2 KECCAK256 ADD SLOAD PUSH1 0x40 MLOAD PUSH4 0x70A08231 PUSH1 0xE0 SHL DUP2 MSTORE ADDRESS PUSH1 0x4 DUP3 ADD MSTORE PUSH1 0x1 PUSH1 0x1 PUSH1 0xA0 SHL SUB SWAP1 SWAP2 AND SWAP1 PUSH4 0x70A08231 SWAP1 PUSH1 0x24 ADD PUSH1 0x20 PUSH1 0x40 MLOAD DUP1 DUP4 SUB DUP2 DUP7 GAS STATICCALL ISZERO DUP1 ISZERO PUSH2 0xF0A JUMPI RETURNDATASIZE PUSH0 DUP1 RETURNDATACOPY RETURNDATASIZE PUSH0 REVERT JUMPDEST POP POP POP POP PUSH1 0x40 MLOAD RETURNDATASIZE PUSH1 0x1F NOT PUSH1 0x1F DUP3 ADD AND DUP3 ADD DUP1 PUSH1 0x40 MSTORE POP DUP2 ADD SWAP1 PUSH2 0xF2E SWAP2 SWAP1 PUSH2 0x26C6 JUMP JUMPDEST PUSH1 0x8 SLOAD PUSH2 0xF3D SWAP1 PUSH1 0x1 SWAP1 PUSH2 0x27C9 JUMP JUMPDEST DUP5 EQ PUSH2 0x60E JUMP JUMPDEST PUSH2 0xF50 JUMPI PUSH2 0xF50 PUSH2 0x26B2 JUMP JUMPDEST DUP1 PUSH2 0xF5A DUP2 PUSH2 0x2720 JUMP JUMPDEST SWAP2 POP POP PUSH2 0xE71 JUMP JUMPDEST PUSH1 0xC SLOAD PUSH0 SWAP1 PUSH1 0xFF AND PUSH2 0xF86 JUMPI PUSH1 0x40 MLOAD PUSH3 0x461BCD PUSH1 0xE5 SHL DUP2 MSTORE PUSH1 0x4 ADD PUSH2 0x4FC SWAP1 PUSH2 0x27DC JUMP JUMPDEST PUSH1 0x8 DUP1 SLOAD PUSH1 0x1 DUP2 ADD DUP3 SSTORE PUSH0 SWAP2 SWAP1 SWAP2 MSTORE PUSH32 0xF3F7A9FE364FAAB93B216DA50A3214154F22A0A2B415B23A84C8169E8B636EE3 ADD DUP1 SLOAD PUSH1 0x1 PUSH1 0x1 PUSH1 0xA0 SHL SUB NOT AND PUSH1 0x1 PUSH1 0x1 PUSH1 0xA0 SHL SUB DUP5 AND SWAP1 DUP2 OR SWAP1 SWAP2 SSTORE PUSH1 0x40 MLOAD SWAP1 DUP2 MSTORE PUSH32 0xEC38796D17F4FA8C88DE20F9FB9DA605573FDCB1DD79C6D39683DF6D64175E5F SWAP1 PUSH1 0x20 ADD PUSH1 0x40 MLOAD DUP1 SWAP2 SUB SWAP1 LOG1 POP PUSH1 0x1 SWAP2 SWAP1 POP JUMP JUMPDEST PUSH1 0xC SLOAD PUSH0 SWAP1 PUSH1 0xFF AND PUSH2 0x1032 JUMPI PUSH1 0x40 MLOAD PUSH3 0x461BCD PUSH1 0xE5 SHL DUP2 MSTORE PUSH1 0x4 ADD PUSH2 0x4FC SWAP1 PUSH2 0x27DC JUMP JUMPDEST PUSH1 0x5 SLOAD PUSH1 0x1 PUSH1 0x1 PUSH1 0xA0 SHL SUB AND CALLER EQ PUSH2 0x10A3 JUMPI PUSH1 0x40 MLOAD PUSH3 0x461BCD PUSH1 0xE5 SHL DUP2 MSTORE PUSH1 0x20 PUSH1 0x4 DUP3 ADD MSTORE PUSH1 0x2E PUSH1 0x24 DUP3 ADD MSTORE PUSH32 0x4F6E6C7920636F6E747269627574696F6E20726F757465722063616E2072756E PUSH1 0x44 DUP3 ADD MSTORE PUSH14 0x103A3434B990333AB731BA34B7B7 PUSH1 0x91 SHL PUSH1 0x64 DUP3 ADD MSTORE PUSH1 0x84 ADD PUSH2 0x4FC JUMP JUMPDEST PUSH0 DUP4 PUSH1 0x1 PUSH1 0x1 PUSH1 0xA0 SHL SUB AND SWAP1 POP PUSH2 0x10CA DUP6 DUP3 DUP6 PUSH1 0x40 MLOAD DUP1 PUSH1 0x20 ADD PUSH1 0x40 MSTORE DUP1 PUSH0 DUP2 MSTORE POP PUSH2 0x19B9 JUMP JUMPDEST PUSH0 DUP2 DUP2 MSTORE PUSH1 0x9 PUSH1 0x20 MSTORE PUSH1 0x40 DUP2 KECCAK256 DUP1 SLOAD DUP6 SWAP3 SWAP1 PUSH2 0x10E7 SWAP1 DUP5 SWAP1 PUSH2 0x2826 JUMP JUMPDEST SWAP1 SWAP2 SSTORE POP POP PUSH1 0x40 DUP1 MLOAD PUSH1 0x1 PUSH1 0x1 PUSH1 0xA0 SHL SUB DUP1 DUP9 AND DUP3 MSTORE DUP7 AND PUSH1 0x20 DUP3 ADD MSTORE SWAP1 DUP2 ADD DUP5 SWAP1 MSTORE PUSH32 0x188177A91F9B084DADC3C86215FF29AA75DDAF05ED75983C8C498C40989D58C9 SWAP1 PUSH1 0x60 ADD PUSH1 0x40 MLOAD DUP1 SWAP2 SUB SWAP1 LOG1 POP PUSH1 0x1 SWAP5 SWAP4 POP POP POP POP JUMP JUMPDEST PUSH2 0x114D CALLER DUP4 DUP4 PUSH2 0x1AC8 JUMP JUMPDEST POP POP JUMP JUMPDEST PUSH1 0x4 SLOAD PUSH0 SWAP1 PUSH1 0x1 PUSH1 0x1 PUSH1 0xA0 SHL SUB AND CALLER EQ PUSH2 0x117D JUMPI PUSH1 0x40 MLOAD PUSH3 0x461BCD PUSH1 0xE5 SHL DUP2 MSTORE PUSH1 0x4 ADD PUSH2 0x4FC SWAP1 PUSH2 0x266D JUMP JUMPDEST PUSH1 0xC DUP1 SLOAD PUSH1 0xFF NOT AND SWAP1 SSTORE PUSH1 0x40 MLOAD PUSH32 0xA45ACEC63F6AC615004262A66FB13BFBC1EB0D6428DCCED53EFA9500185DC4A5 SWAP1 PUSH0 SWAP1 LOG1 POP PUSH1 0x1 SWAP1 JUMP JUMPDEST PUSH1 0x1 PUSH1 0x1 PUSH1 0xA0 SHL SUB DUP2 AND PUSH0 SWAP1 DUP2 MSTORE PUSH1 0xA PUSH1 0x20 MSTORE PUSH1 0x40 DUP2 KECCAK256 SLOAD PUSH2 0x1219 JUMPI PUSH1 0x40 MLOAD PUSH3 0x461BCD PUSH1 0xE5 SHL DUP2 MSTORE PUSH1 0x20 PUSH1 0x4 DUP3 ADD MSTORE PUSH1 0x17 PUSH1 0x24 DUP3 ADD MSTORE PUSH32 0x4E6F2066756E647320746F20626520726566756E646564000000000000000000 PUSH1 0x44 DUP3 ADD MSTORE PUSH1 0x64 ADD PUSH2 0x4FC JUMP JUMPDEST PUSH1 0x1 PUSH1 0x1 PUSH1 0xA0 SHL SUB DUP3 AND PUSH0 PUSH2 0x122E CALLER DUP4 PUSH2 0x496 JUMP JUMPDEST SWAP1 POP PUSH0 DUP2 GT PUSH2 0x127F JUMPI PUSH1 0x40 MLOAD PUSH3 0x461BCD PUSH1 0xE5 SHL DUP2 MSTORE PUSH1 0x20 PUSH1 0x4 DUP3 ADD MSTORE PUSH1 0x1E PUSH1 0x24 DUP3 ADD MSTORE PUSH32 0x4E6F20726566756E6473206F77656420746F206D73672073656E6465722E0000 PUSH1 0x44 DUP3 ADD MSTORE PUSH1 0x64 ADD PUSH2 0x4FC JUMP JUMPDEST PUSH0 DUP3 DUP2 MSTORE PUSH1 0x9 PUSH1 0x20 MSTORE PUSH1 0x40 DUP1 DUP3 KECCAK256 SLOAD SWAP1 MLOAD PUSH4 0x70A08231 PUSH1 0xE0 SHL DUP2 MSTORE ADDRESS PUSH1 0x4 DUP3 ADD MSTORE PUSH1 0x1 PUSH1 0x1 PUSH1 0xA0 SHL SUB DUP8 AND SWAP1 PUSH4 0x70A08231 SWAP1 PUSH1 0x24 ADD PUSH1 0x20 PUSH1 0x40 MLOAD DUP1 DUP4 SUB DUP2 DUP7 GAS STATICCALL ISZERO DUP1 ISZERO PUSH2 0x12CF JUMPI RETURNDATASIZE PUSH0 DUP1 RETURNDATACOPY RETURNDATASIZE PUSH0 REVERT JUMPDEST POP POP POP POP PUSH1 0x40 MLOAD RETURNDATASIZE PUSH1 0x1F NOT PUSH1 0x1F DUP3 ADD AND DUP3 ADD DUP1 PUSH1 0x40 MSTORE POP DUP2 ADD SWAP1 PUSH2 0x12F3 SWAP2 SWAP1 PUSH2 0x26C6 JUMP JUMPDEST PUSH2 0x12FD SWAP1 DUP5 PUSH2 0x2839 JUMP JUMPDEST PUSH2 0x1307 SWAP2 SWAP1 PUSH2 0x2850 JUMP JUMPDEST PUSH1 0x40 MLOAD PUSH4 0xA9059CBB PUSH1 0xE0 SHL DUP2 MSTORE CALLER PUSH1 0x4 DUP3 ADD MSTORE PUSH1 0x24 DUP2 ADD DUP3 SWAP1 MSTORE SWAP1 SWAP2 POP PUSH1 0x1 PUSH1 0x1 PUSH1 0xA0 SHL SUB DUP7 AND SWAP1 PUSH4 0xA9059CBB SWAP1 PUSH1 0x44 ADD PUSH1 0x20 PUSH1 0x40 MLOAD DUP1 DUP4 SUB DUP2 PUSH0 DUP8 GAS CALL ISZERO DUP1 ISZERO PUSH2 0x1354 JUMPI RETURNDATASIZE PUSH0 DUP1 RETURNDATACOPY RETURNDATASIZE PUSH0 REVERT JUMPDEST POP POP POP POP PUSH1 0x40 MLOAD RETURNDATASIZE PUSH1 0x1F NOT PUSH1 0x1F DUP3 ADD AND DUP3 ADD DUP1 PUSH1 0x40 MSTORE POP DUP2 ADD SWAP1 PUSH2 0x1378 SWAP2 SWAP1 PUSH2 0x26DD JUMP JUMPDEST POP PUSH2 0x1384 CALLER DUP5 DUP5 PUSH2 0x1BA7 JUMP JUMPDEST PUSH1 0x40 DUP1 MLOAD CALLER DUP2 MSTORE PUSH1 0x1 PUSH1 0x1 PUSH1 0xA0 SHL SUB DUP8 AND PUSH1 0x20 DUP3 ADD MSTORE SWAP1 DUP2 ADD DUP3 SWAP1 MSTORE PUSH32 0xEC1E5ED733E00F1A00915D56CAEF57B4F52312DDE4F9B3165F213319A0DA156B SWAP1 PUSH1 0x60 ADD PUSH1 0x40 MLOAD DUP1 SWAP2 SUB SWAP1 LOG1 POP PUSH1 0x1 SWAP5 SWAP4 POP POP POP POP JUMP JUMPDEST PUSH1 0x4 SLOAD PUSH0 SWAP1 PUSH1 0x1 PUSH1 0x1 PUSH1 0xA0 SHL SUB AND CALLER EQ PUSH2 0xDFF JUMPI PUSH1 0x40 MLOAD PUSH3 0x461BCD PUSH1 0xE5 SHL DUP2 MSTORE PUSH1 0x4 ADD PUSH2 0x4FC SWAP1 PUSH2 0x266D JUMP JUMPDEST PUSH1 0x1 PUSH1 0x1 PUSH1 0xA0 SHL SUB DUP6 AND CALLER EQ DUP1 PUSH2 0x1420 JUMPI POP PUSH2 0x1420 DUP6 CALLER PUSH2 0x43B JUMP JUMPDEST PUSH2 0x143C JUMPI PUSH1 0x40 MLOAD PUSH3 0x461BCD PUSH1 0xE5 SHL DUP2 MSTORE PUSH1 0x4 ADD PUSH2 0x4FC SWAP1 PUSH2 0x2738 JUMP JUMPDEST PUSH2 0xAA1 DUP6 DUP6 DUP6 DUP6 DUP6 PUSH2 0x1D1E JUMP JUMPDEST PUSH2 0x1451 PUSH2 0x17BC JUMP JUMPDEST PUSH1 0x1 PUSH1 0x1 PUSH1 0xA0 SHL SUB DUP2 AND PUSH2 0x14B6 JUMPI PUSH1 0x40 MLOAD PUSH3 0x461BCD PUSH1 0xE5 SHL DUP2 MSTORE PUSH1 0x20 PUSH1 0x4 DUP3 ADD MSTORE PUSH1 0x26 PUSH1 0x24 DUP3 ADD MSTORE PUSH32 0x4F776E61626C653A206E6577206F776E657220697320746865207A65726F2061 PUSH1 0x44 DUP3 ADD MSTORE PUSH6 0x646472657373 PUSH1 0xD0 SHL PUSH1 0x64 DUP3 ADD MSTORE PUSH1 0x84 ADD PUSH2 0x4FC JUMP JUMPDEST PUSH2 0x14BF DUP2 PUSH2 0x1816 JUMP JUMPDEST POP JUMP JUMPDEST PUSH1 0x4 SLOAD PUSH0 SWAP1 PUSH1 0x1 PUSH1 0x1 PUSH1 0xA0 SHL SUB AND CALLER EQ PUSH2 0xDC6 JUMPI PUSH1 0x40 MLOAD PUSH3 0x461BCD PUSH1 0xE5 SHL DUP2 MSTORE PUSH1 0x4 ADD PUSH2 0x4FC SWAP1 PUSH2 0x266D JUMP JUMPDEST PUSH1 0xC SLOAD PUSH0 SWAP1 PUSH3 0x10000 SWAP1 DIV PUSH1 0xFF AND ISZERO PUSH2 0x155C JUMPI PUSH1 0x40 MLOAD PUSH3 0x461BCD PUSH1 0xE5 SHL DUP2 MSTORE PUSH1 0x20 PUSH1 0x4 DUP3 ADD MSTORE PUSH1 0x2A PUSH1 0x24 DUP3 ADD MSTORE PUSH32 0x4E6F2066756E647320746F20726566756E6420666F722077697468647261776E PUSH1 0x44 DUP3 ADD MSTORE PUSH10 0x10383937B532B1BA3997 PUSH1 0xB1 SHL PUSH1 0x64 DUP3 ADD MSTORE PUSH1 0x84 ADD PUSH2 0x4FC JUMP JUMPDEST PUSH1 0x40 MLOAD PUSH4 0x70A08231 PUSH1 0xE0 SHL DUP2 MSTORE ADDRESS PUSH1 0x4 DUP3 ADD MSTORE PUSH1 0x1 PUSH1 0x1 PUSH1 0xA0 SHL SUB DUP4 AND SWAP1 PUSH4 0x70A08231 SWAP1 PUSH1 0x24 ADD PUSH1 0x20 PUSH1 0x40 MLOAD DUP1 DUP4 SUB DUP2 DUP7 GAS STATICCALL ISZERO DUP1 ISZERO PUSH2 0x159E JUMPI RETURNDATASIZE PUSH0 DUP1 RETURNDATACOPY RETURNDATASIZE PUSH0 REVERT JUMPDEST POP POP POP POP PUSH1 0x40 MLOAD RETURNDATASIZE PUSH1 0x1F NOT PUSH1 0x1F DUP3 ADD AND DUP3 ADD DUP1 PUSH1 0x40 MSTORE POP DUP2 ADD SWAP1 PUSH2 0x15C2 SWAP2 SWAP1 PUSH2 0x26C6 JUMP JUMPDEST PUSH1 0x1 PUSH1 0x1 PUSH1 0xA0 SHL SUB SWAP1 SWAP3 AND PUSH0 SWAP1 DUP2 MSTORE PUSH1 0xA PUSH1 0x20 MSTORE PUSH1 0x40 SWAP1 KECCAK256 SWAP2 SWAP1 SWAP2 SSTORE POP PUSH1 0x1 SWAP1 JUMP JUMPDEST DUP2 MLOAD DUP4 MLOAD EQ PUSH2 0x1646 JUMPI PUSH1 0x40 MLOAD PUSH3 0x461BCD PUSH1 0xE5 SHL DUP2 MSTORE PUSH1 0x20 PUSH1 0x4 DUP3 ADD MSTORE PUSH1 0x28 PUSH1 0x24 DUP3 ADD MSTORE PUSH32 0x455243313135353A2069647320616E6420616D6F756E7473206C656E67746820 PUSH1 0x44 DUP3 ADD MSTORE PUSH8 0xDAD2E6DAC2E8C6D PUSH1 0xC3 SHL PUSH1 0x64 DUP3 ADD MSTORE PUSH1 0x84 ADD PUSH2 0x4FC JUMP JUMPDEST PUSH1 0x1 PUSH1 0x1 PUSH1 0xA0 SHL SUB DUP5 AND PUSH2 0x166C JUMPI PUSH1 0x40 MLOAD PUSH3 0x461BCD PUSH1 0xE5 SHL DUP2 MSTORE PUSH1 0x4 ADD PUSH2 0x4FC SWAP1 PUSH2 0x286F JUMP JUMPDEST CALLER PUSH0 JUMPDEST DUP5 MLOAD DUP2 LT ISZERO PUSH2 0x174E JUMPI PUSH0 DUP6 DUP3 DUP2 MLOAD DUP2 LT PUSH2 0x168B JUMPI PUSH2 0x168B PUSH2 0x26F8 JUMP JUMPDEST PUSH1 0x20 MUL PUSH1 0x20 ADD ADD MLOAD SWAP1 POP PUSH0 DUP6 DUP4 DUP2 MLOAD DUP2 LT PUSH2 0x16A8 JUMPI PUSH2 0x16A8 PUSH2 0x26F8 JUMP JUMPDEST PUSH1 0x20 SWAP1 DUP2 MUL SWAP2 SWAP1 SWAP2 ADD DUP2 ADD MLOAD PUSH0 DUP5 DUP2 MSTORE DUP1 DUP4 MSTORE PUSH1 0x40 DUP1 DUP3 KECCAK256 PUSH1 0x1 PUSH1 0x1 PUSH1 0xA0 SHL SUB DUP15 AND DUP4 MSTORE SWAP1 SWAP4 MSTORE SWAP2 SWAP1 SWAP2 KECCAK256 SLOAD SWAP1 SWAP2 POP DUP2 DUP2 LT ISZERO PUSH2 0x16F7 JUMPI PUSH1 0x40 MLOAD PUSH3 0x461BCD PUSH1 0xE5 SHL DUP2 MSTORE PUSH1 0x4 ADD PUSH2 0x4FC SWAP1 PUSH2 0x28B4 JUMP JUMPDEST PUSH0 DUP4 DUP2 MSTORE PUSH1 0x20 DUP2 DUP2 MSTORE PUSH1 0x40 DUP1 DUP4 KECCAK256 PUSH1 0x1 PUSH1 0x1 PUSH1 0xA0 SHL SUB DUP15 DUP2 AND DUP6 MSTORE SWAP3 MSTORE DUP1 DUP4 KECCAK256 DUP6 DUP6 SUB SWAP1 SSTORE SWAP1 DUP12 AND DUP3 MSTORE DUP2 KECCAK256 DUP1 SLOAD DUP5 SWAP3 SWAP1 PUSH2 0x1733 SWAP1 DUP5 SWAP1 PUSH2 0x2826 JUMP JUMPDEST SWAP3 POP POP DUP2 SWAP1 SSTORE POP POP POP POP DUP1 PUSH2 0x1747 SWAP1 PUSH2 0x2720 JUMP JUMPDEST SWAP1 POP PUSH2 0x166F JUMP JUMPDEST POP DUP5 PUSH1 0x1 PUSH1 0x1 PUSH1 0xA0 SHL SUB AND DUP7 PUSH1 0x1 PUSH1 0x1 PUSH1 0xA0 SHL SUB AND DUP3 PUSH1 0x1 PUSH1 0x1 PUSH1 0xA0 SHL SUB AND PUSH32 0x4A39DC06D4C0DBC64B70AF90FD698A233A518AA5D07E595D983B8C0526C8F7FB DUP8 DUP8 PUSH1 0x40 MLOAD PUSH2 0x179E SWAP3 SWAP2 SWAP1 PUSH2 0x28FE JUMP JUMPDEST PUSH1 0x40 MLOAD DUP1 SWAP2 SUB SWAP1 LOG4 PUSH2 0x17B4 DUP2 DUP8 DUP8 DUP8 DUP8 DUP8 PUSH2 0x1E44 JUMP JUMPDEST POP POP POP POP POP POP JUMP JUMPDEST PUSH1 0x3 SLOAD PUSH1 0x1 PUSH1 0x1 PUSH1 0xA0 SHL SUB AND CALLER EQ PUSH2 0xD37 JUMPI PUSH1 0x40 MLOAD PUSH3 0x461BCD PUSH1 0xE5 SHL DUP2 MSTORE PUSH1 0x20 PUSH1 0x4 DUP3 ADD DUP2 SWAP1 MSTORE PUSH1 0x24 DUP3 ADD MSTORE PUSH32 0x4F776E61626C653A2063616C6C6572206973206E6F7420746865206F776E6572 PUSH1 0x44 DUP3 ADD MSTORE PUSH1 0x64 ADD PUSH2 0x4FC JUMP JUMPDEST PUSH1 0x3 DUP1 SLOAD PUSH1 0x1 PUSH1 0x1 PUSH1 0xA0 SHL SUB DUP4 DUP2 AND PUSH1 0x1 PUSH1 0x1 PUSH1 0xA0 SHL SUB NOT DUP4 AND DUP2 OR SWAP1 SWAP4 SSTORE PUSH1 0x40 MLOAD SWAP2 AND SWAP2 SWAP1 DUP3 SWAP1 PUSH32 0x8BE0079C531659141344CD1FD0A4F28419497F9722A3DAAFE3B4186F6B6457E0 SWAP1 PUSH0 SWAP1 LOG3 POP POP JUMP JUMPDEST PUSH1 0xC DUP1 SLOAD PUSH2 0xFF00 NOT AND SWAP1 SSTORE PUSH1 0x40 DUP1 MLOAD PUSH4 0x1E5BC7F PUSH1 0xE5 SHL DUP2 MSTORE SWAP1 MLOAD PUSH0 SWAP2 ADDRESS SWAP2 PUSH4 0x3CB78FE0 SWAP2 PUSH1 0x4 DUP1 DUP3 ADD SWAP3 PUSH1 0x20 SWAP3 SWAP1 SWAP2 SWAP1 DUP3 SWAP1 SUB ADD DUP2 DUP8 DUP8 GAS CALL ISZERO DUP1 ISZERO PUSH2 0x18B0 JUMPI RETURNDATASIZE PUSH0 DUP1 RETURNDATACOPY RETURNDATASIZE PUSH0 REVERT JUMPDEST POP POP POP POP PUSH1 0x40 MLOAD RETURNDATASIZE PUSH1 0x1F NOT PUSH1 0x1F DUP3 ADD AND DUP3 ADD DUP1 PUSH1 0x40 MSTORE POP DUP2 ADD SWAP1 PUSH2 0x18D4 SWAP2 SWAP1 PUSH2 0x26DD JUMP JUMPDEST PUSH2 0x18E0 JUMPI PUSH2 0x18E0 PUSH2 0x26B2 JUMP JUMPDEST PUSH1 0x40 MLOAD PUSH32 0x156D027F9D371E1464249DBD8DAACDCE9FA6F2A0D9FDA528482A22C1583B0EA6 SWAP1 PUSH0 SWAP1 LOG1 POP PUSH1 0x1 SWAP1 JUMP JUMPDEST PUSH1 0xC DUP1 SLOAD PUSH2 0xFF00 NOT AND PUSH2 0x100 OR SWAP1 SSTORE PUSH1 0x40 DUP1 MLOAD PUSH4 0x2EFFF413 PUSH1 0xE2 SHL DUP2 MSTORE SWAP1 MLOAD PUSH0 SWAP2 ADDRESS SWAP2 PUSH4 0xBBFFD04C SWAP2 PUSH1 0x4 DUP1 DUP3 ADD SWAP3 PUSH1 0x20 SWAP3 SWAP1 SWAP2 SWAP1 DUP3 SWAP1 SUB ADD DUP2 DUP8 DUP8 GAS CALL ISZERO DUP1 ISZERO PUSH2 0x195B JUMPI RETURNDATASIZE PUSH0 DUP1 RETURNDATACOPY RETURNDATASIZE PUSH0 REVERT JUMPDEST POP POP POP POP PUSH1 0x40 MLOAD RETURNDATASIZE PUSH1 0x1F NOT PUSH1 0x1F DUP3 ADD AND DUP3 ADD DUP1 PUSH1 0x40 MSTORE POP DUP2 ADD SWAP1 PUSH2 0x197F SWAP2 SWAP1 PUSH2 0x26DD JUMP JUMPDEST PUSH2 0x198B JUMPI PUSH2 0x198B PUSH2 0x26B2 JUMP JUMPDEST PUSH1 0x40 MLOAD PUSH32 0xA5BAF151492801D3B7A89ECE73C1ED0B6DDE992D47A0E283FF7D352BBA70E0F5 SWAP1 PUSH0 SWAP1 LOG1 POP PUSH1 0x1 SWAP1 JUMP JUMPDEST PUSH1 0x1 PUSH1 0x1 PUSH1 0xA0 SHL SUB DUP5 AND PUSH2 0x1A19 JUMPI PUSH1 0x40 MLOAD PUSH3 0x461BCD PUSH1 0xE5 SHL DUP2 MSTORE PUSH1 0x20 PUSH1 0x4 DUP3 ADD MSTORE PUSH1 0x21 PUSH1 0x24 DUP3 ADD MSTORE PUSH32 0x455243313135353A206D696E7420746F20746865207A65726F20616464726573 PUSH1 0x44 DUP3 ADD MSTORE PUSH1 0x73 PUSH1 0xF8 SHL PUSH1 0x64 DUP3 ADD MSTORE PUSH1 0x84 ADD PUSH2 0x4FC JUMP JUMPDEST CALLER PUSH0 PUSH2 0x1A24 DUP6 PUSH2 0x1F9E JUMP JUMPDEST SWAP1 POP PUSH0 PUSH2 0x1A30 DUP6 PUSH2 0x1F9E JUMP JUMPDEST SWAP1 POP PUSH0 DUP7 DUP2 MSTORE PUSH1 0x20 DUP2 DUP2 MSTORE PUSH1 0x40 DUP1 DUP4 KECCAK256 PUSH1 0x1 PUSH1 0x1 PUSH1 0xA0 SHL SUB DUP12 AND DUP5 MSTORE SWAP1 SWAP2 MSTORE DUP2 KECCAK256 DUP1 SLOAD DUP8 SWAP3 SWAP1 PUSH2 0x1A61 SWAP1 DUP5 SWAP1 PUSH2 0x2826 JUMP JUMPDEST SWAP1 SWAP2 SSTORE POP POP PUSH1 0x40 DUP1 MLOAD DUP8 DUP2 MSTORE PUSH1 0x20 DUP2 ADD DUP8 SWAP1 MSTORE PUSH1 0x1 PUSH1 0x1 PUSH1 0xA0 SHL SUB DUP1 DUP11 AND SWAP3 PUSH0 SWAP3 SWAP2 DUP8 AND SWAP2 PUSH32 0xC3D58168C5AE7397731D063D5BBF3D657854427343F4C083240F7AACAA2D0F62 SWAP2 ADD PUSH1 0x40 MLOAD DUP1 SWAP2 SUB SWAP1 LOG4 PUSH2 0x1ABF DUP4 PUSH0 DUP10 DUP10 DUP10 DUP10 PUSH2 0x1FE7 JUMP JUMPDEST POP POP POP POP POP POP POP JUMP JUMPDEST DUP2 PUSH1 0x1 PUSH1 0x1 PUSH1 0xA0 SHL SUB AND DUP4 PUSH1 0x1 PUSH1 0x1 PUSH1 0xA0 SHL SUB AND SUB PUSH2 0x1B3B JUMPI PUSH1 0x40 MLOAD PUSH3 0x461BCD PUSH1 0xE5 SHL DUP2 MSTORE PUSH1 0x20 PUSH1 0x4 DUP3 ADD MSTORE PUSH1 0x29 PUSH1 0x24 DUP3 ADD MSTORE PUSH32 0x455243313135353A2073657474696E6720617070726F76616C20737461747573 PUSH1 0x44 DUP3 ADD MSTORE PUSH9 0x103337B91039B2B633 PUSH1 0xB9 SHL PUSH1 0x64 DUP3 ADD MSTORE PUSH1 0x84 ADD PUSH2 0x4FC JUMP JUMPDEST PUSH1 0x1 PUSH1 0x1 PUSH1 0xA0 SHL SUB DUP4 DUP2 AND PUSH0 DUP2 DUP2 MSTORE PUSH1 0x1 PUSH1 0x20 SWAP1 DUP2 MSTORE PUSH1 0x40 DUP1 DUP4 KECCAK256 SWAP5 DUP8 AND DUP1 DUP5 MSTORE SWAP5 DUP3 MSTORE SWAP2 DUP3 SWAP1 KECCAK256 DUP1 SLOAD PUSH1 0xFF NOT AND DUP7 ISZERO ISZERO SWAP1 DUP2 OR SWAP1 SWAP2 SSTORE SWAP2 MLOAD SWAP2 DUP3 MSTORE PUSH32 0x17307EAB39AB6107E8899845AD3D59BD9653F200F220920489CA2B5937696C31 SWAP2 ADD PUSH1 0x40 MLOAD DUP1 SWAP2 SUB SWAP1 LOG3 POP POP POP JUMP JUMPDEST PUSH1 0x1 PUSH1 0x1 PUSH1 0xA0 SHL SUB DUP4 AND PUSH2 0x1C09 JUMPI PUSH1 0x40 MLOAD PUSH3 0x461BCD PUSH1 0xE5 SHL DUP2 MSTORE PUSH1 0x20 PUSH1 0x4 DUP3 ADD MSTORE PUSH1 0x23 PUSH1 0x24 DUP3 ADD MSTORE PUSH32 0x455243313135353A206275726E2066726F6D20746865207A65726F2061646472 PUSH1 0x44 DUP3 ADD MSTORE PUSH3 0x657373 PUSH1 0xE8 SHL PUSH1 0x64 DUP3 ADD MSTORE PUSH1 0x84 ADD PUSH2 0x4FC JUMP JUMPDEST CALLER PUSH0 PUSH2 0x1C14 DUP5 PUSH2 0x1F9E JUMP JUMPDEST SWAP1 POP PUSH0 PUSH2 0x1C20 DUP5 PUSH2 0x1F9E JUMP JUMPDEST PUSH1 0x40 DUP1 MLOAD PUSH1 0x20 DUP1 DUP3 ADD DUP4 MSTORE PUSH0 SWAP2 DUP3 SWAP1 MSTORE DUP9 DUP3 MSTORE DUP2 DUP2 MSTORE DUP3 DUP3 KECCAK256 PUSH1 0x1 PUSH1 0x1 PUSH1 0xA0 SHL SUB DUP12 AND DUP4 MSTORE SWAP1 MSTORE KECCAK256 SLOAD SWAP1 SWAP2 POP DUP5 DUP2 LT ISZERO PUSH2 0x1CA8 JUMPI PUSH1 0x40 MLOAD PUSH3 0x461BCD PUSH1 0xE5 SHL DUP2 MSTORE PUSH1 0x20 PUSH1 0x4 DUP3 ADD MSTORE PUSH1 0x24 DUP1 DUP3 ADD MSTORE PUSH32 0x455243313135353A206275726E20616D6F756E7420657863656564732062616C PUSH1 0x44 DUP3 ADD MSTORE PUSH4 0x616E6365 PUSH1 0xE0 SHL PUSH1 0x64 DUP3 ADD MSTORE PUSH1 0x84 ADD PUSH2 0x4FC JUMP JUMPDEST PUSH0 DUP7 DUP2 MSTORE PUSH1 0x20 DUP2 DUP2 MSTORE PUSH1 0x40 DUP1 DUP4 KECCAK256 PUSH1 0x1 PUSH1 0x1 PUSH1 0xA0 SHL SUB DUP12 DUP2 AND DUP1 DUP7 MSTORE SWAP2 DUP5 MSTORE DUP3 DUP6 KECCAK256 DUP11 DUP8 SUB SWAP1 SSTORE DUP3 MLOAD DUP12 DUP2 MSTORE SWAP4 DUP5 ADD DUP11 SWAP1 MSTORE SWAP1 SWAP3 SWAP1 DUP9 AND SWAP2 PUSH32 0xC3D58168C5AE7397731D063D5BBF3D657854427343F4C083240F7AACAA2D0F62 SWAP2 ADD PUSH1 0x40 MLOAD DUP1 SWAP2 SUB SWAP1 LOG4 PUSH1 0x40 DUP1 MLOAD PUSH1 0x20 DUP2 ADD SWAP1 SWAP2 MSTORE PUSH0 SWAP1 MSTORE PUSH2 0x1ABF JUMP JUMPDEST PUSH1 0x1 PUSH1 0x1 PUSH1 0xA0 SHL SUB DUP5 AND PUSH2 0x1D44 JUMPI PUSH1 0x40 MLOAD PUSH3 0x461BCD PUSH1 0xE5 SHL DUP2 MSTORE PUSH1 0x4 ADD PUSH2 0x4FC SWAP1 PUSH2 0x286F JUMP JUMPDEST CALLER PUSH0 PUSH2 0x1D4F DUP6 PUSH2 0x1F9E JUMP JUMPDEST SWAP1 POP PUSH0 PUSH2 0x1D5B DUP6 PUSH2 0x1F9E JUMP JUMPDEST SWAP1 POP PUSH0 DUP7 DUP2 MSTORE PUSH1 0x20 DUP2 DUP2 MSTORE PUSH1 0x40 DUP1 DUP4 KECCAK256 PUSH1 0x1 PUSH1 0x1 PUSH1 0xA0 SHL SUB DUP13 AND DUP5 MSTORE SWAP1 SWAP2 MSTORE SWAP1 KECCAK256 SLOAD DUP6 DUP2 LT ISZERO PUSH2 0x1D9D JUMPI PUSH1 0x40 MLOAD PUSH3 0x461BCD PUSH1 0xE5 SHL DUP2 MSTORE PUSH1 0x4 ADD PUSH2 0x4FC SWAP1 PUSH2 0x28B4 JUMP JUMPDEST PUSH0 DUP8 DUP2 MSTORE PUSH1 0x20 DUP2 DUP2 MSTORE PUSH1 0x40 DUP1 DUP4 KECCAK256 PUSH1 0x1 PUSH1 0x1 PUSH1 0xA0 SHL SUB DUP14 DUP2 AND DUP6 MSTORE SWAP3 MSTORE DUP1 DUP4 KECCAK256 DUP10 DUP6 SUB SWAP1 SSTORE SWAP1 DUP11 AND DUP3 MSTORE DUP2 KECCAK256 DUP1 SLOAD DUP9 SWAP3 SWAP1 PUSH2 0x1DD9 SWAP1 DUP5 SWAP1 PUSH2 0x2826 JUMP JUMPDEST SWAP1 SWAP2 SSTORE POP POP PUSH1 0x40 DUP1 MLOAD DUP9 DUP2 MSTORE PUSH1 0x20 DUP2 ADD DUP9 SWAP1 MSTORE PUSH1 0x1 PUSH1 0x1 PUSH1 0xA0 SHL SUB DUP1 DUP12 AND SWAP3 DUP13 DUP3 AND SWAP3 SWAP2 DUP9 AND SWAP2 PUSH32 0xC3D58168C5AE7397731D063D5BBF3D657854427343F4C083240F7AACAA2D0F62 SWAP2 ADD PUSH1 0x40 MLOAD DUP1 SWAP2 SUB SWAP1 LOG4 PUSH2 0x1E39 DUP5 DUP11 DUP11 DUP11 DUP11 DUP11 PUSH2 0x1FE7 JUMP JUMPDEST POP POP POP POP POP POP POP POP POP JUMP JUMPDEST PUSH1 0x1 PUSH1 0x1 PUSH1 0xA0 SHL SUB DUP5 AND EXTCODESIZE ISZERO PUSH2 0x17B4 JUMPI PUSH1 0x40 MLOAD PUSH4 0xBC197C81 PUSH1 0xE0 SHL DUP2 MSTORE PUSH1 0x1 PUSH1 0x1 PUSH1 0xA0 SHL SUB DUP6 AND SWAP1 PUSH4 0xBC197C81 SWAP1 PUSH2 0x1E88 SWAP1 DUP10 SWAP1 DUP10 SWAP1 DUP9 SWAP1 DUP9 SWAP1 DUP9 SWAP1 PUSH1 0x4 ADD PUSH2 0x292B JUMP JUMPDEST PUSH1 0x20 PUSH1 0x40 MLOAD DUP1 DUP4 SUB DUP2 PUSH0 DUP8 GAS CALL SWAP3 POP POP POP DUP1 ISZERO PUSH2 0x1EC2 JUMPI POP PUSH1 0x40 DUP1 MLOAD PUSH1 0x1F RETURNDATASIZE SWAP1 DUP2 ADD PUSH1 0x1F NOT AND DUP3 ADD SWAP1 SWAP3 MSTORE PUSH2 0x1EBF SWAP2 DUP2 ADD SWAP1 PUSH2 0x2988 JUMP JUMPDEST PUSH1 0x1 JUMPDEST PUSH2 0x1F6E JUMPI PUSH2 0x1ECE PUSH2 0x29A3 JUMP JUMPDEST DUP1 PUSH4 0x8C379A0 SUB PUSH2 0x1F07 JUMPI POP PUSH2 0x1EE2 PUSH2 0x29BB JUMP JUMPDEST DUP1 PUSH2 0x1EED JUMPI POP PUSH2 0x1F09 JUMP JUMPDEST DUP1 PUSH1 0x40 MLOAD PUSH3 0x461BCD PUSH1 0xE5 SHL DUP2 MSTORE PUSH1 0x4 ADD PUSH2 0x4FC SWAP2 SWAP1 PUSH2 0x2170 JUMP JUMPDEST POP JUMPDEST PUSH1 0x40 MLOAD PUSH3 0x461BCD PUSH1 0xE5 SHL DUP2 MSTORE PUSH1 0x20 PUSH1 0x4 DUP3 ADD MSTORE PUSH1 0x34 PUSH1 0x24 DUP3 ADD MSTORE PUSH32 0x455243313135353A207472616E7366657220746F206E6F6E2D45524331313535 PUSH1 0x44 DUP3 ADD MSTORE PUSH20 0x2932B1B2B4BB32B91034B6B83632B6B2B73A32B9 PUSH1 0x61 SHL PUSH1 0x64 DUP3 ADD MSTORE PUSH1 0x84 ADD PUSH2 0x4FC JUMP JUMPDEST PUSH1 0x1 PUSH1 0x1 PUSH1 0xE0 SHL SUB NOT DUP2 AND PUSH4 0xBC197C81 PUSH1 0xE0 SHL EQ PUSH2 0x1ABF JUMPI PUSH1 0x40 MLOAD PUSH3 0x461BCD PUSH1 0xE5 SHL DUP2 MSTORE PUSH1 0x4 ADD PUSH2 0x4FC SWAP1 PUSH2 0x2A44 JUMP JUMPDEST PUSH1 0x40 DUP1 MLOAD PUSH1 0x1 DUP1 DUP3 MSTORE DUP2 DUP4 ADD SWAP1 SWAP3 MSTORE PUSH1 0x60 SWAP2 PUSH0 SWAP2 SWAP1 PUSH1 0x20 DUP1 DUP4 ADD SWAP1 DUP1 CALLDATASIZE DUP4 CALLDATACOPY ADD SWAP1 POP POP SWAP1 POP DUP3 DUP2 PUSH0 DUP2 MLOAD DUP2 LT PUSH2 0x1FD6 JUMPI PUSH2 0x1FD6 PUSH2 0x26F8 JUMP JUMPDEST PUSH1 0x20 SWAP1 DUP2 MUL SWAP2 SWAP1 SWAP2 ADD ADD MSTORE SWAP3 SWAP2 POP POP JUMP JUMPDEST PUSH1 0x1 PUSH1 0x1 PUSH1 0xA0 SHL SUB DUP5 AND EXTCODESIZE ISZERO PUSH2 0x17B4 JUMPI PUSH1 0x40 MLOAD PUSH4 0xF23A6E61 PUSH1 0xE0 SHL DUP2 MSTORE PUSH1 0x1 PUSH1 0x1 PUSH1 0xA0 SHL SUB DUP6 AND SWAP1 PUSH4 0xF23A6E61 SWAP1 PUSH2 0x202B SWAP1 DUP10 SWAP1 DUP10 SWAP1 DUP9 SWAP1 DUP9 SWAP1 DUP9 SWAP1 PUSH1 0x4 ADD PUSH2 0x2A8C JUMP JUMPDEST PUSH1 0x20 PUSH1 0x40 MLOAD DUP1 DUP4 SUB DUP2 PUSH0 DUP8 GAS CALL SWAP3 POP POP POP DUP1 ISZERO PUSH2 0x2065 JUMPI POP PUSH1 0x40 DUP1 MLOAD PUSH1 0x1F RETURNDATASIZE SWAP1 DUP2 ADD PUSH1 0x1F NOT AND DUP3 ADD SWAP1 SWAP3 MSTORE PUSH2 0x2062 SWAP2 DUP2 ADD SWAP1 PUSH2 0x2988 JUMP JUMPDEST PUSH1 0x1 JUMPDEST PUSH2 0x2071 JUMPI PUSH2 0x1ECE PUSH2 0x29A3 JUMP JUMPDEST PUSH1 0x1 PUSH1 0x1 PUSH1 0xE0 SHL SUB NOT DUP2 AND PUSH4 0xF23A6E61 PUSH1 0xE0 SHL EQ PUSH2 0x1ABF JUMPI PUSH1 0x40 MLOAD PUSH3 0x461BCD PUSH1 0xE5 SHL DUP2 MSTORE PUSH1 0x4 ADD PUSH2 0x4FC SWAP1 PUSH2 0x2A44 JUMP JUMPDEST PUSH1 0x1 PUSH1 0x1 PUSH1 0xA0 SHL SUB DUP2 AND DUP2 EQ PUSH2 0x14BF JUMPI PUSH0 DUP1 REVERT JUMPDEST PUSH0 DUP1 PUSH1 0x40 DUP4 DUP6 SUB SLT ISZERO PUSH2 0x20C6 JUMPI PUSH0 DUP1 REVERT JUMPDEST DUP3 CALLDATALOAD PUSH2 0x20D1 DUP2 PUSH2 0x20A1 JUMP JUMPDEST SWAP5 PUSH1 0x20 SWAP4 SWAP1 SWAP4 ADD CALLDATALOAD SWAP4 POP POP POP JUMP JUMPDEST PUSH1 0x1 PUSH1 0x1 PUSH1 0xE0 SHL SUB NOT DUP2 AND DUP2 EQ PUSH2 0x14BF JUMPI PUSH0 DUP1 REVERT JUMPDEST PUSH0 PUSH1 0x20 DUP3 DUP5 SUB SLT ISZERO PUSH2 0x2104 JUMPI PUSH0 DUP1 REVERT JUMPDEST DUP2 CALLDATALOAD PUSH2 0x210F DUP2 PUSH2 0x20DF JUMP JUMPDEST SWAP4 SWAP3 POP POP POP JUMP JUMPDEST PUSH0 PUSH1 0x20 DUP3 DUP5 SUB SLT ISZERO PUSH2 0x2126 JUMPI PUSH0 DUP1 REVERT JUMPDEST POP CALLDATALOAD SWAP2 SWAP1 POP JUMP JUMPDEST PUSH0 DUP2 MLOAD DUP1 DUP5 MSTORE PUSH0 JUMPDEST DUP2 DUP2 LT ISZERO PUSH2 0x2151 JUMPI PUSH1 0x20 DUP2 DUP6 ADD DUP2 ADD MLOAD DUP7 DUP4 ADD DUP3 ADD MSTORE ADD PUSH2 0x2135 JUMP JUMPDEST POP PUSH0 PUSH1 0x20 DUP3 DUP7 ADD ADD MSTORE PUSH1 0x20 PUSH1 0x1F NOT PUSH1 0x1F DUP4 ADD AND DUP6 ADD ADD SWAP2 POP POP SWAP3 SWAP2 POP POP JUMP JUMPDEST PUSH1 0x20 DUP2 MSTORE PUSH0 PUSH2 0x210F PUSH1 0x20 DUP4 ADD DUP5 PUSH2 0x212D JUMP JUMPDEST DUP1 ISZERO ISZERO DUP2 EQ PUSH2 0x14BF JUMPI PUSH0 DUP1 REVERT JUMPDEST PUSH0 DUP1 PUSH0 PUSH1 0x60 DUP5 DUP7 SUB SLT ISZERO PUSH2 0x21A1 JUMPI PUSH0 DUP1 REVERT JUMPDEST DUP4 CALLDATALOAD PUSH2 0x21AC DUP2 PUSH2 0x20A1 JUMP JUMPDEST SWAP3 POP PUSH1 0x20 DUP5 ADD CALLDATALOAD SWAP2 POP PUSH1 0x40 DUP5 ADD CALLDATALOAD PUSH2 0x21C3 DUP2 PUSH2 0x2182 JUMP JUMPDEST DUP1 SWAP2 POP POP SWAP3 POP SWAP3 POP SWAP3 JUMP JUMPDEST PUSH4 0x4E487B71 PUSH1 0xE0 SHL PUSH0 MSTORE PUSH1 0x41 PUSH1 0x4 MSTORE PUSH1 0x24 PUSH0 REVERT JUMPDEST PUSH1 0x1F DUP3 ADD PUSH1 0x1F NOT AND DUP2 ADD PUSH8 0xFFFFFFFFFFFFFFFF DUP2 GT DUP3 DUP3 LT OR ISZERO PUSH2 0x2208 JUMPI PUSH2 0x2208 PUSH2 0x21CE JUMP JUMPDEST PUSH1 0x40 MSTORE POP POP JUMP JUMPDEST PUSH0 PUSH8 0xFFFFFFFFFFFFFFFF DUP3 GT ISZERO PUSH2 0x2228 JUMPI PUSH2 0x2228 PUSH2 0x21CE JUMP JUMPDEST POP PUSH1 0x5 SHL PUSH1 0x20 ADD SWAP1 JUMP JUMPDEST PUSH0 DUP3 PUSH1 0x1F DUP4 ADD SLT PUSH2 0x2241 JUMPI PUSH0 DUP1 REVERT JUMPDEST DUP2 CALLDATALOAD PUSH1 0x20 PUSH2 0x224E DUP3 PUSH2 0x220F JUMP JUMPDEST PUSH1 0x40 MLOAD PUSH2 0x225B DUP3 DUP3 PUSH2 0x21E2 JUMP JUMPDEST DUP4 DUP2 MSTORE PUSH1 0x5 SWAP4 SWAP1 SWAP4 SHL DUP6 ADD DUP3 ADD SWAP3 DUP3 DUP2 ADD SWAP2 POP DUP7 DUP5 GT ISZERO PUSH2 0x227A JUMPI PUSH0 DUP1 REVERT JUMPDEST DUP3 DUP7 ADD JUMPDEST DUP5 DUP2 LT ISZERO PUSH2 0x2295 JUMPI DUP1 CALLDATALOAD DUP4 MSTORE SWAP2 DUP4 ADD SWAP2 DUP4 ADD PUSH2 0x227E JUMP JUMPDEST POP SWAP7 SWAP6 POP POP POP POP POP POP JUMP JUMPDEST PUSH0 DUP3 PUSH1 0x1F DUP4 ADD SLT PUSH2 0x22AF JUMPI PUSH0 DUP1 REVERT JUMPDEST DUP2 CALLDATALOAD PUSH8 0xFFFFFFFFFFFFFFFF DUP2 GT ISZERO PUSH2 0x22C9 JUMPI PUSH2 0x22C9 PUSH2 0x21CE JUMP JUMPDEST PUSH1 0x40 MLOAD PUSH2 0x22E0 PUSH1 0x1F DUP4 ADD PUSH1 0x1F NOT AND PUSH1 0x20 ADD DUP3 PUSH2 0x21E2 JUMP JUMPDEST DUP2 DUP2 MSTORE DUP5 PUSH1 0x20 DUP4 DUP7 ADD ADD GT ISZERO PUSH2 0x22F4 JUMPI PUSH0 DUP1 REVERT JUMPDEST DUP2 PUSH1 0x20 DUP6 ADD PUSH1 0x20 DUP4 ADD CALLDATACOPY PUSH0 SWAP2 DUP2 ADD PUSH1 0x20 ADD SWAP2 SWAP1 SWAP2 MSTORE SWAP4 SWAP3 POP POP POP JUMP JUMPDEST PUSH0 DUP1 PUSH0 DUP1 PUSH0 PUSH1 0xA0 DUP7 DUP9 SUB SLT ISZERO PUSH2 0x2324 JUMPI PUSH0 DUP1 REVERT JUMPDEST DUP6 CALLDATALOAD PUSH2 0x232F DUP2 PUSH2 0x20A1 JUMP JUMPDEST SWAP5 POP PUSH1 0x20 DUP7 ADD CALLDATALOAD PUSH2 0x233F DUP2 PUSH2 0x20A1 JUMP JUMPDEST SWAP4 POP PUSH1 0x40 DUP7 ADD CALLDATALOAD PUSH8 0xFFFFFFFFFFFFFFFF DUP1 DUP3 GT ISZERO PUSH2 0x235B JUMPI PUSH0 DUP1 REVERT JUMPDEST PUSH2 0x2367 DUP10 DUP4 DUP11 ADD PUSH2 0x2232 JUMP JUMPDEST SWAP5 POP PUSH1 0x60 DUP9 ADD CALLDATALOAD SWAP2 POP DUP1 DUP3 GT ISZERO PUSH2 0x237C JUMPI PUSH0 DUP1 REVERT JUMPDEST PUSH2 0x2388 DUP10 DUP4 DUP11 ADD PUSH2 0x2232 JUMP JUMPDEST SWAP4 POP PUSH1 0x80 DUP9 ADD CALLDATALOAD SWAP2 POP DUP1 DUP3 GT ISZERO PUSH2 0x239D JUMPI PUSH0 DUP1 REVERT JUMPDEST POP PUSH2 0x23AA DUP9 DUP3 DUP10 ADD PUSH2 0x22A0 JUMP JUMPDEST SWAP2 POP POP SWAP3 SWAP6 POP SWAP3 SWAP6 SWAP1 SWAP4 POP JUMP JUMPDEST PUSH0 PUSH1 0x20 DUP3 DUP5 SUB SLT ISZERO PUSH2 0x23C7 JUMPI PUSH0 DUP1 REVERT JUMPDEST DUP2 CALLDATALOAD PUSH2 0x210F DUP2 PUSH2 0x20A1 JUMP JUMPDEST PUSH0 DUP1 PUSH1 0x40 DUP4 DUP6 SUB SLT ISZERO PUSH2 0x23E3 JUMPI PUSH0 DUP1 REVERT JUMPDEST DUP3 CALLDATALOAD PUSH8 0xFFFFFFFFFFFFFFFF DUP1 DUP3 GT ISZERO PUSH2 0x23FA JUMPI PUSH0 DUP1 REVERT JUMPDEST DUP2 DUP6 ADD SWAP2 POP DUP6 PUSH1 0x1F DUP4 ADD SLT PUSH2 0x240D JUMPI PUSH0 DUP1 REVERT JUMPDEST DUP2 CALLDATALOAD PUSH1 0x20 PUSH2 0x241A DUP3 PUSH2 0x220F JUMP JUMPDEST PUSH1 0x40 MLOAD PUSH2 0x2427 DUP3 DUP3 PUSH2 0x21E2 JUMP JUMPDEST DUP4 DUP2 MSTORE PUSH1 0x5 SWAP4 SWAP1 SWAP4 SHL DUP6 ADD DUP3 ADD SWAP3 DUP3 DUP2 ADD SWAP2 POP DUP10 DUP5 GT ISZERO PUSH2 0x2446 JUMPI PUSH0 DUP1 REVERT JUMPDEST SWAP5 DUP3 ADD SWAP5 JUMPDEST DUP4 DUP7 LT ISZERO PUSH2 0x246D JUMPI DUP6 CALLDATALOAD PUSH2 0x245E DUP2 PUSH2 0x20A1 JUMP JUMPDEST DUP3 MSTORE SWAP5 DUP3 ADD SWAP5 SWAP1 DUP3 ADD SWAP1 PUSH2 0x244B JUMP JUMPDEST SWAP7 POP POP DUP7 ADD CALLDATALOAD SWAP3 POP POP DUP1 DUP3 GT ISZERO PUSH2 0x2482 JUMPI PUSH0 DUP1 REVERT JUMPDEST POP PUSH2 0x248F DUP6 DUP3 DUP7 ADD PUSH2 0x2232 JUMP JUMPDEST SWAP2 POP POP SWAP3 POP SWAP3 SWAP1 POP JUMP JUMPDEST PUSH0 DUP2 MLOAD DUP1 DUP5 MSTORE PUSH1 0x20 DUP1 DUP6 ADD SWAP5 POP DUP1 DUP5 ADD PUSH0 JUMPDEST DUP4 DUP2 LT ISZERO PUSH2 0x24C7 JUMPI DUP2 MLOAD DUP8 MSTORE SWAP6 DUP3 ADD SWAP6 SWAP1 DUP3 ADD SWAP1 PUSH1 0x1 ADD PUSH2 0x24AB JUMP JUMPDEST POP SWAP5 SWAP6 SWAP5 POP POP POP POP POP JUMP JUMPDEST PUSH1 0x20 DUP2 MSTORE PUSH0 PUSH2 0x210F PUSH1 0x20 DUP4 ADD DUP5 PUSH2 0x2499 JUMP JUMPDEST PUSH1 0x20 DUP1 DUP3 MSTORE DUP3 MLOAD DUP3 DUP3 ADD DUP2 SWAP1 MSTORE PUSH0 SWAP2 SWAP1 DUP5 DUP3 ADD SWAP1 PUSH1 0x40 DUP6 ADD SWAP1 DUP5 JUMPDEST DUP2 DUP2 LT ISZERO PUSH2 0x2524 JUMPI DUP4 MLOAD PUSH1 0x1 PUSH1 0x1 PUSH1 0xA0 SHL SUB AND DUP4 MSTORE SWAP3 DUP5 ADD SWAP3 SWAP2 DUP5 ADD SWAP2 PUSH1 0x1 ADD PUSH2 0x24FF JUMP JUMPDEST POP SWAP1 SWAP7 SWAP6 POP POP POP POP POP POP JUMP JUMPDEST PUSH0 DUP1 PUSH0 PUSH1 0x60 DUP5 DUP7 SUB SLT ISZERO PUSH2 0x2542 JUMPI PUSH0 DUP1 REVERT JUMPDEST DUP4 CALLDATALOAD PUSH2 0x254D DUP2 PUSH2 0x20A1 JUMP JUMPDEST SWAP3 POP PUSH1 0x20 DUP5 ADD CALLDATALOAD PUSH2 0x255D DUP2 PUSH2 0x20A1 JUMP JUMPDEST SWAP3 SWAP6 SWAP3 SWAP5 POP POP POP PUSH1 0x40 SWAP2 SWAP1 SWAP2 ADD CALLDATALOAD SWAP1 JUMP JUMPDEST PUSH0 DUP1 PUSH1 0x40 DUP4 DUP6 SUB SLT ISZERO PUSH2 0x257F JUMPI PUSH0 DUP1 REVERT JUMPDEST DUP3 CALLDATALOAD PUSH2 0x258A DUP2 PUSH2 0x20A1 JUMP JUMPDEST SWAP2 POP PUSH1 0x20 DUP4 ADD CALLDATALOAD PUSH2 0x259A DUP2 PUSH2 0x2182 JUMP JUMPDEST DUP1 SWAP2 POP POP SWAP3 POP SWAP3 SWAP1 POP JUMP JUMPDEST PUSH0 DUP1 PUSH1 0x40 DUP4 DUP6 SUB SLT ISZERO PUSH2 0x25B6 JUMPI PUSH0 DUP1 REVERT JUMPDEST DUP3 CALLDATALOAD PUSH2 0x25C1 DUP2 PUSH2 0x20A1 JUMP JUMPDEST SWAP2 POP PUSH1 0x20 DUP4 ADD CALLDATALOAD PUSH2 0x259A DUP2 PUSH2 0x20A1 JUMP JUMPDEST PUSH0 DUP1 PUSH0 DUP1 PUSH0 PUSH1 0xA0 DUP7 DUP9 SUB SLT ISZERO PUSH2 0x25E5 JUMPI PUSH0 DUP1 REVERT JUMPDEST DUP6 CALLDATALOAD PUSH2 0x25F0 DUP2 PUSH2 0x20A1 JUMP JUMPDEST SWAP5 POP PUSH1 0x20 DUP7 ADD CALLDATALOAD PUSH2 0x2600 DUP2 PUSH2 0x20A1 JUMP JUMPDEST SWAP4 POP PUSH1 0x40 DUP7 ADD CALLDATALOAD SWAP3 POP PUSH1 0x60 DUP7 ADD CALLDATALOAD SWAP2 POP PUSH1 0x80 DUP7 ADD CALLDATALOAD PUSH8 0xFFFFFFFFFFFFFFFF DUP2 GT ISZERO PUSH2 0x2629 JUMPI PUSH0 DUP1 REVERT JUMPDEST PUSH2 0x23AA DUP9 DUP3 DUP10 ADD PUSH2 0x22A0 JUMP JUMPDEST PUSH1 0x1 DUP2 DUP2 SHR SWAP1 DUP3 AND DUP1 PUSH2 0x2649 JUMPI PUSH1 0x7F DUP3 AND SWAP2 POP JUMPDEST PUSH1 0x20 DUP3 LT DUP2 SUB PUSH2 0x2667 JUMPI PUSH4 0x4E487B71 PUSH1 0xE0 SHL PUSH0 MSTORE PUSH1 0x22 PUSH1 0x4 MSTORE PUSH1 0x24 PUSH0 REVERT JUMPDEST POP SWAP2 SWAP1 POP JUMP JUMPDEST PUSH1 0x20 DUP1 DUP3 MSTORE PUSH1 0x25 SWAP1 DUP3 ADD MSTORE PUSH32 0x4F6E6C7920636F6E74726F6C6C65722063616E2072756E20746869732066756E PUSH1 0x40 DUP3 ADD MSTORE PUSH5 0x31BA34B7B7 PUSH1 0xD9 SHL PUSH1 0x60 DUP3 ADD MSTORE PUSH1 0x80 ADD SWAP1 JUMP JUMPDEST PUSH4 0x4E487B71 PUSH1 0xE0 SHL PUSH0 MSTORE PUSH1 0x1 PUSH1 0x4 MSTORE PUSH1 0x24 PUSH0 REVERT JUMPDEST PUSH0 PUSH1 0x20 DUP3 DUP5 SUB SLT ISZERO PUSH2 0x26D6 JUMPI PUSH0 DUP1 REVERT JUMPDEST POP MLOAD SWAP2 SWAP1 POP JUMP JUMPDEST PUSH0 PUSH1 0x20 DUP3 DUP5 SUB SLT ISZERO PUSH2 0x26ED JUMPI PUSH0 DUP1 REVERT JUMPDEST DUP2 MLOAD PUSH2 0x210F DUP2 PUSH2 0x2182 JUMP JUMPDEST PUSH4 0x4E487B71 PUSH1 0xE0 SHL PUSH0 MSTORE PUSH1 0x32 PUSH1 0x4 MSTORE PUSH1 0x24 PUSH0 REVERT JUMPDEST PUSH4 0x4E487B71 PUSH1 0xE0 SHL PUSH0 MSTORE PUSH1 0x11 PUSH1 0x4 MSTORE PUSH1 0x24 PUSH0 REVERT JUMPDEST PUSH0 PUSH1 0x1 DUP3 ADD PUSH2 0x2731 JUMPI PUSH2 0x2731 PUSH2 0x270C JUMP JUMPDEST POP PUSH1 0x1 ADD SWAP1 JUMP JUMPDEST PUSH1 0x20 DUP1 DUP3 MSTORE PUSH1 0x2E SWAP1 DUP3 ADD MSTORE PUSH32 0x455243313135353A2063616C6C6572206973206E6F7420746F6B656E206F776E PUSH1 0x40 DUP3 ADD MSTORE PUSH14 0x195C881BDC88185C1C1C9BDD9959 PUSH1 0x92 SHL PUSH1 0x60 DUP3 ADD MSTORE PUSH1 0x80 ADD SWAP1 JUMP JUMPDEST PUSH1 0x20 DUP1 DUP3 MSTORE PUSH1 0x23 SWAP1 DUP3 ADD MSTORE PUSH32 0x4F6E6C79206F766572736565722063616E2072756E20746869732066756E6374 PUSH1 0x40 DUP3 ADD MSTORE PUSH3 0x34B7B7 PUSH1 0xE9 SHL PUSH1 0x60 DUP3 ADD MSTORE PUSH1 0x80 ADD SWAP1 JUMP JUMPDEST DUP2 DUP2 SUB DUP2 DUP2 GT ISZERO PUSH2 0x527 JUMPI PUSH2 0x527 PUSH2 0x270C JUMP JUMPDEST PUSH1 0x20 DUP1 DUP3 MSTORE PUSH1 0x2A SWAP1 DUP3 ADD MSTORE PUSH32 0x4F6E6C79206163746976652070726F6A6563742063616E2072756E2074686973 PUSH1 0x40 DUP3 ADD MSTORE PUSH10 0x10333AB731BA34B7B717 PUSH1 0xB1 SHL PUSH1 0x60 DUP3 ADD MSTORE PUSH1 0x80 ADD SWAP1 JUMP JUMPDEST DUP1 DUP3 ADD DUP1 DUP3 GT ISZERO PUSH2 0x527 JUMPI PUSH2 0x527 PUSH2 0x270C JUMP JUMPDEST DUP1 DUP3 MUL DUP2 ISZERO DUP3 DUP3 DIV DUP5 EQ OR PUSH2 0x527 JUMPI PUSH2 0x527 PUSH2 0x270C JUMP JUMPDEST PUSH0 DUP3 PUSH2 0x286A JUMPI PUSH4 0x4E487B71 PUSH1 0xE0 SHL PUSH0 MSTORE PUSH1 0x12 PUSH1 0x4 MSTORE PUSH1 0x24 PUSH0 REVERT JUMPDEST POP DIV SWAP1 JUMP JUMPDEST PUSH1 0x20 DUP1 DUP3 MSTORE PUSH1 0x25 SWAP1 DUP3 ADD MSTORE PUSH32 0x455243313135353A207472616E7366657220746F20746865207A65726F206164 PUSH1 0x40 DUP3 ADD MSTORE PUSH5 0x6472657373 PUSH1 0xD8 SHL PUSH1 0x60 DUP3 ADD MSTORE PUSH1 0x80 ADD SWAP1 JUMP JUMPDEST PUSH1 0x20 DUP1 DUP3 MSTORE PUSH1 0x2A SWAP1 DUP3 ADD MSTORE PUSH32 0x455243313135353A20696E73756666696369656E742062616C616E636520666F PUSH1 0x40 DUP3 ADD MSTORE PUSH10 0x39103A3930B739B332B9 PUSH1 0xB1 SHL PUSH1 0x60 DUP3 ADD MSTORE PUSH1 0x80 ADD SWAP1 JUMP JUMPDEST PUSH1 0x40 DUP2 MSTORE PUSH0 PUSH2 0x2910 PUSH1 0x40 DUP4 ADD DUP6 PUSH2 0x2499 JUMP JUMPDEST DUP3 DUP2 SUB PUSH1 0x20 DUP5 ADD MSTORE PUSH2 0x2922 DUP2 DUP6 PUSH2 0x2499 JUMP JUMPDEST SWAP6 SWAP5 POP POP POP POP POP JUMP JUMPDEST PUSH1 0x1 PUSH1 0x1 PUSH1 0xA0 SHL SUB DUP7 DUP2 AND DUP3 MSTORE DUP6 AND PUSH1 0x20 DUP3 ADD MSTORE PUSH1 0xA0 PUSH1 0x40 DUP3 ADD DUP2 SWAP1 MSTORE PUSH0 SWAP1 PUSH2 0x2956 SWAP1 DUP4 ADD DUP7 PUSH2 0x2499 JUMP JUMPDEST DUP3 DUP2 SUB PUSH1 0x60 DUP5 ADD MSTORE PUSH2 0x2968 DUP2 DUP7 PUSH2 0x2499 JUMP JUMPDEST SWAP1 POP DUP3 DUP2 SUB PUSH1 0x80 DUP5 ADD MSTORE PUSH2 0x297C DUP2 DUP6 PUSH2 0x212D JUMP JUMPDEST SWAP9 SWAP8 POP POP POP POP POP POP POP POP JUMP JUMPDEST PUSH0 PUSH1 0x20 DUP3 DUP5 SUB SLT ISZERO PUSH2 0x2998 JUMPI PUSH0 DUP1 REVERT JUMPDEST DUP2 MLOAD PUSH2 0x210F DUP2 PUSH2 0x20DF JUMP JUMPDEST PUSH0 PUSH1 0x3 RETURNDATASIZE GT ISZERO PUSH2 0xA59 JUMPI PUSH1 0x4 PUSH0 DUP1 RETURNDATACOPY POP PUSH0 MLOAD PUSH1 0xE0 SHR SWAP1 JUMP JUMPDEST PUSH0 PUSH1 0x44 RETURNDATASIZE LT ISZERO PUSH2 0x29C8 JUMPI SWAP1 JUMP JUMPDEST PUSH1 0x40 MLOAD PUSH1 0x3 NOT RETURNDATASIZE DUP2 ADD PUSH1 0x4 DUP4 RETURNDATACOPY DUP2 MLOAD RETURNDATASIZE PUSH8 0xFFFFFFFFFFFFFFFF DUP2 PUSH1 0x24 DUP5 ADD GT DUP2 DUP5 GT OR ISZERO PUSH2 0x29F8 JUMPI POP POP POP POP POP SWAP1 JUMP JUMPDEST DUP3 DUP6 ADD SWAP2 POP DUP2 MLOAD DUP2 DUP2 GT ISZERO PUSH2 0x2A10 JUMPI POP POP POP POP POP POP SWAP1 JUMP JUMPDEST DUP5 RETURNDATASIZE DUP8 ADD ADD PUSH1 0x20 DUP3 DUP6 ADD ADD GT ISZERO PUSH2 0x2A2A JUMPI POP POP POP POP POP POP SWAP1 JUMP JUMPDEST PUSH2 0x2A39 PUSH1 0x20 DUP3 DUP7 ADD ADD DUP8 PUSH2 0x21E2 JUMP JUMPDEST POP SWAP1 SWAP6 SWAP5 POP POP POP POP POP JUMP JUMPDEST PUSH1 0x20 DUP1 DUP3 MSTORE PUSH1 0x28 SWAP1 DUP3 ADD MSTORE PUSH32 0x455243313135353A204552433131353552656365697665722072656A65637465 PUSH1 0x40 DUP3 ADD MSTORE PUSH8 0x6420746F6B656E73 PUSH1 0xC0 SHL PUSH1 0x60 DUP3 ADD MSTORE PUSH1 0x80 ADD SWAP1 JUMP JUMPDEST PUSH1 0x1 PUSH1 0x1 PUSH1 0xA0 SHL SUB DUP7 DUP2 AND DUP3 MSTORE DUP6 AND PUSH1 0x20 DUP3 ADD MSTORE PUSH1 0x40 DUP2 ADD DUP5 SWAP1 MSTORE PUSH1 0x60 DUP2 ADD DUP4 SWAP1 MSTORE PUSH1 0xA0 PUSH1 0x80 DUP3 ADD DUP2 SWAP1 MSTORE PUSH0 SWAP1 PUSH2 0x2AC5 SWAP1 DUP4 ADD DUP5 PUSH2 0x212D JUMP JUMPDEST SWAP8 SWAP7 POP POP POP POP POP POP POP JUMP INVALID LOG2 PUSH5 0x6970667358 0x22 SLT KECCAK256 0xBA PUSH18 0xB134D053604B0E1227D0B3F61C84444890E5 0xB0 0x4D 0xEA 0xE9 0x2D NOT NUMBER PUSH32 0x61E8756464736F6C6343000814003360806040526078600E5534801561001457 PUSH0 DUP1 REVERT JUMPDEST POP PUSH1 0x40 MLOAD PUSH2 0x1A61 CODESIZE SUB DUP1 PUSH2 0x1A61 DUP4 CODECOPY DUP2 ADD PUSH1 0x40 DUP2 SWAP1 MSTORE PUSH2 0x33 SWAP2 PUSH2 0x57 JUMP JUMPDEST PUSH0 DUP1 SLOAD PUSH1 0x1 PUSH1 0x1 PUSH1 0xA0 SHL SUB NOT AND PUSH1 0x1 PUSH1 0x1 PUSH1 0xA0 SHL SUB SWAP3 SWAP1 SWAP3 AND SWAP2 SWAP1 SWAP2 OR SWAP1 SSTORE PUSH2 0x84 JUMP JUMPDEST PUSH0 PUSH1 0x20 DUP3 DUP5 SUB SLT ISZERO PUSH2 0x67 JUMPI PUSH0 DUP1 REVERT JUMPDEST DUP2 MLOAD PUSH1 0x1 PUSH1 0x1 PUSH1 0xA0 SHL SUB DUP2 AND DUP2 EQ PUSH2 0x7D JUMPI PUSH0 DUP1 REVERT JUMPDEST SWAP4 SWAP3 POP POP POP JUMP JUMPDEST PUSH2 0x19D0 DUP1 PUSH2 0x91 PUSH0 CODECOPY PUSH0 RETURN INVALID PUSH1 0x80 PUSH1 0x40 MSTORE CALLVALUE DUP1 ISZERO PUSH2 0xF JUMPI PUSH0 DUP1 REVERT JUMPDEST POP PUSH1 0x4 CALLDATASIZE LT PUSH2 0xE5 JUMPI PUSH0 CALLDATALOAD PUSH1 0xE0 SHR DUP1 PUSH4 0xBC197C81 GT PUSH2 0x88 JUMPI DUP1 PUSH4 0xD04E62D1 GT PUSH2 0x63 JUMPI DUP1 PUSH4 0xD04E62D1 EQ PUSH2 0x211 JUMPI DUP1 PUSH4 0xD186C217 EQ PUSH2 0x224 JUMPI DUP1 PUSH4 0xF23A6E61 EQ PUSH2 0x237 JUMPI DUP1 PUSH4 0xFE0D94C1 EQ PUSH2 0x256 JUMPI PUSH0 DUP1 REVERT JUMPDEST DUP1 PUSH4 0xBC197C81 EQ PUSH2 0x190 JUMPI DUP1 PUSH4 0xC9D27AFE EQ PUSH2 0x1C8 JUMPI DUP1 PUSH4 0xCB05683A EQ PUSH2 0x1DB JUMPI PUSH0 DUP1 REVERT JUMPDEST DUP1 PUSH4 0x5D250F96 GT PUSH2 0xC3 JUMPI DUP1 PUSH4 0x5D250F96 EQ PUSH2 0x144 JUMPI DUP1 PUSH4 0x6DBAF9EE EQ PUSH2 0x157 JUMPI DUP1 PUSH4 0x7AC92456 EQ PUSH2 0x16A JUMPI DUP1 PUSH4 0x9B5B9B18 EQ PUSH2 0x17D JUMPI PUSH0 DUP1 REVERT JUMPDEST DUP1 PUSH4 0x1FFC9A7 EQ PUSH2 0xE9 JUMPI DUP1 PUSH4 0x35F23E27 EQ PUSH2 0x111 JUMPI DUP1 PUSH4 0x41AD7E1D EQ PUSH2 0x124 JUMPI JUMPDEST PUSH0 DUP1 REVERT JUMPDEST PUSH2 0xFC PUSH2 0xF7 CALLDATASIZE PUSH1 0x4 PUSH2 0x1432 JUMP JUMPDEST PUSH2 0x269 JUMP JUMPDEST PUSH1 0x40 MLOAD SWAP1 ISZERO ISZERO DUP2 MSTORE PUSH1 0x20 ADD JUMPDEST PUSH1 0x40 MLOAD DUP1 SWAP2 SUB SWAP1 RETURN JUMPDEST PUSH2 0xFC PUSH2 0x11F CALLDATASIZE PUSH1 0x4 PUSH2 0x1487 JUMP JUMPDEST PUSH2 0x29F JUMP JUMPDEST PUSH2 0x137 PUSH2 0x132 CALLDATASIZE PUSH1 0x4 PUSH2 0x14D1 JUMP JUMPDEST PUSH2 0x54D JUMP JUMPDEST PUSH1 0x40 MLOAD PUSH2 0x108 SWAP2 SWAP1 PUSH2 0x14FE JUMP JUMPDEST PUSH2 0xFC PUSH2 0x152 CALLDATASIZE PUSH1 0x4 PUSH2 0x1524 JUMP JUMPDEST PUSH2 0x5AB JUMP JUMPDEST PUSH2 0xFC PUSH2 0x165 CALLDATASIZE PUSH1 0x4 PUSH2 0x154E JUMP JUMPDEST PUSH2 0x7AA JUMP JUMPDEST PUSH2 0xFC PUSH2 0x178 CALLDATASIZE PUSH1 0x4 PUSH2 0x1524 JUMP JUMPDEST PUSH2 0x843 JUMP JUMPDEST PUSH2 0xFC PUSH2 0x18B CALLDATASIZE PUSH1 0x4 PUSH2 0x1524 JUMP JUMPDEST PUSH2 0xA38 JUMP JUMPDEST PUSH2 0x1AF PUSH2 0x19E CALLDATASIZE PUSH1 0x4 PUSH2 0x1697 JUMP JUMPDEST PUSH4 0xBC197C81 PUSH1 0xE0 SHL SWAP6 SWAP5 POP POP POP POP POP JUMP JUMPDEST PUSH1 0x40 MLOAD PUSH1 0x1 PUSH1 0x1 PUSH1 0xE0 SHL SUB NOT SWAP1 SWAP2 AND DUP2 MSTORE PUSH1 0x20 ADD PUSH2 0x108 JUMP JUMPDEST PUSH2 0xFC PUSH2 0x1D6 CALLDATASIZE PUSH1 0x4 PUSH2 0x174B JUMP JUMPDEST PUSH2 0xB8A JUMP JUMPDEST PUSH2 0x203 PUSH2 0x1E9 CALLDATASIZE PUSH1 0x4 PUSH2 0x154E JUMP JUMPDEST PUSH1 0x1 PUSH1 0x1 PUSH1 0xA0 SHL SUB AND PUSH0 SWAP1 DUP2 MSTORE PUSH1 0xF PUSH1 0x20 MSTORE PUSH1 0x40 SWAP1 KECCAK256 SLOAD SWAP1 JUMP JUMPDEST PUSH1 0x40 MLOAD SWAP1 DUP2 MSTORE PUSH1 0x20 ADD PUSH2 0x108 JUMP JUMPDEST PUSH2 0xFC PUSH2 0x21F CALLDATASIZE PUSH1 0x4 PUSH2 0x154E JUMP JUMPDEST PUSH2 0xDF9 JUMP JUMPDEST PUSH2 0xFC PUSH2 0x232 CALLDATASIZE PUSH1 0x4 PUSH2 0x1524 JUMP JUMPDEST PUSH2 0xEE4 JUMP JUMPDEST PUSH2 0x1AF PUSH2 0x245 CALLDATASIZE PUSH1 0x4 PUSH2 0x1779 JUMP JUMPDEST PUSH4 0xF23A6E61 PUSH1 0xE0 SHL SWAP6 SWAP5 POP POP POP POP POP JUMP JUMPDEST PUSH2 0xFC PUSH2 0x264 CALLDATASIZE PUSH1 0x4 PUSH2 0x17DD JUMP JUMPDEST PUSH2 0xF82 JUMP JUMPDEST PUSH0 PUSH1 0x1 PUSH1 0x1 PUSH1 0xE0 SHL SUB NOT DUP3 AND PUSH4 0x2711897 PUSH1 0xE5 SHL EQ DUP1 PUSH2 0x299 JUMPI POP PUSH4 0x1FFC9A7 PUSH1 0xE0 SHL PUSH1 0x1 PUSH1 0x1 PUSH1 0xE0 SHL SUB NOT DUP4 AND EQ JUMPDEST SWAP3 SWAP2 POP POP JUMP JUMPDEST PUSH0 DUP1 PUSH0 SWAP1 SLOAD SWAP1 PUSH2 0x100 EXP SWAP1 DIV PUSH1 0x1 PUSH1 0x1 PUSH1 0xA0 SHL SUB AND PUSH1 0x1 PUSH1 0x1 PUSH1 0xA0 SHL SUB AND PUSH4 0x348917CA PUSH1 0x40 MLOAD DUP2 PUSH4 0xFFFFFFFF AND PUSH1 0xE0 SHL DUP2 MSTORE PUSH1 0x4 ADD PUSH1 0x20 PUSH1 0x40 MLOAD DUP1 DUP4 SUB DUP2 DUP7 GAS STATICCALL ISZERO DUP1 ISZERO PUSH2 0x2EF JUMPI RETURNDATASIZE PUSH0 DUP1 RETURNDATACOPY RETURNDATASIZE PUSH0 REVERT JUMPDEST POP POP POP POP PUSH1 0x40 MLOAD RETURNDATASIZE PUSH1 0x1F NOT PUSH1 0x1F DUP3 ADD AND DUP3 ADD DUP1 PUSH1 0x40 MSTORE POP DUP2 ADD SWAP1 PUSH2 0x313 SWAP2 SWAP1 PUSH2 0x17F4 JUMP JUMPDEST ISZERO PUSH2 0x339 JUMPI PUSH1 0x40 MLOAD PUSH3 0x461BCD PUSH1 0xE5 SHL DUP2 MSTORE PUSH1 0x4 ADD PUSH2 0x330 SWAP1 PUSH2 0x180F JUMP JUMPDEST PUSH1 0x40 MLOAD DUP1 SWAP2 SUB SWAP1 REVERT JUMPDEST PUSH0 PUSH2 0x343 DUP7 PUSH2 0x54D JUMP JUMPDEST PUSH1 0x3 DUP2 GT ISZERO PUSH2 0x354 JUMPI PUSH2 0x354 PUSH2 0x14EA JUMP JUMPDEST EQ PUSH2 0x3AD JUMPI PUSH1 0x19 DUP4 PUSH1 0xFF AND LT ISZERO PUSH2 0x3AD JUMPI PUSH1 0x40 MLOAD PUSH3 0x461BCD PUSH1 0xE5 SHL DUP2 MSTORE PUSH1 0x20 PUSH1 0x4 DUP3 ADD MSTORE PUSH1 0x1E PUSH1 0x24 DUP3 ADD MSTORE PUSH32 0x51756F72756D2073686F756C64206265206174206C65617374203235252E0000 PUSH1 0x44 DUP3 ADD MSTORE PUSH1 0x64 ADD PUSH2 0x330 JUMP JUMPDEST PUSH1 0x64 DUP4 PUSH1 0xFF AND GT ISZERO PUSH2 0x401 JUMPI PUSH1 0x40 MLOAD PUSH3 0x461BCD PUSH1 0xE5 SHL DUP2 MSTORE PUSH1 0x20 PUSH1 0x4 DUP3 ADD MSTORE PUSH1 0x19 PUSH1 0x24 DUP3 ADD MSTORE PUSH32 0x51756F72756D2077696C6C206E65766572206265206D65742E00000000000000 PUSH1 0x44 DUP3 ADD MSTORE PUSH1 0x64 ADD PUSH2 0x330 JUMP JUMPDEST PUSH1 0xA SLOAD PUSH2 0x40E SWAP1 TIMESTAMP PUSH2 0x1867 JUMP JUMPDEST DUP3 GT PUSH2 0x477 JUMPI PUSH1 0x40 MLOAD PUSH3 0x461BCD PUSH1 0xE5 SHL DUP2 MSTORE PUSH1 0x20 PUSH1 0x4 DUP3 ADD MSTORE PUSH1 0x32 PUSH1 0x24 DUP3 ADD MSTORE PUSH32 0x446561646C696E65206D75737420626520616674657220766F7465506572696F PUSH1 0x44 DUP3 ADD MSTORE PUSH18 0x3226B4B734B6BAB690333937B6903737BB97 PUSH1 0x71 SHL PUSH1 0x64 DUP3 ADD MSTORE PUSH1 0x84 ADD PUSH2 0x330 JUMP JUMPDEST PUSH1 0x1 DUP1 SLOAD PUSH1 0x4 DUP1 SLOAD SWAP3 DUP4 ADD DUP2 SSTORE PUSH0 MSTORE PUSH32 0x8A35ACFBC15FF81A39AE7D344FD709F28E8600B4AA8C65C6B64BFE7FE36BD19B SWAP1 SWAP2 ADD SSTORE PUSH2 0x4B4 DUP6 PUSH2 0x54D JUMP JUMPDEST PUSH1 0x1 DUP1 SLOAD PUSH0 SWAP1 DUP2 MSTORE PUSH1 0x8 PUSH1 0x20 MSTORE PUSH1 0x40 SWAP1 KECCAK256 DUP1 SLOAD SWAP1 SWAP2 PUSH1 0xFF NOT SWAP1 SWAP2 AND SWAP1 DUP4 PUSH1 0x3 DUP2 GT ISZERO PUSH2 0x4E2 JUMPI PUSH2 0x4E2 PUSH2 0x14EA JUMP JUMPDEST MUL OR SWAP1 SSTORE POP PUSH1 0x1 DUP1 SLOAD PUSH0 SWAP1 DUP2 MSTORE PUSH1 0x5 PUSH1 0x20 SWAP1 DUP2 MSTORE PUSH1 0x40 DUP1 DUP4 KECCAK256 DUP1 SLOAD PUSH1 0x1 PUSH1 0x1 PUSH1 0xA0 SHL SUB NOT AND PUSH1 0x1 PUSH1 0x1 PUSH1 0xA0 SHL SUB DUP11 AND OR SWAP1 SSTORE DUP4 SLOAD DUP4 MSTORE PUSH1 0x6 DUP3 MSTORE DUP1 DUP4 KECCAK256 DUP7 SWAP1 SSTORE DUP4 SLOAD DUP4 MSTORE PUSH1 0x9 SWAP1 SWAP2 MSTORE DUP2 KECCAK256 TIMESTAMP SWAP1 SSTORE DUP2 SLOAD SWAP2 SWAP1 PUSH2 0x53D DUP4 PUSH2 0x187A JUMP JUMPDEST SWAP1 SWAP2 SSTORE POP PUSH1 0x1 SWAP7 SWAP6 POP POP POP POP POP POP JUMP JUMPDEST PUSH0 PUSH1 0x4 DUP3 PUSH1 0xFF AND LT PUSH2 0x596 JUMPI PUSH1 0x40 MLOAD PUSH3 0x461BCD PUSH1 0xE5 SHL DUP2 MSTORE PUSH1 0x20 PUSH1 0x4 DUP3 ADD MSTORE PUSH1 0x12 PUSH1 0x24 DUP3 ADD MSTORE PUSH18 0x496E646578206F7574206F662072616E6765 PUSH1 0x70 SHL PUSH1 0x44 DUP3 ADD MSTORE PUSH1 0x64 ADD PUSH2 0x330 JUMP JUMPDEST DUP2 PUSH1 0xFF AND PUSH1 0x3 DUP2 GT ISZERO PUSH2 0x299 JUMPI PUSH2 0x299 PUSH2 0x14EA JUMP JUMPDEST PUSH0 DUP1 PUSH0 SWAP1 SLOAD SWAP1 PUSH2 0x100 EXP SWAP1 DIV PUSH1 0x1 PUSH1 0x1 PUSH1 0xA0 SHL SUB AND PUSH1 0x1 PUSH1 0x1 PUSH1 0xA0 SHL SUB AND PUSH4 0x348917CA PUSH1 0x40 MLOAD DUP2 PUSH4 0xFFFFFFFF AND PUSH1 0xE0 SHL DUP2 MSTORE PUSH1 0x4 ADD PUSH1 0x20 PUSH1 0x40 MLOAD DUP1 DUP4 SUB DUP2 DUP7 GAS STATICCALL ISZERO DUP1 ISZERO PUSH2 0x5FB JUMPI RETURNDATASIZE PUSH0 DUP1 RETURNDATACOPY RETURNDATASIZE PUSH0 REVERT JUMPDEST POP POP POP POP PUSH1 0x40 MLOAD RETURNDATASIZE PUSH1 0x1F NOT PUSH1 0x1F DUP3 ADD AND DUP3 ADD DUP1 PUSH1 0x40 MSTORE POP DUP2 ADD SWAP1 PUSH2 0x61F SWAP2 SWAP1 PUSH2 0x17F4 JUMP JUMPDEST ISZERO PUSH2 0x63C JUMPI PUSH1 0x40 MLOAD PUSH3 0x461BCD PUSH1 0xE5 SHL DUP2 MSTORE PUSH1 0x4 ADD PUSH2 0x330 SWAP1 PUSH2 0x180F JUMP JUMPDEST PUSH0 DUP1 SLOAD SWAP1 PUSH2 0x100 EXP SWAP1 DIV PUSH1 0x1 PUSH1 0x1 PUSH1 0xA0 SHL SUB AND PUSH1 0x1 PUSH1 0x1 PUSH1 0xA0 SHL SUB AND PUSH4 0xE6D68595 PUSH1 0x40 MLOAD DUP2 PUSH4 0xFFFFFFFF AND PUSH1 0xE0 SHL DUP2 MSTORE PUSH1 0x4 ADD PUSH1 0x20 PUSH1 0x40 MLOAD DUP1 DUP4 SUB DUP2 DUP7 GAS STATICCALL ISZERO DUP1 ISZERO PUSH2 0x68A JUMPI RETURNDATASIZE PUSH0 DUP1 RETURNDATACOPY RETURNDATASIZE PUSH0 REVERT JUMPDEST POP POP POP POP PUSH1 0x40 MLOAD RETURNDATASIZE PUSH1 0x1F NOT PUSH1 0x1F DUP3 ADD AND DUP3 ADD DUP1 PUSH1 0x40 MSTORE POP DUP2 ADD SWAP1 PUSH2 0x6AE SWAP2 SWAP1 PUSH2 0x1892 JUMP JUMPDEST PUSH1 0x1 PUSH1 0x1 PUSH1 0xA0 SHL SUB AND CALLER PUSH1 0x1 PUSH1 0x1 PUSH1 0xA0 SHL SUB AND EQ PUSH2 0x703 JUMPI PUSH1 0x40 MLOAD PUSH3 0x461BCD PUSH1 0xE5 SHL DUP2 MSTORE PUSH1 0x20 PUSH1 0x4 DUP3 ADD MSTORE PUSH1 0x12 PUSH1 0x24 DUP3 ADD MSTORE PUSH18 0x70726F6A656374206F776E6572206F6E6C79 PUSH1 0x70 SHL PUSH1 0x44 DUP3 ADD MSTORE PUSH1 0x64 ADD PUSH2 0x330 JUMP JUMPDEST PUSH1 0x12 SLOAD PUSH1 0xFF AND ISZERO PUSH2 0x756 JUMPI PUSH1 0x40 MLOAD PUSH3 0x461BCD PUSH1 0xE5 SHL DUP2 MSTORE PUSH1 0x20 PUSH1 0x4 DUP3 ADD MSTORE PUSH1 0x19 PUSH1 0x24 DUP3 ADD MSTORE PUSH32 0x50726F706F73616C20616C726561647920696E20706C61636500000000000000 PUSH1 0x44 DUP3 ADD MSTORE PUSH1 0x64 ADD PUSH2 0x330 JUMP JUMPDEST PUSH1 0x1 PUSH1 0x1 PUSH1 0xA0 SHL SUB DUP4 AND PUSH0 SWAP1 DUP2 MSTORE PUSH1 0xF PUSH1 0x20 MSTORE PUSH1 0x40 DUP2 KECCAK256 DUP4 SWAP1 SSTORE PUSH1 0x12 DUP1 SLOAD PUSH1 0xFF NOT AND PUSH1 0x1 OR SWAP1 SSTORE PUSH1 0xE SLOAD PUSH1 0xA SLOAD PUSH2 0x795 SWAP3 SWAP2 DUP7 SWAP2 DUP4 SWAP2 PUSH2 0x11F SWAP2 PUSH2 0x1867 JUMP JUMPDEST PUSH2 0x7A1 JUMPI PUSH2 0x7A1 PUSH2 0x18AD JUMP JUMPDEST POP PUSH1 0x1 SWAP3 SWAP2 POP POP JUMP JUMPDEST PUSH0 DUP1 SLOAD PUSH1 0x1 PUSH1 0x1 PUSH1 0xA0 SHL SUB AND CALLER EQ PUSH2 0x7FE JUMPI PUSH1 0x40 MLOAD PUSH3 0x461BCD PUSH1 0xE5 SHL DUP2 MSTORE PUSH1 0x20 PUSH1 0x4 DUP3 ADD MSTORE PUSH1 0x17 PUSH1 0x24 DUP3 ADD MSTORE PUSH23 0x63616C6C656420627920636F6E7472616374206F6E6C79 PUSH1 0x48 SHL PUSH1 0x44 DUP3 ADD MSTORE PUSH1 0x64 ADD PUSH2 0x330 JUMP JUMPDEST PUSH1 0x1 PUSH1 0x1 PUSH1 0xA0 SHL SUB DUP3 AND PUSH0 SWAP1 DUP2 MSTORE PUSH1 0xF PUSH1 0x20 SWAP1 DUP2 MSTORE PUSH1 0x40 DUP1 DUP4 KECCAK256 DUP4 SWAP1 SSTORE PUSH1 0x10 DUP3 MSTORE DUP1 DUP4 KECCAK256 DUP4 SWAP1 SSTORE PUSH1 0x11 SWAP1 SWAP2 MSTORE DUP2 KECCAK256 SSTORE PUSH1 0x12 DUP1 SLOAD PUSH1 0xFF NOT AND SWAP1 SSTORE PUSH1 0x1 PUSH2 0x299 JUMP JUMPDEST SWAP2 SWAP1 POP JUMP JUMPDEST PUSH0 DUP1 PUSH0 SWAP1 SLOAD SWAP1 PUSH2 0x100 EXP SWAP1 DIV PUSH1 0x1 PUSH1 0x1 PUSH1 0xA0 SHL SUB AND PUSH1 0x1 PUSH1 0x1 PUSH1 0xA0 SHL SUB AND PUSH4 0x348917CA PUSH1 0x40 MLOAD DUP2 PUSH4 0xFFFFFFFF AND PUSH1 0xE0 SHL DUP2 MSTORE PUSH1 0x4 ADD PUSH1 0x20 PUSH1 0x40 MLOAD DUP1 DUP4 SUB DUP2 DUP7 GAS STATICCALL ISZERO DUP1 ISZERO PUSH2 0x893 JUMPI RETURNDATASIZE PUSH0 DUP1 RETURNDATACOPY RETURNDATASIZE PUSH0 REVERT JUMPDEST POP POP POP POP PUSH1 0x40 MLOAD RETURNDATASIZE PUSH1 0x1F NOT PUSH1 0x1F DUP3 ADD AND DUP3 ADD DUP1 PUSH1 0x40 MSTORE POP DUP2 ADD SWAP1 PUSH2 0x8B7 SWAP2 SWAP1 PUSH2 0x17F4 JUMP JUMPDEST ISZERO PUSH2 0x8D4 JUMPI PUSH1 0x40 MLOAD PUSH3 0x461BCD PUSH1 0xE5 SHL DUP2 MSTORE PUSH1 0x4 ADD PUSH2 0x330 SWAP1 PUSH2 0x180F JUMP JUMPDEST PUSH0 SLOAD PUSH1 0x1 PUSH1 0x1 PUSH1 0xA0 SHL SUB AND CALLER EQ PUSH2 0x927 JUMPI PUSH1 0x40 MLOAD PUSH3 0x461BCD PUSH1 0xE5 SHL DUP2 MSTORE PUSH1 0x20 PUSH1 0x4 DUP3 ADD MSTORE PUSH1 0x17 PUSH1 0x24 DUP3 ADD MSTORE PUSH23 0x63616C6C656420627920636F6E7472616374206F6E6C79 PUSH1 0x48 SHL PUSH1 0x44 DUP3 ADD MSTORE PUSH1 0x64 ADD PUSH2 0x330 JUMP JUMPDEST PUSH1 0x12 SLOAD PUSH1 0xFF AND PUSH2 0x949 JUMPI PUSH1 0x40 MLOAD PUSH3 0x461BCD PUSH1 0xE5 SHL DUP2 MSTORE PUSH1 0x4 ADD PUSH2 0x330 SWAP1 PUSH2 0x18C1 JUMP JUMPDEST PUSH1 0x1 PUSH1 0x1 PUSH1 0xA0 SHL SUB DUP4 AND PUSH0 SWAP1 DUP2 MSTORE PUSH1 0x10 PUSH1 0x20 SWAP1 DUP2 MSTORE PUSH1 0x40 DUP1 DUP4 KECCAK256 SLOAD PUSH1 0xF SWAP1 SWAP3 MSTORE DUP3 KECCAK256 SLOAD PUSH20 0x0 SWAP2 PUSH4 0x7AE2B5C7 SWAP2 DUP7 SWAP2 PUSH2 0x993 SWAP2 PUSH2 0x1903 JUMP JUMPDEST PUSH1 0x40 MLOAD PUSH1 0x1 PUSH1 0x1 PUSH1 0xE0 SHL SUB NOT PUSH1 0xE0 DUP6 SWAP1 SHL AND DUP2 MSTORE PUSH1 0x4 DUP2 ADD SWAP3 SWAP1 SWAP3 MSTORE PUSH1 0x24 DUP3 ADD MSTORE PUSH1 0x44 ADD PUSH1 0x20 PUSH1 0x40 MLOAD DUP1 DUP4 SUB DUP2 DUP7 GAS DELEGATECALL ISZERO DUP1 ISZERO PUSH2 0x9D2 JUMPI RETURNDATASIZE PUSH0 DUP1 RETURNDATACOPY RETURNDATASIZE PUSH0 REVERT JUMPDEST POP POP POP POP PUSH1 0x40 MLOAD RETURNDATASIZE PUSH1 0x1F NOT PUSH1 0x1F DUP3 ADD AND DUP3 ADD DUP1 PUSH1 0x40 MSTORE POP DUP2 ADD SWAP1 PUSH2 0x9F6 SWAP2 SWAP1 PUSH2 0x1916 JUMP JUMPDEST PUSH1 0x1 PUSH1 0x1 PUSH1 0xA0 SHL SUB DUP6 AND PUSH0 SWAP1 DUP2 MSTORE PUSH1 0x11 PUSH1 0x20 SWAP1 DUP2 MSTORE PUSH1 0x40 DUP1 DUP4 KECCAK256 DUP5 SWAP1 SSTORE PUSH1 0xF SWAP1 SWAP2 MSTORE DUP2 KECCAK256 SLOAD SWAP2 SWAP3 POP SUB PUSH2 0xA2E JUMPI PUSH1 0x12 DUP1 SLOAD PUSH1 0xFF NOT AND SWAP1 SSTORE JUMPDEST POP PUSH1 0x1 SWAP4 SWAP3 POP POP POP JUMP JUMPDEST PUSH0 DUP1 SLOAD PUSH1 0x40 MLOAD PUSH3 0x7EEAC7 PUSH1 0xE1 SHL DUP2 MSTORE CALLER PUSH1 0x4 DUP3 ADD MSTORE PUSH1 0x1 PUSH1 0x1 PUSH1 0xA0 SHL SUB DUP1 DUP7 AND PUSH1 0x24 DUP4 ADD DUP2 SWAP1 MSTORE DUP7 SWAP4 SWAP1 SWAP3 DUP6 SWAP3 SWAP1 SWAP2 AND SWAP1 PUSH3 0xFDD58E SWAP1 PUSH1 0x44 ADD PUSH1 0x20 PUSH1 0x40 MLOAD DUP1 DUP4 SUB DUP2 DUP7 GAS STATICCALL ISZERO DUP1 ISZERO PUSH2 0xA8C JUMPI RETURNDATASIZE PUSH0 DUP1 RETURNDATACOPY RETURNDATASIZE PUSH0 REVERT JUMPDEST POP POP POP POP PUSH1 0x40 MLOAD RETURNDATASIZE PUSH1 0x1F NOT PUSH1 0x1F DUP3 ADD AND DUP3 ADD DUP1 PUSH1 0x40 MSTORE POP DUP2 ADD SWAP1 PUSH2 0xAB0 SWAP2 SWAP1 PUSH2 0x1916 JUMP JUMPDEST GT PUSH2 0xAEB JUMPI PUSH1 0x40 MLOAD PUSH3 0x461BCD PUSH1 0xE5 SHL DUP2 MSTORE PUSH1 0x20 PUSH1 0x4 DUP3 ADD MSTORE PUSH1 0xB PUSH1 0x24 DUP3 ADD MSTORE PUSH11 0x486F6C646572206F6E6C79 PUSH1 0xA8 SHL PUSH1 0x44 DUP3 ADD MSTORE PUSH1 0x64 ADD PUSH2 0x330 JUMP JUMPDEST PUSH0 SLOAD PUSH1 0x40 MLOAD PUSH4 0x79212195 PUSH1 0xE1 SHL DUP2 MSTORE PUSH1 0x1 PUSH1 0x1 PUSH1 0xA0 SHL SUB DUP1 DUP9 AND SWAP3 AND SWAP1 PUSH4 0xF242432A SWAP1 PUSH2 0xB22 SWAP1 CALLER SWAP1 ADDRESS SWAP1 DUP7 SWAP1 DUP12 SWAP1 PUSH1 0x4 ADD PUSH2 0x192D JUMP JUMPDEST PUSH0 PUSH1 0x40 MLOAD DUP1 DUP4 SUB DUP2 PUSH0 DUP8 DUP1 EXTCODESIZE ISZERO DUP1 ISZERO PUSH2 0xB39 JUMPI PUSH0 DUP1 REVERT JUMPDEST POP GAS CALL ISZERO DUP1 ISZERO PUSH2 0xB4B JUMPI RETURNDATASIZE PUSH0 DUP1 RETURNDATACOPY RETURNDATASIZE PUSH0 REVERT JUMPDEST POP POP CALLER PUSH0 SWAP1 DUP2 MSTORE PUSH1 0x2 PUSH1 0x20 SWAP1 DUP2 MSTORE PUSH1 0x40 DUP1 DUP4 KECCAK256 DUP7 DUP5 MSTORE SWAP1 SWAP2 MSTORE DUP2 KECCAK256 DUP1 SLOAD DUP10 SWAP5 POP SWAP1 SWAP3 POP PUSH2 0xB79 SWAP1 DUP5 SWAP1 PUSH2 0x1867 JUMP JUMPDEST SWAP1 SWAP2 SSTORE POP PUSH1 0x1 SWAP8 SWAP7 POP POP POP POP POP POP POP JUMP JUMPDEST PUSH0 DUP1 PUSH0 SWAP1 SLOAD SWAP1 PUSH2 0x100 EXP SWAP1 DIV PUSH1 0x1 PUSH1 0x1 PUSH1 0xA0 SHL SUB AND PUSH1 0x1 PUSH1 0x1 PUSH1 0xA0 SHL SUB AND PUSH4 0x348917CA PUSH1 0x40 MLOAD DUP2 PUSH4 0xFFFFFFFF AND PUSH1 0xE0 SHL DUP2 MSTORE PUSH1 0x4 ADD PUSH1 0x20 PUSH1 0x40 MLOAD DUP1 DUP4 SUB DUP2 DUP7 GAS STATICCALL ISZERO DUP1 ISZERO PUSH2 0xBDA JUMPI RETURNDATASIZE PUSH0 DUP1 RETURNDATACOPY RETURNDATASIZE PUSH0 REVERT JUMPDEST POP POP POP POP PUSH1 0x40 MLOAD RETURNDATASIZE PUSH1 0x1F NOT PUSH1 0x1F DUP3 ADD AND DUP3 ADD DUP1 PUSH1 0x40 MSTORE POP DUP2 ADD SWAP1 PUSH2 0xBFE SWAP2 SWAP1 PUSH2 0x17F4 JUMP JUMPDEST ISZERO PUSH2 0xC1B JUMPI PUSH1 0x40 MLOAD PUSH3 0x461BCD PUSH1 0xE5 SHL DUP2 MSTORE PUSH1 0x4 ADD PUSH2 0x330 SWAP1 PUSH2 0x180F JUMP JUMPDEST PUSH1 0x1 SLOAD PUSH0 SWAP1 DUP2 MSTORE PUSH1 0x5 PUSH1 0x20 SWAP1 DUP2 MSTORE PUSH1 0x40 DUP1 DUP4 KECCAK256 SLOAD CALLER DUP5 MSTORE PUSH1 0x2 DUP4 MSTORE DUP2 DUP5 KECCAK256 PUSH1 0x1 PUSH1 0x1 PUSH1 0xA0 SHL SUB SWAP1 SWAP2 AND DUP1 DUP6 MSTORE SWAP3 MSTORE DUP3 KECCAK256 SLOAD SWAP1 SWAP2 DUP2 SWAP1 SUB PUSH2 0xC8B JUMPI PUSH1 0x40 MLOAD PUSH3 0x461BCD PUSH1 0xE5 SHL DUP2 MSTORE PUSH1 0x20 PUSH1 0x4 DUP3 ADD MSTORE PUSH1 0xB PUSH1 0x24 DUP3 ADD MSTORE PUSH11 0x2B37BA32B91037B7363C97 PUSH1 0xA9 SHL PUSH1 0x44 DUP3 ADD MSTORE PUSH1 0x64 ADD PUSH2 0x330 JUMP JUMPDEST PUSH0 DUP6 DUP2 MSTORE PUSH1 0xC PUSH1 0x20 SWAP1 DUP2 MSTORE PUSH1 0x40 DUP1 DUP4 KECCAK256 CALLER DUP5 MSTORE SWAP1 SWAP2 MSTORE SWAP1 KECCAK256 SLOAD PUSH1 0xFF AND ISZERO PUSH2 0xCE9 JUMPI PUSH1 0x40 MLOAD PUSH3 0x461BCD PUSH1 0xE5 SHL DUP2 MSTORE PUSH1 0x20 PUSH1 0x4 DUP3 ADD MSTORE PUSH1 0x12 PUSH1 0x24 DUP3 ADD MSTORE PUSH18 0x20B2323932B9B9903430B2103B37BA32B217 PUSH1 0x71 SHL PUSH1 0x44 DUP3 ADD MSTORE PUSH1 0x64 ADD PUSH2 0x330 JUMP JUMPDEST PUSH0 DUP6 DUP2 MSTORE PUSH1 0x6 PUSH1 0x20 MSTORE PUSH1 0x40 SWAP1 KECCAK256 SLOAD TIMESTAMP GT ISZERO PUSH2 0xD46 JUMPI PUSH1 0x40 MLOAD PUSH3 0x461BCD PUSH1 0xE5 SHL DUP2 MSTORE PUSH1 0x20 PUSH1 0x4 DUP3 ADD MSTORE PUSH1 0x19 PUSH1 0x24 DUP3 ADD MSTORE PUSH32 0x566F74696E6720646561646C696E652068617320706173742E00000000000000 PUSH1 0x44 DUP3 ADD MSTORE PUSH1 0x64 ADD PUSH2 0x330 JUMP JUMPDEST CALLER PUSH0 SWAP1 DUP2 MSTORE PUSH1 0x3 PUSH1 0x20 SWAP1 DUP2 MSTORE PUSH1 0x40 DUP1 DUP4 KECCAK256 DUP6 DUP5 MSTORE DUP3 MSTORE DUP1 DUP4 KECCAK256 SLOAD DUP9 DUP5 MSTORE PUSH1 0x6 SWAP1 SWAP3 MSTORE SWAP1 SWAP2 KECCAK256 SLOAD DUP2 LT ISZERO PUSH2 0xD99 JUMPI PUSH0 DUP7 DUP2 MSTORE PUSH1 0x6 PUSH1 0x20 SWAP1 DUP2 MSTORE PUSH1 0x40 DUP1 DUP4 KECCAK256 SLOAD CALLER DUP5 MSTORE PUSH1 0x3 DUP4 MSTORE DUP2 DUP5 KECCAK256 DUP8 DUP6 MSTORE SWAP1 SWAP3 MSTORE SWAP1 SWAP2 KECCAK256 SSTORE JUMPDEST PUSH0 DUP7 DUP2 MSTORE PUSH1 0xB PUSH1 0x20 SWAP1 DUP2 MSTORE PUSH1 0x40 DUP1 DUP4 KECCAK256 DUP9 ISZERO ISZERO DUP5 MSTORE SWAP1 SWAP2 MSTORE DUP2 KECCAK256 DUP1 SLOAD DUP5 SWAP3 SWAP1 PUSH2 0xDC3 SWAP1 DUP5 SWAP1 PUSH2 0x1867 JUMP JUMPDEST SWAP1 SWAP2 SSTORE POP POP POP PUSH0 DUP6 DUP2 MSTORE PUSH1 0xC PUSH1 0x20 SWAP1 DUP2 MSTORE PUSH1 0x40 DUP1 DUP4 KECCAK256 CALLER DUP5 MSTORE SWAP1 SWAP2 MSTORE SWAP1 KECCAK256 DUP1 SLOAD PUSH1 0xFF NOT AND PUSH1 0x1 SWAP1 DUP2 OR SWAP1 SWAP2 SSTORE SWAP3 POP POP POP SWAP3 SWAP2 POP POP JUMP JUMPDEST PUSH0 DUP1 PUSH0 SWAP1 SLOAD SWAP1 PUSH2 0x100 EXP SWAP1 DIV PUSH1 0x1 PUSH1 0x1 PUSH1 0xA0 SHL SUB AND PUSH1 0x1 PUSH1 0x1 PUSH1 0xA0 SHL SUB AND PUSH4 0xE6D68595 PUSH1 0x40 MLOAD DUP2 PUSH4 0xFFFFFFFF AND PUSH1 0xE0 SHL DUP2 MSTORE PUSH1 0x4 ADD PUSH1 0x20 PUSH1 0x40 MLOAD DUP1 DUP4 SUB DUP2 DUP7 GAS STATICCALL ISZERO DUP1 ISZERO PUSH2 0xE49 JUMPI RETURNDATASIZE PUSH0 DUP1 RETURNDATACOPY RETURNDATASIZE PUSH0 REVERT JUMPDEST POP POP POP POP PUSH1 0x40 MLOAD RETURNDATASIZE PUSH1 0x1F NOT PUSH1 0x1F DUP3 ADD AND DUP3 ADD DUP1 PUSH1 0x40 MSTORE POP DUP2 ADD SWAP1 PUSH2 0xE6D SWAP2 SWAP1 PUSH2 0x1892 JUMP JUMPDEST PUSH1 0x1 PUSH1 0x1 PUSH1 0xA0 SHL SUB AND CALLER PUSH1 0x1 PUSH1 0x1 PUSH1 0xA0 SHL SUB AND EQ PUSH2 0xEC2 JUMPI PUSH1 0x40 MLOAD PUSH3 0x461BCD PUSH1 0xE5 SHL DUP2 MSTORE PUSH1 0x20 PUSH1 0x4 DUP3 ADD MSTORE PUSH1 0x12 PUSH1 0x24 DUP3 ADD MSTORE PUSH18 0x70726F6A656374206F776E6572206F6E6C79 PUSH1 0x70 SHL PUSH1 0x44 DUP3 ADD MSTORE PUSH1 0x64 ADD PUSH2 0x330 JUMP JUMPDEST PUSH1 0x12 SLOAD PUSH1 0xFF AND PUSH2 0x7FE JUMPI PUSH1 0x40 MLOAD PUSH3 0x461BCD PUSH1 0xE5 SHL DUP2 MSTORE PUSH1 0x4 ADD PUSH2 0x330 SWAP1 PUSH2 0x18C1 JUMP JUMPDEST PUSH0 DUP1 SLOAD PUSH1 0x40 MLOAD PUSH4 0x79212195 PUSH1 0xE1 SHL DUP2 MSTORE PUSH1 0x1 PUSH1 0x1 PUSH1 0xA0 SHL SUB DUP1 DUP7 AND SWAP3 AND SWAP1 PUSH4 0xF242432A SWAP1 PUSH2 0xF1C SWAP1 ADDRESS SWAP1 CALLER SWAP1 DUP7 SWAP1 DUP10 SWAP1 PUSH1 0x4 ADD PUSH2 0x192D JUMP JUMPDEST PUSH0 PUSH1 0x40 MLOAD DUP1 DUP4 SUB DUP2 PUSH0 DUP8 DUP1 EXTCODESIZE ISZERO DUP1 ISZERO PUSH2 0xF33 JUMPI PUSH0 DUP1 REVERT JUMPDEST POP GAS CALL ISZERO DUP1 ISZERO PUSH2 0xF45 JUMPI RETURNDATASIZE PUSH0 DUP1 RETURNDATACOPY RETURNDATASIZE PUSH0 REVERT JUMPDEST POP POP CALLER PUSH0 SWAP1 DUP2 MSTORE PUSH1 0x2 PUSH1 0x20 SWAP1 DUP2 MSTORE PUSH1 0x40 DUP1 DUP4 KECCAK256 DUP7 DUP5 MSTORE SWAP1 SWAP2 MSTORE DUP2 KECCAK256 DUP1 SLOAD DUP8 SWAP5 POP SWAP1 SWAP3 POP PUSH2 0xF73 SWAP1 DUP5 SWAP1 PUSH2 0x1903 JUMP JUMPDEST SWAP1 SWAP2 SSTORE POP PUSH1 0x1 SWAP6 SWAP5 POP POP POP POP POP JUMP JUMPDEST PUSH0 DUP1 PUSH0 SWAP1 SLOAD SWAP1 PUSH2 0x100 EXP SWAP1 DIV PUSH1 0x1 PUSH1 0x1 PUSH1 0xA0 SHL SUB AND PUSH1 0x1 PUSH1 0x1 PUSH1 0xA0 SHL SUB AND PUSH4 0x348917CA PUSH1 0x40 MLOAD DUP2 PUSH4 0xFFFFFFFF AND PUSH1 0xE0 SHL DUP2 MSTORE PUSH1 0x4 ADD PUSH1 0x20 PUSH1 0x40 MLOAD DUP1 DUP4 SUB DUP2 DUP7 GAS STATICCALL ISZERO DUP1 ISZERO PUSH2 0xFD2 JUMPI RETURNDATASIZE PUSH0 DUP1 RETURNDATACOPY RETURNDATASIZE PUSH0 REVERT JUMPDEST POP POP POP POP PUSH1 0x40 MLOAD RETURNDATASIZE PUSH1 0x1F NOT PUSH1 0x1F DUP3 ADD AND DUP3 ADD DUP1 PUSH1 0x40 MSTORE POP DUP2 ADD SWAP1 PUSH2 0xFF6 SWAP2 SWAP1 PUSH2 0x17F4 JUMP JUMPDEST ISZERO PUSH2 0x1013 JUMPI PUSH1 0x40 MLOAD PUSH3 0x461BCD PUSH1 0xE5 SHL DUP2 MSTORE PUSH1 0x4 ADD PUSH2 0x330 SWAP1 PUSH2 0x180F JUMP JUMPDEST PUSH0 DUP3 DUP2 MSTORE PUSH1 0x8 PUSH1 0x20 MSTORE PUSH1 0x40 DUP2 KECCAK256 SLOAD PUSH1 0xFF AND PUSH1 0x3 DUP2 GT ISZERO PUSH2 0x1035 JUMPI PUSH2 0x1035 PUSH2 0x14EA JUMP JUMPDEST SUB PUSH2 0x108E JUMPI PUSH1 0x40 MLOAD PUSH3 0x461BCD PUSH1 0xE5 SHL DUP2 MSTORE PUSH1 0x20 PUSH1 0x4 DUP3 ADD MSTORE PUSH1 0x24 DUP1 DUP3 ADD MSTORE PUSH32 0x4F626A656374696F6E2070726F706F73616C206973206E6F7420657865637574 PUSH1 0x44 DUP3 ADD MSTORE PUSH4 0x61626C65 PUSH1 0xE0 SHL PUSH1 0x64 DUP3 ADD MSTORE PUSH1 0x84 ADD PUSH2 0x330 JUMP JUMPDEST PUSH0 DUP3 DUP2 MSTORE PUSH1 0x6 PUSH1 0x20 MSTORE PUSH1 0x40 SWAP1 KECCAK256 SLOAD TIMESTAMP LT ISZERO PUSH2 0x10EB JUMPI PUSH1 0x40 MLOAD PUSH3 0x461BCD PUSH1 0xE5 SHL DUP2 MSTORE PUSH1 0x20 PUSH1 0x4 DUP3 ADD MSTORE PUSH1 0x1C PUSH1 0x24 DUP3 ADD MSTORE PUSH32 0x566F74696E6720646561646C696E65206861736E277420706173742E00000000 PUSH1 0x44 DUP3 ADD MSTORE PUSH1 0x64 ADD PUSH2 0x330 JUMP JUMPDEST PUSH0 DUP3 DUP2 MSTORE PUSH1 0xB PUSH1 0x20 SWAP1 DUP2 MSTORE PUSH1 0x40 DUP1 DUP4 KECCAK256 DUP4 DUP1 MSTORE SWAP1 SWAP2 MSTORE DUP1 DUP3 KECCAK256 SLOAD PUSH1 0x1 DUP4 MSTORE SWAP2 KECCAK256 SLOAD GT PUSH2 0x114C JUMPI PUSH1 0x40 MLOAD PUSH3 0x461BCD PUSH1 0xE5 SHL DUP2 MSTORE PUSH1 0x20 PUSH1 0x4 DUP3 ADD MSTORE PUSH1 0x10 PUSH1 0x24 DUP3 ADD MSTORE PUSH16 0x13585A9BDC9A5D1E481B9BDD081B595D PUSH1 0x82 SHL PUSH1 0x44 DUP3 ADD MSTORE PUSH1 0x64 ADD PUSH2 0x330 JUMP JUMPDEST PUSH0 DUP3 DUP2 MSTORE PUSH1 0x5 PUSH1 0x20 MSTORE PUSH1 0x40 DUP1 DUP3 KECCAK256 SLOAD DUP3 SLOAD SWAP2 MLOAD PUSH4 0xAA771D39 PUSH1 0xE0 SHL DUP2 MSTORE PUSH1 0x1 PUSH1 0x1 PUSH1 0xA0 SHL SUB SWAP2 DUP3 AND PUSH1 0x4 DUP3 ADD DUP2 SWAP1 MSTORE SWAP4 SWAP3 SWAP2 SWAP1 SWAP2 AND SWAP1 PUSH4 0xAA771D39 SWAP1 PUSH1 0x24 ADD PUSH1 0x20 PUSH1 0x40 MLOAD DUP1 DUP4 SUB DUP2 DUP7 GAS STATICCALL ISZERO DUP1 ISZERO PUSH2 0x11A6 JUMPI RETURNDATASIZE PUSH0 DUP1 RETURNDATACOPY RETURNDATASIZE PUSH0 REVERT JUMPDEST POP POP POP POP PUSH1 0x40 MLOAD RETURNDATASIZE PUSH1 0x1F NOT PUSH1 0x1F DUP3 ADD AND DUP3 ADD DUP1 PUSH1 0x40 MSTORE POP DUP2 ADD SWAP1 PUSH2 0x11CA SWAP2 SWAP1 PUSH2 0x1916 JUMP JUMPDEST PUSH0 DUP6 DUP2 MSTORE PUSH1 0xD PUSH1 0x20 MSTORE PUSH1 0x40 SWAP1 KECCAK256 SLOAD SWAP1 SWAP2 POP PUSH1 0x64 SWAP1 PUSH2 0x11EB SWAP1 PUSH1 0xFF AND DUP4 PUSH2 0x1964 JUMP JUMPDEST PUSH2 0x11F5 SWAP2 SWAP1 PUSH2 0x197B JUMP JUMPDEST PUSH0 DUP6 DUP2 MSTORE PUSH1 0xB PUSH1 0x20 SWAP1 DUP2 MSTORE PUSH1 0x40 DUP1 DUP4 KECCAK256 PUSH1 0x1 DUP5 MSTORE SWAP1 SWAP2 MSTORE SWAP1 KECCAK256 SLOAD GT PUSH2 0x124D JUMPI PUSH1 0x40 MLOAD PUSH3 0x461BCD PUSH1 0xE5 SHL DUP2 MSTORE PUSH1 0x20 PUSH1 0x4 DUP3 ADD MSTORE PUSH1 0xE PUSH1 0x24 DUP3 ADD MSTORE PUSH14 0x145D5BDC9D5B481B9BDD081B595D PUSH1 0x92 SHL PUSH1 0x44 DUP3 ADD MSTORE PUSH1 0x64 ADD PUSH2 0x330 JUMP JUMPDEST PUSH1 0x1 PUSH0 DUP6 DUP2 MSTORE PUSH1 0x8 PUSH1 0x20 MSTORE PUSH1 0x40 SWAP1 KECCAK256 SLOAD PUSH1 0xFF AND PUSH1 0x3 DUP2 GT ISZERO PUSH2 0x1271 JUMPI PUSH2 0x1271 PUSH2 0x14EA JUMP JUMPDEST SUB PUSH2 0x12FA JUMPI PUSH0 DUP1 SLOAD SWAP1 PUSH2 0x100 EXP SWAP1 DIV PUSH1 0x1 PUSH1 0x1 PUSH1 0xA0 SHL SUB AND PUSH1 0x1 PUSH1 0x1 PUSH1 0xA0 SHL SUB AND PUSH4 0x84DAC702 PUSH1 0x40 MLOAD DUP2 PUSH4 0xFFFFFFFF AND PUSH1 0xE0 SHL DUP2 MSTORE PUSH1 0x4 ADD PUSH1 0x20 PUSH1 0x40 MLOAD DUP1 DUP4 SUB DUP2 PUSH0 DUP8 GAS CALL ISZERO DUP1 ISZERO PUSH2 0x12C5 JUMPI RETURNDATASIZE PUSH0 DUP1 RETURNDATACOPY RETURNDATASIZE PUSH0 REVERT JUMPDEST POP POP POP POP PUSH1 0x40 MLOAD RETURNDATASIZE PUSH1 0x1F NOT PUSH1 0x1F DUP3 ADD AND DUP3 ADD DUP1 PUSH1 0x40 MSTORE POP DUP2 ADD SWAP1 PUSH2 0x12E9 SWAP2 SWAP1 PUSH2 0x17F4 JUMP JUMPDEST PUSH2 0x12F5 JUMPI PUSH2 0x12F5 PUSH2 0x18AD JUMP JUMPDEST PUSH2 0xA2E JUMP JUMPDEST PUSH1 0x2 PUSH0 DUP6 DUP2 MSTORE PUSH1 0x8 PUSH1 0x20 MSTORE PUSH1 0x40 SWAP1 KECCAK256 SLOAD PUSH1 0xFF AND PUSH1 0x3 DUP2 GT ISZERO PUSH2 0x131E JUMPI PUSH2 0x131E PUSH2 0x14EA JUMP JUMPDEST SUB PUSH2 0x1372 JUMPI PUSH0 DUP1 SLOAD SWAP1 PUSH2 0x100 EXP SWAP1 DIV PUSH1 0x1 PUSH1 0x1 PUSH1 0xA0 SHL SUB AND PUSH1 0x1 PUSH1 0x1 PUSH1 0xA0 SHL SUB AND PUSH4 0x7F1660A1 PUSH1 0x40 MLOAD DUP2 PUSH4 0xFFFFFFFF AND PUSH1 0xE0 SHL DUP2 MSTORE PUSH1 0x4 ADD PUSH1 0x20 PUSH1 0x40 MLOAD DUP1 DUP4 SUB DUP2 PUSH0 DUP8 GAS CALL ISZERO DUP1 ISZERO PUSH2 0x12C5 JUMPI RETURNDATASIZE PUSH0 DUP1 RETURNDATACOPY RETURNDATASIZE PUSH0 REVERT JUMPDEST PUSH1 0x3 PUSH0 DUP6 DUP2 MSTORE PUSH1 0x8 PUSH1 0x20 MSTORE PUSH1 0x40 SWAP1 KECCAK256 SLOAD PUSH1 0xFF AND PUSH1 0x3 DUP2 GT ISZERO PUSH2 0x1396 JUMPI PUSH2 0x1396 PUSH2 0x14EA JUMP JUMPDEST SUB PUSH2 0x13F1 JUMPI PUSH0 DUP1 SLOAD DUP6 DUP3 MSTORE PUSH1 0x5 PUSH1 0x20 MSTORE PUSH1 0x40 SWAP2 DUP3 SWAP1 KECCAK256 SLOAD SWAP2 MLOAD PUSH4 0x3CDFE21 PUSH1 0xE4 SHL DUP2 MSTORE PUSH1 0x1 PUSH1 0x1 PUSH1 0xA0 SHL SUB SWAP3 DUP4 AND PUSH1 0x4 DUP3 ADD MSTORE SWAP2 AND SWAP1 PUSH4 0x3CDFE210 SWAP1 PUSH1 0x24 ADD PUSH1 0x20 PUSH1 0x40 MLOAD DUP1 DUP4 SUB DUP2 PUSH0 DUP8 GAS CALL ISZERO DUP1 ISZERO PUSH2 0x12C5 JUMPI RETURNDATASIZE PUSH0 DUP1 RETURNDATACOPY RETURNDATASIZE PUSH0 REVERT JUMPDEST PUSH1 0x40 MLOAD PUSH3 0x461BCD PUSH1 0xE5 SHL DUP2 MSTORE PUSH1 0x20 PUSH1 0x4 DUP3 ADD MSTORE PUSH1 0x16 PUSH1 0x24 DUP3 ADD MSTORE PUSH22 0x4572726F7220696E2070726F706F73616C2074797065 PUSH1 0x50 SHL PUSH1 0x44 DUP3 ADD MSTORE PUSH1 0x64 ADD PUSH2 0x330 JUMP JUMPDEST PUSH0 PUSH1 0x20 DUP3 DUP5 SUB SLT ISZERO PUSH2 0x1442 JUMPI PUSH0 DUP1 REVERT JUMPDEST DUP2 CALLDATALOAD PUSH1 0x1 PUSH1 0x1 PUSH1 0xE0 SHL SUB NOT DUP2 AND DUP2 EQ PUSH2 0x1459 JUMPI PUSH0 DUP1 REVERT JUMPDEST SWAP4 SWAP3 POP POP POP JUMP JUMPDEST DUP1 CALLDATALOAD PUSH1 0xFF DUP2 AND DUP2 EQ PUSH2 0x83E JUMPI PUSH0 DUP1 REVERT JUMPDEST PUSH1 0x1 PUSH1 0x1 PUSH1 0xA0 SHL SUB DUP2 AND DUP2 EQ PUSH2 0x1484 JUMPI PUSH0 DUP1 REVERT JUMPDEST POP JUMP JUMPDEST PUSH0 DUP1 PUSH0 DUP1 PUSH1 0x80 DUP6 DUP8 SUB SLT ISZERO PUSH2 0x149A JUMPI PUSH0 DUP1 REVERT JUMPDEST PUSH2 0x14A3 DUP6 PUSH2 0x1460 JUMP JUMPDEST SWAP4 POP PUSH1 0x20 DUP6 ADD CALLDATALOAD PUSH2 0x14B3 DUP2 PUSH2 0x1470 JUMP JUMPDEST SWAP3 POP PUSH2 0x14C1 PUSH1 0x40 DUP7 ADD PUSH2 0x1460 JUMP JUMPDEST SWAP4 SWAP7 SWAP3 SWAP6 POP SWAP3 SWAP4 PUSH1 0x60 ADD CALLDATALOAD SWAP3 POP POP JUMP JUMPDEST PUSH0 PUSH1 0x20 DUP3 DUP5 SUB SLT ISZERO PUSH2 0x14E1 JUMPI PUSH0 DUP1 REVERT JUMPDEST PUSH2 0x1459 DUP3 PUSH2 0x1460 JUMP JUMPDEST PUSH4 0x4E487B71 PUSH1 0xE0 SHL PUSH0 MSTORE PUSH1 0x21 PUSH1 0x4 MSTORE PUSH1 0x24 PUSH0 REVERT JUMPDEST PUSH1 0x20 DUP2 ADD PUSH1 0x4 DUP4 LT PUSH2 0x151E JUMPI PUSH4 0x4E487B71 PUSH1 0xE0 SHL PUSH0 MSTORE PUSH1 0x21 PUSH1 0x4 MSTORE PUSH1 0x24 PUSH0 REVERT JUMPDEST SWAP2 SWAP1 MSTORE SWAP1 JUMP JUMPDEST PUSH0 DUP1 PUSH1 0x40 DUP4 DUP6 SUB SLT ISZERO PUSH2 0x1535 JUMPI PUSH0 DUP1 REVERT JUMPDEST DUP3 CALLDATALOAD PUSH2 0x1540 DUP2 PUSH2 0x1470 JUMP JUMPDEST SWAP5 PUSH1 0x20 SWAP4 SWAP1 SWAP4 ADD CALLDATALOAD SWAP4 POP POP POP JUMP JUMPDEST PUSH0 PUSH1 0x20 DUP3 DUP5 SUB SLT ISZERO PUSH2 0x155E JUMPI PUSH0 DUP1 REVERT JUMPDEST DUP2 CALLDATALOAD PUSH2 0x1459 DUP2 PUSH2 0x1470 JUMP JUMPDEST PUSH4 0x4E487B71 PUSH1 0xE0 SHL PUSH0 MSTORE PUSH1 0x41 PUSH1 0x4 MSTORE PUSH1 0x24 PUSH0 REVERT JUMPDEST PUSH1 0x40 MLOAD PUSH1 0x1F DUP3 ADD PUSH1 0x1F NOT AND DUP2 ADD PUSH8 0xFFFFFFFFFFFFFFFF DUP2 GT DUP3 DUP3 LT OR ISZERO PUSH2 0x15A6 JUMPI PUSH2 0x15A6 PUSH2 0x1569 JUMP JUMPDEST PUSH1 0x40 MSTORE SWAP2 SWAP1 POP JUMP JUMPDEST PUSH0 DUP3 PUSH1 0x1F DUP4 ADD SLT PUSH2 0x15BD JUMPI PUSH0 DUP1 REVERT JUMPDEST DUP2 CALLDATALOAD PUSH1 0x20 PUSH8 0xFFFFFFFFFFFFFFFF DUP3 GT ISZERO PUSH2 0x15D9 JUMPI PUSH2 0x15D9 PUSH2 0x1569 JUMP JUMPDEST DUP2 PUSH1 0x5 SHL PUSH2 0x15E8 DUP3 DUP3 ADD PUSH2 0x157D JUMP JUMPDEST SWAP3 DUP4 MSTORE DUP5 DUP2 ADD DUP3 ADD SWAP3 DUP3 DUP2 ADD SWAP1 DUP8 DUP6 GT ISZERO PUSH2 0x1601 JUMPI PUSH0 DUP1 REVERT JUMPDEST DUP4 DUP8 ADD SWAP3 POP JUMPDEST DUP5 DUP4 LT ISZERO PUSH2 0x1620 JUMPI DUP3 CALLDATALOAD DUP3 MSTORE SWAP2 DUP4 ADD SWAP2 SWAP1 DUP4 ADD SWAP1 PUSH2 0x1607 JUMP JUMPDEST SWAP8 SWAP7 POP POP POP POP POP POP POP JUMP JUMPDEST PUSH0 DUP3 PUSH1 0x1F DUP4 ADD SLT PUSH2 0x163A JUMPI PUSH0 DUP1 REVERT JUMPDEST DUP2 CALLDATALOAD PUSH8 0xFFFFFFFFFFFFFFFF DUP2 GT ISZERO PUSH2 0x1654 JUMPI PUSH2 0x1654 PUSH2 0x1569 JUMP JUMPDEST PUSH2 0x1667 PUSH1 0x1F DUP3 ADD PUSH1 0x1F NOT AND PUSH1 0x20 ADD PUSH2 0x157D JUMP JUMPDEST DUP2 DUP2 MSTORE DUP5 PUSH1 0x20 DUP4 DUP7 ADD ADD GT ISZERO PUSH2 0x167B JUMPI PUSH0 DUP1 REVERT JUMPDEST DUP2 PUSH1 0x20 DUP6 ADD PUSH1 0x20 DUP4 ADD CALLDATACOPY PUSH0 SWAP2 DUP2 ADD PUSH1 0x20 ADD SWAP2 SWAP1 SWAP2 MSTORE SWAP4 SWAP3 POP POP POP JUMP JUMPDEST PUSH0 DUP1 PUSH0 DUP1 PUSH0 PUSH1 0xA0 DUP7 DUP9 SUB SLT ISZERO PUSH2 0x16AB JUMPI PUSH0 DUP1 REVERT JUMPDEST DUP6 CALLDATALOAD PUSH2 0x16B6 DUP2 PUSH2 0x1470 JUMP JUMPDEST SWAP5 POP PUSH1 0x20 DUP7 ADD CALLDATALOAD PUSH2 0x16C6 DUP2 PUSH2 0x1470 JUMP JUMPDEST SWAP4 POP PUSH1 0x40 DUP7 ADD CALLDATALOAD PUSH8 0xFFFFFFFFFFFFFFFF DUP1 DUP3 GT ISZERO PUSH2 0x16E2 JUMPI PUSH0 DUP1 REVERT JUMPDEST PUSH2 0x16EE DUP10 DUP4 DUP11 ADD PUSH2 0x15AE JUMP JUMPDEST SWAP5 POP PUSH1 0x60 DUP9 ADD CALLDATALOAD SWAP2 POP DUP1 DUP3 GT ISZERO PUSH2 0x1703 JUMPI PUSH0 DUP1 REVERT JUMPDEST PUSH2 0x170F DUP10 DUP4 DUP11 ADD PUSH2 0x15AE JUMP JUMPDEST SWAP4 POP PUSH1 0x80 DUP9 ADD CALLDATALOAD SWAP2 POP DUP1 DUP3 GT ISZERO PUSH2 0x1724 JUMPI PUSH0 DUP1 REVERT JUMPDEST POP PUSH2 0x1731 DUP9 DUP3 DUP10 ADD PUSH2 0x162B JUMP JUMPDEST SWAP2 POP POP SWAP3 SWAP6 POP SWAP3 SWAP6 SWAP1 SWAP4 POP JUMP JUMPDEST DUP1 ISZERO ISZERO DUP2 EQ PUSH2 0x1484 JUMPI PUSH0 DUP1 REVERT JUMPDEST PUSH0 DUP1 PUSH1 0x40 DUP4 DUP6 SUB SLT ISZERO PUSH2 0x175C JUMPI PUSH0 DUP1 REVERT JUMPDEST DUP3 CALLDATALOAD SWAP2 POP PUSH1 0x20 DUP4 ADD CALLDATALOAD PUSH2 0x176E DUP2 PUSH2 0x173E JUMP JUMPDEST DUP1 SWAP2 POP POP SWAP3 POP SWAP3 SWAP1 POP JUMP JUMPDEST PUSH0 DUP1 PUSH0 DUP1 PUSH0 PUSH1 0xA0 DUP7 DUP9 SUB SLT ISZERO PUSH2 0x178D JUMPI PUSH0 DUP1 REVERT JUMPDEST DUP6 CALLDATALOAD PUSH2 0x1798 DUP2 PUSH2 0x1470 JUMP JUMPDEST SWAP5 POP PUSH1 0x20 DUP7 ADD CALLDATALOAD PUSH2 0x17A8 DUP2 PUSH2 0x1470 JUMP JUMPDEST SWAP4 POP PUSH1 0x40 DUP7 ADD CALLDATALOAD SWAP3 POP PUSH1 0x60 DUP7 ADD CALLDATALOAD SWAP2 POP PUSH1 0x80 DUP7 ADD CALLDATALOAD PUSH8 0xFFFFFFFFFFFFFFFF DUP2 GT ISZERO PUSH2 0x17D1 JUMPI PUSH0 DUP1 REVERT JUMPDEST PUSH2 0x1731 DUP9 DUP3 DUP10 ADD PUSH2 0x162B JUMP JUMPDEST PUSH0 PUSH1 0x20 DUP3 DUP5 SUB SLT ISZERO PUSH2 0x17ED JUMPI PUSH0 DUP1 REVERT JUMPDEST POP CALLDATALOAD SWAP2 SWAP1 POP JUMP JUMPDEST PUSH0 PUSH1 0x20 DUP3 DUP5 SUB SLT ISZERO PUSH2 0x1804 JUMPI PUSH0 DUP1 REVERT JUMPDEST DUP2 MLOAD PUSH2 0x1459 DUP2 PUSH2 0x173E JUMP JUMPDEST PUSH1 0x20 DUP1 DUP3 MSTORE PUSH1 0x24 SWAP1 DUP3 ADD MSTORE PUSH32 0x57697468647261776E2070726F6A6563742063616E6E6F742062652061637469 PUSH1 0x40 DUP3 ADD MSTORE PUSH4 0x1BDB9959 PUSH1 0xE2 SHL PUSH1 0x60 DUP3 ADD MSTORE PUSH1 0x80 ADD SWAP1 JUMP JUMPDEST PUSH4 0x4E487B71 PUSH1 0xE0 SHL PUSH0 MSTORE PUSH1 0x11 PUSH1 0x4 MSTORE PUSH1 0x24 PUSH0 REVERT JUMPDEST DUP1 DUP3 ADD DUP1 DUP3 GT ISZERO PUSH2 0x299 JUMPI PUSH2 0x299 PUSH2 0x1853 JUMP JUMPDEST PUSH0 PUSH1 0x1 DUP3 ADD PUSH2 0x188B JUMPI PUSH2 0x188B PUSH2 0x1853 JUMP JUMPDEST POP PUSH1 0x1 ADD SWAP1 JUMP JUMPDEST PUSH0 PUSH1 0x20 DUP3 DUP5 SUB SLT ISZERO PUSH2 0x18A2 JUMPI PUSH0 DUP1 REVERT JUMPDEST DUP2 MLOAD PUSH2 0x1459 DUP2 PUSH2 0x1470 JUMP JUMPDEST PUSH4 0x4E487B71 PUSH1 0xE0 SHL PUSH0 MSTORE PUSH1 0x1 PUSH1 0x4 MSTORE PUSH1 0x24 PUSH0 REVERT JUMPDEST PUSH1 0x20 DUP1 DUP3 MSTORE PUSH1 0x22 SWAP1 DUP3 ADD MSTORE PUSH32 0x4E6F2070726F706F73616C206F7220616C6C6F77616E63652065786861757374 PUSH1 0x40 DUP3 ADD MSTORE PUSH2 0x1959 PUSH1 0xF2 SHL PUSH1 0x60 DUP3 ADD MSTORE PUSH1 0x80 ADD SWAP1 JUMP JUMPDEST DUP2 DUP2 SUB DUP2 DUP2 GT ISZERO PUSH2 0x299 JUMPI PUSH2 0x299 PUSH2 0x1853 JUMP JUMPDEST PUSH0 PUSH1 0x20 DUP3 DUP5 SUB SLT ISZERO PUSH2 0x1926 JUMPI PUSH0 DUP1 REVERT JUMPDEST POP MLOAD SWAP2 SWAP1 POP JUMP JUMPDEST PUSH1 0x1 PUSH1 0x1 PUSH1 0xA0 SHL SUB SWAP5 DUP6 AND DUP2 MSTORE SWAP3 SWAP1 SWAP4 AND PUSH1 0x20 DUP4 ADD MSTORE PUSH1 0x40 DUP3 ADD MSTORE PUSH1 0x60 DUP2 ADD SWAP2 SWAP1 SWAP2 MSTORE PUSH1 0xA0 PUSH1 0x80 DUP3 ADD DUP2 SWAP1 MSTORE PUSH0 SWAP1 DUP3 ADD MSTORE PUSH1 0xC0 ADD SWAP1 JUMP JUMPDEST DUP1 DUP3 MUL DUP2 ISZERO DUP3 DUP3 DIV DUP5 EQ OR PUSH2 0x299 JUMPI PUSH2 0x299 PUSH2 0x1853 JUMP JUMPDEST PUSH0 DUP3 PUSH2 0x1995 JUMPI PUSH4 0x4E487B71 PUSH1 0xE0 SHL PUSH0 MSTORE PUSH1 0x12 PUSH1 0x4 MSTORE PUSH1 0x24 PUSH0 REVERT JUMPDEST POP DIV SWAP1 JUMP INVALID LOG2 PUSH5 0x6970667358 0x22 SLT KECCAK256 0xBC 0xBF CREATE2 PUSH10 0xAD6089A75880F3B24BC7 0x4B SWAP5 0xB3 CREATE2 0xE MLOAD MSTORE CALLER 0xB4 0xD6 DUP9 PUSH29 0xC2861E03D61164736F6C63430008140033A264697066735822122082B5 DUP3 PUSH22 0x596C881F2FE863EBD516DFCF8CAA16EF9088BBEAC26 BLOCKHASH PUSH29 0x28089FC964736F6C63430008140033A26469706673582212205981B4C1 DUP6 DUP7 MUL SWAP6 0x2E 0xD4 STATICCALL PREVRANDAO 0x2E JUMPDEST INVALID 0xBE JUMP CALLDATASIZE 0x2E RETURNDATACOPY 0xBB CALLDATACOPY DUP3 DUP10 0xBC 0xD7 0x22 0x4C 0xD2 CHAINID 0xBA 0x5C PUSH5 0x736F6C6343 STOP ADDMOD EQ STOP CALLER "
		},
		"gasEstimates": {
			"creation": {
				"codeDepositCost": "4198800",
				"executionCost": "4834",
				"totalCost": "4203634"
			},
			"external": {
				"beforeAll()": "infinite",
				"currency()": "2368",
				"factory()": "2345",
				"testInitiateProject()": "infinite"
			}
		},
		"methodIdentifiers": {
			"beforeAll()": "7fea0d4b",
			"currency()": "e5a6b10f",
			"factory()": "c45a0155",
			"testInitiateProject()": "3186505d"
		}
	},
	"abi": [
		{
			"inputs": [],
			"name": "beforeAll",
			"outputs": [],
			"stateMutability": "nonpayable",
			"type": "function"
		},
		{
			"inputs": [],
			"name": "currency",
			"outputs": [
				{
					"internalType": "contract IERC20",
					"name": "",
					"type": "address"
				}
			],
			"stateMutability": "view",
			"type": "function"
		},
		{
			"inputs": [],
			"name": "factory",
			"outputs": [
				{
					"internalType": "contract FundoorProjectFactory",
					"name": "",
					"type": "address"
				}
			],
			"stateMutability": "view",
			"type": "function"
		},
		{
			"inputs": [],
			"name": "testInitiateProject",
			"outputs": [],
			"stateMutability": "nonpayable",
			"type": "function"
		}
	]
}