{
	"data": {
		"bytecode": {
			"linkReferences": {
				".deps/FundoorLib.sol": {
					"FundoorLib": [
						{
							"length": 20,
							"start": 2995
						},
						{
							"length": 20,
							"start": 3345
						}
					]
				}
			},
			"object": "60806040523480156200001157600080fd5b506040516200537f3803806200537f833981016040819052620000349162000346565b6040805160208101909152600081526200004e816200020e565b506200005a3362000227565b600480546001600160a01b038087166001600160a01b03199283161790925560058054928616929091169190911790558115620000ef5730604051620000a09062000279565b6001600160a01b039091168152602001604051809103906000f080158015620000cd573d6000803e3d6000fd5b50600680546001600160a01b0319166001600160a01b03929092169190911790555b600780546001600160a01b0319166001600160a01b038816908117909155600b82905560408051918252602082018390527fc6b5d036565220527ce1cfc38a372c78adb8308d835c5c803fb3a17d0a106549910160405180910390a1600880546001810182556000919091527ff3f7a9fe364faab93b216da50a3214154f22a0a2b415b23a84c8169e8b636ee30180546001600160a01b0319166001600160a01b0387169081179091556040519081527fec38796d17f4fa8c88de20f9fb9da605573fdcb1dd79c6d39683df6d64175e5f9060200160405180910390a1600c805460ff191660011790556040517f1611757e154fd5430178688b28bebeab61bb8acec2b806091026e8b0fc3e716490600090a15050505050506200040f565b80516200022390600290602084019062000287565b5050565b600380546001600160a01b038381166001600160a01b0319831681179093556040519116919082907f8be0079c531659141344cd1fd0a4f28419497f9722a3daafe3b4186f6b6457e090600090a35050565b612060806200331f83390190565b8280546200029590620003d2565b90600052602060002090601f016020900481019282620002b9576000855562000304565b82601f10620002d457805160ff191683800117855562000304565b8280016001018555821562000304579182015b8281111562000304578251825591602001919060010190620002e7565b506200031292915062000316565b5090565b5b8082111562000312576000815560010162000317565b6001600160a01b03811681146200034357600080fd5b50565b60008060008060008060c087890312156200036057600080fd5b86516200036d816200032d565b602088015190965062000380816200032d565b604088015190955062000393816200032d565b6060880151909450620003a6816200032d565b60808801519093508015158114620003bd57600080fd5b8092505060a087015190509295509295509295565b600181811c90821680620003e757607f821691505b602082108114156200040957634e487b7160e01b600052602260045260246000fd5b50919050565b612f00806200041f6000396000f3fe608060405234801561001057600080fd5b50600436106102265760003560e01c806384dac70211610130578063bffa55d5116100b8578063e6d685951161007c578063e6d685951461047f578063e985e9c514610490578063f242432a146104cc578063f2fde38b146104df578063fb166f91146104f257600080fd5b8063bffa55d514610433578063c57380a214610446578063c8a6296814610457578063cb0e0d7d1461045f578063d47f4d2a1461047957600080fd5b80638da5cb5b116100ff5780638da5cb5b146103d45780639bb5da78146103e5578063a22cb465146103f8578063aa771d391461040b578063bbffd04c1461042b57600080fd5b806384dac7021461039e578063853828b6146103a65780638ab234b6146103ae5780638d472709146103c157600080fd5b80633cdfe210116101b357806353462d6b1161018257806353462d6b14610353578063715018a61461035b57806374f60d3614610363578063765add80146103835780637f1660a11461039657600080fd5b80633cdfe210146103025780634e1273f4146103155780634e4cffce146103355780634fb2e45d1461034057600080fd5b8063244c60b5116101fa578063244c60b5146102a75780632b10d14d146102af5780632eb2c2d6146102d4578063348917ca146102e95780633cb78fe0146102fa57600080fd5b8062fdd58e1461022b57806301ffc9a7146102515780630e89341c1461027457806320eaac7d14610294575b600080fd5b61023e610239366004612428565b6104fa565b6040519081526020015b60405180910390f35b61026461025f36600461246a565b610590565b6040519015158152602001610248565b610287610282366004612487565b6105e2565b60405161024891906124ed565b6102646102a236600461250e565b610676565b610264610b62565b6006546001600160a01b03165b6040516001600160a01b039091168152602001610248565b6102e76102e236600461269c565b610bf3565b005b600c5462010000900460ff16610264565b610264610c3f565b61026461031036600461274a565b610d11565b610328610323366004612767565b610d47565b604051610248919061286f565b600c5460ff16610264565b61026461034e36600461274a565b610e71565b600b5461023e565b6102e7610ec3565b610376610371366004612487565b610ed7565b6040516102489190612882565b6102646103913660046128cf565b610f3a565b610264610ff2565b61026461102c565b610264611061565b6102646103bc36600461274a565b6111d1565b6102646103cf3660046128f1565b6112a9565b6003546001600160a01b03166102bc565b6102646103f3366004612487565b6113e1565b6102e7610406366004612932565b611417565b61023e610419366004612487565b60009081526009602052604090205490565b610264611426565b61026461044136600461274a565b61148c565b6004546001600160a01b03166102bc565b6102646116d6565b61023e61046d36600461274a565b6001600160a01b031690565b306102bc565b6007546001600160a01b03166102bc565b61026461049e36600461296b565b6001600160a01b03918216600090815260016020908152604080832093909416825291909152205460ff1690565b6102e76104da366004612999565b611703565b6102e76104ed36600461274a565b611748565b6102646117c1565b60006001600160a01b03831661056a5760405162461bcd60e51b815260206004820152602a60248201527f455243313135353a2061646472657373207a65726f206973206e6f742061207660448201526930b634b21037bbb732b960b11b60648201526084015b60405180910390fd5b506000908152602081815260408083206001600160a01b03949094168352929052205490565b60006001600160e01b03198216636cdb3d1360e11b14806105c157506001600160e01b031982166303a24d0760e21b145b806105dc57506301ffc9a760e01b6001600160e01b03198316145b92915050565b6060600280546105f190612a02565b80601f016020809104026020016040519081016040528092919081815260200182805461061d90612a02565b801561066a5780601f1061063f5761010080835404028352916020019161066a565b820191906000526020600020905b81548152906001019060200180831161064d57829003601f168201915b50505050509050919050565b6000600b544210156106b55760405162461bcd60e51b81526020600482015260086024820152672a37b79039b7b7b760c11b6044820152606401610561565b6004546001600160a01b031633146106df5760405162461bcd60e51b815260040161056190612a3d565b600c54610100900460ff16156106f7576106f7612a82565b6040516370a0823160e01b81523060048201526000906001600160a01b038616906370a082319060240160206040518083038186803b15801561073957600080fd5b505afa15801561074d573d6000803e3d6000fd5b505050506040513d601f19601f820116820180604052508101906107719190612a98565b604051637ae2b5c760e01b8152600481018690526024810182905290915060009073__$1fcfe7ddd81b6f7ea106a2bbe0e5e67adc$__90637ae2b5c79060440160206040518083038186803b1580156107c957600080fd5b505af41580156107dd573d6000803e3d6000fd5b505050506040513d601f19601f820116820180604052508101906108019190612a98565b6006549091506001600160a01b031615610a6957600654604051636582b41d60e11b81526001600160a01b038881166004830152600092169063cb05683a9060240160206040518083038186803b15801561085b57600080fd5b505afa15801561086f573d6000803e3d6000fd5b505050506040513d601f19601f820116820180604052508101906108939190612a98565b116108d05760405162461bcd60e51b815260206004820152600d60248201526c139bdb9948185c1c1c9bdd9959609a1b6044820152606401610561565b600654604051636582b41d60e11b81526001600160a01b03888116600483015273__$1fcfe7ddd81b6f7ea106a2bbe0e5e67adc$__92637ae2b5c79291169063cb05683a9060240160206040518083038186803b15801561093057600080fd5b505afa158015610944573d6000803e3d6000fd5b505050506040513d601f19601f820116820180604052508101906109689190612a98565b876040518363ffffffff1660e01b815260040161098f929190918252602082015260400190565b60206040518083038186803b1580156109a757600080fd5b505af41580156109bb573d6000803e3d6000fd5b505050506040513d601f19601f820116820180604052508101906109df9190612a98565b60065460405163e2ff2d4360e01b81526001600160a01b0389811660048301526024820184905292935091169063e2ff2d4390604401602060405180830381600087803b158015610a2f57600080fd5b505af1158015610a43573d6000803e3d6000fd5b505050506040513d601f19601f82011682018060405250810190610a679190612ab1565b505b60075460405163a9059cbb60e01b81526001600160a01b039182166004820152602481018390529087169063a9059cbb90604401602060405180830381600087803b158015610ab757600080fd5b505af1158015610acb573d6000803e3d6000fd5b505050506040513d601f19601f82011682018060405250810190610aef9190612ab1565b50600754604080516001600160a01b039283168152918816602083015281018290527fd1c19fbcd4551a5edfb66d43d2e337c04837afda3482b42bdf569a8fccdae5fb9060600160405180910390a18315610b5657600c805462ff00ff1916620100001790555b50600195945050505050565b6004546000906001600160a01b03163314610b8f5760405162461bcd60e51b815260040161056190612a3d565b60005b600854811015610bea57610bcc60088281548110610bb257610bb2612ace565b6000918252602090912001546001600160a01b03166117ee565b610bd857610bd8612a82565b80610be281612afa565b915050610b92565b50600190505b90565b6001600160a01b038516331480610c0f5750610c0f853361049e565b610c2b5760405162461bcd60e51b815260040161056190612b15565b610c3885858585856118f7565b5050505050565b6004546000906001600160a01b03163314610c6c5760405162461bcd60e51b815260040161056190612a3d565b600c5462010000900460ff1615610cd55760405162461bcd60e51b815260206004820152602760248201527f556e61626c6520746f20726561637469766174652077697468647261776e20706044820152663937b532b1ba1760c91b6064820152608401610561565b600c805460ff191660011790556040517f1611757e154fd5430178688b28bebeab61bb8acec2b806091026e8b0fc3e716490600090a150600190565b6006546000906001600160a01b03163314610d3e5760405162461bcd60e51b815260040161056190612b63565b6105dc826117ee565b60608151835114610dac5760405162461bcd60e51b815260206004820152602960248201527f455243313135353a206163636f756e747320616e6420696473206c656e677468604482015268040dad2e6dac2e8c6d60bb1b6064820152608401610561565b6000835167ffffffffffffffff811115610dc857610dc8612550565b604051908082528060200260200182016040528015610df1578160200160208202803683370190505b50905060005b8451811015610e6957610e3c858281518110610e1557610e15612ace565b6020026020010151858381518110610e2f57610e2f612ace565b60200260200101516104fa565b828281518110610e4e57610e4e612ace565b6020908102919091010152610e6281612afa565b9050610df7565b509392505050565b6004546000906001600160a01b03163314610e9e5760405162461bcd60e51b815260040161056190612a3d565b50600780546001600160a01b0383166001600160a01b03199091161790556001919050565b610ecb611ad4565b610ed56000611b2e565b565b6060600880548060200260200160405190810160405280929190818152602001828054801561066a57602002820191906000526020600020905b81546001600160a01b03168152600190910190602001808311610f115750505050509050919050565b6004546000906001600160a01b03163314610f675760405162461bcd60e51b815260040161056190612a3d565b60065460405162ecb5bb60e71b815260048101859052602481018490526001600160a01b039091169063765add8090604401602060405180830381600087803b158015610fb357600080fd5b505af1158015610fc7573d6000803e3d6000fd5b505050506040513d601f19601f82011682018060405250810190610feb9190612ab1565b9392505050565b6006546000906001600160a01b0316331461101f5760405162461bcd60e51b815260040161056190612b63565b611027611b80565b905090565b6006546000906001600160a01b031633146110595760405162461bcd60e51b815260040161056190612b63565b611027611c3a565b6000600b544210156110a05760405162461bcd60e51b81526020600482015260086024820152672a37b79039b7b7b760c11b6044820152606401610561565b6004546001600160a01b031633146110ca5760405162461bcd60e51b815260040161056190612a3d565b60005b600854811015610bea576111b3600882815481106110ed576110ed612ace565b600091825260209091200154600880546001600160a01b03909216918490811061111957611119612ace565b6000918252602090912001546040516370a0823160e01b81523060048201526001600160a01b03909116906370a082319060240160206040518083038186803b15801561116557600080fd5b505afa158015611179573d6000803e3d6000fd5b505050506040513d601f19601f8201168201806040525081019061119d9190612a98565b6008546111ac90600190612ba6565b8414610676565b6111bf576111bf612a82565b806111c981612afa565b9150506110cd565b6004546000906001600160a01b031633146111fe5760405162461bcd60e51b815260040161056190612a3d565b600c5460ff166112205760405162461bcd60e51b815260040161056190612bbd565b600880546001810182556000919091527ff3f7a9fe364faab93b216da50a3214154f22a0a2b415b23a84c8169e8b636ee30180546001600160a01b0319166001600160a01b0384169081179091556040519081527fec38796d17f4fa8c88de20f9fb9da605573fdcb1dd79c6d39683df6d64175e5f9060200160405180910390a1506001919050565b600c5460009060ff166112ce5760405162461bcd60e51b815260040161056190612bbd565b6005546001600160a01b0316331461133f5760405162461bcd60e51b815260206004820152602e60248201527f4f6e6c7920636f6e747269627574696f6e20726f757465722063616e2072756e60448201526d103a3434b990333ab731ba34b7b760911b6064820152608401610561565b6000836001600160a01b0316905061136885828560405180602001604052806000815250611cf8565b60008181526009602052604081208054859290611386908490612c07565b9091555050604080516001600160a01b038088168252861660208201529081018490527f188177a91f9b084dadc3c86215ff29aa75ddaf05ed75983c8c498c40989d58c99060600160405180910390a1506001949350505050565b6004546000906001600160a01b0316331461140e5760405162461bcd60e51b815260040161056190612a3d565b50600b55600190565b611422338383611e0c565b5050565b6004546000906001600160a01b031633146114535760405162461bcd60e51b815260040161056190612a3d565b600c805460ff191690556040517fa45acec63f6ac615004262a66fb13bfbc1eb0d6428dcced53efa9500185dc4a590600090a150600190565b6001600160a01b0381166000908152600a60205260408120546114f15760405162461bcd60e51b815260206004820152601760248201527f4e6f2066756e647320746f20626520726566756e6465640000000000000000006044820152606401610561565b6001600160a01b038216600061150733836104fa565b9050600081116115595760405162461bcd60e51b815260206004820152601e60248201527f4e6f20726566756e6473206f77656420746f206d73672073656e6465722e00006044820152606401610561565b6000828152600960205260408082205490516370a0823160e01b81523060048201526001600160a01b038716906370a082319060240160206040518083038186803b1580156115a757600080fd5b505afa1580156115bb573d6000803e3d6000fd5b505050506040513d601f19601f820116820180604052508101906115df9190612a98565b6115e99084612c1f565b6115f39190612c3e565b60405163a9059cbb60e01b8152336004820152602481018290529091506001600160a01b0386169063a9059cbb90604401602060405180830381600087803b15801561163e57600080fd5b505af1158015611652573d6000803e3d6000fd5b505050506040513d601f19601f820116820180604052508101906116769190612ab1565b50611682338484611eed565b604080513381526001600160a01b03871660208201529081018290527fec1e5ed733e00f1a00915d56caef57b4f52312dde4f9b3165f213319a0da156b9060600160405180910390a1506001949350505050565b6004546000906001600160a01b031633146110595760405162461bcd60e51b815260040161056190612a3d565b6001600160a01b03851633148061171f575061171f853361049e565b61173b5760405162461bcd60e51b815260040161056190612b15565b610c388585858585612069565b611750611ad4565b6001600160a01b0381166117b55760405162461bcd60e51b815260206004820152602660248201527f4f776e61626c653a206e6577206f776e657220697320746865207a65726f206160448201526564647265737360d01b6064820152608401610561565b6117be81611b2e565b50565b6004546000906001600160a01b0316331461101f5760405162461bcd60e51b815260040161056190612a3d565b600c5460009062010000900460ff161561185d5760405162461bcd60e51b815260206004820152602a60248201527f4e6f2066756e647320746f20726566756e6420666f722077697468647261776e60448201526910383937b532b1ba399760b11b6064820152608401610561565b6040516370a0823160e01b81523060048201526001600160a01b038316906370a082319060240160206040518083038186803b15801561189c57600080fd5b505afa1580156118b0573d6000803e3d6000fd5b505050506040513d601f19601f820116820180604052508101906118d49190612a98565b6001600160a01b039092166000908152600a602052604090209190915550600190565b81518351146119595760405162461bcd60e51b815260206004820152602860248201527f455243313135353a2069647320616e6420616d6f756e7473206c656e677468206044820152670dad2e6dac2e8c6d60c31b6064820152608401610561565b6001600160a01b03841661197f5760405162461bcd60e51b815260040161056190612c60565b3360005b8451811015611a665760008582815181106119a0576119a0612ace565b6020026020010151905060008583815181106119be576119be612ace565b602090810291909101810151600084815280835260408082206001600160a01b038e168352909352919091205490915081811015611a0e5760405162461bcd60e51b815260040161056190612ca5565b6000838152602081815260408083206001600160a01b038e8116855292528083208585039055908b16825281208054849290611a4b908490612c07565b9250508190555050505080611a5f90612afa565b9050611983565b50846001600160a01b0316866001600160a01b0316826001600160a01b03167f4a39dc06d4c0dbc64b70af90fd698a233a518aa5d07e595d983b8c0526c8f7fb8787604051611ab6929190612cef565b60405180910390a4611acc818787878787612193565b505050505050565b6003546001600160a01b03163314610ed55760405162461bcd60e51b815260206004820181905260248201527f4f776e61626c653a2063616c6c6572206973206e6f7420746865206f776e65726044820152606401610561565b600380546001600160a01b038381166001600160a01b0319831681179093556040519116919082907f8be0079c531659141344cd1fd0a4f28419497f9722a3daafe3b4186f6b6457e090600090a35050565b600c805461ff0019169055604080516301e5bc7f60e51b815290516000913091633cb78fe09160048082019260209290919082900301818787803b158015611bc757600080fd5b505af1158015611bdb573d6000803e3d6000fd5b505050506040513d601f19601f82011682018060405250810190611bff9190612ab1565b611c0b57611c0b612a82565b6040517f156d027f9d371e1464249dbd8daacdce9fa6f2a0d9fda528482a22c1583b0ea690600090a150600190565b600c805461ff00191661010017905560408051632efff41360e21b81529051600091309163bbffd04c9160048082019260209290919082900301818787803b158015611c8557600080fd5b505af1158015611c99573d6000803e3d6000fd5b505050506040513d601f19601f82011682018060405250810190611cbd9190612ab1565b611cc957611cc9612a82565b6040517fa5baf151492801d3b7a89ece73c1ed0b6dde992d47a0e283ff7d352bba70e0f590600090a150600190565b6001600160a01b038416611d585760405162461bcd60e51b815260206004820152602160248201527f455243313135353a206d696e7420746f20746865207a65726f206164647265736044820152607360f81b6064820152608401610561565b336000611d64856122fe565b90506000611d71856122fe565b90506000868152602081815260408083206001600160a01b038b16845290915281208054879290611da3908490612c07565b909155505060408051878152602081018790526001600160a01b03808a1692600092918716917fc3d58168c5ae7397731d063d5bbf3d657854427343f4c083240f7aacaa2d0f62910160405180910390a4611e0383600089898989612349565b50505050505050565b816001600160a01b0316836001600160a01b03161415611e805760405162461bcd60e51b815260206004820152602960248201527f455243313135353a2073657474696e6720617070726f76616c20737461747573604482015268103337b91039b2b63360b91b6064820152608401610561565b6001600160a01b03838116600081815260016020908152604080832094871680845294825291829020805460ff191686151590811790915591519182527f17307eab39ab6107e8899845ad3d59bd9653f200f220920489ca2b5937696c31910160405180910390a3505050565b6001600160a01b038316611f4f5760405162461bcd60e51b815260206004820152602360248201527f455243313135353a206275726e2066726f6d20746865207a65726f206164647260448201526265737360e81b6064820152608401610561565b336000611f5b846122fe565b90506000611f68846122fe565b60408051602080820183526000918290528882528181528282206001600160a01b038b1683529052205490915084811015611ff15760405162461bcd60e51b8152602060048201526024808201527f455243313135353a206275726e20616d6f756e7420657863656564732062616c604482015263616e636560e01b6064820152608401610561565b6000868152602081815260408083206001600160a01b038b81168086529184528285208a8703905582518b81529384018a90529092908816917fc3d58168c5ae7397731d063d5bbf3d657854427343f4c083240f7aacaa2d0f62910160405180910390a4604080516020810190915260009052611e03565b6001600160a01b03841661208f5760405162461bcd60e51b815260040161056190612c60565b33600061209b856122fe565b905060006120a8856122fe565b90506000868152602081815260408083206001600160a01b038c168452909152902054858110156120eb5760405162461bcd60e51b815260040161056190612ca5565b6000878152602081815260408083206001600160a01b038d8116855292528083208985039055908a16825281208054889290612128908490612c07565b909155505060408051888152602081018890526001600160a01b03808b16928c821692918816917fc3d58168c5ae7397731d063d5bbf3d657854427343f4c083240f7aacaa2d0f62910160405180910390a4612188848a8a8a8a8a612349565b505050505050505050565b6001600160a01b0384163b15611acc5760405163bc197c8160e01b81526001600160a01b0385169063bc197c81906121d79089908990889088908890600401612d1d565b602060405180830381600087803b1580156121f157600080fd5b505af1925050508015612221575060408051601f3d908101601f1916820190925261221e91810190612d7b565b60015b6122ce5761222d612d98565b806308c379a014156122675750612242612db3565b8061224d5750612269565b8060405162461bcd60e51b815260040161056191906124ed565b505b60405162461bcd60e51b815260206004820152603460248201527f455243313135353a207472616e7366657220746f206e6f6e2d455243313135356044820152732932b1b2b4bb32b91034b6b83632b6b2b73a32b960611b6064820152608401610561565b6001600160e01b0319811663bc197c8160e01b14611e035760405162461bcd60e51b815260040161056190612e3d565b6040805160018082528183019092526060916000919060208083019080368337019050509050828160008151811061233857612338612ace565b602090810291909101015292915050565b6001600160a01b0384163b15611acc5760405163f23a6e6160e01b81526001600160a01b0385169063f23a6e619061238d9089908990889088908890600401612e85565b602060405180830381600087803b1580156123a757600080fd5b505af19250505080156123d7575060408051601f3d908101601f191682019092526123d491810190612d7b565b60015b6123e35761222d612d98565b6001600160e01b0319811663f23a6e6160e01b14611e035760405162461bcd60e51b815260040161056190612e3d565b6001600160a01b03811681146117be57600080fd5b6000806040838503121561243b57600080fd5b823561244681612413565b946020939093013593505050565b6001600160e01b0319811681146117be57600080fd5b60006020828403121561247c57600080fd5b8135610feb81612454565b60006020828403121561249957600080fd5b5035919050565b6000815180845260005b818110156124c6576020818501810151868301820152016124aa565b818111156124d8576000602083870101525b50601f01601f19169290920160200192915050565b602081526000610feb60208301846124a0565b80151581146117be57600080fd5b60008060006060848603121561252357600080fd5b833561252e81612413565b925060208401359150604084013561254581612500565b809150509250925092565b634e487b7160e01b600052604160045260246000fd5b601f8201601f1916810167ffffffffffffffff8111828210171561258c5761258c612550565b6040525050565b600067ffffffffffffffff8211156125ad576125ad612550565b5060051b60200190565b600082601f8301126125c857600080fd5b813560206125d582612593565b6040516125e28282612566565b83815260059390931b850182019282810191508684111561260257600080fd5b8286015b8481101561261d5780358352918301918301612606565b509695505050505050565b600082601f83011261263957600080fd5b813567ffffffffffffffff81111561265357612653612550565b60405161266a601f8301601f191660200182612566565b81815284602083860101111561267f57600080fd5b816020850160208301376000918101602001919091529392505050565b600080600080600060a086880312156126b457600080fd5b85356126bf81612413565b945060208601356126cf81612413565b9350604086013567ffffffffffffffff808211156126ec57600080fd5b6126f889838a016125b7565b9450606088013591508082111561270e57600080fd5b61271a89838a016125b7565b9350608088013591508082111561273057600080fd5b5061273d88828901612628565b9150509295509295909350565b60006020828403121561275c57600080fd5b8135610feb81612413565b6000806040838503121561277a57600080fd5b823567ffffffffffffffff8082111561279257600080fd5b818501915085601f8301126127a657600080fd5b813560206127b382612593565b6040516127c08282612566565b83815260059390931b85018201928281019150898411156127e057600080fd5b948201945b838610156128075785356127f881612413565b825294820194908201906127e5565b9650508601359250508082111561281d57600080fd5b5061282a858286016125b7565b9150509250929050565b600081518084526020808501945080840160005b8381101561286457815187529582019590820190600101612848565b509495945050505050565b602081526000610feb6020830184612834565b6020808252825182820181905260009190848201906040850190845b818110156128c35783516001600160a01b03168352928401929184019160010161289e565b50909695505050505050565b600080604083850312156128e257600080fd5b50508035926020909101359150565b60008060006060848603121561290657600080fd5b833561291181612413565b9250602084013561292181612413565b929592945050506040919091013590565b6000806040838503121561294557600080fd5b823561295081612413565b9150602083013561296081612500565b809150509250929050565b6000806040838503121561297e57600080fd5b823561298981612413565b9150602083013561296081612413565b600080600080600060a086880312156129b157600080fd5b85356129bc81612413565b945060208601356129cc81612413565b93506040860135925060608601359150608086013567ffffffffffffffff8111156129f657600080fd5b61273d88828901612628565b600181811c90821680612a1657607f821691505b60208210811415612a3757634e487b7160e01b600052602260045260246000fd5b50919050565b60208082526025908201527f4f6e6c7920636f6e74726f6c6c65722063616e2072756e20746869732066756e60408201526431ba34b7b760d91b606082015260800190565b634e487b7160e01b600052600160045260246000fd5b600060208284031215612aaa57600080fd5b5051919050565b600060208284031215612ac357600080fd5b8151610feb81612500565b634e487b7160e01b600052603260045260246000fd5b634e487b7160e01b600052601160045260246000fd5b6000600019821415612b0e57612b0e612ae4565b5060010190565b6020808252602e908201527f455243313135353a2063616c6c6572206973206e6f7420746f6b656e206f776e60408201526d195c881bdc88185c1c1c9bdd995960921b606082015260800190565b60208082526023908201527f4f6e6c79206f766572736565722063616e2072756e20746869732066756e637460408201526234b7b760e91b606082015260800190565b600082821015612bb857612bb8612ae4565b500390565b6020808252602a908201527f4f6e6c79206163746976652070726f6a6563742063616e2072756e207468697360408201526910333ab731ba34b7b71760b11b606082015260800190565b60008219821115612c1a57612c1a612ae4565b500190565b6000816000190483118215151615612c3957612c39612ae4565b500290565b600082612c5b57634e487b7160e01b600052601260045260246000fd5b500490565b60208082526025908201527f455243313135353a207472616e7366657220746f20746865207a65726f206164604082015264647265737360d81b606082015260800190565b6020808252602a908201527f455243313135353a20696e73756666696369656e742062616c616e636520666f60408201526939103a3930b739b332b960b11b606082015260800190565b604081526000612d026040830185612834565b8281036020840152612d148185612834565b95945050505050565b6001600160a01b0386811682528516602082015260a060408201819052600090612d4990830186612834565b8281036060840152612d5b8186612834565b90508281036080840152612d6f81856124a0565b98975050505050505050565b600060208284031215612d8d57600080fd5b8151610feb81612454565b600060033d1115610bf05760046000803e5060005160e01c90565b600060443d1015612dc15790565b6040516003193d81016004833e81513d67ffffffffffffffff8160248401118184111715612df157505050505090565b8285019150815181811115612e095750505050505090565b843d8701016020828501011115612e235750505050505090565b612e3260208286010187612566565b509095945050505050565b60208082526028908201527f455243313135353a204552433131353552656365697665722072656a656374656040820152676420746f6b656e7360c01b606082015260800190565b6001600160a01b03868116825285166020820152604081018490526060810183905260a060808201819052600090612ebf908301846124a0565b97965050505050505056fea2646970667358221220b6511c06284adc3f17a398c47e37ee9f6eff2d30986ea04ff54eebe2a25af33f64736f6c63430008090033608060405262093a80600d5562093a80600e5534801561001e57600080fd5b5060405161206038038061206083398101604081905261003d91610062565b600080546001600160a01b0319166001600160a01b0392909216919091179055610092565b60006020828403121561007457600080fd5b81516001600160a01b038116811461008b57600080fd5b9392505050565b611fbf806100a16000396000f3fe608060405234801561001057600080fd5b50600436106101425760003560e01c8063bc197c81116100b8578063d978ffba1161007c578063d978ffba14610316578063e2ff2d4314610339578063f23a6e611461034c578063f4970e711461036b578063f8aa3cea1461037e578063fe0d94c1146103be57600080fd5b8063bc197c811461027c578063c9d27afe146102b4578063cb05683a146102c7578063d04e62d1146102f0578063d186c2171461030357600080fd5b806335f23e271161010a57806335f23e27146101f057806341ad7e1d146102035780635d250f9614610223578063765add80146102365780638f363200146102495780639b5b9b181461026957600080fd5b806301ffc9a714610147578063098eb8c61461016f5780630b27fb9a146101b0578063169b5f75146101c25780631bd85e30146101cd575b600080fd5b61015a61015536600461198c565b6103d1565b60405190151581526020015b60405180910390f35b61019861017d3660046119b6565b6000908152600560205260409020546001600160a01b031690565b6040516001600160a01b039091168152602001610166565b6001545b604051908152602001610166565b60135460ff1661015a565b61015a6101db3660046119b6565b60009081526007602052604090205460ff1690565b61015a6101fe3660046119f8565b610408565b610216610211366004611a45565b610757565b6040516101669190611a76565b61015a610231366004611a9e565b6107b6565b61015a610244366004611aca565b610a93565b6101b46102573660046119b6565b60009081526006602052604090205490565b61015a610277366004611a9e565b610b04565b61029b61028a366004611c23565b63bc197c8160e01b95945050505050565b6040516001600160e01b03199091168152602001610166565b61015a6102c2366004611cdf565b610c6f565b6101b46102d5366004611d0f565b6001600160a01b03166000908152600f602052604090205490565b61015a6102fe366004611d0f565b610f61565b61015a610311366004611a9e565b611048565b6102166103243660046119b6565b60009081526008602052604090205460ff1690565b61015a610347366004611a9e565b6110ed565b61029b61035a366004611d2c565b63f23a6e6160e01b95945050505050565b61015a610379366004611a9e565b611186565b6101b461038c366004611a9e565b6000908152600560209081526040808320546001600160a01b0394851684526002835281842094168352929052205490565b61015a6103cc3660046119b6565b61145c565b60006001600160e01b03198216630271189760e51b148061040257506301ffc9a760e01b6001600160e01b03198316145b92915050565b60008060009054906101000a90046001600160a01b03166001600160a01b031663348917ca6040518163ffffffff1660e01b815260040160206040518083038186803b15801561045757600080fd5b505afa15801561046b573d6000803e3d6000fd5b505050506040513d601f19601f8201168201806040525081019061048f9190611d95565b156104b55760405162461bcd60e51b81526004016104ac90611db2565b60405180910390fd5b60648360ff1611156105095760405162461bcd60e51b815260206004820152601960248201527f51756f72756d2077696c6c206e65766572206265206d65742e0000000000000060448201526064016104ac565b600061051486610757565b600381111561052557610525611a60565b146105f55760198360ff16101561057e5760405162461bcd60e51b815260206004820152601e60248201527f51756f72756d2073686f756c64206265206174206c65617374203235252e000060448201526064016104ac565b600d5461058b9042611e0c565b8210156105f05760405162461bcd60e51b815260206004820152602d60248201527f446561646c696e65206d75737420626520616674657220766f74696e6750657260448201526c34b7b210333937b6903737bb9760991b60648201526084016104ac565b61067e565b600e546106029042611e0c565b8210156106775760405162461bcd60e51b815260206004820152603760248201527f446561646c696e65206d7573742062652061667465722077697468647261776160448201527f6c566f74696e67506572696f642066726f6d206e6f772e00000000000000000060648201526084016104ac565b6001546012555b600180546004805492830181556000527f8a35acfbc15ff81a39ae7d344fd709f28e8600b4aa8c65c6b64bfe7fe36bd19b909101556106bc85610757565b6001805460009081526008602052604090208054909160ff19909116908360038111156106eb576106eb611a60565b021790555060018054600090815260056020908152604080832080546001600160a01b0319166001600160a01b038a16179055835483526006825280832086905583548352600990915281204290558154919061074783611e24565b9091555060019695505050505050565b600060048260ff16106107a15760405162461bcd60e51b8152602060048201526012602482015271496e646578206f7574206f662072616e676560701b60448201526064016104ac565b8160ff16600381111561040257610402611a60565b60008060009054906101000a90046001600160a01b03166001600160a01b031663348917ca6040518163ffffffff1660e01b815260040160206040518083038186803b15801561080557600080fd5b505afa158015610819573d6000803e3d6000fd5b505050506040513d601f19601f8201168201806040525081019061083d9190611d95565b1561085a5760405162461bcd60e51b81526004016104ac90611db2565b60008054906101000a90046001600160a01b03166001600160a01b031663e6d685956040518163ffffffff1660e01b815260040160206040518083038186803b1580156108a657600080fd5b505afa1580156108ba573d6000803e3d6000fd5b505050506040513d601f19601f820116820180604052508101906108de9190611e3f565b6001600160a01b0316336001600160a01b03161461090e5760405162461bcd60e51b81526004016104ac90611e5c565b60135460ff16156109615760405162461bcd60e51b815260206004820152601960248201527f50726f706f73616c20616c726561647920696e20706c6163650000000000000060448201526064016104ac565b6000546040516370a0823160e01b81526001600160a01b039182166004820152908416906370a082319060240160206040518083038186803b1580156109a657600080fd5b505afa1580156109ba573d6000803e3d6000fd5b505050506040513d601f19601f820116820180604052508101906109de9190611e88565b821115610a405760405162461bcd60e51b815260206004820152602a60248201527f43616e6e6f7420617070726f7665206d6f7265207468616e2063757272656e746044820152690206f776e6572736869760b41b60648201526084016104ac565b6001600160a01b0383166000908152600f602052604081208390556013805460ff19166001179055600e54610a7e9190859082906101fe9042611e0c565b610a8a57610a8a611ea1565b50600192915050565b600080546001600160a01b03163314610aee5760405162461bcd60e51b815260206004820152601f60248201527f63616c6c65642062792070726f6a65637420636f6e7472616374206f6e6c790060448201526064016104ac565b5060009182526006602052604090912055600190565b60008054604051627eeac760e11b81523360048201526001600160a01b03808616602483018190528693909285929091169062fdd58e9060440160206040518083038186803b158015610b5657600080fd5b505afa158015610b6a573d6000803e3d6000fd5b505050506040513d601f19601f82011682018060405250810190610b8e9190611e88565b11610bc95760405162461bcd60e51b815260206004820152600b60248201526a486f6c646572206f6e6c7960a81b60448201526064016104ac565b600054604051637921219560e11b81526001600160a01b0380881692169063f242432a90610c01903390309086908b90600401611eb7565b600060405180830381600087803b158015610c1b57600080fd5b505af1158015610c2f573d6000803e3d6000fd5b505033600090815260026020908152604080832086845290915281208054899450909250610c5e908490611e0c565b909155506001979650505050505050565b60008060009054906101000a90046001600160a01b03166001600160a01b031663348917ca6040518163ffffffff1660e01b815260040160206040518083038186803b158015610cbe57600080fd5b505afa158015610cd2573d6000803e3d6000fd5b505050506040513d601f19601f82011682018060405250810190610cf69190611d95565b15610d135760405162461bcd60e51b81526004016104ac90611db2565b600083815260056020908152604080832054338452600283528184206001600160a01b0390911680855292529091205480610d7e5760405162461bcd60e51b815260206004820152600b60248201526a2b37ba32b91037b7363c9760a91b60448201526064016104ac565b6000858152600b6020908152604080832033845290915290205460ff1615610ddd5760405162461bcd60e51b815260206004820152601260248201527120b2323932b9b9903430b2103b37ba32b21760711b60448201526064016104ac565b600085815260066020526040902054421115610e3b5760405162461bcd60e51b815260206004820152601960248201527f566f74696e6720646561646c696e652068617320706173742e0000000000000060448201526064016104ac565b336000908152600360209081526040808320858452825280832054888452600690925290912054811015610e905760008681526006602090815260408083205433845260038352818420878552909252909120555b60008681526008602052604081205460ff166003811115610eb357610eb3611a60565b148015610ebd5750845b15610f01576000868152600560209081526040808320546001600160a01b03168352601090915281208054849290610ef6908490611e0c565b90915550610f329050565b6000868152600a60209081526040808320881515845290915281208054849290610f2c908490611e0c565b90915550505b50505060009283525050600b602090815260408083203384529091529020805460ff1916600190811790915590565b60008060009054906101000a90046001600160a01b03166001600160a01b031663e6d685956040518163ffffffff1660e01b815260040160206040518083038186803b158015610fb057600080fd5b505afa158015610fc4573d6000803e3d6000fd5b505050506040513d601f19601f82011682018060405250810190610fe89190611e3f565b6001600160a01b0316336001600160a01b0316146110185760405162461bcd60e51b81526004016104ac90611e5c565b60135460ff1661103a5760405162461bcd60e51b81526004016104ac90611eef565b61040282611958565b919050565b60008054604051637921219560e11b81526001600160a01b0380861692169063f242432a90611081903090339086908990600401611eb7565b600060405180830381600087803b15801561109b57600080fd5b505af11580156110af573d6000803e3d6000fd5b5050336000908152600260209081526040808320868452909152812080548794509092506110de908490611f31565b90915550600195945050505050565b600080546001600160a01b031633146111485760405162461bcd60e51b815260206004820152601f60248201527f63616c6c65642062792070726f6a65637420636f6e7472616374206f6e6c790060448201526064016104ac565b6001600160a01b03831660009081526011602052604081208054849290611170908490611f31565b9091555061117f905083611958565b9392505050565b60008060009054906101000a90046001600160a01b03166001600160a01b031663348917ca6040518163ffffffff1660e01b815260040160206040518083038186803b1580156111d557600080fd5b505afa1580156111e9573d6000803e3d6000fd5b505050506040513d601f19601f8201168201806040525081019061120d9190611d95565b1561122a5760405162461bcd60e51b81526004016104ac90611db2565b60008054906101000a90046001600160a01b03166001600160a01b031663e6d685956040518163ffffffff1660e01b815260040160206040518083038186803b15801561127657600080fd5b505afa15801561128a573d6000803e3d6000fd5b505050506040513d601f19601f820116820180604052508101906112ae9190611e3f565b6001600160a01b0316336001600160a01b0316146112de5760405162461bcd60e51b81526004016104ac90611e5c565b60135460ff166113005760405162461bcd60e51b81526004016104ac90611eef565b6012546000908152600660205260409020544210156113615760405162461bcd60e51b815260206004820152601c60248201527f566f74696e6720706572696f6420686173206e6f74207061737365640000000060448201526064016104ac565b6001600160a01b038316600090815260106020908152604080832054600f909252909120546113909190611f31565b8211156113d35760405162461bcd60e51b815260206004820152601160248201527037bb32b930baba3437b934b9b0ba34b7b760791b60448201526064016104ac565b6001600160a01b0383166000908152600f6020526040812080548492906113fb908490611f31565b90915550506001600160a01b03831660009081526011602052604081208054849290611428908490611e0c565b90915550506001600160a01b0383166000908152600f6020526040902054610a8a5750506013805460ff1916905550600190565b60008060009054906101000a90046001600160a01b03166001600160a01b031663348917ca6040518163ffffffff1660e01b815260040160206040518083038186803b1580156114ab57600080fd5b505afa1580156114bf573d6000803e3d6000fd5b505050506040513d601f19601f820116820180604052508101906114e39190611d95565b156115005760405162461bcd60e51b81526004016104ac90611db2565b60008281526008602052604081205460ff16600381111561152357611523611a60565b141561157d5760405162461bcd60e51b8152602060048201526024808201527f4f626a656374696f6e2070726f706f73616c206973206e6f742065786563757460448201526361626c6560e01b60648201526084016104ac565b6000828152600660205260409020544210156115db5760405162461bcd60e51b815260206004820152601c60248201527f566f74696e6720646561646c696e65206861736e277420706173742e0000000060448201526064016104ac565b6000828152600a6020908152604080832083805290915280822054600183529120541161163d5760405162461bcd60e51b815260206004820152601060248201526f13585a9bdc9a5d1e481b9bdd081b595d60821b60448201526064016104ac565b600082815260056020526040808220548254915163aa771d3960e01b81526001600160a01b03918216600482018190529392919091169063aa771d399060240160206040518083038186803b15801561169557600080fd5b505afa1580156116a9573d6000803e3d6000fd5b505050506040513d601f19601f820116820180604052508101906116cd9190611e88565b6000858152600c60205260409020549091506064906116ef9060ff1683611f48565b6116f99190611f67565b6000858152600a6020908152604080832060018452909152902054116117525760405162461bcd60e51b815260206004820152600e60248201526d145d5bdc9d5b481b9bdd081b595d60921b60448201526064016104ac565b600160008581526008602052604090205460ff16600381111561177757611777611a60565b14156118145760008054906101000a90046001600160a01b03166001600160a01b03166384dac7026040518163ffffffff1660e01b8152600401602060405180830381600087803b1580156117cb57600080fd5b505af11580156117df573d6000803e3d6000fd5b505050506040513d601f19601f820116820180604052508101906118039190611d95565b61180f5761180f611ea1565b61194e565b600260008581526008602052604090205460ff16600381111561183957611839611a60565b141561188d5760008054906101000a90046001600160a01b03166001600160a01b0316637f1660a16040518163ffffffff1660e01b8152600401602060405180830381600087803b1580156117cb57600080fd5b600360008581526008602052604090205460ff1660038111156118b2576118b2611a60565b141561190d576000805485825260056020526040918290205491516303cdfe2160e41b81526001600160a01b039283166004820152911690633cdfe21090602401602060405180830381600087803b1580156117cb57600080fd5b60405162461bcd60e51b81526020600482015260166024820152754572726f7220696e2070726f706f73616c207479706560501b60448201526064016104ac565b5060019392505050565b6001600160a01b03166000908152600f6020908152604080832083905560109091528120556013805460ff19169055600190565b60006020828403121561199e57600080fd5b81356001600160e01b03198116811461117f57600080fd5b6000602082840312156119c857600080fd5b5035919050565b803560ff8116811461104357600080fd5b6001600160a01b03811681146119f557600080fd5b50565b60008060008060808587031215611a0e57600080fd5b611a17856119cf565b93506020850135611a27816119e0565b9250611a35604086016119cf565b9396929550929360600135925050565b600060208284031215611a5757600080fd5b61117f826119cf565b634e487b7160e01b600052602160045260246000fd5b6020810160048310611a9857634e487b7160e01b600052602160045260246000fd5b91905290565b60008060408385031215611ab157600080fd5b8235611abc816119e0565b946020939093013593505050565b60008060408385031215611add57600080fd5b50508035926020909101359150565b634e487b7160e01b600052604160045260246000fd5b604051601f8201601f1916810167ffffffffffffffff81118282101715611b2b57611b2b611aec565b604052919050565b600082601f830112611b4457600080fd5b8135602067ffffffffffffffff821115611b6057611b60611aec565b8160051b611b6f828201611b02565b9283528481018201928281019087851115611b8957600080fd5b83870192505b84831015611ba857823582529183019190830190611b8f565b979650505050505050565b600082601f830112611bc457600080fd5b813567ffffffffffffffff811115611bde57611bde611aec565b611bf1601f8201601f1916602001611b02565b818152846020838601011115611c0657600080fd5b816020850160208301376000918101602001919091529392505050565b600080600080600060a08688031215611c3b57600080fd5b8535611c46816119e0565b94506020860135611c56816119e0565b9350604086013567ffffffffffffffff80821115611c7357600080fd5b611c7f89838a01611b33565b94506060880135915080821115611c9557600080fd5b611ca189838a01611b33565b93506080880135915080821115611cb757600080fd5b50611cc488828901611bb3565b9150509295509295909350565b80151581146119f557600080fd5b60008060408385031215611cf257600080fd5b823591506020830135611d0481611cd1565b809150509250929050565b600060208284031215611d2157600080fd5b813561117f816119e0565b600080600080600060a08688031215611d4457600080fd5b8535611d4f816119e0565b94506020860135611d5f816119e0565b93506040860135925060608601359150608086013567ffffffffffffffff811115611d8957600080fd5b611cc488828901611bb3565b600060208284031215611da757600080fd5b815161117f81611cd1565b60208082526024908201527f57697468647261776e2070726f6a6563742063616e6e6f7420626520616374696040820152631bdb995960e21b606082015260800190565b634e487b7160e01b600052601160045260246000fd5b60008219821115611e1f57611e1f611df6565b500190565b6000600019821415611e3857611e38611df6565b5060010190565b600060208284031215611e5157600080fd5b815161117f816119e0565b60208082526012908201527170726f6a656374206f776e6572206f6e6c7960701b604082015260600190565b600060208284031215611e9a57600080fd5b5051919050565b634e487b7160e01b600052600160045260246000fd5b6001600160a01b0394851681529290931660208301526040820152606081019190915260a06080820181905260009082015260c00190565b60208082526022908201527f4e6f2070726f706f73616c206f7220616c6c6f77616e63652065786861757374604082015261195960f21b606082015260800190565b600082821015611f4357611f43611df6565b500390565b6000816000190483118215151615611f6257611f62611df6565b500290565b600082611f8457634e487b7160e01b600052601260045260246000fd5b50049056fea2646970667358221220ea426d5b496947c93d3c207df523b3cfa791f9190af8603970a87241cf4d2b6c64736f6c63430008090033",
			"opcodes": "PUSH1 0x80 PUSH1 0x40 MSTORE CALLVALUE DUP1 ISZERO PUSH3 0x11 JUMPI PUSH1 0x0 DUP1 REVERT JUMPDEST POP PUSH1 0x40 MLOAD PUSH3 0x537F CODESIZE SUB DUP1 PUSH3 0x537F DUP4 CODECOPY DUP2 ADD PUSH1 0x40 DUP2 SWAP1 MSTORE PUSH3 0x34 SWAP2 PUSH3 0x346 JUMP JUMPDEST PUSH1 0x40 DUP1 MLOAD PUSH1 0x20 DUP2 ADD SWAP1 SWAP2 MSTORE PUSH1 0x0 DUP2 MSTORE PUSH3 0x4E DUP2 PUSH3 0x20E JUMP JUMPDEST POP PUSH3 0x5A CALLER PUSH3 0x227 JUMP JUMPDEST PUSH1 0x4 DUP1 SLOAD PUSH1 0x1 PUSH1 0x1 PUSH1 0xA0 SHL SUB DUP1 DUP8 AND PUSH1 0x1 PUSH1 0x1 PUSH1 0xA0 SHL SUB NOT SWAP3 DUP4 AND OR SWAP1 SWAP3 SSTORE PUSH1 0x5 DUP1 SLOAD SWAP3 DUP7 AND SWAP3 SWAP1 SWAP2 AND SWAP2 SWAP1 SWAP2 OR SWAP1 SSTORE DUP2 ISZERO PUSH3 0xEF JUMPI ADDRESS PUSH1 0x40 MLOAD PUSH3 0xA0 SWAP1 PUSH3 0x279 JUMP JUMPDEST PUSH1 0x1 PUSH1 0x1 PUSH1 0xA0 SHL SUB SWAP1 SWAP2 AND DUP2 MSTORE PUSH1 0x20 ADD PUSH1 0x40 MLOAD DUP1 SWAP2 SUB SWAP1 PUSH1 0x0 CREATE DUP1 ISZERO DUP1 ISZERO PUSH3 0xCD JUMPI RETURNDATASIZE PUSH1 0x0 DUP1 RETURNDATACOPY RETURNDATASIZE PUSH1 0x0 REVERT JUMPDEST POP PUSH1 0x6 DUP1 SLOAD PUSH1 0x1 PUSH1 0x1 PUSH1 0xA0 SHL SUB NOT AND PUSH1 0x1 PUSH1 0x1 PUSH1 0xA0 SHL SUB SWAP3 SWAP1 SWAP3 AND SWAP2 SWAP1 SWAP2 OR SWAP1 SSTORE JUMPDEST PUSH1 0x7 DUP1 SLOAD PUSH1 0x1 PUSH1 0x1 PUSH1 0xA0 SHL SUB NOT AND PUSH1 0x1 PUSH1 0x1 PUSH1 0xA0 SHL SUB DUP9 AND SWAP1 DUP2 OR SWAP1 SWAP2 SSTORE PUSH1 0xB DUP3 SWAP1 SSTORE PUSH1 0x40 DUP1 MLOAD SWAP2 DUP3 MSTORE PUSH1 0x20 DUP3 ADD DUP4 SWAP1 MSTORE PUSH32 0xC6B5D036565220527CE1CFC38A372C78ADB8308D835C5C803FB3A17D0A106549 SWAP2 ADD PUSH1 0x40 MLOAD DUP1 SWAP2 SUB SWAP1 LOG1 PUSH1 0x8 DUP1 SLOAD PUSH1 0x1 DUP2 ADD DUP3 SSTORE PUSH1 0x0 SWAP2 SWAP1 SWAP2 MSTORE PUSH32 0xF3F7A9FE364FAAB93B216DA50A3214154F22A0A2B415B23A84C8169E8B636EE3 ADD DUP1 SLOAD PUSH1 0x1 PUSH1 0x1 PUSH1 0xA0 SHL SUB NOT AND PUSH1 0x1 PUSH1 0x1 PUSH1 0xA0 SHL SUB DUP8 AND SWAP1 DUP2 OR SWAP1 SWAP2 SSTORE PUSH1 0x40 MLOAD SWAP1 DUP2 MSTORE PUSH32 0xEC38796D17F4FA8C88DE20F9FB9DA605573FDCB1DD79C6D39683DF6D64175E5F SWAP1 PUSH1 0x20 ADD PUSH1 0x40 MLOAD DUP1 SWAP2 SUB SWAP1 LOG1 PUSH1 0xC DUP1 SLOAD PUSH1 0xFF NOT AND PUSH1 0x1 OR SWAP1 SSTORE PUSH1 0x40 MLOAD PUSH32 0x1611757E154FD5430178688B28BEBEAB61BB8ACEC2B806091026E8B0FC3E7164 SWAP1 PUSH1 0x0 SWAP1 LOG1 POP POP POP POP POP POP PUSH3 0x40F JUMP JUMPDEST DUP1 MLOAD PUSH3 0x223 SWAP1 PUSH1 0x2 SWAP1 PUSH1 0x20 DUP5 ADD SWAP1 PUSH3 0x287 JUMP JUMPDEST POP POP JUMP JUMPDEST PUSH1 0x3 DUP1 SLOAD PUSH1 0x1 PUSH1 0x1 PUSH1 0xA0 SHL SUB DUP4 DUP2 AND PUSH1 0x1 PUSH1 0x1 PUSH1 0xA0 SHL SUB NOT DUP4 AND DUP2 OR SWAP1 SWAP4 SSTORE PUSH1 0x40 MLOAD SWAP2 AND SWAP2 SWAP1 DUP3 SWAP1 PUSH32 0x8BE0079C531659141344CD1FD0A4F28419497F9722A3DAAFE3B4186F6B6457E0 SWAP1 PUSH1 0x0 SWAP1 LOG3 POP POP JUMP JUMPDEST PUSH2 0x2060 DUP1 PUSH3 0x331F DUP4 CODECOPY ADD SWAP1 JUMP JUMPDEST DUP3 DUP1 SLOAD PUSH3 0x295 SWAP1 PUSH3 0x3D2 JUMP JUMPDEST SWAP1 PUSH1 0x0 MSTORE PUSH1 0x20 PUSH1 0x0 KECCAK256 SWAP1 PUSH1 0x1F ADD PUSH1 0x20 SWAP1 DIV DUP2 ADD SWAP3 DUP3 PUSH3 0x2B9 JUMPI PUSH1 0x0 DUP6 SSTORE PUSH3 0x304 JUMP JUMPDEST DUP3 PUSH1 0x1F LT PUSH3 0x2D4 JUMPI DUP1 MLOAD PUSH1 0xFF NOT AND DUP4 DUP1 ADD OR DUP6 SSTORE PUSH3 0x304 JUMP JUMPDEST DUP3 DUP1 ADD PUSH1 0x1 ADD DUP6 SSTORE DUP3 ISZERO PUSH3 0x304 JUMPI SWAP2 DUP3 ADD JUMPDEST DUP3 DUP2 GT ISZERO PUSH3 0x304 JUMPI DUP3 MLOAD DUP3 SSTORE SWAP2 PUSH1 0x20 ADD SWAP2 SWAP1 PUSH1 0x1 ADD SWAP1 PUSH3 0x2E7 JUMP JUMPDEST POP PUSH3 0x312 SWAP3 SWAP2 POP PUSH3 0x316 JUMP JUMPDEST POP SWAP1 JUMP JUMPDEST JUMPDEST DUP1 DUP3 GT ISZERO PUSH3 0x312 JUMPI PUSH1 0x0 DUP2 SSTORE PUSH1 0x1 ADD PUSH3 0x317 JUMP JUMPDEST PUSH1 0x1 PUSH1 0x1 PUSH1 0xA0 SHL SUB DUP2 AND DUP2 EQ PUSH3 0x343 JUMPI PUSH1 0x0 DUP1 REVERT JUMPDEST POP JUMP JUMPDEST PUSH1 0x0 DUP1 PUSH1 0x0 DUP1 PUSH1 0x0 DUP1 PUSH1 0xC0 DUP8 DUP10 SUB SLT ISZERO PUSH3 0x360 JUMPI PUSH1 0x0 DUP1 REVERT JUMPDEST DUP7 MLOAD PUSH3 0x36D DUP2 PUSH3 0x32D JUMP JUMPDEST PUSH1 0x20 DUP9 ADD MLOAD SWAP1 SWAP7 POP PUSH3 0x380 DUP2 PUSH3 0x32D JUMP JUMPDEST PUSH1 0x40 DUP9 ADD MLOAD SWAP1 SWAP6 POP PUSH3 0x393 DUP2 PUSH3 0x32D JUMP JUMPDEST PUSH1 0x60 DUP9 ADD MLOAD SWAP1 SWAP5 POP PUSH3 0x3A6 DUP2 PUSH3 0x32D JUMP JUMPDEST PUSH1 0x80 DUP9 ADD MLOAD SWAP1 SWAP4 POP DUP1 ISZERO ISZERO DUP2 EQ PUSH3 0x3BD JUMPI PUSH1 0x0 DUP1 REVERT JUMPDEST DUP1 SWAP3 POP POP PUSH1 0xA0 DUP8 ADD MLOAD SWAP1 POP SWAP3 SWAP6 POP SWAP3 SWAP6 POP SWAP3 SWAP6 JUMP JUMPDEST PUSH1 0x1 DUP2 DUP2 SHR SWAP1 DUP3 AND DUP1 PUSH3 0x3E7 JUMPI PUSH1 0x7F DUP3 AND SWAP2 POP JUMPDEST PUSH1 0x20 DUP3 LT DUP2 EQ ISZERO PUSH3 0x409 JUMPI PUSH4 0x4E487B71 PUSH1 0xE0 SHL PUSH1 0x0 MSTORE PUSH1 0x22 PUSH1 0x4 MSTORE PUSH1 0x24 PUSH1 0x0 REVERT JUMPDEST POP SWAP2 SWAP1 POP JUMP JUMPDEST PUSH2 0x2F00 DUP1 PUSH3 0x41F PUSH1 0x0 CODECOPY PUSH1 0x0 RETURN INVALID PUSH1 0x80 PUSH1 0x40 MSTORE CALLVALUE DUP1 ISZERO PUSH2 0x10 JUMPI PUSH1 0x0 DUP1 REVERT JUMPDEST POP PUSH1 0x4 CALLDATASIZE LT PUSH2 0x226 JUMPI PUSH1 0x0 CALLDATALOAD PUSH1 0xE0 SHR DUP1 PUSH4 0x84DAC702 GT PUSH2 0x130 JUMPI DUP1 PUSH4 0xBFFA55D5 GT PUSH2 0xB8 JUMPI DUP1 PUSH4 0xE6D68595 GT PUSH2 0x7C JUMPI DUP1 PUSH4 0xE6D68595 EQ PUSH2 0x47F JUMPI DUP1 PUSH4 0xE985E9C5 EQ PUSH2 0x490 JUMPI DUP1 PUSH4 0xF242432A EQ PUSH2 0x4CC JUMPI DUP1 PUSH4 0xF2FDE38B EQ PUSH2 0x4DF JUMPI DUP1 PUSH4 0xFB166F91 EQ PUSH2 0x4F2 JUMPI PUSH1 0x0 DUP1 REVERT JUMPDEST DUP1 PUSH4 0xBFFA55D5 EQ PUSH2 0x433 JUMPI DUP1 PUSH4 0xC57380A2 EQ PUSH2 0x446 JUMPI DUP1 PUSH4 0xC8A62968 EQ PUSH2 0x457 JUMPI DUP1 PUSH4 0xCB0E0D7D EQ PUSH2 0x45F JUMPI DUP1 PUSH4 0xD47F4D2A EQ PUSH2 0x479 JUMPI PUSH1 0x0 DUP1 REVERT JUMPDEST DUP1 PUSH4 0x8DA5CB5B GT PUSH2 0xFF JUMPI DUP1 PUSH4 0x8DA5CB5B EQ PUSH2 0x3D4 JUMPI DUP1 PUSH4 0x9BB5DA78 EQ PUSH2 0x3E5 JUMPI DUP1 PUSH4 0xA22CB465 EQ PUSH2 0x3F8 JUMPI DUP1 PUSH4 0xAA771D39 EQ PUSH2 0x40B JUMPI DUP1 PUSH4 0xBBFFD04C EQ PUSH2 0x42B JUMPI PUSH1 0x0 DUP1 REVERT JUMPDEST DUP1 PUSH4 0x84DAC702 EQ PUSH2 0x39E JUMPI DUP1 PUSH4 0x853828B6 EQ PUSH2 0x3A6 JUMPI DUP1 PUSH4 0x8AB234B6 EQ PUSH2 0x3AE JUMPI DUP1 PUSH4 0x8D472709 EQ PUSH2 0x3C1 JUMPI PUSH1 0x0 DUP1 REVERT JUMPDEST DUP1 PUSH4 0x3CDFE210 GT PUSH2 0x1B3 JUMPI DUP1 PUSH4 0x53462D6B GT PUSH2 0x182 JUMPI DUP1 PUSH4 0x53462D6B EQ PUSH2 0x353 JUMPI DUP1 PUSH4 0x715018A6 EQ PUSH2 0x35B JUMPI DUP1 PUSH4 0x74F60D36 EQ PUSH2 0x363 JUMPI DUP1 PUSH4 0x765ADD80 EQ PUSH2 0x383 JUMPI DUP1 PUSH4 0x7F1660A1 EQ PUSH2 0x396 JUMPI PUSH1 0x0 DUP1 REVERT JUMPDEST DUP1 PUSH4 0x3CDFE210 EQ PUSH2 0x302 JUMPI DUP1 PUSH4 0x4E1273F4 EQ PUSH2 0x315 JUMPI DUP1 PUSH4 0x4E4CFFCE EQ PUSH2 0x335 JUMPI DUP1 PUSH4 0x4FB2E45D EQ PUSH2 0x340 JUMPI PUSH1 0x0 DUP1 REVERT JUMPDEST DUP1 PUSH4 0x244C60B5 GT PUSH2 0x1FA JUMPI DUP1 PUSH4 0x244C60B5 EQ PUSH2 0x2A7 JUMPI DUP1 PUSH4 0x2B10D14D EQ PUSH2 0x2AF JUMPI DUP1 PUSH4 0x2EB2C2D6 EQ PUSH2 0x2D4 JUMPI DUP1 PUSH4 0x348917CA EQ PUSH2 0x2E9 JUMPI DUP1 PUSH4 0x3CB78FE0 EQ PUSH2 0x2FA JUMPI PUSH1 0x0 DUP1 REVERT JUMPDEST DUP1 PUSH3 0xFDD58E EQ PUSH2 0x22B JUMPI DUP1 PUSH4 0x1FFC9A7 EQ PUSH2 0x251 JUMPI DUP1 PUSH4 0xE89341C EQ PUSH2 0x274 JUMPI DUP1 PUSH4 0x20EAAC7D EQ PUSH2 0x294 JUMPI JUMPDEST PUSH1 0x0 DUP1 REVERT JUMPDEST PUSH2 0x23E PUSH2 0x239 CALLDATASIZE PUSH1 0x4 PUSH2 0x2428 JUMP JUMPDEST PUSH2 0x4FA JUMP JUMPDEST PUSH1 0x40 MLOAD SWAP1 DUP2 MSTORE PUSH1 0x20 ADD JUMPDEST PUSH1 0x40 MLOAD DUP1 SWAP2 SUB SWAP1 RETURN JUMPDEST PUSH2 0x264 PUSH2 0x25F CALLDATASIZE PUSH1 0x4 PUSH2 0x246A JUMP JUMPDEST PUSH2 0x590 JUMP JUMPDEST PUSH1 0x40 MLOAD SWAP1 ISZERO ISZERO DUP2 MSTORE PUSH1 0x20 ADD PUSH2 0x248 JUMP JUMPDEST PUSH2 0x287 PUSH2 0x282 CALLDATASIZE PUSH1 0x4 PUSH2 0x2487 JUMP JUMPDEST PUSH2 0x5E2 JUMP JUMPDEST PUSH1 0x40 MLOAD PUSH2 0x248 SWAP2 SWAP1 PUSH2 0x24ED JUMP JUMPDEST PUSH2 0x264 PUSH2 0x2A2 CALLDATASIZE PUSH1 0x4 PUSH2 0x250E JUMP JUMPDEST PUSH2 0x676 JUMP JUMPDEST PUSH2 0x264 PUSH2 0xB62 JUMP JUMPDEST PUSH1 0x6 SLOAD PUSH1 0x1 PUSH1 0x1 PUSH1 0xA0 SHL SUB AND JUMPDEST PUSH1 0x40 MLOAD PUSH1 0x1 PUSH1 0x1 PUSH1 0xA0 SHL SUB SWAP1 SWAP2 AND DUP2 MSTORE PUSH1 0x20 ADD PUSH2 0x248 JUMP JUMPDEST PUSH2 0x2E7 PUSH2 0x2E2 CALLDATASIZE PUSH1 0x4 PUSH2 0x269C JUMP JUMPDEST PUSH2 0xBF3 JUMP JUMPDEST STOP JUMPDEST PUSH1 0xC SLOAD PUSH3 0x10000 SWAP1 DIV PUSH1 0xFF AND PUSH2 0x264 JUMP JUMPDEST PUSH2 0x264 PUSH2 0xC3F JUMP JUMPDEST PUSH2 0x264 PUSH2 0x310 CALLDATASIZE PUSH1 0x4 PUSH2 0x274A JUMP JUMPDEST PUSH2 0xD11 JUMP JUMPDEST PUSH2 0x328 PUSH2 0x323 CALLDATASIZE PUSH1 0x4 PUSH2 0x2767 JUMP JUMPDEST PUSH2 0xD47 JUMP JUMPDEST PUSH1 0x40 MLOAD PUSH2 0x248 SWAP2 SWAP1 PUSH2 0x286F JUMP JUMPDEST PUSH1 0xC SLOAD PUSH1 0xFF AND PUSH2 0x264 JUMP JUMPDEST PUSH2 0x264 PUSH2 0x34E CALLDATASIZE PUSH1 0x4 PUSH2 0x274A JUMP JUMPDEST PUSH2 0xE71 JUMP JUMPDEST PUSH1 0xB SLOAD PUSH2 0x23E JUMP JUMPDEST PUSH2 0x2E7 PUSH2 0xEC3 JUMP JUMPDEST PUSH2 0x376 PUSH2 0x371 CALLDATASIZE PUSH1 0x4 PUSH2 0x2487 JUMP JUMPDEST PUSH2 0xED7 JUMP JUMPDEST PUSH1 0x40 MLOAD PUSH2 0x248 SWAP2 SWAP1 PUSH2 0x2882 JUMP JUMPDEST PUSH2 0x264 PUSH2 0x391 CALLDATASIZE PUSH1 0x4 PUSH2 0x28CF JUMP JUMPDEST PUSH2 0xF3A JUMP JUMPDEST PUSH2 0x264 PUSH2 0xFF2 JUMP JUMPDEST PUSH2 0x264 PUSH2 0x102C JUMP JUMPDEST PUSH2 0x264 PUSH2 0x1061 JUMP JUMPDEST PUSH2 0x264 PUSH2 0x3BC CALLDATASIZE PUSH1 0x4 PUSH2 0x274A JUMP JUMPDEST PUSH2 0x11D1 JUMP JUMPDEST PUSH2 0x264 PUSH2 0x3CF CALLDATASIZE PUSH1 0x4 PUSH2 0x28F1 JUMP JUMPDEST PUSH2 0x12A9 JUMP JUMPDEST PUSH1 0x3 SLOAD PUSH1 0x1 PUSH1 0x1 PUSH1 0xA0 SHL SUB AND PUSH2 0x2BC JUMP JUMPDEST PUSH2 0x264 PUSH2 0x3F3 CALLDATASIZE PUSH1 0x4 PUSH2 0x2487 JUMP JUMPDEST PUSH2 0x13E1 JUMP JUMPDEST PUSH2 0x2E7 PUSH2 0x406 CALLDATASIZE PUSH1 0x4 PUSH2 0x2932 JUMP JUMPDEST PUSH2 0x1417 JUMP JUMPDEST PUSH2 0x23E PUSH2 0x419 CALLDATASIZE PUSH1 0x4 PUSH2 0x2487 JUMP JUMPDEST PUSH1 0x0 SWAP1 DUP2 MSTORE PUSH1 0x9 PUSH1 0x20 MSTORE PUSH1 0x40 SWAP1 KECCAK256 SLOAD SWAP1 JUMP JUMPDEST PUSH2 0x264 PUSH2 0x1426 JUMP JUMPDEST PUSH2 0x264 PUSH2 0x441 CALLDATASIZE PUSH1 0x4 PUSH2 0x274A JUMP JUMPDEST PUSH2 0x148C JUMP JUMPDEST PUSH1 0x4 SLOAD PUSH1 0x1 PUSH1 0x1 PUSH1 0xA0 SHL SUB AND PUSH2 0x2BC JUMP JUMPDEST PUSH2 0x264 PUSH2 0x16D6 JUMP JUMPDEST PUSH2 0x23E PUSH2 0x46D CALLDATASIZE PUSH1 0x4 PUSH2 0x274A JUMP JUMPDEST PUSH1 0x1 PUSH1 0x1 PUSH1 0xA0 SHL SUB AND SWAP1 JUMP JUMPDEST ADDRESS PUSH2 0x2BC JUMP JUMPDEST PUSH1 0x7 SLOAD PUSH1 0x1 PUSH1 0x1 PUSH1 0xA0 SHL SUB AND PUSH2 0x2BC JUMP JUMPDEST PUSH2 0x264 PUSH2 0x49E CALLDATASIZE PUSH1 0x4 PUSH2 0x296B JUMP JUMPDEST PUSH1 0x1 PUSH1 0x1 PUSH1 0xA0 SHL SUB SWAP2 DUP3 AND PUSH1 0x0 SWAP1 DUP2 MSTORE PUSH1 0x1 PUSH1 0x20 SWAP1 DUP2 MSTORE PUSH1 0x40 DUP1 DUP4 KECCAK256 SWAP4 SWAP1 SWAP5 AND DUP3 MSTORE SWAP2 SWAP1 SWAP2 MSTORE KECCAK256 SLOAD PUSH1 0xFF AND SWAP1 JUMP JUMPDEST PUSH2 0x2E7 PUSH2 0x4DA CALLDATASIZE PUSH1 0x4 PUSH2 0x2999 JUMP JUMPDEST PUSH2 0x1703 JUMP JUMPDEST PUSH2 0x2E7 PUSH2 0x4ED CALLDATASIZE PUSH1 0x4 PUSH2 0x274A JUMP JUMPDEST PUSH2 0x1748 JUMP JUMPDEST PUSH2 0x264 PUSH2 0x17C1 JUMP JUMPDEST PUSH1 0x0 PUSH1 0x1 PUSH1 0x1 PUSH1 0xA0 SHL SUB DUP4 AND PUSH2 0x56A JUMPI PUSH1 0x40 MLOAD PUSH3 0x461BCD PUSH1 0xE5 SHL DUP2 MSTORE PUSH1 0x20 PUSH1 0x4 DUP3 ADD MSTORE PUSH1 0x2A PUSH1 0x24 DUP3 ADD MSTORE PUSH32 0x455243313135353A2061646472657373207A65726F206973206E6F7420612076 PUSH1 0x44 DUP3 ADD MSTORE PUSH10 0x30B634B21037BBB732B9 PUSH1 0xB1 SHL PUSH1 0x64 DUP3 ADD MSTORE PUSH1 0x84 ADD JUMPDEST PUSH1 0x40 MLOAD DUP1 SWAP2 SUB SWAP1 REVERT JUMPDEST POP PUSH1 0x0 SWAP1 DUP2 MSTORE PUSH1 0x20 DUP2 DUP2 MSTORE PUSH1 0x40 DUP1 DUP4 KECCAK256 PUSH1 0x1 PUSH1 0x1 PUSH1 0xA0 SHL SUB SWAP5 SWAP1 SWAP5 AND DUP4 MSTORE SWAP3 SWAP1 MSTORE KECCAK256 SLOAD SWAP1 JUMP JUMPDEST PUSH1 0x0 PUSH1 0x1 PUSH1 0x1 PUSH1 0xE0 SHL SUB NOT DUP3 AND PUSH4 0x6CDB3D13 PUSH1 0xE1 SHL EQ DUP1 PUSH2 0x5C1 JUMPI POP PUSH1 0x1 PUSH1 0x1 PUSH1 0xE0 SHL SUB NOT DUP3 AND PUSH4 0x3A24D07 PUSH1 0xE2 SHL EQ JUMPDEST DUP1 PUSH2 0x5DC JUMPI POP PUSH4 0x1FFC9A7 PUSH1 0xE0 SHL PUSH1 0x1 PUSH1 0x1 PUSH1 0xE0 SHL SUB NOT DUP4 AND EQ JUMPDEST SWAP3 SWAP2 POP POP JUMP JUMPDEST PUSH1 0x60 PUSH1 0x2 DUP1 SLOAD PUSH2 0x5F1 SWAP1 PUSH2 0x2A02 JUMP JUMPDEST DUP1 PUSH1 0x1F ADD PUSH1 0x20 DUP1 SWAP2 DIV MUL PUSH1 0x20 ADD PUSH1 0x40 MLOAD SWAP1 DUP2 ADD PUSH1 0x40 MSTORE DUP1 SWAP3 SWAP2 SWAP1 DUP2 DUP2 MSTORE PUSH1 0x20 ADD DUP3 DUP1 SLOAD PUSH2 0x61D SWAP1 PUSH2 0x2A02 JUMP JUMPDEST DUP1 ISZERO PUSH2 0x66A JUMPI DUP1 PUSH1 0x1F LT PUSH2 0x63F JUMPI PUSH2 0x100 DUP1 DUP4 SLOAD DIV MUL DUP4 MSTORE SWAP2 PUSH1 0x20 ADD SWAP2 PUSH2 0x66A JUMP JUMPDEST DUP3 ADD SWAP2 SWAP1 PUSH1 0x0 MSTORE PUSH1 0x20 PUSH1 0x0 KECCAK256 SWAP1 JUMPDEST DUP2 SLOAD DUP2 MSTORE SWAP1 PUSH1 0x1 ADD SWAP1 PUSH1 0x20 ADD DUP1 DUP4 GT PUSH2 0x64D JUMPI DUP3 SWAP1 SUB PUSH1 0x1F AND DUP3 ADD SWAP2 JUMPDEST POP POP POP POP POP SWAP1 POP SWAP2 SWAP1 POP JUMP JUMPDEST PUSH1 0x0 PUSH1 0xB SLOAD TIMESTAMP LT ISZERO PUSH2 0x6B5 JUMPI PUSH1 0x40 MLOAD PUSH3 0x461BCD PUSH1 0xE5 SHL DUP2 MSTORE PUSH1 0x20 PUSH1 0x4 DUP3 ADD MSTORE PUSH1 0x8 PUSH1 0x24 DUP3 ADD MSTORE PUSH8 0x2A37B79039B7B7B7 PUSH1 0xC1 SHL PUSH1 0x44 DUP3 ADD MSTORE PUSH1 0x64 ADD PUSH2 0x561 JUMP JUMPDEST PUSH1 0x4 SLOAD PUSH1 0x1 PUSH1 0x1 PUSH1 0xA0 SHL SUB AND CALLER EQ PUSH2 0x6DF JUMPI PUSH1 0x40 MLOAD PUSH3 0x461BCD PUSH1 0xE5 SHL DUP2 MSTORE PUSH1 0x4 ADD PUSH2 0x561 SWAP1 PUSH2 0x2A3D JUMP JUMPDEST PUSH1 0xC SLOAD PUSH2 0x100 SWAP1 DIV PUSH1 0xFF AND ISZERO PUSH2 0x6F7 JUMPI PUSH2 0x6F7 PUSH2 0x2A82 JUMP JUMPDEST PUSH1 0x40 MLOAD PUSH4 0x70A08231 PUSH1 0xE0 SHL DUP2 MSTORE ADDRESS PUSH1 0x4 DUP3 ADD MSTORE PUSH1 0x0 SWAP1 PUSH1 0x1 PUSH1 0x1 PUSH1 0xA0 SHL SUB DUP7 AND SWAP1 PUSH4 0x70A08231 SWAP1 PUSH1 0x24 ADD PUSH1 0x20 PUSH1 0x40 MLOAD DUP1 DUP4 SUB DUP2 DUP7 DUP1 EXTCODESIZE ISZERO DUP1 ISZERO PUSH2 0x739 JUMPI PUSH1 0x0 DUP1 REVERT JUMPDEST POP GAS STATICCALL ISZERO DUP1 ISZERO PUSH2 0x74D JUMPI RETURNDATASIZE PUSH1 0x0 DUP1 RETURNDATACOPY RETURNDATASIZE PUSH1 0x0 REVERT JUMPDEST POP POP POP POP PUSH1 0x40 MLOAD RETURNDATASIZE PUSH1 0x1F NOT PUSH1 0x1F DUP3 ADD AND DUP3 ADD DUP1 PUSH1 0x40 MSTORE POP DUP2 ADD SWAP1 PUSH2 0x771 SWAP2 SWAP1 PUSH2 0x2A98 JUMP JUMPDEST PUSH1 0x40 MLOAD PUSH4 0x7AE2B5C7 PUSH1 0xE0 SHL DUP2 MSTORE PUSH1 0x4 DUP2 ADD DUP7 SWAP1 MSTORE PUSH1 0x24 DUP2 ADD DUP3 SWAP1 MSTORE SWAP1 SWAP2 POP PUSH1 0x0 SWAP1 PUSH20 0x0 SWAP1 PUSH4 0x7AE2B5C7 SWAP1 PUSH1 0x44 ADD PUSH1 0x20 PUSH1 0x40 MLOAD DUP1 DUP4 SUB DUP2 DUP7 DUP1 EXTCODESIZE ISZERO DUP1 ISZERO PUSH2 0x7C9 JUMPI PUSH1 0x0 DUP1 REVERT JUMPDEST POP GAS DELEGATECALL ISZERO DUP1 ISZERO PUSH2 0x7DD JUMPI RETURNDATASIZE PUSH1 0x0 DUP1 RETURNDATACOPY RETURNDATASIZE PUSH1 0x0 REVERT JUMPDEST POP POP POP POP PUSH1 0x40 MLOAD RETURNDATASIZE PUSH1 0x1F NOT PUSH1 0x1F DUP3 ADD AND DUP3 ADD DUP1 PUSH1 0x40 MSTORE POP DUP2 ADD SWAP1 PUSH2 0x801 SWAP2 SWAP1 PUSH2 0x2A98 JUMP JUMPDEST PUSH1 0x6 SLOAD SWAP1 SWAP2 POP PUSH1 0x1 PUSH1 0x1 PUSH1 0xA0 SHL SUB AND ISZERO PUSH2 0xA69 JUMPI PUSH1 0x6 SLOAD PUSH1 0x40 MLOAD PUSH4 0x6582B41D PUSH1 0xE1 SHL DUP2 MSTORE PUSH1 0x1 PUSH1 0x1 PUSH1 0xA0 SHL SUB DUP9 DUP2 AND PUSH1 0x4 DUP4 ADD MSTORE PUSH1 0x0 SWAP3 AND SWAP1 PUSH4 0xCB05683A SWAP1 PUSH1 0x24 ADD PUSH1 0x20 PUSH1 0x40 MLOAD DUP1 DUP4 SUB DUP2 DUP7 DUP1 EXTCODESIZE ISZERO DUP1 ISZERO PUSH2 0x85B JUMPI PUSH1 0x0 DUP1 REVERT JUMPDEST POP GAS STATICCALL ISZERO DUP1 ISZERO PUSH2 0x86F JUMPI RETURNDATASIZE PUSH1 0x0 DUP1 RETURNDATACOPY RETURNDATASIZE PUSH1 0x0 REVERT JUMPDEST POP POP POP POP PUSH1 0x40 MLOAD RETURNDATASIZE PUSH1 0x1F NOT PUSH1 0x1F DUP3 ADD AND DUP3 ADD DUP1 PUSH1 0x40 MSTORE POP DUP2 ADD SWAP1 PUSH2 0x893 SWAP2 SWAP1 PUSH2 0x2A98 JUMP JUMPDEST GT PUSH2 0x8D0 JUMPI PUSH1 0x40 MLOAD PUSH3 0x461BCD PUSH1 0xE5 SHL DUP2 MSTORE PUSH1 0x20 PUSH1 0x4 DUP3 ADD MSTORE PUSH1 0xD PUSH1 0x24 DUP3 ADD MSTORE PUSH13 0x139BDB9948185C1C1C9BDD9959 PUSH1 0x9A SHL PUSH1 0x44 DUP3 ADD MSTORE PUSH1 0x64 ADD PUSH2 0x561 JUMP JUMPDEST PUSH1 0x6 SLOAD PUSH1 0x40 MLOAD PUSH4 0x6582B41D PUSH1 0xE1 SHL DUP2 MSTORE PUSH1 0x1 PUSH1 0x1 PUSH1 0xA0 SHL SUB DUP9 DUP2 AND PUSH1 0x4 DUP4 ADD MSTORE PUSH20 0x0 SWAP3 PUSH4 0x7AE2B5C7 SWAP3 SWAP2 AND SWAP1 PUSH4 0xCB05683A SWAP1 PUSH1 0x24 ADD PUSH1 0x20 PUSH1 0x40 MLOAD DUP1 DUP4 SUB DUP2 DUP7 DUP1 EXTCODESIZE ISZERO DUP1 ISZERO PUSH2 0x930 JUMPI PUSH1 0x0 DUP1 REVERT JUMPDEST POP GAS STATICCALL ISZERO DUP1 ISZERO PUSH2 0x944 JUMPI RETURNDATASIZE PUSH1 0x0 DUP1 RETURNDATACOPY RETURNDATASIZE PUSH1 0x0 REVERT JUMPDEST POP POP POP POP PUSH1 0x40 MLOAD RETURNDATASIZE PUSH1 0x1F NOT PUSH1 0x1F DUP3 ADD AND DUP3 ADD DUP1 PUSH1 0x40 MSTORE POP DUP2 ADD SWAP1 PUSH2 0x968 SWAP2 SWAP1 PUSH2 0x2A98 JUMP JUMPDEST DUP8 PUSH1 0x40 MLOAD DUP4 PUSH4 0xFFFFFFFF AND PUSH1 0xE0 SHL DUP2 MSTORE PUSH1 0x4 ADD PUSH2 0x98F SWAP3 SWAP2 SWAP1 SWAP2 DUP3 MSTORE PUSH1 0x20 DUP3 ADD MSTORE PUSH1 0x40 ADD SWAP1 JUMP JUMPDEST PUSH1 0x20 PUSH1 0x40 MLOAD DUP1 DUP4 SUB DUP2 DUP7 DUP1 EXTCODESIZE ISZERO DUP1 ISZERO PUSH2 0x9A7 JUMPI PUSH1 0x0 DUP1 REVERT JUMPDEST POP GAS DELEGATECALL ISZERO DUP1 ISZERO PUSH2 0x9BB JUMPI RETURNDATASIZE PUSH1 0x0 DUP1 RETURNDATACOPY RETURNDATASIZE PUSH1 0x0 REVERT JUMPDEST POP POP POP POP PUSH1 0x40 MLOAD RETURNDATASIZE PUSH1 0x1F NOT PUSH1 0x1F DUP3 ADD AND DUP3 ADD DUP1 PUSH1 0x40 MSTORE POP DUP2 ADD SWAP1 PUSH2 0x9DF SWAP2 SWAP1 PUSH2 0x2A98 JUMP JUMPDEST PUSH1 0x6 SLOAD PUSH1 0x40 MLOAD PUSH4 0xE2FF2D43 PUSH1 0xE0 SHL DUP2 MSTORE PUSH1 0x1 PUSH1 0x1 PUSH1 0xA0 SHL SUB DUP10 DUP2 AND PUSH1 0x4 DUP4 ADD MSTORE PUSH1 0x24 DUP3 ADD DUP5 SWAP1 MSTORE SWAP3 SWAP4 POP SWAP2 AND SWAP1 PUSH4 0xE2FF2D43 SWAP1 PUSH1 0x44 ADD PUSH1 0x20 PUSH1 0x40 MLOAD DUP1 DUP4 SUB DUP2 PUSH1 0x0 DUP8 DUP1 EXTCODESIZE ISZERO DUP1 ISZERO PUSH2 0xA2F JUMPI PUSH1 0x0 DUP1 REVERT JUMPDEST POP GAS CALL ISZERO DUP1 ISZERO PUSH2 0xA43 JUMPI RETURNDATASIZE PUSH1 0x0 DUP1 RETURNDATACOPY RETURNDATASIZE PUSH1 0x0 REVERT JUMPDEST POP POP POP POP PUSH1 0x40 MLOAD RETURNDATASIZE PUSH1 0x1F NOT PUSH1 0x1F DUP3 ADD AND DUP3 ADD DUP1 PUSH1 0x40 MSTORE POP DUP2 ADD SWAP1 PUSH2 0xA67 SWAP2 SWAP1 PUSH2 0x2AB1 JUMP JUMPDEST POP JUMPDEST PUSH1 0x7 SLOAD PUSH1 0x40 MLOAD PUSH4 0xA9059CBB PUSH1 0xE0 SHL DUP2 MSTORE PUSH1 0x1 PUSH1 0x1 PUSH1 0xA0 SHL SUB SWAP2 DUP3 AND PUSH1 0x4 DUP3 ADD MSTORE PUSH1 0x24 DUP2 ADD DUP4 SWAP1 MSTORE SWAP1 DUP8 AND SWAP1 PUSH4 0xA9059CBB SWAP1 PUSH1 0x44 ADD PUSH1 0x20 PUSH1 0x40 MLOAD DUP1 DUP4 SUB DUP2 PUSH1 0x0 DUP8 DUP1 EXTCODESIZE ISZERO DUP1 ISZERO PUSH2 0xAB7 JUMPI PUSH1 0x0 DUP1 REVERT JUMPDEST POP GAS CALL ISZERO DUP1 ISZERO PUSH2 0xACB JUMPI RETURNDATASIZE PUSH1 0x0 DUP1 RETURNDATACOPY RETURNDATASIZE PUSH1 0x0 REVERT JUMPDEST POP POP POP POP PUSH1 0x40 MLOAD RETURNDATASIZE PUSH1 0x1F NOT PUSH1 0x1F DUP3 ADD AND DUP3 ADD DUP1 PUSH1 0x40 MSTORE POP DUP2 ADD SWAP1 PUSH2 0xAEF SWAP2 SWAP1 PUSH2 0x2AB1 JUMP JUMPDEST POP PUSH1 0x7 SLOAD PUSH1 0x40 DUP1 MLOAD PUSH1 0x1 PUSH1 0x1 PUSH1 0xA0 SHL SUB SWAP3 DUP4 AND DUP2 MSTORE SWAP2 DUP9 AND PUSH1 0x20 DUP4 ADD MSTORE DUP2 ADD DUP3 SWAP1 MSTORE PUSH32 0xD1C19FBCD4551A5EDFB66D43D2E337C04837AFDA3482B42BDF569A8FCCDAE5FB SWAP1 PUSH1 0x60 ADD PUSH1 0x40 MLOAD DUP1 SWAP2 SUB SWAP1 LOG1 DUP4 ISZERO PUSH2 0xB56 JUMPI PUSH1 0xC DUP1 SLOAD PUSH3 0xFF00FF NOT AND PUSH3 0x10000 OR SWAP1 SSTORE JUMPDEST POP PUSH1 0x1 SWAP6 SWAP5 POP POP POP POP POP JUMP JUMPDEST PUSH1 0x4 SLOAD PUSH1 0x0 SWAP1 PUSH1 0x1 PUSH1 0x1 PUSH1 0xA0 SHL SUB AND CALLER EQ PUSH2 0xB8F JUMPI PUSH1 0x40 MLOAD PUSH3 0x461BCD PUSH1 0xE5 SHL DUP2 MSTORE PUSH1 0x4 ADD PUSH2 0x561 SWAP1 PUSH2 0x2A3D JUMP JUMPDEST PUSH1 0x0 JUMPDEST PUSH1 0x8 SLOAD DUP2 LT ISZERO PUSH2 0xBEA JUMPI PUSH2 0xBCC PUSH1 0x8 DUP3 DUP2 SLOAD DUP2 LT PUSH2 0xBB2 JUMPI PUSH2 0xBB2 PUSH2 0x2ACE JUMP JUMPDEST PUSH1 0x0 SWAP2 DUP3 MSTORE PUSH1 0x20 SWAP1 SWAP2 KECCAK256 ADD SLOAD PUSH1 0x1 PUSH1 0x1 PUSH1 0xA0 SHL SUB AND PUSH2 0x17EE JUMP JUMPDEST PUSH2 0xBD8 JUMPI PUSH2 0xBD8 PUSH2 0x2A82 JUMP JUMPDEST DUP1 PUSH2 0xBE2 DUP2 PUSH2 0x2AFA JUMP JUMPDEST SWAP2 POP POP PUSH2 0xB92 JUMP JUMPDEST POP PUSH1 0x1 SWAP1 POP JUMPDEST SWAP1 JUMP JUMPDEST PUSH1 0x1 PUSH1 0x1 PUSH1 0xA0 SHL SUB DUP6 AND CALLER EQ DUP1 PUSH2 0xC0F JUMPI POP PUSH2 0xC0F DUP6 CALLER PUSH2 0x49E JUMP JUMPDEST PUSH2 0xC2B JUMPI PUSH1 0x40 MLOAD PUSH3 0x461BCD PUSH1 0xE5 SHL DUP2 MSTORE PUSH1 0x4 ADD PUSH2 0x561 SWAP1 PUSH2 0x2B15 JUMP JUMPDEST PUSH2 0xC38 DUP6 DUP6 DUP6 DUP6 DUP6 PUSH2 0x18F7 JUMP JUMPDEST POP POP POP POP POP JUMP JUMPDEST PUSH1 0x4 SLOAD PUSH1 0x0 SWAP1 PUSH1 0x1 PUSH1 0x1 PUSH1 0xA0 SHL SUB AND CALLER EQ PUSH2 0xC6C JUMPI PUSH1 0x40 MLOAD PUSH3 0x461BCD PUSH1 0xE5 SHL DUP2 MSTORE PUSH1 0x4 ADD PUSH2 0x561 SWAP1 PUSH2 0x2A3D JUMP JUMPDEST PUSH1 0xC SLOAD PUSH3 0x10000 SWAP1 DIV PUSH1 0xFF AND ISZERO PUSH2 0xCD5 JUMPI PUSH1 0x40 MLOAD PUSH3 0x461BCD PUSH1 0xE5 SHL DUP2 MSTORE PUSH1 0x20 PUSH1 0x4 DUP3 ADD MSTORE PUSH1 0x27 PUSH1 0x24 DUP3 ADD MSTORE PUSH32 0x556E61626C6520746F20726561637469766174652077697468647261776E2070 PUSH1 0x44 DUP3 ADD MSTORE PUSH7 0x3937B532B1BA17 PUSH1 0xC9 SHL PUSH1 0x64 DUP3 ADD MSTORE PUSH1 0x84 ADD PUSH2 0x561 JUMP JUMPDEST PUSH1 0xC DUP1 SLOAD PUSH1 0xFF NOT AND PUSH1 0x1 OR SWAP1 SSTORE PUSH1 0x40 MLOAD PUSH32 0x1611757E154FD5430178688B28BEBEAB61BB8ACEC2B806091026E8B0FC3E7164 SWAP1 PUSH1 0x0 SWAP1 LOG1 POP PUSH1 0x1 SWAP1 JUMP JUMPDEST PUSH1 0x6 SLOAD PUSH1 0x0 SWAP1 PUSH1 0x1 PUSH1 0x1 PUSH1 0xA0 SHL SUB AND CALLER EQ PUSH2 0xD3E JUMPI PUSH1 0x40 MLOAD PUSH3 0x461BCD PUSH1 0xE5 SHL DUP2 MSTORE PUSH1 0x4 ADD PUSH2 0x561 SWAP1 PUSH2 0x2B63 JUMP JUMPDEST PUSH2 0x5DC DUP3 PUSH2 0x17EE JUMP JUMPDEST PUSH1 0x60 DUP2 MLOAD DUP4 MLOAD EQ PUSH2 0xDAC JUMPI PUSH1 0x40 MLOAD PUSH3 0x461BCD PUSH1 0xE5 SHL DUP2 MSTORE PUSH1 0x20 PUSH1 0x4 DUP3 ADD MSTORE PUSH1 0x29 PUSH1 0x24 DUP3 ADD MSTORE PUSH32 0x455243313135353A206163636F756E747320616E6420696473206C656E677468 PUSH1 0x44 DUP3 ADD MSTORE PUSH9 0x40DAD2E6DAC2E8C6D PUSH1 0xBB SHL PUSH1 0x64 DUP3 ADD MSTORE PUSH1 0x84 ADD PUSH2 0x561 JUMP JUMPDEST PUSH1 0x0 DUP4 MLOAD PUSH8 0xFFFFFFFFFFFFFFFF DUP2 GT ISZERO PUSH2 0xDC8 JUMPI PUSH2 0xDC8 PUSH2 0x2550 JUMP JUMPDEST PUSH1 0x40 MLOAD SWAP1 DUP1 DUP3 MSTORE DUP1 PUSH1 0x20 MUL PUSH1 0x20 ADD DUP3 ADD PUSH1 0x40 MSTORE DUP1 ISZERO PUSH2 0xDF1 JUMPI DUP2 PUSH1 0x20 ADD PUSH1 0x20 DUP3 MUL DUP1 CALLDATASIZE DUP4 CALLDATACOPY ADD SWAP1 POP JUMPDEST POP SWAP1 POP PUSH1 0x0 JUMPDEST DUP5 MLOAD DUP2 LT ISZERO PUSH2 0xE69 JUMPI PUSH2 0xE3C DUP6 DUP3 DUP2 MLOAD DUP2 LT PUSH2 0xE15 JUMPI PUSH2 0xE15 PUSH2 0x2ACE JUMP JUMPDEST PUSH1 0x20 MUL PUSH1 0x20 ADD ADD MLOAD DUP6 DUP4 DUP2 MLOAD DUP2 LT PUSH2 0xE2F JUMPI PUSH2 0xE2F PUSH2 0x2ACE JUMP JUMPDEST PUSH1 0x20 MUL PUSH1 0x20 ADD ADD MLOAD PUSH2 0x4FA JUMP JUMPDEST DUP3 DUP3 DUP2 MLOAD DUP2 LT PUSH2 0xE4E JUMPI PUSH2 0xE4E PUSH2 0x2ACE JUMP JUMPDEST PUSH1 0x20 SWAP1 DUP2 MUL SWAP2 SWAP1 SWAP2 ADD ADD MSTORE PUSH2 0xE62 DUP2 PUSH2 0x2AFA JUMP JUMPDEST SWAP1 POP PUSH2 0xDF7 JUMP JUMPDEST POP SWAP4 SWAP3 POP POP POP JUMP JUMPDEST PUSH1 0x4 SLOAD PUSH1 0x0 SWAP1 PUSH1 0x1 PUSH1 0x1 PUSH1 0xA0 SHL SUB AND CALLER EQ PUSH2 0xE9E JUMPI PUSH1 0x40 MLOAD PUSH3 0x461BCD PUSH1 0xE5 SHL DUP2 MSTORE PUSH1 0x4 ADD PUSH2 0x561 SWAP1 PUSH2 0x2A3D JUMP JUMPDEST POP PUSH1 0x7 DUP1 SLOAD PUSH1 0x1 PUSH1 0x1 PUSH1 0xA0 SHL SUB DUP4 AND PUSH1 0x1 PUSH1 0x1 PUSH1 0xA0 SHL SUB NOT SWAP1 SWAP2 AND OR SWAP1 SSTORE PUSH1 0x1 SWAP2 SWAP1 POP JUMP JUMPDEST PUSH2 0xECB PUSH2 0x1AD4 JUMP JUMPDEST PUSH2 0xED5 PUSH1 0x0 PUSH2 0x1B2E JUMP JUMPDEST JUMP JUMPDEST PUSH1 0x60 PUSH1 0x8 DUP1 SLOAD DUP1 PUSH1 0x20 MUL PUSH1 0x20 ADD PUSH1 0x40 MLOAD SWAP1 DUP2 ADD PUSH1 0x40 MSTORE DUP1 SWAP3 SWAP2 SWAP1 DUP2 DUP2 MSTORE PUSH1 0x20 ADD DUP3 DUP1 SLOAD DUP1 ISZERO PUSH2 0x66A JUMPI PUSH1 0x20 MUL DUP3 ADD SWAP2 SWAP1 PUSH1 0x0 MSTORE PUSH1 0x20 PUSH1 0x0 KECCAK256 SWAP1 JUMPDEST DUP2 SLOAD PUSH1 0x1 PUSH1 0x1 PUSH1 0xA0 SHL SUB AND DUP2 MSTORE PUSH1 0x1 SWAP1 SWAP2 ADD SWAP1 PUSH1 0x20 ADD DUP1 DUP4 GT PUSH2 0xF11 JUMPI POP POP POP POP POP SWAP1 POP SWAP2 SWAP1 POP JUMP JUMPDEST PUSH1 0x4 SLOAD PUSH1 0x0 SWAP1 PUSH1 0x1 PUSH1 0x1 PUSH1 0xA0 SHL SUB AND CALLER EQ PUSH2 0xF67 JUMPI PUSH1 0x40 MLOAD PUSH3 0x461BCD PUSH1 0xE5 SHL DUP2 MSTORE PUSH1 0x4 ADD PUSH2 0x561 SWAP1 PUSH2 0x2A3D JUMP JUMPDEST PUSH1 0x6 SLOAD PUSH1 0x40 MLOAD PUSH3 0xECB5BB PUSH1 0xE7 SHL DUP2 MSTORE PUSH1 0x4 DUP2 ADD DUP6 SWAP1 MSTORE PUSH1 0x24 DUP2 ADD DUP5 SWAP1 MSTORE PUSH1 0x1 PUSH1 0x1 PUSH1 0xA0 SHL SUB SWAP1 SWAP2 AND SWAP1 PUSH4 0x765ADD80 SWAP1 PUSH1 0x44 ADD PUSH1 0x20 PUSH1 0x40 MLOAD DUP1 DUP4 SUB DUP2 PUSH1 0x0 DUP8 DUP1 EXTCODESIZE ISZERO DUP1 ISZERO PUSH2 0xFB3 JUMPI PUSH1 0x0 DUP1 REVERT JUMPDEST POP GAS CALL ISZERO DUP1 ISZERO PUSH2 0xFC7 JUMPI RETURNDATASIZE PUSH1 0x0 DUP1 RETURNDATACOPY RETURNDATASIZE PUSH1 0x0 REVERT JUMPDEST POP POP POP POP PUSH1 0x40 MLOAD RETURNDATASIZE PUSH1 0x1F NOT PUSH1 0x1F DUP3 ADD AND DUP3 ADD DUP1 PUSH1 0x40 MSTORE POP DUP2 ADD SWAP1 PUSH2 0xFEB SWAP2 SWAP1 PUSH2 0x2AB1 JUMP JUMPDEST SWAP4 SWAP3 POP POP POP JUMP JUMPDEST PUSH1 0x6 SLOAD PUSH1 0x0 SWAP1 PUSH1 0x1 PUSH1 0x1 PUSH1 0xA0 SHL SUB AND CALLER EQ PUSH2 0x101F JUMPI PUSH1 0x40 MLOAD PUSH3 0x461BCD PUSH1 0xE5 SHL DUP2 MSTORE PUSH1 0x4 ADD PUSH2 0x561 SWAP1 PUSH2 0x2B63 JUMP JUMPDEST PUSH2 0x1027 PUSH2 0x1B80 JUMP JUMPDEST SWAP1 POP SWAP1 JUMP JUMPDEST PUSH1 0x6 SLOAD PUSH1 0x0 SWAP1 PUSH1 0x1 PUSH1 0x1 PUSH1 0xA0 SHL SUB AND CALLER EQ PUSH2 0x1059 JUMPI PUSH1 0x40 MLOAD PUSH3 0x461BCD PUSH1 0xE5 SHL DUP2 MSTORE PUSH1 0x4 ADD PUSH2 0x561 SWAP1 PUSH2 0x2B63 JUMP JUMPDEST PUSH2 0x1027 PUSH2 0x1C3A JUMP JUMPDEST PUSH1 0x0 PUSH1 0xB SLOAD TIMESTAMP LT ISZERO PUSH2 0x10A0 JUMPI PUSH1 0x40 MLOAD PUSH3 0x461BCD PUSH1 0xE5 SHL DUP2 MSTORE PUSH1 0x20 PUSH1 0x4 DUP3 ADD MSTORE PUSH1 0x8 PUSH1 0x24 DUP3 ADD MSTORE PUSH8 0x2A37B79039B7B7B7 PUSH1 0xC1 SHL PUSH1 0x44 DUP3 ADD MSTORE PUSH1 0x64 ADD PUSH2 0x561 JUMP JUMPDEST PUSH1 0x4 SLOAD PUSH1 0x1 PUSH1 0x1 PUSH1 0xA0 SHL SUB AND CALLER EQ PUSH2 0x10CA JUMPI PUSH1 0x40 MLOAD PUSH3 0x461BCD PUSH1 0xE5 SHL DUP2 MSTORE PUSH1 0x4 ADD PUSH2 0x561 SWAP1 PUSH2 0x2A3D JUMP JUMPDEST PUSH1 0x0 JUMPDEST PUSH1 0x8 SLOAD DUP2 LT ISZERO PUSH2 0xBEA JUMPI PUSH2 0x11B3 PUSH1 0x8 DUP3 DUP2 SLOAD DUP2 LT PUSH2 0x10ED JUMPI PUSH2 0x10ED PUSH2 0x2ACE JUMP JUMPDEST PUSH1 0x0 SWAP2 DUP3 MSTORE PUSH1 0x20 SWAP1 SWAP2 KECCAK256 ADD SLOAD PUSH1 0x8 DUP1 SLOAD PUSH1 0x1 PUSH1 0x1 PUSH1 0xA0 SHL SUB SWAP1 SWAP3 AND SWAP2 DUP5 SWAP1 DUP2 LT PUSH2 0x1119 JUMPI PUSH2 0x1119 PUSH2 0x2ACE JUMP JUMPDEST PUSH1 0x0 SWAP2 DUP3 MSTORE PUSH1 0x20 SWAP1 SWAP2 KECCAK256 ADD SLOAD PUSH1 0x40 MLOAD PUSH4 0x70A08231 PUSH1 0xE0 SHL DUP2 MSTORE ADDRESS PUSH1 0x4 DUP3 ADD MSTORE PUSH1 0x1 PUSH1 0x1 PUSH1 0xA0 SHL SUB SWAP1 SWAP2 AND SWAP1 PUSH4 0x70A08231 SWAP1 PUSH1 0x24 ADD PUSH1 0x20 PUSH1 0x40 MLOAD DUP1 DUP4 SUB DUP2 DUP7 DUP1 EXTCODESIZE ISZERO DUP1 ISZERO PUSH2 0x1165 JUMPI PUSH1 0x0 DUP1 REVERT JUMPDEST POP GAS STATICCALL ISZERO DUP1 ISZERO PUSH2 0x1179 JUMPI RETURNDATASIZE PUSH1 0x0 DUP1 RETURNDATACOPY RETURNDATASIZE PUSH1 0x0 REVERT JUMPDEST POP POP POP POP PUSH1 0x40 MLOAD RETURNDATASIZE PUSH1 0x1F NOT PUSH1 0x1F DUP3 ADD AND DUP3 ADD DUP1 PUSH1 0x40 MSTORE POP DUP2 ADD SWAP1 PUSH2 0x119D SWAP2 SWAP1 PUSH2 0x2A98 JUMP JUMPDEST PUSH1 0x8 SLOAD PUSH2 0x11AC SWAP1 PUSH1 0x1 SWAP1 PUSH2 0x2BA6 JUMP JUMPDEST DUP5 EQ PUSH2 0x676 JUMP JUMPDEST PUSH2 0x11BF JUMPI PUSH2 0x11BF PUSH2 0x2A82 JUMP JUMPDEST DUP1 PUSH2 0x11C9 DUP2 PUSH2 0x2AFA JUMP JUMPDEST SWAP2 POP POP PUSH2 0x10CD JUMP JUMPDEST PUSH1 0x4 SLOAD PUSH1 0x0 SWAP1 PUSH1 0x1 PUSH1 0x1 PUSH1 0xA0 SHL SUB AND CALLER EQ PUSH2 0x11FE JUMPI PUSH1 0x40 MLOAD PUSH3 0x461BCD PUSH1 0xE5 SHL DUP2 MSTORE PUSH1 0x4 ADD PUSH2 0x561 SWAP1 PUSH2 0x2A3D JUMP JUMPDEST PUSH1 0xC SLOAD PUSH1 0xFF AND PUSH2 0x1220 JUMPI PUSH1 0x40 MLOAD PUSH3 0x461BCD PUSH1 0xE5 SHL DUP2 MSTORE PUSH1 0x4 ADD PUSH2 0x561 SWAP1 PUSH2 0x2BBD JUMP JUMPDEST PUSH1 0x8 DUP1 SLOAD PUSH1 0x1 DUP2 ADD DUP3 SSTORE PUSH1 0x0 SWAP2 SWAP1 SWAP2 MSTORE PUSH32 0xF3F7A9FE364FAAB93B216DA50A3214154F22A0A2B415B23A84C8169E8B636EE3 ADD DUP1 SLOAD PUSH1 0x1 PUSH1 0x1 PUSH1 0xA0 SHL SUB NOT AND PUSH1 0x1 PUSH1 0x1 PUSH1 0xA0 SHL SUB DUP5 AND SWAP1 DUP2 OR SWAP1 SWAP2 SSTORE PUSH1 0x40 MLOAD SWAP1 DUP2 MSTORE PUSH32 0xEC38796D17F4FA8C88DE20F9FB9DA605573FDCB1DD79C6D39683DF6D64175E5F SWAP1 PUSH1 0x20 ADD PUSH1 0x40 MLOAD DUP1 SWAP2 SUB SWAP1 LOG1 POP PUSH1 0x1 SWAP2 SWAP1 POP JUMP JUMPDEST PUSH1 0xC SLOAD PUSH1 0x0 SWAP1 PUSH1 0xFF AND PUSH2 0x12CE JUMPI PUSH1 0x40 MLOAD PUSH3 0x461BCD PUSH1 0xE5 SHL DUP2 MSTORE PUSH1 0x4 ADD PUSH2 0x561 SWAP1 PUSH2 0x2BBD JUMP JUMPDEST PUSH1 0x5 SLOAD PUSH1 0x1 PUSH1 0x1 PUSH1 0xA0 SHL SUB AND CALLER EQ PUSH2 0x133F JUMPI PUSH1 0x40 MLOAD PUSH3 0x461BCD PUSH1 0xE5 SHL DUP2 MSTORE PUSH1 0x20 PUSH1 0x4 DUP3 ADD MSTORE PUSH1 0x2E PUSH1 0x24 DUP3 ADD MSTORE PUSH32 0x4F6E6C7920636F6E747269627574696F6E20726F757465722063616E2072756E PUSH1 0x44 DUP3 ADD MSTORE PUSH14 0x103A3434B990333AB731BA34B7B7 PUSH1 0x91 SHL PUSH1 0x64 DUP3 ADD MSTORE PUSH1 0x84 ADD PUSH2 0x561 JUMP JUMPDEST PUSH1 0x0 DUP4 PUSH1 0x1 PUSH1 0x1 PUSH1 0xA0 SHL SUB AND SWAP1 POP PUSH2 0x1368 DUP6 DUP3 DUP6 PUSH1 0x40 MLOAD DUP1 PUSH1 0x20 ADD PUSH1 0x40 MSTORE DUP1 PUSH1 0x0 DUP2 MSTORE POP PUSH2 0x1CF8 JUMP JUMPDEST PUSH1 0x0 DUP2 DUP2 MSTORE PUSH1 0x9 PUSH1 0x20 MSTORE PUSH1 0x40 DUP2 KECCAK256 DUP1 SLOAD DUP6 SWAP3 SWAP1 PUSH2 0x1386 SWAP1 DUP5 SWAP1 PUSH2 0x2C07 JUMP JUMPDEST SWAP1 SWAP2 SSTORE POP POP PUSH1 0x40 DUP1 MLOAD PUSH1 0x1 PUSH1 0x1 PUSH1 0xA0 SHL SUB DUP1 DUP9 AND DUP3 MSTORE DUP7 AND PUSH1 0x20 DUP3 ADD MSTORE SWAP1 DUP2 ADD DUP5 SWAP1 MSTORE PUSH32 0x188177A91F9B084DADC3C86215FF29AA75DDAF05ED75983C8C498C40989D58C9 SWAP1 PUSH1 0x60 ADD PUSH1 0x40 MLOAD DUP1 SWAP2 SUB SWAP1 LOG1 POP PUSH1 0x1 SWAP5 SWAP4 POP POP POP POP JUMP JUMPDEST PUSH1 0x4 SLOAD PUSH1 0x0 SWAP1 PUSH1 0x1 PUSH1 0x1 PUSH1 0xA0 SHL SUB AND CALLER EQ PUSH2 0x140E JUMPI PUSH1 0x40 MLOAD PUSH3 0x461BCD PUSH1 0xE5 SHL DUP2 MSTORE PUSH1 0x4 ADD PUSH2 0x561 SWAP1 PUSH2 0x2A3D JUMP JUMPDEST POP PUSH1 0xB SSTORE PUSH1 0x1 SWAP1 JUMP JUMPDEST PUSH2 0x1422 CALLER DUP4 DUP4 PUSH2 0x1E0C JUMP JUMPDEST POP POP JUMP JUMPDEST PUSH1 0x4 SLOAD PUSH1 0x0 SWAP1 PUSH1 0x1 PUSH1 0x1 PUSH1 0xA0 SHL SUB AND CALLER EQ PUSH2 0x1453 JUMPI PUSH1 0x40 MLOAD PUSH3 0x461BCD PUSH1 0xE5 SHL DUP2 MSTORE PUSH1 0x4 ADD PUSH2 0x561 SWAP1 PUSH2 0x2A3D JUMP JUMPDEST PUSH1 0xC DUP1 SLOAD PUSH1 0xFF NOT AND SWAP1 SSTORE PUSH1 0x40 MLOAD PUSH32 0xA45ACEC63F6AC615004262A66FB13BFBC1EB0D6428DCCED53EFA9500185DC4A5 SWAP1 PUSH1 0x0 SWAP1 LOG1 POP PUSH1 0x1 SWAP1 JUMP JUMPDEST PUSH1 0x1 PUSH1 0x1 PUSH1 0xA0 SHL SUB DUP2 AND PUSH1 0x0 SWAP1 DUP2 MSTORE PUSH1 0xA PUSH1 0x20 MSTORE PUSH1 0x40 DUP2 KECCAK256 SLOAD PUSH2 0x14F1 JUMPI PUSH1 0x40 MLOAD PUSH3 0x461BCD PUSH1 0xE5 SHL DUP2 MSTORE PUSH1 0x20 PUSH1 0x4 DUP3 ADD MSTORE PUSH1 0x17 PUSH1 0x24 DUP3 ADD MSTORE PUSH32 0x4E6F2066756E647320746F20626520726566756E646564000000000000000000 PUSH1 0x44 DUP3 ADD MSTORE PUSH1 0x64 ADD PUSH2 0x561 JUMP JUMPDEST PUSH1 0x1 PUSH1 0x1 PUSH1 0xA0 SHL SUB DUP3 AND PUSH1 0x0 PUSH2 0x1507 CALLER DUP4 PUSH2 0x4FA JUMP JUMPDEST SWAP1 POP PUSH1 0x0 DUP2 GT PUSH2 0x1559 JUMPI PUSH1 0x40 MLOAD PUSH3 0x461BCD PUSH1 0xE5 SHL DUP2 MSTORE PUSH1 0x20 PUSH1 0x4 DUP3 ADD MSTORE PUSH1 0x1E PUSH1 0x24 DUP3 ADD MSTORE PUSH32 0x4E6F20726566756E6473206F77656420746F206D73672073656E6465722E0000 PUSH1 0x44 DUP3 ADD MSTORE PUSH1 0x64 ADD PUSH2 0x561 JUMP JUMPDEST PUSH1 0x0 DUP3 DUP2 MSTORE PUSH1 0x9 PUSH1 0x20 MSTORE PUSH1 0x40 DUP1 DUP3 KECCAK256 SLOAD SWAP1 MLOAD PUSH4 0x70A08231 PUSH1 0xE0 SHL DUP2 MSTORE ADDRESS PUSH1 0x4 DUP3 ADD MSTORE PUSH1 0x1 PUSH1 0x1 PUSH1 0xA0 SHL SUB DUP8 AND SWAP1 PUSH4 0x70A08231 SWAP1 PUSH1 0x24 ADD PUSH1 0x20 PUSH1 0x40 MLOAD DUP1 DUP4 SUB DUP2 DUP7 DUP1 EXTCODESIZE ISZERO DUP1 ISZERO PUSH2 0x15A7 JUMPI PUSH1 0x0 DUP1 REVERT JUMPDEST POP GAS STATICCALL ISZERO DUP1 ISZERO PUSH2 0x15BB JUMPI RETURNDATASIZE PUSH1 0x0 DUP1 RETURNDATACOPY RETURNDATASIZE PUSH1 0x0 REVERT JUMPDEST POP POP POP POP PUSH1 0x40 MLOAD RETURNDATASIZE PUSH1 0x1F NOT PUSH1 0x1F DUP3 ADD AND DUP3 ADD DUP1 PUSH1 0x40 MSTORE POP DUP2 ADD SWAP1 PUSH2 0x15DF SWAP2 SWAP1 PUSH2 0x2A98 JUMP JUMPDEST PUSH2 0x15E9 SWAP1 DUP5 PUSH2 0x2C1F JUMP JUMPDEST PUSH2 0x15F3 SWAP2 SWAP1 PUSH2 0x2C3E JUMP JUMPDEST PUSH1 0x40 MLOAD PUSH4 0xA9059CBB PUSH1 0xE0 SHL DUP2 MSTORE CALLER PUSH1 0x4 DUP3 ADD MSTORE PUSH1 0x24 DUP2 ADD DUP3 SWAP1 MSTORE SWAP1 SWAP2 POP PUSH1 0x1 PUSH1 0x1 PUSH1 0xA0 SHL SUB DUP7 AND SWAP1 PUSH4 0xA9059CBB SWAP1 PUSH1 0x44 ADD PUSH1 0x20 PUSH1 0x40 MLOAD DUP1 DUP4 SUB DUP2 PUSH1 0x0 DUP8 DUP1 EXTCODESIZE ISZERO DUP1 ISZERO PUSH2 0x163E JUMPI PUSH1 0x0 DUP1 REVERT JUMPDEST POP GAS CALL ISZERO DUP1 ISZERO PUSH2 0x1652 JUMPI RETURNDATASIZE PUSH1 0x0 DUP1 RETURNDATACOPY RETURNDATASIZE PUSH1 0x0 REVERT JUMPDEST POP POP POP POP PUSH1 0x40 MLOAD RETURNDATASIZE PUSH1 0x1F NOT PUSH1 0x1F DUP3 ADD AND DUP3 ADD DUP1 PUSH1 0x40 MSTORE POP DUP2 ADD SWAP1 PUSH2 0x1676 SWAP2 SWAP1 PUSH2 0x2AB1 JUMP JUMPDEST POP PUSH2 0x1682 CALLER DUP5 DUP5 PUSH2 0x1EED JUMP JUMPDEST PUSH1 0x40 DUP1 MLOAD CALLER DUP2 MSTORE PUSH1 0x1 PUSH1 0x1 PUSH1 0xA0 SHL SUB DUP8 AND PUSH1 0x20 DUP3 ADD MSTORE SWAP1 DUP2 ADD DUP3 SWAP1 MSTORE PUSH32 0xEC1E5ED733E00F1A00915D56CAEF57B4F52312DDE4F9B3165F213319A0DA156B SWAP1 PUSH1 0x60 ADD PUSH1 0x40 MLOAD DUP1 SWAP2 SUB SWAP1 LOG1 POP PUSH1 0x1 SWAP5 SWAP4 POP POP POP POP JUMP JUMPDEST PUSH1 0x4 SLOAD PUSH1 0x0 SWAP1 PUSH1 0x1 PUSH1 0x1 PUSH1 0xA0 SHL SUB AND CALLER EQ PUSH2 0x1059 JUMPI PUSH1 0x40 MLOAD PUSH3 0x461BCD PUSH1 0xE5 SHL DUP2 MSTORE PUSH1 0x4 ADD PUSH2 0x561 SWAP1 PUSH2 0x2A3D JUMP JUMPDEST PUSH1 0x1 PUSH1 0x1 PUSH1 0xA0 SHL SUB DUP6 AND CALLER EQ DUP1 PUSH2 0x171F JUMPI POP PUSH2 0x171F DUP6 CALLER PUSH2 0x49E JUMP JUMPDEST PUSH2 0x173B JUMPI PUSH1 0x40 MLOAD PUSH3 0x461BCD PUSH1 0xE5 SHL DUP2 MSTORE PUSH1 0x4 ADD PUSH2 0x561 SWAP1 PUSH2 0x2B15 JUMP JUMPDEST PUSH2 0xC38 DUP6 DUP6 DUP6 DUP6 DUP6 PUSH2 0x2069 JUMP JUMPDEST PUSH2 0x1750 PUSH2 0x1AD4 JUMP JUMPDEST PUSH1 0x1 PUSH1 0x1 PUSH1 0xA0 SHL SUB DUP2 AND PUSH2 0x17B5 JUMPI PUSH1 0x40 MLOAD PUSH3 0x461BCD PUSH1 0xE5 SHL DUP2 MSTORE PUSH1 0x20 PUSH1 0x4 DUP3 ADD MSTORE PUSH1 0x26 PUSH1 0x24 DUP3 ADD MSTORE PUSH32 0x4F776E61626C653A206E6577206F776E657220697320746865207A65726F2061 PUSH1 0x44 DUP3 ADD MSTORE PUSH6 0x646472657373 PUSH1 0xD0 SHL PUSH1 0x64 DUP3 ADD MSTORE PUSH1 0x84 ADD PUSH2 0x561 JUMP JUMPDEST PUSH2 0x17BE DUP2 PUSH2 0x1B2E JUMP JUMPDEST POP JUMP JUMPDEST PUSH1 0x4 SLOAD PUSH1 0x0 SWAP1 PUSH1 0x1 PUSH1 0x1 PUSH1 0xA0 SHL SUB AND CALLER EQ PUSH2 0x101F JUMPI PUSH1 0x40 MLOAD PUSH3 0x461BCD PUSH1 0xE5 SHL DUP2 MSTORE PUSH1 0x4 ADD PUSH2 0x561 SWAP1 PUSH2 0x2A3D JUMP JUMPDEST PUSH1 0xC SLOAD PUSH1 0x0 SWAP1 PUSH3 0x10000 SWAP1 DIV PUSH1 0xFF AND ISZERO PUSH2 0x185D JUMPI PUSH1 0x40 MLOAD PUSH3 0x461BCD PUSH1 0xE5 SHL DUP2 MSTORE PUSH1 0x20 PUSH1 0x4 DUP3 ADD MSTORE PUSH1 0x2A PUSH1 0x24 DUP3 ADD MSTORE PUSH32 0x4E6F2066756E647320746F20726566756E6420666F722077697468647261776E PUSH1 0x44 DUP3 ADD MSTORE PUSH10 0x10383937B532B1BA3997 PUSH1 0xB1 SHL PUSH1 0x64 DUP3 ADD MSTORE PUSH1 0x84 ADD PUSH2 0x561 JUMP JUMPDEST PUSH1 0x40 MLOAD PUSH4 0x70A08231 PUSH1 0xE0 SHL DUP2 MSTORE ADDRESS PUSH1 0x4 DUP3 ADD MSTORE PUSH1 0x1 PUSH1 0x1 PUSH1 0xA0 SHL SUB DUP4 AND SWAP1 PUSH4 0x70A08231 SWAP1 PUSH1 0x24 ADD PUSH1 0x20 PUSH1 0x40 MLOAD DUP1 DUP4 SUB DUP2 DUP7 DUP1 EXTCODESIZE ISZERO DUP1 ISZERO PUSH2 0x189C JUMPI PUSH1 0x0 DUP1 REVERT JUMPDEST POP GAS STATICCALL ISZERO DUP1 ISZERO PUSH2 0x18B0 JUMPI RETURNDATASIZE PUSH1 0x0 DUP1 RETURNDATACOPY RETURNDATASIZE PUSH1 0x0 REVERT JUMPDEST POP POP POP POP PUSH1 0x40 MLOAD RETURNDATASIZE PUSH1 0x1F NOT PUSH1 0x1F DUP3 ADD AND DUP3 ADD DUP1 PUSH1 0x40 MSTORE POP DUP2 ADD SWAP1 PUSH2 0x18D4 SWAP2 SWAP1 PUSH2 0x2A98 JUMP JUMPDEST PUSH1 0x1 PUSH1 0x1 PUSH1 0xA0 SHL SUB SWAP1 SWAP3 AND PUSH1 0x0 SWAP1 DUP2 MSTORE PUSH1 0xA PUSH1 0x20 MSTORE PUSH1 0x40 SWAP1 KECCAK256 SWAP2 SWAP1 SWAP2 SSTORE POP PUSH1 0x1 SWAP1 JUMP JUMPDEST DUP2 MLOAD DUP4 MLOAD EQ PUSH2 0x1959 JUMPI PUSH1 0x40 MLOAD PUSH3 0x461BCD PUSH1 0xE5 SHL DUP2 MSTORE PUSH1 0x20 PUSH1 0x4 DUP3 ADD MSTORE PUSH1 0x28 PUSH1 0x24 DUP3 ADD MSTORE PUSH32 0x455243313135353A2069647320616E6420616D6F756E7473206C656E67746820 PUSH1 0x44 DUP3 ADD MSTORE PUSH8 0xDAD2E6DAC2E8C6D PUSH1 0xC3 SHL PUSH1 0x64 DUP3 ADD MSTORE PUSH1 0x84 ADD PUSH2 0x561 JUMP JUMPDEST PUSH1 0x1 PUSH1 0x1 PUSH1 0xA0 SHL SUB DUP5 AND PUSH2 0x197F JUMPI PUSH1 0x40 MLOAD PUSH3 0x461BCD PUSH1 0xE5 SHL DUP2 MSTORE PUSH1 0x4 ADD PUSH2 0x561 SWAP1 PUSH2 0x2C60 JUMP JUMPDEST CALLER PUSH1 0x0 JUMPDEST DUP5 MLOAD DUP2 LT ISZERO PUSH2 0x1A66 JUMPI PUSH1 0x0 DUP6 DUP3 DUP2 MLOAD DUP2 LT PUSH2 0x19A0 JUMPI PUSH2 0x19A0 PUSH2 0x2ACE JUMP JUMPDEST PUSH1 0x20 MUL PUSH1 0x20 ADD ADD MLOAD SWAP1 POP PUSH1 0x0 DUP6 DUP4 DUP2 MLOAD DUP2 LT PUSH2 0x19BE JUMPI PUSH2 0x19BE PUSH2 0x2ACE JUMP JUMPDEST PUSH1 0x20 SWAP1 DUP2 MUL SWAP2 SWAP1 SWAP2 ADD DUP2 ADD MLOAD PUSH1 0x0 DUP5 DUP2 MSTORE DUP1 DUP4 MSTORE PUSH1 0x40 DUP1 DUP3 KECCAK256 PUSH1 0x1 PUSH1 0x1 PUSH1 0xA0 SHL SUB DUP15 AND DUP4 MSTORE SWAP1 SWAP4 MSTORE SWAP2 SWAP1 SWAP2 KECCAK256 SLOAD SWAP1 SWAP2 POP DUP2 DUP2 LT ISZERO PUSH2 0x1A0E JUMPI PUSH1 0x40 MLOAD PUSH3 0x461BCD PUSH1 0xE5 SHL DUP2 MSTORE PUSH1 0x4 ADD PUSH2 0x561 SWAP1 PUSH2 0x2CA5 JUMP JUMPDEST PUSH1 0x0 DUP4 DUP2 MSTORE PUSH1 0x20 DUP2 DUP2 MSTORE PUSH1 0x40 DUP1 DUP4 KECCAK256 PUSH1 0x1 PUSH1 0x1 PUSH1 0xA0 SHL SUB DUP15 DUP2 AND DUP6 MSTORE SWAP3 MSTORE DUP1 DUP4 KECCAK256 DUP6 DUP6 SUB SWAP1 SSTORE SWAP1 DUP12 AND DUP3 MSTORE DUP2 KECCAK256 DUP1 SLOAD DUP5 SWAP3 SWAP1 PUSH2 0x1A4B SWAP1 DUP5 SWAP1 PUSH2 0x2C07 JUMP JUMPDEST SWAP3 POP POP DUP2 SWAP1 SSTORE POP POP POP POP DUP1 PUSH2 0x1A5F SWAP1 PUSH2 0x2AFA JUMP JUMPDEST SWAP1 POP PUSH2 0x1983 JUMP JUMPDEST POP DUP5 PUSH1 0x1 PUSH1 0x1 PUSH1 0xA0 SHL SUB AND DUP7 PUSH1 0x1 PUSH1 0x1 PUSH1 0xA0 SHL SUB AND DUP3 PUSH1 0x1 PUSH1 0x1 PUSH1 0xA0 SHL SUB AND PUSH32 0x4A39DC06D4C0DBC64B70AF90FD698A233A518AA5D07E595D983B8C0526C8F7FB DUP8 DUP8 PUSH1 0x40 MLOAD PUSH2 0x1AB6 SWAP3 SWAP2 SWAP1 PUSH2 0x2CEF JUMP JUMPDEST PUSH1 0x40 MLOAD DUP1 SWAP2 SUB SWAP1 LOG4 PUSH2 0x1ACC DUP2 DUP8 DUP8 DUP8 DUP8 DUP8 PUSH2 0x2193 JUMP JUMPDEST POP POP POP POP POP POP JUMP JUMPDEST PUSH1 0x3 SLOAD PUSH1 0x1 PUSH1 0x1 PUSH1 0xA0 SHL SUB AND CALLER EQ PUSH2 0xED5 JUMPI PUSH1 0x40 MLOAD PUSH3 0x461BCD PUSH1 0xE5 SHL DUP2 MSTORE PUSH1 0x20 PUSH1 0x4 DUP3 ADD DUP2 SWAP1 MSTORE PUSH1 0x24 DUP3 ADD MSTORE PUSH32 0x4F776E61626C653A2063616C6C6572206973206E6F7420746865206F776E6572 PUSH1 0x44 DUP3 ADD MSTORE PUSH1 0x64 ADD PUSH2 0x561 JUMP JUMPDEST PUSH1 0x3 DUP1 SLOAD PUSH1 0x1 PUSH1 0x1 PUSH1 0xA0 SHL SUB DUP4 DUP2 AND PUSH1 0x1 PUSH1 0x1 PUSH1 0xA0 SHL SUB NOT DUP4 AND DUP2 OR SWAP1 SWAP4 SSTORE PUSH1 0x40 MLOAD SWAP2 AND SWAP2 SWAP1 DUP3 SWAP1 PUSH32 0x8BE0079C531659141344CD1FD0A4F28419497F9722A3DAAFE3B4186F6B6457E0 SWAP1 PUSH1 0x0 SWAP1 LOG3 POP POP JUMP JUMPDEST PUSH1 0xC DUP1 SLOAD PUSH2 0xFF00 NOT AND SWAP1 SSTORE PUSH1 0x40 DUP1 MLOAD PUSH4 0x1E5BC7F PUSH1 0xE5 SHL DUP2 MSTORE SWAP1 MLOAD PUSH1 0x0 SWAP2 ADDRESS SWAP2 PUSH4 0x3CB78FE0 SWAP2 PUSH1 0x4 DUP1 DUP3 ADD SWAP3 PUSH1 0x20 SWAP3 SWAP1 SWAP2 SWAP1 DUP3 SWAP1 SUB ADD DUP2 DUP8 DUP8 DUP1 EXTCODESIZE ISZERO DUP1 ISZERO PUSH2 0x1BC7 JUMPI PUSH1 0x0 DUP1 REVERT JUMPDEST POP GAS CALL ISZERO DUP1 ISZERO PUSH2 0x1BDB JUMPI RETURNDATASIZE PUSH1 0x0 DUP1 RETURNDATACOPY RETURNDATASIZE PUSH1 0x0 REVERT JUMPDEST POP POP POP POP PUSH1 0x40 MLOAD RETURNDATASIZE PUSH1 0x1F NOT PUSH1 0x1F DUP3 ADD AND DUP3 ADD DUP1 PUSH1 0x40 MSTORE POP DUP2 ADD SWAP1 PUSH2 0x1BFF SWAP2 SWAP1 PUSH2 0x2AB1 JUMP JUMPDEST PUSH2 0x1C0B JUMPI PUSH2 0x1C0B PUSH2 0x2A82 JUMP JUMPDEST PUSH1 0x40 MLOAD PUSH32 0x156D027F9D371E1464249DBD8DAACDCE9FA6F2A0D9FDA528482A22C1583B0EA6 SWAP1 PUSH1 0x0 SWAP1 LOG1 POP PUSH1 0x1 SWAP1 JUMP JUMPDEST PUSH1 0xC DUP1 SLOAD PUSH2 0xFF00 NOT AND PUSH2 0x100 OR SWAP1 SSTORE PUSH1 0x40 DUP1 MLOAD PUSH4 0x2EFFF413 PUSH1 0xE2 SHL DUP2 MSTORE SWAP1 MLOAD PUSH1 0x0 SWAP2 ADDRESS SWAP2 PUSH4 0xBBFFD04C SWAP2 PUSH1 0x4 DUP1 DUP3 ADD SWAP3 PUSH1 0x20 SWAP3 SWAP1 SWAP2 SWAP1 DUP3 SWAP1 SUB ADD DUP2 DUP8 DUP8 DUP1 EXTCODESIZE ISZERO DUP1 ISZERO PUSH2 0x1C85 JUMPI PUSH1 0x0 DUP1 REVERT JUMPDEST POP GAS CALL ISZERO DUP1 ISZERO PUSH2 0x1C99 JUMPI RETURNDATASIZE PUSH1 0x0 DUP1 RETURNDATACOPY RETURNDATASIZE PUSH1 0x0 REVERT JUMPDEST POP POP POP POP PUSH1 0x40 MLOAD RETURNDATASIZE PUSH1 0x1F NOT PUSH1 0x1F DUP3 ADD AND DUP3 ADD DUP1 PUSH1 0x40 MSTORE POP DUP2 ADD SWAP1 PUSH2 0x1CBD SWAP2 SWAP1 PUSH2 0x2AB1 JUMP JUMPDEST PUSH2 0x1CC9 JUMPI PUSH2 0x1CC9 PUSH2 0x2A82 JUMP JUMPDEST PUSH1 0x40 MLOAD PUSH32 0xA5BAF151492801D3B7A89ECE73C1ED0B6DDE992D47A0E283FF7D352BBA70E0F5 SWAP1 PUSH1 0x0 SWAP1 LOG1 POP PUSH1 0x1 SWAP1 JUMP JUMPDEST PUSH1 0x1 PUSH1 0x1 PUSH1 0xA0 SHL SUB DUP5 AND PUSH2 0x1D58 JUMPI PUSH1 0x40 MLOAD PUSH3 0x461BCD PUSH1 0xE5 SHL DUP2 MSTORE PUSH1 0x20 PUSH1 0x4 DUP3 ADD MSTORE PUSH1 0x21 PUSH1 0x24 DUP3 ADD MSTORE PUSH32 0x455243313135353A206D696E7420746F20746865207A65726F20616464726573 PUSH1 0x44 DUP3 ADD MSTORE PUSH1 0x73 PUSH1 0xF8 SHL PUSH1 0x64 DUP3 ADD MSTORE PUSH1 0x84 ADD PUSH2 0x561 JUMP JUMPDEST CALLER PUSH1 0x0 PUSH2 0x1D64 DUP6 PUSH2 0x22FE JUMP JUMPDEST SWAP1 POP PUSH1 0x0 PUSH2 0x1D71 DUP6 PUSH2 0x22FE JUMP JUMPDEST SWAP1 POP PUSH1 0x0 DUP7 DUP2 MSTORE PUSH1 0x20 DUP2 DUP2 MSTORE PUSH1 0x40 DUP1 DUP4 KECCAK256 PUSH1 0x1 PUSH1 0x1 PUSH1 0xA0 SHL SUB DUP12 AND DUP5 MSTORE SWAP1 SWAP2 MSTORE DUP2 KECCAK256 DUP1 SLOAD DUP8 SWAP3 SWAP1 PUSH2 0x1DA3 SWAP1 DUP5 SWAP1 PUSH2 0x2C07 JUMP JUMPDEST SWAP1 SWAP2 SSTORE POP POP PUSH1 0x40 DUP1 MLOAD DUP8 DUP2 MSTORE PUSH1 0x20 DUP2 ADD DUP8 SWAP1 MSTORE PUSH1 0x1 PUSH1 0x1 PUSH1 0xA0 SHL SUB DUP1 DUP11 AND SWAP3 PUSH1 0x0 SWAP3 SWAP2 DUP8 AND SWAP2 PUSH32 0xC3D58168C5AE7397731D063D5BBF3D657854427343F4C083240F7AACAA2D0F62 SWAP2 ADD PUSH1 0x40 MLOAD DUP1 SWAP2 SUB SWAP1 LOG4 PUSH2 0x1E03 DUP4 PUSH1 0x0 DUP10 DUP10 DUP10 DUP10 PUSH2 0x2349 JUMP JUMPDEST POP POP POP POP POP POP POP JUMP JUMPDEST DUP2 PUSH1 0x1 PUSH1 0x1 PUSH1 0xA0 SHL SUB AND DUP4 PUSH1 0x1 PUSH1 0x1 PUSH1 0xA0 SHL SUB AND EQ ISZERO PUSH2 0x1E80 JUMPI PUSH1 0x40 MLOAD PUSH3 0x461BCD PUSH1 0xE5 SHL DUP2 MSTORE PUSH1 0x20 PUSH1 0x4 DUP3 ADD MSTORE PUSH1 0x29 PUSH1 0x24 DUP3 ADD MSTORE PUSH32 0x455243313135353A2073657474696E6720617070726F76616C20737461747573 PUSH1 0x44 DUP3 ADD MSTORE PUSH9 0x103337B91039B2B633 PUSH1 0xB9 SHL PUSH1 0x64 DUP3 ADD MSTORE PUSH1 0x84 ADD PUSH2 0x561 JUMP JUMPDEST PUSH1 0x1 PUSH1 0x1 PUSH1 0xA0 SHL SUB DUP4 DUP2 AND PUSH1 0x0 DUP2 DUP2 MSTORE PUSH1 0x1 PUSH1 0x20 SWAP1 DUP2 MSTORE PUSH1 0x40 DUP1 DUP4 KECCAK256 SWAP5 DUP8 AND DUP1 DUP5 MSTORE SWAP5 DUP3 MSTORE SWAP2 DUP3 SWAP1 KECCAK256 DUP1 SLOAD PUSH1 0xFF NOT AND DUP7 ISZERO ISZERO SWAP1 DUP2 OR SWAP1 SWAP2 SSTORE SWAP2 MLOAD SWAP2 DUP3 MSTORE PUSH32 0x17307EAB39AB6107E8899845AD3D59BD9653F200F220920489CA2B5937696C31 SWAP2 ADD PUSH1 0x40 MLOAD DUP1 SWAP2 SUB SWAP1 LOG3 POP POP POP JUMP JUMPDEST PUSH1 0x1 PUSH1 0x1 PUSH1 0xA0 SHL SUB DUP4 AND PUSH2 0x1F4F JUMPI PUSH1 0x40 MLOAD PUSH3 0x461BCD PUSH1 0xE5 SHL DUP2 MSTORE PUSH1 0x20 PUSH1 0x4 DUP3 ADD MSTORE PUSH1 0x23 PUSH1 0x24 DUP3 ADD MSTORE PUSH32 0x455243313135353A206275726E2066726F6D20746865207A65726F2061646472 PUSH1 0x44 DUP3 ADD MSTORE PUSH3 0x657373 PUSH1 0xE8 SHL PUSH1 0x64 DUP3 ADD MSTORE PUSH1 0x84 ADD PUSH2 0x561 JUMP JUMPDEST CALLER PUSH1 0x0 PUSH2 0x1F5B DUP5 PUSH2 0x22FE JUMP JUMPDEST SWAP1 POP PUSH1 0x0 PUSH2 0x1F68 DUP5 PUSH2 0x22FE JUMP JUMPDEST PUSH1 0x40 DUP1 MLOAD PUSH1 0x20 DUP1 DUP3 ADD DUP4 MSTORE PUSH1 0x0 SWAP2 DUP3 SWAP1 MSTORE DUP9 DUP3 MSTORE DUP2 DUP2 MSTORE DUP3 DUP3 KECCAK256 PUSH1 0x1 PUSH1 0x1 PUSH1 0xA0 SHL SUB DUP12 AND DUP4 MSTORE SWAP1 MSTORE KECCAK256 SLOAD SWAP1 SWAP2 POP DUP5 DUP2 LT ISZERO PUSH2 0x1FF1 JUMPI PUSH1 0x40 MLOAD PUSH3 0x461BCD PUSH1 0xE5 SHL DUP2 MSTORE PUSH1 0x20 PUSH1 0x4 DUP3 ADD MSTORE PUSH1 0x24 DUP1 DUP3 ADD MSTORE PUSH32 0x455243313135353A206275726E20616D6F756E7420657863656564732062616C PUSH1 0x44 DUP3 ADD MSTORE PUSH4 0x616E6365 PUSH1 0xE0 SHL PUSH1 0x64 DUP3 ADD MSTORE PUSH1 0x84 ADD PUSH2 0x561 JUMP JUMPDEST PUSH1 0x0 DUP7 DUP2 MSTORE PUSH1 0x20 DUP2 DUP2 MSTORE PUSH1 0x40 DUP1 DUP4 KECCAK256 PUSH1 0x1 PUSH1 0x1 PUSH1 0xA0 SHL SUB DUP12 DUP2 AND DUP1 DUP7 MSTORE SWAP2 DUP5 MSTORE DUP3 DUP6 KECCAK256 DUP11 DUP8 SUB SWAP1 SSTORE DUP3 MLOAD DUP12 DUP2 MSTORE SWAP4 DUP5 ADD DUP11 SWAP1 MSTORE SWAP1 SWAP3 SWAP1 DUP9 AND SWAP2 PUSH32 0xC3D58168C5AE7397731D063D5BBF3D657854427343F4C083240F7AACAA2D0F62 SWAP2 ADD PUSH1 0x40 MLOAD DUP1 SWAP2 SUB SWAP1 LOG4 PUSH1 0x40 DUP1 MLOAD PUSH1 0x20 DUP2 ADD SWAP1 SWAP2 MSTORE PUSH1 0x0 SWAP1 MSTORE PUSH2 0x1E03 JUMP JUMPDEST PUSH1 0x1 PUSH1 0x1 PUSH1 0xA0 SHL SUB DUP5 AND PUSH2 0x208F JUMPI PUSH1 0x40 MLOAD PUSH3 0x461BCD PUSH1 0xE5 SHL DUP2 MSTORE PUSH1 0x4 ADD PUSH2 0x561 SWAP1 PUSH2 0x2C60 JUMP JUMPDEST CALLER PUSH1 0x0 PUSH2 0x209B DUP6 PUSH2 0x22FE JUMP JUMPDEST SWAP1 POP PUSH1 0x0 PUSH2 0x20A8 DUP6 PUSH2 0x22FE JUMP JUMPDEST SWAP1 POP PUSH1 0x0 DUP7 DUP2 MSTORE PUSH1 0x20 DUP2 DUP2 MSTORE PUSH1 0x40 DUP1 DUP4 KECCAK256 PUSH1 0x1 PUSH1 0x1 PUSH1 0xA0 SHL SUB DUP13 AND DUP5 MSTORE SWAP1 SWAP2 MSTORE SWAP1 KECCAK256 SLOAD DUP6 DUP2 LT ISZERO PUSH2 0x20EB JUMPI PUSH1 0x40 MLOAD PUSH3 0x461BCD PUSH1 0xE5 SHL DUP2 MSTORE PUSH1 0x4 ADD PUSH2 0x561 SWAP1 PUSH2 0x2CA5 JUMP JUMPDEST PUSH1 0x0 DUP8 DUP2 MSTORE PUSH1 0x20 DUP2 DUP2 MSTORE PUSH1 0x40 DUP1 DUP4 KECCAK256 PUSH1 0x1 PUSH1 0x1 PUSH1 0xA0 SHL SUB DUP14 DUP2 AND DUP6 MSTORE SWAP3 MSTORE DUP1 DUP4 KECCAK256 DUP10 DUP6 SUB SWAP1 SSTORE SWAP1 DUP11 AND DUP3 MSTORE DUP2 KECCAK256 DUP1 SLOAD DUP9 SWAP3 SWAP1 PUSH2 0x2128 SWAP1 DUP5 SWAP1 PUSH2 0x2C07 JUMP JUMPDEST SWAP1 SWAP2 SSTORE POP POP PUSH1 0x40 DUP1 MLOAD DUP9 DUP2 MSTORE PUSH1 0x20 DUP2 ADD DUP9 SWAP1 MSTORE PUSH1 0x1 PUSH1 0x1 PUSH1 0xA0 SHL SUB DUP1 DUP12 AND SWAP3 DUP13 DUP3 AND SWAP3 SWAP2 DUP9 AND SWAP2 PUSH32 0xC3D58168C5AE7397731D063D5BBF3D657854427343F4C083240F7AACAA2D0F62 SWAP2 ADD PUSH1 0x40 MLOAD DUP1 SWAP2 SUB SWAP1 LOG4 PUSH2 0x2188 DUP5 DUP11 DUP11 DUP11 DUP11 DUP11 PUSH2 0x2349 JUMP JUMPDEST POP POP POP POP POP POP POP POP POP JUMP JUMPDEST PUSH1 0x1 PUSH1 0x1 PUSH1 0xA0 SHL SUB DUP5 AND EXTCODESIZE ISZERO PUSH2 0x1ACC JUMPI PUSH1 0x40 MLOAD PUSH4 0xBC197C81 PUSH1 0xE0 SHL DUP2 MSTORE PUSH1 0x1 PUSH1 0x1 PUSH1 0xA0 SHL SUB DUP6 AND SWAP1 PUSH4 0xBC197C81 SWAP1 PUSH2 0x21D7 SWAP1 DUP10 SWAP1 DUP10 SWAP1 DUP9 SWAP1 DUP9 SWAP1 DUP9 SWAP1 PUSH1 0x4 ADD PUSH2 0x2D1D JUMP JUMPDEST PUSH1 0x20 PUSH1 0x40 MLOAD DUP1 DUP4 SUB DUP2 PUSH1 0x0 DUP8 DUP1 EXTCODESIZE ISZERO DUP1 ISZERO PUSH2 0x21F1 JUMPI PUSH1 0x0 DUP1 REVERT JUMPDEST POP GAS CALL SWAP3 POP POP POP DUP1 ISZERO PUSH2 0x2221 JUMPI POP PUSH1 0x40 DUP1 MLOAD PUSH1 0x1F RETURNDATASIZE SWAP1 DUP2 ADD PUSH1 0x1F NOT AND DUP3 ADD SWAP1 SWAP3 MSTORE PUSH2 0x221E SWAP2 DUP2 ADD SWAP1 PUSH2 0x2D7B JUMP JUMPDEST PUSH1 0x1 JUMPDEST PUSH2 0x22CE JUMPI PUSH2 0x222D PUSH2 0x2D98 JUMP JUMPDEST DUP1 PUSH4 0x8C379A0 EQ ISZERO PUSH2 0x2267 JUMPI POP PUSH2 0x2242 PUSH2 0x2DB3 JUMP JUMPDEST DUP1 PUSH2 0x224D JUMPI POP PUSH2 0x2269 JUMP JUMPDEST DUP1 PUSH1 0x40 MLOAD PUSH3 0x461BCD PUSH1 0xE5 SHL DUP2 MSTORE PUSH1 0x4 ADD PUSH2 0x561 SWAP2 SWAP1 PUSH2 0x24ED JUMP JUMPDEST POP JUMPDEST PUSH1 0x40 MLOAD PUSH3 0x461BCD PUSH1 0xE5 SHL DUP2 MSTORE PUSH1 0x20 PUSH1 0x4 DUP3 ADD MSTORE PUSH1 0x34 PUSH1 0x24 DUP3 ADD MSTORE PUSH32 0x455243313135353A207472616E7366657220746F206E6F6E2D45524331313535 PUSH1 0x44 DUP3 ADD MSTORE PUSH20 0x2932B1B2B4BB32B91034B6B83632B6B2B73A32B9 PUSH1 0x61 SHL PUSH1 0x64 DUP3 ADD MSTORE PUSH1 0x84 ADD PUSH2 0x561 JUMP JUMPDEST PUSH1 0x1 PUSH1 0x1 PUSH1 0xE0 SHL SUB NOT DUP2 AND PUSH4 0xBC197C81 PUSH1 0xE0 SHL EQ PUSH2 0x1E03 JUMPI PUSH1 0x40 MLOAD PUSH3 0x461BCD PUSH1 0xE5 SHL DUP2 MSTORE PUSH1 0x4 ADD PUSH2 0x561 SWAP1 PUSH2 0x2E3D JUMP JUMPDEST PUSH1 0x40 DUP1 MLOAD PUSH1 0x1 DUP1 DUP3 MSTORE DUP2 DUP4 ADD SWAP1 SWAP3 MSTORE PUSH1 0x60 SWAP2 PUSH1 0x0 SWAP2 SWAP1 PUSH1 0x20 DUP1 DUP4 ADD SWAP1 DUP1 CALLDATASIZE DUP4 CALLDATACOPY ADD SWAP1 POP POP SWAP1 POP DUP3 DUP2 PUSH1 0x0 DUP2 MLOAD DUP2 LT PUSH2 0x2338 JUMPI PUSH2 0x2338 PUSH2 0x2ACE JUMP JUMPDEST PUSH1 0x20 SWAP1 DUP2 MUL SWAP2 SWAP1 SWAP2 ADD ADD MSTORE SWAP3 SWAP2 POP POP JUMP JUMPDEST PUSH1 0x1 PUSH1 0x1 PUSH1 0xA0 SHL SUB DUP5 AND EXTCODESIZE ISZERO PUSH2 0x1ACC JUMPI PUSH1 0x40 MLOAD PUSH4 0xF23A6E61 PUSH1 0xE0 SHL DUP2 MSTORE PUSH1 0x1 PUSH1 0x1 PUSH1 0xA0 SHL SUB DUP6 AND SWAP1 PUSH4 0xF23A6E61 SWAP1 PUSH2 0x238D SWAP1 DUP10 SWAP1 DUP10 SWAP1 DUP9 SWAP1 DUP9 SWAP1 DUP9 SWAP1 PUSH1 0x4 ADD PUSH2 0x2E85 JUMP JUMPDEST PUSH1 0x20 PUSH1 0x40 MLOAD DUP1 DUP4 SUB DUP2 PUSH1 0x0 DUP8 DUP1 EXTCODESIZE ISZERO DUP1 ISZERO PUSH2 0x23A7 JUMPI PUSH1 0x0 DUP1 REVERT JUMPDEST POP GAS CALL SWAP3 POP POP POP DUP1 ISZERO PUSH2 0x23D7 JUMPI POP PUSH1 0x40 DUP1 MLOAD PUSH1 0x1F RETURNDATASIZE SWAP1 DUP2 ADD PUSH1 0x1F NOT AND DUP3 ADD SWAP1 SWAP3 MSTORE PUSH2 0x23D4 SWAP2 DUP2 ADD SWAP1 PUSH2 0x2D7B JUMP JUMPDEST PUSH1 0x1 JUMPDEST PUSH2 0x23E3 JUMPI PUSH2 0x222D PUSH2 0x2D98 JUMP JUMPDEST PUSH1 0x1 PUSH1 0x1 PUSH1 0xE0 SHL SUB NOT DUP2 AND PUSH4 0xF23A6E61 PUSH1 0xE0 SHL EQ PUSH2 0x1E03 JUMPI PUSH1 0x40 MLOAD PUSH3 0x461BCD PUSH1 0xE5 SHL DUP2 MSTORE PUSH1 0x4 ADD PUSH2 0x561 SWAP1 PUSH2 0x2E3D JUMP JUMPDEST PUSH1 0x1 PUSH1 0x1 PUSH1 0xA0 SHL SUB DUP2 AND DUP2 EQ PUSH2 0x17BE JUMPI PUSH1 0x0 DUP1 REVERT JUMPDEST PUSH1 0x0 DUP1 PUSH1 0x40 DUP4 DUP6 SUB SLT ISZERO PUSH2 0x243B JUMPI PUSH1 0x0 DUP1 REVERT JUMPDEST DUP3 CALLDATALOAD PUSH2 0x2446 DUP2 PUSH2 0x2413 JUMP JUMPDEST SWAP5 PUSH1 0x20 SWAP4 SWAP1 SWAP4 ADD CALLDATALOAD SWAP4 POP POP POP JUMP JUMPDEST PUSH1 0x1 PUSH1 0x1 PUSH1 0xE0 SHL SUB NOT DUP2 AND DUP2 EQ PUSH2 0x17BE JUMPI PUSH1 0x0 DUP1 REVERT JUMPDEST PUSH1 0x0 PUSH1 0x20 DUP3 DUP5 SUB SLT ISZERO PUSH2 0x247C JUMPI PUSH1 0x0 DUP1 REVERT JUMPDEST DUP2 CALLDATALOAD PUSH2 0xFEB DUP2 PUSH2 0x2454 JUMP JUMPDEST PUSH1 0x0 PUSH1 0x20 DUP3 DUP5 SUB SLT ISZERO PUSH2 0x2499 JUMPI PUSH1 0x0 DUP1 REVERT JUMPDEST POP CALLDATALOAD SWAP2 SWAP1 POP JUMP JUMPDEST PUSH1 0x0 DUP2 MLOAD DUP1 DUP5 MSTORE PUSH1 0x0 JUMPDEST DUP2 DUP2 LT ISZERO PUSH2 0x24C6 JUMPI PUSH1 0x20 DUP2 DUP6 ADD DUP2 ADD MLOAD DUP7 DUP4 ADD DUP3 ADD MSTORE ADD PUSH2 0x24AA JUMP JUMPDEST DUP2 DUP2 GT ISZERO PUSH2 0x24D8 JUMPI PUSH1 0x0 PUSH1 0x20 DUP4 DUP8 ADD ADD MSTORE JUMPDEST POP PUSH1 0x1F ADD PUSH1 0x1F NOT AND SWAP3 SWAP1 SWAP3 ADD PUSH1 0x20 ADD SWAP3 SWAP2 POP POP JUMP JUMPDEST PUSH1 0x20 DUP2 MSTORE PUSH1 0x0 PUSH2 0xFEB PUSH1 0x20 DUP4 ADD DUP5 PUSH2 0x24A0 JUMP JUMPDEST DUP1 ISZERO ISZERO DUP2 EQ PUSH2 0x17BE JUMPI PUSH1 0x0 DUP1 REVERT JUMPDEST PUSH1 0x0 DUP1 PUSH1 0x0 PUSH1 0x60 DUP5 DUP7 SUB SLT ISZERO PUSH2 0x2523 JUMPI PUSH1 0x0 DUP1 REVERT JUMPDEST DUP4 CALLDATALOAD PUSH2 0x252E DUP2 PUSH2 0x2413 JUMP JUMPDEST SWAP3 POP PUSH1 0x20 DUP5 ADD CALLDATALOAD SWAP2 POP PUSH1 0x40 DUP5 ADD CALLDATALOAD PUSH2 0x2545 DUP2 PUSH2 0x2500 JUMP JUMPDEST DUP1 SWAP2 POP POP SWAP3 POP SWAP3 POP SWAP3 JUMP JUMPDEST PUSH4 0x4E487B71 PUSH1 0xE0 SHL PUSH1 0x0 MSTORE PUSH1 0x41 PUSH1 0x4 MSTORE PUSH1 0x24 PUSH1 0x0 REVERT JUMPDEST PUSH1 0x1F DUP3 ADD PUSH1 0x1F NOT AND DUP2 ADD PUSH8 0xFFFFFFFFFFFFFFFF DUP2 GT DUP3 DUP3 LT OR ISZERO PUSH2 0x258C JUMPI PUSH2 0x258C PUSH2 0x2550 JUMP JUMPDEST PUSH1 0x40 MSTORE POP POP JUMP JUMPDEST PUSH1 0x0 PUSH8 0xFFFFFFFFFFFFFFFF DUP3 GT ISZERO PUSH2 0x25AD JUMPI PUSH2 0x25AD PUSH2 0x2550 JUMP JUMPDEST POP PUSH1 0x5 SHL PUSH1 0x20 ADD SWAP1 JUMP JUMPDEST PUSH1 0x0 DUP3 PUSH1 0x1F DUP4 ADD SLT PUSH2 0x25C8 JUMPI PUSH1 0x0 DUP1 REVERT JUMPDEST DUP2 CALLDATALOAD PUSH1 0x20 PUSH2 0x25D5 DUP3 PUSH2 0x2593 JUMP JUMPDEST PUSH1 0x40 MLOAD PUSH2 0x25E2 DUP3 DUP3 PUSH2 0x2566 JUMP JUMPDEST DUP4 DUP2 MSTORE PUSH1 0x5 SWAP4 SWAP1 SWAP4 SHL DUP6 ADD DUP3 ADD SWAP3 DUP3 DUP2 ADD SWAP2 POP DUP7 DUP5 GT ISZERO PUSH2 0x2602 JUMPI PUSH1 0x0 DUP1 REVERT JUMPDEST DUP3 DUP7 ADD JUMPDEST DUP5 DUP2 LT ISZERO PUSH2 0x261D JUMPI DUP1 CALLDATALOAD DUP4 MSTORE SWAP2 DUP4 ADD SWAP2 DUP4 ADD PUSH2 0x2606 JUMP JUMPDEST POP SWAP7 SWAP6 POP POP POP POP POP POP JUMP JUMPDEST PUSH1 0x0 DUP3 PUSH1 0x1F DUP4 ADD SLT PUSH2 0x2639 JUMPI PUSH1 0x0 DUP1 REVERT JUMPDEST DUP2 CALLDATALOAD PUSH8 0xFFFFFFFFFFFFFFFF DUP2 GT ISZERO PUSH2 0x2653 JUMPI PUSH2 0x2653 PUSH2 0x2550 JUMP JUMPDEST PUSH1 0x40 MLOAD PUSH2 0x266A PUSH1 0x1F DUP4 ADD PUSH1 0x1F NOT AND PUSH1 0x20 ADD DUP3 PUSH2 0x2566 JUMP JUMPDEST DUP2 DUP2 MSTORE DUP5 PUSH1 0x20 DUP4 DUP7 ADD ADD GT ISZERO PUSH2 0x267F JUMPI PUSH1 0x0 DUP1 REVERT JUMPDEST DUP2 PUSH1 0x20 DUP6 ADD PUSH1 0x20 DUP4 ADD CALLDATACOPY PUSH1 0x0 SWAP2 DUP2 ADD PUSH1 0x20 ADD SWAP2 SWAP1 SWAP2 MSTORE SWAP4 SWAP3 POP POP POP JUMP JUMPDEST PUSH1 0x0 DUP1 PUSH1 0x0 DUP1 PUSH1 0x0 PUSH1 0xA0 DUP7 DUP9 SUB SLT ISZERO PUSH2 0x26B4 JUMPI PUSH1 0x0 DUP1 REVERT JUMPDEST DUP6 CALLDATALOAD PUSH2 0x26BF DUP2 PUSH2 0x2413 JUMP JUMPDEST SWAP5 POP PUSH1 0x20 DUP7 ADD CALLDATALOAD PUSH2 0x26CF DUP2 PUSH2 0x2413 JUMP JUMPDEST SWAP4 POP PUSH1 0x40 DUP7 ADD CALLDATALOAD PUSH8 0xFFFFFFFFFFFFFFFF DUP1 DUP3 GT ISZERO PUSH2 0x26EC JUMPI PUSH1 0x0 DUP1 REVERT JUMPDEST PUSH2 0x26F8 DUP10 DUP4 DUP11 ADD PUSH2 0x25B7 JUMP JUMPDEST SWAP5 POP PUSH1 0x60 DUP9 ADD CALLDATALOAD SWAP2 POP DUP1 DUP3 GT ISZERO PUSH2 0x270E JUMPI PUSH1 0x0 DUP1 REVERT JUMPDEST PUSH2 0x271A DUP10 DUP4 DUP11 ADD PUSH2 0x25B7 JUMP JUMPDEST SWAP4 POP PUSH1 0x80 DUP9 ADD CALLDATALOAD SWAP2 POP DUP1 DUP3 GT ISZERO PUSH2 0x2730 JUMPI PUSH1 0x0 DUP1 REVERT JUMPDEST POP PUSH2 0x273D DUP9 DUP3 DUP10 ADD PUSH2 0x2628 JUMP JUMPDEST SWAP2 POP POP SWAP3 SWAP6 POP SWAP3 SWAP6 SWAP1 SWAP4 POP JUMP JUMPDEST PUSH1 0x0 PUSH1 0x20 DUP3 DUP5 SUB SLT ISZERO PUSH2 0x275C JUMPI PUSH1 0x0 DUP1 REVERT JUMPDEST DUP2 CALLDATALOAD PUSH2 0xFEB DUP2 PUSH2 0x2413 JUMP JUMPDEST PUSH1 0x0 DUP1 PUSH1 0x40 DUP4 DUP6 SUB SLT ISZERO PUSH2 0x277A JUMPI PUSH1 0x0 DUP1 REVERT JUMPDEST DUP3 CALLDATALOAD PUSH8 0xFFFFFFFFFFFFFFFF DUP1 DUP3 GT ISZERO PUSH2 0x2792 JUMPI PUSH1 0x0 DUP1 REVERT JUMPDEST DUP2 DUP6 ADD SWAP2 POP DUP6 PUSH1 0x1F DUP4 ADD SLT PUSH2 0x27A6 JUMPI PUSH1 0x0 DUP1 REVERT JUMPDEST DUP2 CALLDATALOAD PUSH1 0x20 PUSH2 0x27B3 DUP3 PUSH2 0x2593 JUMP JUMPDEST PUSH1 0x40 MLOAD PUSH2 0x27C0 DUP3 DUP3 PUSH2 0x2566 JUMP JUMPDEST DUP4 DUP2 MSTORE PUSH1 0x5 SWAP4 SWAP1 SWAP4 SHL DUP6 ADD DUP3 ADD SWAP3 DUP3 DUP2 ADD SWAP2 POP DUP10 DUP5 GT ISZERO PUSH2 0x27E0 JUMPI PUSH1 0x0 DUP1 REVERT JUMPDEST SWAP5 DUP3 ADD SWAP5 JUMPDEST DUP4 DUP7 LT ISZERO PUSH2 0x2807 JUMPI DUP6 CALLDATALOAD PUSH2 0x27F8 DUP2 PUSH2 0x2413 JUMP JUMPDEST DUP3 MSTORE SWAP5 DUP3 ADD SWAP5 SWAP1 DUP3 ADD SWAP1 PUSH2 0x27E5 JUMP JUMPDEST SWAP7 POP POP DUP7 ADD CALLDATALOAD SWAP3 POP POP DUP1 DUP3 GT ISZERO PUSH2 0x281D JUMPI PUSH1 0x0 DUP1 REVERT JUMPDEST POP PUSH2 0x282A DUP6 DUP3 DUP7 ADD PUSH2 0x25B7 JUMP JUMPDEST SWAP2 POP POP SWAP3 POP SWAP3 SWAP1 POP JUMP JUMPDEST PUSH1 0x0 DUP2 MLOAD DUP1 DUP5 MSTORE PUSH1 0x20 DUP1 DUP6 ADD SWAP5 POP DUP1 DUP5 ADD PUSH1 0x0 JUMPDEST DUP4 DUP2 LT ISZERO PUSH2 0x2864 JUMPI DUP2 MLOAD DUP8 MSTORE SWAP6 DUP3 ADD SWAP6 SWAP1 DUP3 ADD SWAP1 PUSH1 0x1 ADD PUSH2 0x2848 JUMP JUMPDEST POP SWAP5 SWAP6 SWAP5 POP POP POP POP POP JUMP JUMPDEST PUSH1 0x20 DUP2 MSTORE PUSH1 0x0 PUSH2 0xFEB PUSH1 0x20 DUP4 ADD DUP5 PUSH2 0x2834 JUMP JUMPDEST PUSH1 0x20 DUP1 DUP3 MSTORE DUP3 MLOAD DUP3 DUP3 ADD DUP2 SWAP1 MSTORE PUSH1 0x0 SWAP2 SWAP1 DUP5 DUP3 ADD SWAP1 PUSH1 0x40 DUP6 ADD SWAP1 DUP5 JUMPDEST DUP2 DUP2 LT ISZERO PUSH2 0x28C3 JUMPI DUP4 MLOAD PUSH1 0x1 PUSH1 0x1 PUSH1 0xA0 SHL SUB AND DUP4 MSTORE SWAP3 DUP5 ADD SWAP3 SWAP2 DUP5 ADD SWAP2 PUSH1 0x1 ADD PUSH2 0x289E JUMP JUMPDEST POP SWAP1 SWAP7 SWAP6 POP POP POP POP POP POP JUMP JUMPDEST PUSH1 0x0 DUP1 PUSH1 0x40 DUP4 DUP6 SUB SLT ISZERO PUSH2 0x28E2 JUMPI PUSH1 0x0 DUP1 REVERT JUMPDEST POP POP DUP1 CALLDATALOAD SWAP3 PUSH1 0x20 SWAP1 SWAP2 ADD CALLDATALOAD SWAP2 POP JUMP JUMPDEST PUSH1 0x0 DUP1 PUSH1 0x0 PUSH1 0x60 DUP5 DUP7 SUB SLT ISZERO PUSH2 0x2906 JUMPI PUSH1 0x0 DUP1 REVERT JUMPDEST DUP4 CALLDATALOAD PUSH2 0x2911 DUP2 PUSH2 0x2413 JUMP JUMPDEST SWAP3 POP PUSH1 0x20 DUP5 ADD CALLDATALOAD PUSH2 0x2921 DUP2 PUSH2 0x2413 JUMP JUMPDEST SWAP3 SWAP6 SWAP3 SWAP5 POP POP POP PUSH1 0x40 SWAP2 SWAP1 SWAP2 ADD CALLDATALOAD SWAP1 JUMP JUMPDEST PUSH1 0x0 DUP1 PUSH1 0x40 DUP4 DUP6 SUB SLT ISZERO PUSH2 0x2945 JUMPI PUSH1 0x0 DUP1 REVERT JUMPDEST DUP3 CALLDATALOAD PUSH2 0x2950 DUP2 PUSH2 0x2413 JUMP JUMPDEST SWAP2 POP PUSH1 0x20 DUP4 ADD CALLDATALOAD PUSH2 0x2960 DUP2 PUSH2 0x2500 JUMP JUMPDEST DUP1 SWAP2 POP POP SWAP3 POP SWAP3 SWAP1 POP JUMP JUMPDEST PUSH1 0x0 DUP1 PUSH1 0x40 DUP4 DUP6 SUB SLT ISZERO PUSH2 0x297E JUMPI PUSH1 0x0 DUP1 REVERT JUMPDEST DUP3 CALLDATALOAD PUSH2 0x2989 DUP2 PUSH2 0x2413 JUMP JUMPDEST SWAP2 POP PUSH1 0x20 DUP4 ADD CALLDATALOAD PUSH2 0x2960 DUP2 PUSH2 0x2413 JUMP JUMPDEST PUSH1 0x0 DUP1 PUSH1 0x0 DUP1 PUSH1 0x0 PUSH1 0xA0 DUP7 DUP9 SUB SLT ISZERO PUSH2 0x29B1 JUMPI PUSH1 0x0 DUP1 REVERT JUMPDEST DUP6 CALLDATALOAD PUSH2 0x29BC DUP2 PUSH2 0x2413 JUMP JUMPDEST SWAP5 POP PUSH1 0x20 DUP7 ADD CALLDATALOAD PUSH2 0x29CC DUP2 PUSH2 0x2413 JUMP JUMPDEST SWAP4 POP PUSH1 0x40 DUP7 ADD CALLDATALOAD SWAP3 POP PUSH1 0x60 DUP7 ADD CALLDATALOAD SWAP2 POP PUSH1 0x80 DUP7 ADD CALLDATALOAD PUSH8 0xFFFFFFFFFFFFFFFF DUP2 GT ISZERO PUSH2 0x29F6 JUMPI PUSH1 0x0 DUP1 REVERT JUMPDEST PUSH2 0x273D DUP9 DUP3 DUP10 ADD PUSH2 0x2628 JUMP JUMPDEST PUSH1 0x1 DUP2 DUP2 SHR SWAP1 DUP3 AND DUP1 PUSH2 0x2A16 JUMPI PUSH1 0x7F DUP3 AND SWAP2 POP JUMPDEST PUSH1 0x20 DUP3 LT DUP2 EQ ISZERO PUSH2 0x2A37 JUMPI PUSH4 0x4E487B71 PUSH1 0xE0 SHL PUSH1 0x0 MSTORE PUSH1 0x22 PUSH1 0x4 MSTORE PUSH1 0x24 PUSH1 0x0 REVERT JUMPDEST POP SWAP2 SWAP1 POP JUMP JUMPDEST PUSH1 0x20 DUP1 DUP3 MSTORE PUSH1 0x25 SWAP1 DUP3 ADD MSTORE PUSH32 0x4F6E6C7920636F6E74726F6C6C65722063616E2072756E20746869732066756E PUSH1 0x40 DUP3 ADD MSTORE PUSH5 0x31BA34B7B7 PUSH1 0xD9 SHL PUSH1 0x60 DUP3 ADD MSTORE PUSH1 0x80 ADD SWAP1 JUMP JUMPDEST PUSH4 0x4E487B71 PUSH1 0xE0 SHL PUSH1 0x0 MSTORE PUSH1 0x1 PUSH1 0x4 MSTORE PUSH1 0x24 PUSH1 0x0 REVERT JUMPDEST PUSH1 0x0 PUSH1 0x20 DUP3 DUP5 SUB SLT ISZERO PUSH2 0x2AAA JUMPI PUSH1 0x0 DUP1 REVERT JUMPDEST POP MLOAD SWAP2 SWAP1 POP JUMP JUMPDEST PUSH1 0x0 PUSH1 0x20 DUP3 DUP5 SUB SLT ISZERO PUSH2 0x2AC3 JUMPI PUSH1 0x0 DUP1 REVERT JUMPDEST DUP2 MLOAD PUSH2 0xFEB DUP2 PUSH2 0x2500 JUMP JUMPDEST PUSH4 0x4E487B71 PUSH1 0xE0 SHL PUSH1 0x0 MSTORE PUSH1 0x32 PUSH1 0x4 MSTORE PUSH1 0x24 PUSH1 0x0 REVERT JUMPDEST PUSH4 0x4E487B71 PUSH1 0xE0 SHL PUSH1 0x0 MSTORE PUSH1 0x11 PUSH1 0x4 MSTORE PUSH1 0x24 PUSH1 0x0 REVERT JUMPDEST PUSH1 0x0 PUSH1 0x0 NOT DUP3 EQ ISZERO PUSH2 0x2B0E JUMPI PUSH2 0x2B0E PUSH2 0x2AE4 JUMP JUMPDEST POP PUSH1 0x1 ADD SWAP1 JUMP JUMPDEST PUSH1 0x20 DUP1 DUP3 MSTORE PUSH1 0x2E SWAP1 DUP3 ADD MSTORE PUSH32 0x455243313135353A2063616C6C6572206973206E6F7420746F6B656E206F776E PUSH1 0x40 DUP3 ADD MSTORE PUSH14 0x195C881BDC88185C1C1C9BDD9959 PUSH1 0x92 SHL PUSH1 0x60 DUP3 ADD MSTORE PUSH1 0x80 ADD SWAP1 JUMP JUMPDEST PUSH1 0x20 DUP1 DUP3 MSTORE PUSH1 0x23 SWAP1 DUP3 ADD MSTORE PUSH32 0x4F6E6C79206F766572736565722063616E2072756E20746869732066756E6374 PUSH1 0x40 DUP3 ADD MSTORE PUSH3 0x34B7B7 PUSH1 0xE9 SHL PUSH1 0x60 DUP3 ADD MSTORE PUSH1 0x80 ADD SWAP1 JUMP JUMPDEST PUSH1 0x0 DUP3 DUP3 LT ISZERO PUSH2 0x2BB8 JUMPI PUSH2 0x2BB8 PUSH2 0x2AE4 JUMP JUMPDEST POP SUB SWAP1 JUMP JUMPDEST PUSH1 0x20 DUP1 DUP3 MSTORE PUSH1 0x2A SWAP1 DUP3 ADD MSTORE PUSH32 0x4F6E6C79206163746976652070726F6A6563742063616E2072756E2074686973 PUSH1 0x40 DUP3 ADD MSTORE PUSH10 0x10333AB731BA34B7B717 PUSH1 0xB1 SHL PUSH1 0x60 DUP3 ADD MSTORE PUSH1 0x80 ADD SWAP1 JUMP JUMPDEST PUSH1 0x0 DUP3 NOT DUP3 GT ISZERO PUSH2 0x2C1A JUMPI PUSH2 0x2C1A PUSH2 0x2AE4 JUMP JUMPDEST POP ADD SWAP1 JUMP JUMPDEST PUSH1 0x0 DUP2 PUSH1 0x0 NOT DIV DUP4 GT DUP3 ISZERO ISZERO AND ISZERO PUSH2 0x2C39 JUMPI PUSH2 0x2C39 PUSH2 0x2AE4 JUMP JUMPDEST POP MUL SWAP1 JUMP JUMPDEST PUSH1 0x0 DUP3 PUSH2 0x2C5B JUMPI PUSH4 0x4E487B71 PUSH1 0xE0 SHL PUSH1 0x0 MSTORE PUSH1 0x12 PUSH1 0x4 MSTORE PUSH1 0x24 PUSH1 0x0 REVERT JUMPDEST POP DIV SWAP1 JUMP JUMPDEST PUSH1 0x20 DUP1 DUP3 MSTORE PUSH1 0x25 SWAP1 DUP3 ADD MSTORE PUSH32 0x455243313135353A207472616E7366657220746F20746865207A65726F206164 PUSH1 0x40 DUP3 ADD MSTORE PUSH5 0x6472657373 PUSH1 0xD8 SHL PUSH1 0x60 DUP3 ADD MSTORE PUSH1 0x80 ADD SWAP1 JUMP JUMPDEST PUSH1 0x20 DUP1 DUP3 MSTORE PUSH1 0x2A SWAP1 DUP3 ADD MSTORE PUSH32 0x455243313135353A20696E73756666696369656E742062616C616E636520666F PUSH1 0x40 DUP3 ADD MSTORE PUSH10 0x39103A3930B739B332B9 PUSH1 0xB1 SHL PUSH1 0x60 DUP3 ADD MSTORE PUSH1 0x80 ADD SWAP1 JUMP JUMPDEST PUSH1 0x40 DUP2 MSTORE PUSH1 0x0 PUSH2 0x2D02 PUSH1 0x40 DUP4 ADD DUP6 PUSH2 0x2834 JUMP JUMPDEST DUP3 DUP2 SUB PUSH1 0x20 DUP5 ADD MSTORE PUSH2 0x2D14 DUP2 DUP6 PUSH2 0x2834 JUMP JUMPDEST SWAP6 SWAP5 POP POP POP POP POP JUMP JUMPDEST PUSH1 0x1 PUSH1 0x1 PUSH1 0xA0 SHL SUB DUP7 DUP2 AND DUP3 MSTORE DUP6 AND PUSH1 0x20 DUP3 ADD MSTORE PUSH1 0xA0 PUSH1 0x40 DUP3 ADD DUP2 SWAP1 MSTORE PUSH1 0x0 SWAP1 PUSH2 0x2D49 SWAP1 DUP4 ADD DUP7 PUSH2 0x2834 JUMP JUMPDEST DUP3 DUP2 SUB PUSH1 0x60 DUP5 ADD MSTORE PUSH2 0x2D5B DUP2 DUP7 PUSH2 0x2834 JUMP JUMPDEST SWAP1 POP DUP3 DUP2 SUB PUSH1 0x80 DUP5 ADD MSTORE PUSH2 0x2D6F DUP2 DUP6 PUSH2 0x24A0 JUMP JUMPDEST SWAP9 SWAP8 POP POP POP POP POP POP POP POP JUMP JUMPDEST PUSH1 0x0 PUSH1 0x20 DUP3 DUP5 SUB SLT ISZERO PUSH2 0x2D8D JUMPI PUSH1 0x0 DUP1 REVERT JUMPDEST DUP2 MLOAD PUSH2 0xFEB DUP2 PUSH2 0x2454 JUMP JUMPDEST PUSH1 0x0 PUSH1 0x3 RETURNDATASIZE GT ISZERO PUSH2 0xBF0 JUMPI PUSH1 0x4 PUSH1 0x0 DUP1 RETURNDATACOPY POP PUSH1 0x0 MLOAD PUSH1 0xE0 SHR SWAP1 JUMP JUMPDEST PUSH1 0x0 PUSH1 0x44 RETURNDATASIZE LT ISZERO PUSH2 0x2DC1 JUMPI SWAP1 JUMP JUMPDEST PUSH1 0x40 MLOAD PUSH1 0x3 NOT RETURNDATASIZE DUP2 ADD PUSH1 0x4 DUP4 RETURNDATACOPY DUP2 MLOAD RETURNDATASIZE PUSH8 0xFFFFFFFFFFFFFFFF DUP2 PUSH1 0x24 DUP5 ADD GT DUP2 DUP5 GT OR ISZERO PUSH2 0x2DF1 JUMPI POP POP POP POP POP SWAP1 JUMP JUMPDEST DUP3 DUP6 ADD SWAP2 POP DUP2 MLOAD DUP2 DUP2 GT ISZERO PUSH2 0x2E09 JUMPI POP POP POP POP POP POP SWAP1 JUMP JUMPDEST DUP5 RETURNDATASIZE DUP8 ADD ADD PUSH1 0x20 DUP3 DUP6 ADD ADD GT ISZERO PUSH2 0x2E23 JUMPI POP POP POP POP POP POP SWAP1 JUMP JUMPDEST PUSH2 0x2E32 PUSH1 0x20 DUP3 DUP7 ADD ADD DUP8 PUSH2 0x2566 JUMP JUMPDEST POP SWAP1 SWAP6 SWAP5 POP POP POP POP POP JUMP JUMPDEST PUSH1 0x20 DUP1 DUP3 MSTORE PUSH1 0x28 SWAP1 DUP3 ADD MSTORE PUSH32 0x455243313135353A204552433131353552656365697665722072656A65637465 PUSH1 0x40 DUP3 ADD MSTORE PUSH8 0x6420746F6B656E73 PUSH1 0xC0 SHL PUSH1 0x60 DUP3 ADD MSTORE PUSH1 0x80 ADD SWAP1 JUMP JUMPDEST PUSH1 0x1 PUSH1 0x1 PUSH1 0xA0 SHL SUB DUP7 DUP2 AND DUP3 MSTORE DUP6 AND PUSH1 0x20 DUP3 ADD MSTORE PUSH1 0x40 DUP2 ADD DUP5 SWAP1 MSTORE PUSH1 0x60 DUP2 ADD DUP4 SWAP1 MSTORE PUSH1 0xA0 PUSH1 0x80 DUP3 ADD DUP2 SWAP1 MSTORE PUSH1 0x0 SWAP1 PUSH2 0x2EBF SWAP1 DUP4 ADD DUP5 PUSH2 0x24A0 JUMP JUMPDEST SWAP8 SWAP7 POP POP POP POP POP POP POP JUMP INVALID LOG2 PUSH5 0x6970667358 0x22 SLT KECCAK256 0xB6 MLOAD SHR MOD 0x28 0x4A 0xDC EXTCODEHASH OR LOG3 SWAP9 0xC4 PUSH31 0x37EE9F6EFF2D30986EA04FF54EEBE2A25AF33F64736F6C6343000809003360 DUP1 PUSH1 0x40 MSTORE PUSH3 0x93A80 PUSH1 0xD SSTORE PUSH3 0x93A80 PUSH1 0xE SSTORE CALLVALUE DUP1 ISZERO PUSH2 0x1E JUMPI PUSH1 0x0 DUP1 REVERT JUMPDEST POP PUSH1 0x40 MLOAD PUSH2 0x2060 CODESIZE SUB DUP1 PUSH2 0x2060 DUP4 CODECOPY DUP2 ADD PUSH1 0x40 DUP2 SWAP1 MSTORE PUSH2 0x3D SWAP2 PUSH2 0x62 JUMP JUMPDEST PUSH1 0x0 DUP1 SLOAD PUSH1 0x1 PUSH1 0x1 PUSH1 0xA0 SHL SUB NOT AND PUSH1 0x1 PUSH1 0x1 PUSH1 0xA0 SHL SUB SWAP3 SWAP1 SWAP3 AND SWAP2 SWAP1 SWAP2 OR SWAP1 SSTORE PUSH2 0x92 JUMP JUMPDEST PUSH1 0x0 PUSH1 0x20 DUP3 DUP5 SUB SLT ISZERO PUSH2 0x74 JUMPI PUSH1 0x0 DUP1 REVERT JUMPDEST DUP2 MLOAD PUSH1 0x1 PUSH1 0x1 PUSH1 0xA0 SHL SUB DUP2 AND DUP2 EQ PUSH2 0x8B JUMPI PUSH1 0x0 DUP1 REVERT JUMPDEST SWAP4 SWAP3 POP POP POP JUMP JUMPDEST PUSH2 0x1FBF DUP1 PUSH2 0xA1 PUSH1 0x0 CODECOPY PUSH1 0x0 RETURN INVALID PUSH1 0x80 PUSH1 0x40 MSTORE CALLVALUE DUP1 ISZERO PUSH2 0x10 JUMPI PUSH1 0x0 DUP1 REVERT JUMPDEST POP PUSH1 0x4 CALLDATASIZE LT PUSH2 0x142 JUMPI PUSH1 0x0 CALLDATALOAD PUSH1 0xE0 SHR DUP1 PUSH4 0xBC197C81 GT PUSH2 0xB8 JUMPI DUP1 PUSH4 0xD978FFBA GT PUSH2 0x7C JUMPI DUP1 PUSH4 0xD978FFBA EQ PUSH2 0x316 JUMPI DUP1 PUSH4 0xE2FF2D43 EQ PUSH2 0x339 JUMPI DUP1 PUSH4 0xF23A6E61 EQ PUSH2 0x34C JUMPI DUP1 PUSH4 0xF4970E71 EQ PUSH2 0x36B JUMPI DUP1 PUSH4 0xF8AA3CEA EQ PUSH2 0x37E JUMPI DUP1 PUSH4 0xFE0D94C1 EQ PUSH2 0x3BE JUMPI PUSH1 0x0 DUP1 REVERT JUMPDEST DUP1 PUSH4 0xBC197C81 EQ PUSH2 0x27C JUMPI DUP1 PUSH4 0xC9D27AFE EQ PUSH2 0x2B4 JUMPI DUP1 PUSH4 0xCB05683A EQ PUSH2 0x2C7 JUMPI DUP1 PUSH4 0xD04E62D1 EQ PUSH2 0x2F0 JUMPI DUP1 PUSH4 0xD186C217 EQ PUSH2 0x303 JUMPI PUSH1 0x0 DUP1 REVERT JUMPDEST DUP1 PUSH4 0x35F23E27 GT PUSH2 0x10A JUMPI DUP1 PUSH4 0x35F23E27 EQ PUSH2 0x1F0 JUMPI DUP1 PUSH4 0x41AD7E1D EQ PUSH2 0x203 JUMPI DUP1 PUSH4 0x5D250F96 EQ PUSH2 0x223 JUMPI DUP1 PUSH4 0x765ADD80 EQ PUSH2 0x236 JUMPI DUP1 PUSH4 0x8F363200 EQ PUSH2 0x249 JUMPI DUP1 PUSH4 0x9B5B9B18 EQ PUSH2 0x269 JUMPI PUSH1 0x0 DUP1 REVERT JUMPDEST DUP1 PUSH4 0x1FFC9A7 EQ PUSH2 0x147 JUMPI DUP1 PUSH4 0x98EB8C6 EQ PUSH2 0x16F JUMPI DUP1 PUSH4 0xB27FB9A EQ PUSH2 0x1B0 JUMPI DUP1 PUSH4 0x169B5F75 EQ PUSH2 0x1C2 JUMPI DUP1 PUSH4 0x1BD85E30 EQ PUSH2 0x1CD JUMPI JUMPDEST PUSH1 0x0 DUP1 REVERT JUMPDEST PUSH2 0x15A PUSH2 0x155 CALLDATASIZE PUSH1 0x4 PUSH2 0x198C JUMP JUMPDEST PUSH2 0x3D1 JUMP JUMPDEST PUSH1 0x40 MLOAD SWAP1 ISZERO ISZERO DUP2 MSTORE PUSH1 0x20 ADD JUMPDEST PUSH1 0x40 MLOAD DUP1 SWAP2 SUB SWAP1 RETURN JUMPDEST PUSH2 0x198 PUSH2 0x17D CALLDATASIZE PUSH1 0x4 PUSH2 0x19B6 JUMP JUMPDEST PUSH1 0x0 SWAP1 DUP2 MSTORE PUSH1 0x5 PUSH1 0x20 MSTORE PUSH1 0x40 SWAP1 KECCAK256 SLOAD PUSH1 0x1 PUSH1 0x1 PUSH1 0xA0 SHL SUB AND SWAP1 JUMP JUMPDEST PUSH1 0x40 MLOAD PUSH1 0x1 PUSH1 0x1 PUSH1 0xA0 SHL SUB SWAP1 SWAP2 AND DUP2 MSTORE PUSH1 0x20 ADD PUSH2 0x166 JUMP JUMPDEST PUSH1 0x1 SLOAD JUMPDEST PUSH1 0x40 MLOAD SWAP1 DUP2 MSTORE PUSH1 0x20 ADD PUSH2 0x166 JUMP JUMPDEST PUSH1 0x13 SLOAD PUSH1 0xFF AND PUSH2 0x15A JUMP JUMPDEST PUSH2 0x15A PUSH2 0x1DB CALLDATASIZE PUSH1 0x4 PUSH2 0x19B6 JUMP JUMPDEST PUSH1 0x0 SWAP1 DUP2 MSTORE PUSH1 0x7 PUSH1 0x20 MSTORE PUSH1 0x40 SWAP1 KECCAK256 SLOAD PUSH1 0xFF AND SWAP1 JUMP JUMPDEST PUSH2 0x15A PUSH2 0x1FE CALLDATASIZE PUSH1 0x4 PUSH2 0x19F8 JUMP JUMPDEST PUSH2 0x408 JUMP JUMPDEST PUSH2 0x216 PUSH2 0x211 CALLDATASIZE PUSH1 0x4 PUSH2 0x1A45 JUMP JUMPDEST PUSH2 0x757 JUMP JUMPDEST PUSH1 0x40 MLOAD PUSH2 0x166 SWAP2 SWAP1 PUSH2 0x1A76 JUMP JUMPDEST PUSH2 0x15A PUSH2 0x231 CALLDATASIZE PUSH1 0x4 PUSH2 0x1A9E JUMP JUMPDEST PUSH2 0x7B6 JUMP JUMPDEST PUSH2 0x15A PUSH2 0x244 CALLDATASIZE PUSH1 0x4 PUSH2 0x1ACA JUMP JUMPDEST PUSH2 0xA93 JUMP JUMPDEST PUSH2 0x1B4 PUSH2 0x257 CALLDATASIZE PUSH1 0x4 PUSH2 0x19B6 JUMP JUMPDEST PUSH1 0x0 SWAP1 DUP2 MSTORE PUSH1 0x6 PUSH1 0x20 MSTORE PUSH1 0x40 SWAP1 KECCAK256 SLOAD SWAP1 JUMP JUMPDEST PUSH2 0x15A PUSH2 0x277 CALLDATASIZE PUSH1 0x4 PUSH2 0x1A9E JUMP JUMPDEST PUSH2 0xB04 JUMP JUMPDEST PUSH2 0x29B PUSH2 0x28A CALLDATASIZE PUSH1 0x4 PUSH2 0x1C23 JUMP JUMPDEST PUSH4 0xBC197C81 PUSH1 0xE0 SHL SWAP6 SWAP5 POP POP POP POP POP JUMP JUMPDEST PUSH1 0x40 MLOAD PUSH1 0x1 PUSH1 0x1 PUSH1 0xE0 SHL SUB NOT SWAP1 SWAP2 AND DUP2 MSTORE PUSH1 0x20 ADD PUSH2 0x166 JUMP JUMPDEST PUSH2 0x15A PUSH2 0x2C2 CALLDATASIZE PUSH1 0x4 PUSH2 0x1CDF JUMP JUMPDEST PUSH2 0xC6F JUMP JUMPDEST PUSH2 0x1B4 PUSH2 0x2D5 CALLDATASIZE PUSH1 0x4 PUSH2 0x1D0F JUMP JUMPDEST PUSH1 0x1 PUSH1 0x1 PUSH1 0xA0 SHL SUB AND PUSH1 0x0 SWAP1 DUP2 MSTORE PUSH1 0xF PUSH1 0x20 MSTORE PUSH1 0x40 SWAP1 KECCAK256 SLOAD SWAP1 JUMP JUMPDEST PUSH2 0x15A PUSH2 0x2FE CALLDATASIZE PUSH1 0x4 PUSH2 0x1D0F JUMP JUMPDEST PUSH2 0xF61 JUMP JUMPDEST PUSH2 0x15A PUSH2 0x311 CALLDATASIZE PUSH1 0x4 PUSH2 0x1A9E JUMP JUMPDEST PUSH2 0x1048 JUMP JUMPDEST PUSH2 0x216 PUSH2 0x324 CALLDATASIZE PUSH1 0x4 PUSH2 0x19B6 JUMP JUMPDEST PUSH1 0x0 SWAP1 DUP2 MSTORE PUSH1 0x8 PUSH1 0x20 MSTORE PUSH1 0x40 SWAP1 KECCAK256 SLOAD PUSH1 0xFF AND SWAP1 JUMP JUMPDEST PUSH2 0x15A PUSH2 0x347 CALLDATASIZE PUSH1 0x4 PUSH2 0x1A9E JUMP JUMPDEST PUSH2 0x10ED JUMP JUMPDEST PUSH2 0x29B PUSH2 0x35A CALLDATASIZE PUSH1 0x4 PUSH2 0x1D2C JUMP JUMPDEST PUSH4 0xF23A6E61 PUSH1 0xE0 SHL SWAP6 SWAP5 POP POP POP POP POP JUMP JUMPDEST PUSH2 0x15A PUSH2 0x379 CALLDATASIZE PUSH1 0x4 PUSH2 0x1A9E JUMP JUMPDEST PUSH2 0x1186 JUMP JUMPDEST PUSH2 0x1B4 PUSH2 0x38C CALLDATASIZE PUSH1 0x4 PUSH2 0x1A9E JUMP JUMPDEST PUSH1 0x0 SWAP1 DUP2 MSTORE PUSH1 0x5 PUSH1 0x20 SWAP1 DUP2 MSTORE PUSH1 0x40 DUP1 DUP4 KECCAK256 SLOAD PUSH1 0x1 PUSH1 0x1 PUSH1 0xA0 SHL SUB SWAP5 DUP6 AND DUP5 MSTORE PUSH1 0x2 DUP4 MSTORE DUP2 DUP5 KECCAK256 SWAP5 AND DUP4 MSTORE SWAP3 SWAP1 MSTORE KECCAK256 SLOAD SWAP1 JUMP JUMPDEST PUSH2 0x15A PUSH2 0x3CC CALLDATASIZE PUSH1 0x4 PUSH2 0x19B6 JUMP JUMPDEST PUSH2 0x145C JUMP JUMPDEST PUSH1 0x0 PUSH1 0x1 PUSH1 0x1 PUSH1 0xE0 SHL SUB NOT DUP3 AND PUSH4 0x2711897 PUSH1 0xE5 SHL EQ DUP1 PUSH2 0x402 JUMPI POP PUSH4 0x1FFC9A7 PUSH1 0xE0 SHL PUSH1 0x1 PUSH1 0x1 PUSH1 0xE0 SHL SUB NOT DUP4 AND EQ JUMPDEST SWAP3 SWAP2 POP POP JUMP JUMPDEST PUSH1 0x0 DUP1 PUSH1 0x0 SWAP1 SLOAD SWAP1 PUSH2 0x100 EXP SWAP1 DIV PUSH1 0x1 PUSH1 0x1 PUSH1 0xA0 SHL SUB AND PUSH1 0x1 PUSH1 0x1 PUSH1 0xA0 SHL SUB AND PUSH4 0x348917CA PUSH1 0x40 MLOAD DUP2 PUSH4 0xFFFFFFFF AND PUSH1 0xE0 SHL DUP2 MSTORE PUSH1 0x4 ADD PUSH1 0x20 PUSH1 0x40 MLOAD DUP1 DUP4 SUB DUP2 DUP7 DUP1 EXTCODESIZE ISZERO DUP1 ISZERO PUSH2 0x457 JUMPI PUSH1 0x0 DUP1 REVERT JUMPDEST POP GAS STATICCALL ISZERO DUP1 ISZERO PUSH2 0x46B JUMPI RETURNDATASIZE PUSH1 0x0 DUP1 RETURNDATACOPY RETURNDATASIZE PUSH1 0x0 REVERT JUMPDEST POP POP POP POP PUSH1 0x40 MLOAD RETURNDATASIZE PUSH1 0x1F NOT PUSH1 0x1F DUP3 ADD AND DUP3 ADD DUP1 PUSH1 0x40 MSTORE POP DUP2 ADD SWAP1 PUSH2 0x48F SWAP2 SWAP1 PUSH2 0x1D95 JUMP JUMPDEST ISZERO PUSH2 0x4B5 JUMPI PUSH1 0x40 MLOAD PUSH3 0x461BCD PUSH1 0xE5 SHL DUP2 MSTORE PUSH1 0x4 ADD PUSH2 0x4AC SWAP1 PUSH2 0x1DB2 JUMP JUMPDEST PUSH1 0x40 MLOAD DUP1 SWAP2 SUB SWAP1 REVERT JUMPDEST PUSH1 0x64 DUP4 PUSH1 0xFF AND GT ISZERO PUSH2 0x509 JUMPI PUSH1 0x40 MLOAD PUSH3 0x461BCD PUSH1 0xE5 SHL DUP2 MSTORE PUSH1 0x20 PUSH1 0x4 DUP3 ADD MSTORE PUSH1 0x19 PUSH1 0x24 DUP3 ADD MSTORE PUSH32 0x51756F72756D2077696C6C206E65766572206265206D65742E00000000000000 PUSH1 0x44 DUP3 ADD MSTORE PUSH1 0x64 ADD PUSH2 0x4AC JUMP JUMPDEST PUSH1 0x0 PUSH2 0x514 DUP7 PUSH2 0x757 JUMP JUMPDEST PUSH1 0x3 DUP2 GT ISZERO PUSH2 0x525 JUMPI PUSH2 0x525 PUSH2 0x1A60 JUMP JUMPDEST EQ PUSH2 0x5F5 JUMPI PUSH1 0x19 DUP4 PUSH1 0xFF AND LT ISZERO PUSH2 0x57E JUMPI PUSH1 0x40 MLOAD PUSH3 0x461BCD PUSH1 0xE5 SHL DUP2 MSTORE PUSH1 0x20 PUSH1 0x4 DUP3 ADD MSTORE PUSH1 0x1E PUSH1 0x24 DUP3 ADD MSTORE PUSH32 0x51756F72756D2073686F756C64206265206174206C65617374203235252E0000 PUSH1 0x44 DUP3 ADD MSTORE PUSH1 0x64 ADD PUSH2 0x4AC JUMP JUMPDEST PUSH1 0xD SLOAD PUSH2 0x58B SWAP1 TIMESTAMP PUSH2 0x1E0C JUMP JUMPDEST DUP3 LT ISZERO PUSH2 0x5F0 JUMPI PUSH1 0x40 MLOAD PUSH3 0x461BCD PUSH1 0xE5 SHL DUP2 MSTORE PUSH1 0x20 PUSH1 0x4 DUP3 ADD MSTORE PUSH1 0x2D PUSH1 0x24 DUP3 ADD MSTORE PUSH32 0x446561646C696E65206D75737420626520616674657220766F74696E67506572 PUSH1 0x44 DUP3 ADD MSTORE PUSH13 0x34B7B210333937B6903737BB97 PUSH1 0x99 SHL PUSH1 0x64 DUP3 ADD MSTORE PUSH1 0x84 ADD PUSH2 0x4AC JUMP JUMPDEST PUSH2 0x67E JUMP JUMPDEST PUSH1 0xE SLOAD PUSH2 0x602 SWAP1 TIMESTAMP PUSH2 0x1E0C JUMP JUMPDEST DUP3 LT ISZERO PUSH2 0x677 JUMPI PUSH1 0x40 MLOAD PUSH3 0x461BCD PUSH1 0xE5 SHL DUP2 MSTORE PUSH1 0x20 PUSH1 0x4 DUP3 ADD MSTORE PUSH1 0x37 PUSH1 0x24 DUP3 ADD MSTORE PUSH32 0x446561646C696E65206D75737420626520616674657220776974686472617761 PUSH1 0x44 DUP3 ADD MSTORE PUSH32 0x6C566F74696E67506572696F642066726F6D206E6F772E000000000000000000 PUSH1 0x64 DUP3 ADD MSTORE PUSH1 0x84 ADD PUSH2 0x4AC JUMP JUMPDEST PUSH1 0x1 SLOAD PUSH1 0x12 SSTORE JUMPDEST PUSH1 0x1 DUP1 SLOAD PUSH1 0x4 DUP1 SLOAD SWAP3 DUP4 ADD DUP2 SSTORE PUSH1 0x0 MSTORE PUSH32 0x8A35ACFBC15FF81A39AE7D344FD709F28E8600B4AA8C65C6B64BFE7FE36BD19B SWAP1 SWAP2 ADD SSTORE PUSH2 0x6BC DUP6 PUSH2 0x757 JUMP JUMPDEST PUSH1 0x1 DUP1 SLOAD PUSH1 0x0 SWAP1 DUP2 MSTORE PUSH1 0x8 PUSH1 0x20 MSTORE PUSH1 0x40 SWAP1 KECCAK256 DUP1 SLOAD SWAP1 SWAP2 PUSH1 0xFF NOT SWAP1 SWAP2 AND SWAP1 DUP4 PUSH1 0x3 DUP2 GT ISZERO PUSH2 0x6EB JUMPI PUSH2 0x6EB PUSH2 0x1A60 JUMP JUMPDEST MUL OR SWAP1 SSTORE POP PUSH1 0x1 DUP1 SLOAD PUSH1 0x0 SWAP1 DUP2 MSTORE PUSH1 0x5 PUSH1 0x20 SWAP1 DUP2 MSTORE PUSH1 0x40 DUP1 DUP4 KECCAK256 DUP1 SLOAD PUSH1 0x1 PUSH1 0x1 PUSH1 0xA0 SHL SUB NOT AND PUSH1 0x1 PUSH1 0x1 PUSH1 0xA0 SHL SUB DUP11 AND OR SWAP1 SSTORE DUP4 SLOAD DUP4 MSTORE PUSH1 0x6 DUP3 MSTORE DUP1 DUP4 KECCAK256 DUP7 SWAP1 SSTORE DUP4 SLOAD DUP4 MSTORE PUSH1 0x9 SWAP1 SWAP2 MSTORE DUP2 KECCAK256 TIMESTAMP SWAP1 SSTORE DUP2 SLOAD SWAP2 SWAP1 PUSH2 0x747 DUP4 PUSH2 0x1E24 JUMP JUMPDEST SWAP1 SWAP2 SSTORE POP PUSH1 0x1 SWAP7 SWAP6 POP POP POP POP POP POP JUMP JUMPDEST PUSH1 0x0 PUSH1 0x4 DUP3 PUSH1 0xFF AND LT PUSH2 0x7A1 JUMPI PUSH1 0x40 MLOAD PUSH3 0x461BCD PUSH1 0xE5 SHL DUP2 MSTORE PUSH1 0x20 PUSH1 0x4 DUP3 ADD MSTORE PUSH1 0x12 PUSH1 0x24 DUP3 ADD MSTORE PUSH18 0x496E646578206F7574206F662072616E6765 PUSH1 0x70 SHL PUSH1 0x44 DUP3 ADD MSTORE PUSH1 0x64 ADD PUSH2 0x4AC JUMP JUMPDEST DUP2 PUSH1 0xFF AND PUSH1 0x3 DUP2 GT ISZERO PUSH2 0x402 JUMPI PUSH2 0x402 PUSH2 0x1A60 JUMP JUMPDEST PUSH1 0x0 DUP1 PUSH1 0x0 SWAP1 SLOAD SWAP1 PUSH2 0x100 EXP SWAP1 DIV PUSH1 0x1 PUSH1 0x1 PUSH1 0xA0 SHL SUB AND PUSH1 0x1 PUSH1 0x1 PUSH1 0xA0 SHL SUB AND PUSH4 0x348917CA PUSH1 0x40 MLOAD DUP2 PUSH4 0xFFFFFFFF AND PUSH1 0xE0 SHL DUP2 MSTORE PUSH1 0x4 ADD PUSH1 0x20 PUSH1 0x40 MLOAD DUP1 DUP4 SUB DUP2 DUP7 DUP1 EXTCODESIZE ISZERO DUP1 ISZERO PUSH2 0x805 JUMPI PUSH1 0x0 DUP1 REVERT JUMPDEST POP GAS STATICCALL ISZERO DUP1 ISZERO PUSH2 0x819 JUMPI RETURNDATASIZE PUSH1 0x0 DUP1 RETURNDATACOPY RETURNDATASIZE PUSH1 0x0 REVERT JUMPDEST POP POP POP POP PUSH1 0x40 MLOAD RETURNDATASIZE PUSH1 0x1F NOT PUSH1 0x1F DUP3 ADD AND DUP3 ADD DUP1 PUSH1 0x40 MSTORE POP DUP2 ADD SWAP1 PUSH2 0x83D SWAP2 SWAP1 PUSH2 0x1D95 JUMP JUMPDEST ISZERO PUSH2 0x85A JUMPI PUSH1 0x40 MLOAD PUSH3 0x461BCD PUSH1 0xE5 SHL DUP2 MSTORE PUSH1 0x4 ADD PUSH2 0x4AC SWAP1 PUSH2 0x1DB2 JUMP JUMPDEST PUSH1 0x0 DUP1 SLOAD SWAP1 PUSH2 0x100 EXP SWAP1 DIV PUSH1 0x1 PUSH1 0x1 PUSH1 0xA0 SHL SUB AND PUSH1 0x1 PUSH1 0x1 PUSH1 0xA0 SHL SUB AND PUSH4 0xE6D68595 PUSH1 0x40 MLOAD DUP2 PUSH4 0xFFFFFFFF AND PUSH1 0xE0 SHL DUP2 MSTORE PUSH1 0x4 ADD PUSH1 0x20 PUSH1 0x40 MLOAD DUP1 DUP4 SUB DUP2 DUP7 DUP1 EXTCODESIZE ISZERO DUP1 ISZERO PUSH2 0x8A6 JUMPI PUSH1 0x0 DUP1 REVERT JUMPDEST POP GAS STATICCALL ISZERO DUP1 ISZERO PUSH2 0x8BA JUMPI RETURNDATASIZE PUSH1 0x0 DUP1 RETURNDATACOPY RETURNDATASIZE PUSH1 0x0 REVERT JUMPDEST POP POP POP POP PUSH1 0x40 MLOAD RETURNDATASIZE PUSH1 0x1F NOT PUSH1 0x1F DUP3 ADD AND DUP3 ADD DUP1 PUSH1 0x40 MSTORE POP DUP2 ADD SWAP1 PUSH2 0x8DE SWAP2 SWAP1 PUSH2 0x1E3F JUMP JUMPDEST PUSH1 0x1 PUSH1 0x1 PUSH1 0xA0 SHL SUB AND CALLER PUSH1 0x1 PUSH1 0x1 PUSH1 0xA0 SHL SUB AND EQ PUSH2 0x90E JUMPI PUSH1 0x40 MLOAD PUSH3 0x461BCD PUSH1 0xE5 SHL DUP2 MSTORE PUSH1 0x4 ADD PUSH2 0x4AC SWAP1 PUSH2 0x1E5C JUMP JUMPDEST PUSH1 0x13 SLOAD PUSH1 0xFF AND ISZERO PUSH2 0x961 JUMPI PUSH1 0x40 MLOAD PUSH3 0x461BCD PUSH1 0xE5 SHL DUP2 MSTORE PUSH1 0x20 PUSH1 0x4 DUP3 ADD MSTORE PUSH1 0x19 PUSH1 0x24 DUP3 ADD MSTORE PUSH32 0x50726F706F73616C20616C726561647920696E20706C61636500000000000000 PUSH1 0x44 DUP3 ADD MSTORE PUSH1 0x64 ADD PUSH2 0x4AC JUMP JUMPDEST PUSH1 0x0 SLOAD PUSH1 0x40 MLOAD PUSH4 0x70A08231 PUSH1 0xE0 SHL DUP2 MSTORE PUSH1 0x1 PUSH1 0x1 PUSH1 0xA0 SHL SUB SWAP2 DUP3 AND PUSH1 0x4 DUP3 ADD MSTORE SWAP1 DUP5 AND SWAP1 PUSH4 0x70A08231 SWAP1 PUSH1 0x24 ADD PUSH1 0x20 PUSH1 0x40 MLOAD DUP1 DUP4 SUB DUP2 DUP7 DUP1 EXTCODESIZE ISZERO DUP1 ISZERO PUSH2 0x9A6 JUMPI PUSH1 0x0 DUP1 REVERT JUMPDEST POP GAS STATICCALL ISZERO DUP1 ISZERO PUSH2 0x9BA JUMPI RETURNDATASIZE PUSH1 0x0 DUP1 RETURNDATACOPY RETURNDATASIZE PUSH1 0x0 REVERT JUMPDEST POP POP POP POP PUSH1 0x40 MLOAD RETURNDATASIZE PUSH1 0x1F NOT PUSH1 0x1F DUP3 ADD AND DUP3 ADD DUP1 PUSH1 0x40 MSTORE POP DUP2 ADD SWAP1 PUSH2 0x9DE SWAP2 SWAP1 PUSH2 0x1E88 JUMP JUMPDEST DUP3 GT ISZERO PUSH2 0xA40 JUMPI PUSH1 0x40 MLOAD PUSH3 0x461BCD PUSH1 0xE5 SHL DUP2 MSTORE PUSH1 0x20 PUSH1 0x4 DUP3 ADD MSTORE PUSH1 0x2A PUSH1 0x24 DUP3 ADD MSTORE PUSH32 0x43616E6E6F7420617070726F7665206D6F7265207468616E2063757272656E74 PUSH1 0x44 DUP3 ADD MSTORE PUSH10 0x206F776E65727368697 PUSH1 0xB4 SHL PUSH1 0x64 DUP3 ADD MSTORE PUSH1 0x84 ADD PUSH2 0x4AC JUMP JUMPDEST PUSH1 0x1 PUSH1 0x1 PUSH1 0xA0 SHL SUB DUP4 AND PUSH1 0x0 SWAP1 DUP2 MSTORE PUSH1 0xF PUSH1 0x20 MSTORE PUSH1 0x40 DUP2 KECCAK256 DUP4 SWAP1 SSTORE PUSH1 0x13 DUP1 SLOAD PUSH1 0xFF NOT AND PUSH1 0x1 OR SWAP1 SSTORE PUSH1 0xE SLOAD PUSH2 0xA7E SWAP2 SWAP1 DUP6 SWAP1 DUP3 SWAP1 PUSH2 0x1FE SWAP1 TIMESTAMP PUSH2 0x1E0C JUMP JUMPDEST PUSH2 0xA8A JUMPI PUSH2 0xA8A PUSH2 0x1EA1 JUMP JUMPDEST POP PUSH1 0x1 SWAP3 SWAP2 POP POP JUMP JUMPDEST PUSH1 0x0 DUP1 SLOAD PUSH1 0x1 PUSH1 0x1 PUSH1 0xA0 SHL SUB AND CALLER EQ PUSH2 0xAEE JUMPI PUSH1 0x40 MLOAD PUSH3 0x461BCD PUSH1 0xE5 SHL DUP2 MSTORE PUSH1 0x20 PUSH1 0x4 DUP3 ADD MSTORE PUSH1 0x1F PUSH1 0x24 DUP3 ADD MSTORE PUSH32 0x63616C6C65642062792070726F6A65637420636F6E7472616374206F6E6C7900 PUSH1 0x44 DUP3 ADD MSTORE PUSH1 0x64 ADD PUSH2 0x4AC JUMP JUMPDEST POP PUSH1 0x0 SWAP2 DUP3 MSTORE PUSH1 0x6 PUSH1 0x20 MSTORE PUSH1 0x40 SWAP1 SWAP2 KECCAK256 SSTORE PUSH1 0x1 SWAP1 JUMP JUMPDEST PUSH1 0x0 DUP1 SLOAD PUSH1 0x40 MLOAD PUSH3 0x7EEAC7 PUSH1 0xE1 SHL DUP2 MSTORE CALLER PUSH1 0x4 DUP3 ADD MSTORE PUSH1 0x1 PUSH1 0x1 PUSH1 0xA0 SHL SUB DUP1 DUP7 AND PUSH1 0x24 DUP4 ADD DUP2 SWAP1 MSTORE DUP7 SWAP4 SWAP1 SWAP3 DUP6 SWAP3 SWAP1 SWAP2 AND SWAP1 PUSH3 0xFDD58E SWAP1 PUSH1 0x44 ADD PUSH1 0x20 PUSH1 0x40 MLOAD DUP1 DUP4 SUB DUP2 DUP7 DUP1 EXTCODESIZE ISZERO DUP1 ISZERO PUSH2 0xB56 JUMPI PUSH1 0x0 DUP1 REVERT JUMPDEST POP GAS STATICCALL ISZERO DUP1 ISZERO PUSH2 0xB6A JUMPI RETURNDATASIZE PUSH1 0x0 DUP1 RETURNDATACOPY RETURNDATASIZE PUSH1 0x0 REVERT JUMPDEST POP POP POP POP PUSH1 0x40 MLOAD RETURNDATASIZE PUSH1 0x1F NOT PUSH1 0x1F DUP3 ADD AND DUP3 ADD DUP1 PUSH1 0x40 MSTORE POP DUP2 ADD SWAP1 PUSH2 0xB8E SWAP2 SWAP1 PUSH2 0x1E88 JUMP JUMPDEST GT PUSH2 0xBC9 JUMPI PUSH1 0x40 MLOAD PUSH3 0x461BCD PUSH1 0xE5 SHL DUP2 MSTORE PUSH1 0x20 PUSH1 0x4 DUP3 ADD MSTORE PUSH1 0xB PUSH1 0x24 DUP3 ADD MSTORE PUSH11 0x486F6C646572206F6E6C79 PUSH1 0xA8 SHL PUSH1 0x44 DUP3 ADD MSTORE PUSH1 0x64 ADD PUSH2 0x4AC JUMP JUMPDEST PUSH1 0x0 SLOAD PUSH1 0x40 MLOAD PUSH4 0x79212195 PUSH1 0xE1 SHL DUP2 MSTORE PUSH1 0x1 PUSH1 0x1 PUSH1 0xA0 SHL SUB DUP1 DUP9 AND SWAP3 AND SWAP1 PUSH4 0xF242432A SWAP1 PUSH2 0xC01 SWAP1 CALLER SWAP1 ADDRESS SWAP1 DUP7 SWAP1 DUP12 SWAP1 PUSH1 0x4 ADD PUSH2 0x1EB7 JUMP JUMPDEST PUSH1 0x0 PUSH1 0x40 MLOAD DUP1 DUP4 SUB DUP2 PUSH1 0x0 DUP8 DUP1 EXTCODESIZE ISZERO DUP1 ISZERO PUSH2 0xC1B JUMPI PUSH1 0x0 DUP1 REVERT JUMPDEST POP GAS CALL ISZERO DUP1 ISZERO PUSH2 0xC2F JUMPI RETURNDATASIZE PUSH1 0x0 DUP1 RETURNDATACOPY RETURNDATASIZE PUSH1 0x0 REVERT JUMPDEST POP POP CALLER PUSH1 0x0 SWAP1 DUP2 MSTORE PUSH1 0x2 PUSH1 0x20 SWAP1 DUP2 MSTORE PUSH1 0x40 DUP1 DUP4 KECCAK256 DUP7 DUP5 MSTORE SWAP1 SWAP2 MSTORE DUP2 KECCAK256 DUP1 SLOAD DUP10 SWAP5 POP SWAP1 SWAP3 POP PUSH2 0xC5E SWAP1 DUP5 SWAP1 PUSH2 0x1E0C JUMP JUMPDEST SWAP1 SWAP2 SSTORE POP PUSH1 0x1 SWAP8 SWAP7 POP POP POP POP POP POP POP JUMP JUMPDEST PUSH1 0x0 DUP1 PUSH1 0x0 SWAP1 SLOAD SWAP1 PUSH2 0x100 EXP SWAP1 DIV PUSH1 0x1 PUSH1 0x1 PUSH1 0xA0 SHL SUB AND PUSH1 0x1 PUSH1 0x1 PUSH1 0xA0 SHL SUB AND PUSH4 0x348917CA PUSH1 0x40 MLOAD DUP2 PUSH4 0xFFFFFFFF AND PUSH1 0xE0 SHL DUP2 MSTORE PUSH1 0x4 ADD PUSH1 0x20 PUSH1 0x40 MLOAD DUP1 DUP4 SUB DUP2 DUP7 DUP1 EXTCODESIZE ISZERO DUP1 ISZERO PUSH2 0xCBE JUMPI PUSH1 0x0 DUP1 REVERT JUMPDEST POP GAS STATICCALL ISZERO DUP1 ISZERO PUSH2 0xCD2 JUMPI RETURNDATASIZE PUSH1 0x0 DUP1 RETURNDATACOPY RETURNDATASIZE PUSH1 0x0 REVERT JUMPDEST POP POP POP POP PUSH1 0x40 MLOAD RETURNDATASIZE PUSH1 0x1F NOT PUSH1 0x1F DUP3 ADD AND DUP3 ADD DUP1 PUSH1 0x40 MSTORE POP DUP2 ADD SWAP1 PUSH2 0xCF6 SWAP2 SWAP1 PUSH2 0x1D95 JUMP JUMPDEST ISZERO PUSH2 0xD13 JUMPI PUSH1 0x40 MLOAD PUSH3 0x461BCD PUSH1 0xE5 SHL DUP2 MSTORE PUSH1 0x4 ADD PUSH2 0x4AC SWAP1 PUSH2 0x1DB2 JUMP JUMPDEST PUSH1 0x0 DUP4 DUP2 MSTORE PUSH1 0x5 PUSH1 0x20 SWAP1 DUP2 MSTORE PUSH1 0x40 DUP1 DUP4 KECCAK256 SLOAD CALLER DUP5 MSTORE PUSH1 0x2 DUP4 MSTORE DUP2 DUP5 KECCAK256 PUSH1 0x1 PUSH1 0x1 PUSH1 0xA0 SHL SUB SWAP1 SWAP2 AND DUP1 DUP6 MSTORE SWAP3 MSTORE SWAP1 SWAP2 KECCAK256 SLOAD DUP1 PUSH2 0xD7E JUMPI PUSH1 0x40 MLOAD PUSH3 0x461BCD PUSH1 0xE5 SHL DUP2 MSTORE PUSH1 0x20 PUSH1 0x4 DUP3 ADD MSTORE PUSH1 0xB PUSH1 0x24 DUP3 ADD MSTORE PUSH11 0x2B37BA32B91037B7363C97 PUSH1 0xA9 SHL PUSH1 0x44 DUP3 ADD MSTORE PUSH1 0x64 ADD PUSH2 0x4AC JUMP JUMPDEST PUSH1 0x0 DUP6 DUP2 MSTORE PUSH1 0xB PUSH1 0x20 SWAP1 DUP2 MSTORE PUSH1 0x40 DUP1 DUP4 KECCAK256 CALLER DUP5 MSTORE SWAP1 SWAP2 MSTORE SWAP1 KECCAK256 SLOAD PUSH1 0xFF AND ISZERO PUSH2 0xDDD JUMPI PUSH1 0x40 MLOAD PUSH3 0x461BCD PUSH1 0xE5 SHL DUP2 MSTORE PUSH1 0x20 PUSH1 0x4 DUP3 ADD MSTORE PUSH1 0x12 PUSH1 0x24 DUP3 ADD MSTORE PUSH18 0x20B2323932B9B9903430B2103B37BA32B217 PUSH1 0x71 SHL PUSH1 0x44 DUP3 ADD MSTORE PUSH1 0x64 ADD PUSH2 0x4AC JUMP JUMPDEST PUSH1 0x0 DUP6 DUP2 MSTORE PUSH1 0x6 PUSH1 0x20 MSTORE PUSH1 0x40 SWAP1 KECCAK256 SLOAD TIMESTAMP GT ISZERO PUSH2 0xE3B JUMPI PUSH1 0x40 MLOAD PUSH3 0x461BCD PUSH1 0xE5 SHL DUP2 MSTORE PUSH1 0x20 PUSH1 0x4 DUP3 ADD MSTORE PUSH1 0x19 PUSH1 0x24 DUP3 ADD MSTORE PUSH32 0x566F74696E6720646561646C696E652068617320706173742E00000000000000 PUSH1 0x44 DUP3 ADD MSTORE PUSH1 0x64 ADD PUSH2 0x4AC JUMP JUMPDEST CALLER PUSH1 0x0 SWAP1 DUP2 MSTORE PUSH1 0x3 PUSH1 0x20 SWAP1 DUP2 MSTORE PUSH1 0x40 DUP1 DUP4 KECCAK256 DUP6 DUP5 MSTORE DUP3 MSTORE DUP1 DUP4 KECCAK256 SLOAD DUP9 DUP5 MSTORE PUSH1 0x6 SWAP1 SWAP3 MSTORE SWAP1 SWAP2 KECCAK256 SLOAD DUP2 LT ISZERO PUSH2 0xE90 JUMPI PUSH1 0x0 DUP7 DUP2 MSTORE PUSH1 0x6 PUSH1 0x20 SWAP1 DUP2 MSTORE PUSH1 0x40 DUP1 DUP4 KECCAK256 SLOAD CALLER DUP5 MSTORE PUSH1 0x3 DUP4 MSTORE DUP2 DUP5 KECCAK256 DUP8 DUP6 MSTORE SWAP1 SWAP3 MSTORE SWAP1 SWAP2 KECCAK256 SSTORE JUMPDEST PUSH1 0x0 DUP7 DUP2 MSTORE PUSH1 0x8 PUSH1 0x20 MSTORE PUSH1 0x40 DUP2 KECCAK256 SLOAD PUSH1 0xFF AND PUSH1 0x3 DUP2 GT ISZERO PUSH2 0xEB3 JUMPI PUSH2 0xEB3 PUSH2 0x1A60 JUMP JUMPDEST EQ DUP1 ISZERO PUSH2 0xEBD JUMPI POP DUP5 JUMPDEST ISZERO PUSH2 0xF01 JUMPI PUSH1 0x0 DUP7 DUP2 MSTORE PUSH1 0x5 PUSH1 0x20 SWAP1 DUP2 MSTORE PUSH1 0x40 DUP1 DUP4 KECCAK256 SLOAD PUSH1 0x1 PUSH1 0x1 PUSH1 0xA0 SHL SUB AND DUP4 MSTORE PUSH1 0x10 SWAP1 SWAP2 MSTORE DUP2 KECCAK256 DUP1 SLOAD DUP5 SWAP3 SWAP1 PUSH2 0xEF6 SWAP1 DUP5 SWAP1 PUSH2 0x1E0C JUMP JUMPDEST SWAP1 SWAP2 SSTORE POP PUSH2 0xF32 SWAP1 POP JUMP JUMPDEST PUSH1 0x0 DUP7 DUP2 MSTORE PUSH1 0xA PUSH1 0x20 SWAP1 DUP2 MSTORE PUSH1 0x40 DUP1 DUP4 KECCAK256 DUP9 ISZERO ISZERO DUP5 MSTORE SWAP1 SWAP2 MSTORE DUP2 KECCAK256 DUP1 SLOAD DUP5 SWAP3 SWAP1 PUSH2 0xF2C SWAP1 DUP5 SWAP1 PUSH2 0x1E0C JUMP JUMPDEST SWAP1 SWAP2 SSTORE POP POP JUMPDEST POP POP POP PUSH1 0x0 SWAP3 DUP4 MSTORE POP POP PUSH1 0xB PUSH1 0x20 SWAP1 DUP2 MSTORE PUSH1 0x40 DUP1 DUP4 KECCAK256 CALLER DUP5 MSTORE SWAP1 SWAP2 MSTORE SWAP1 KECCAK256 DUP1 SLOAD PUSH1 0xFF NOT AND PUSH1 0x1 SWAP1 DUP2 OR SWAP1 SWAP2 SSTORE SWAP1 JUMP JUMPDEST PUSH1 0x0 DUP1 PUSH1 0x0 SWAP1 SLOAD SWAP1 PUSH2 0x100 EXP SWAP1 DIV PUSH1 0x1 PUSH1 0x1 PUSH1 0xA0 SHL SUB AND PUSH1 0x1 PUSH1 0x1 PUSH1 0xA0 SHL SUB AND PUSH4 0xE6D68595 PUSH1 0x40 MLOAD DUP2 PUSH4 0xFFFFFFFF AND PUSH1 0xE0 SHL DUP2 MSTORE PUSH1 0x4 ADD PUSH1 0x20 PUSH1 0x40 MLOAD DUP1 DUP4 SUB DUP2 DUP7 DUP1 EXTCODESIZE ISZERO DUP1 ISZERO PUSH2 0xFB0 JUMPI PUSH1 0x0 DUP1 REVERT JUMPDEST POP GAS STATICCALL ISZERO DUP1 ISZERO PUSH2 0xFC4 JUMPI RETURNDATASIZE PUSH1 0x0 DUP1 RETURNDATACOPY RETURNDATASIZE PUSH1 0x0 REVERT JUMPDEST POP POP POP POP PUSH1 0x40 MLOAD RETURNDATASIZE PUSH1 0x1F NOT PUSH1 0x1F DUP3 ADD AND DUP3 ADD DUP1 PUSH1 0x40 MSTORE POP DUP2 ADD SWAP1 PUSH2 0xFE8 SWAP2 SWAP1 PUSH2 0x1E3F JUMP JUMPDEST PUSH1 0x1 PUSH1 0x1 PUSH1 0xA0 SHL SUB AND CALLER PUSH1 0x1 PUSH1 0x1 PUSH1 0xA0 SHL SUB AND EQ PUSH2 0x1018 JUMPI PUSH1 0x40 MLOAD PUSH3 0x461BCD PUSH1 0xE5 SHL DUP2 MSTORE PUSH1 0x4 ADD PUSH2 0x4AC SWAP1 PUSH2 0x1E5C JUMP JUMPDEST PUSH1 0x13 SLOAD PUSH1 0xFF AND PUSH2 0x103A JUMPI PUSH1 0x40 MLOAD PUSH3 0x461BCD PUSH1 0xE5 SHL DUP2 MSTORE PUSH1 0x4 ADD PUSH2 0x4AC SWAP1 PUSH2 0x1EEF JUMP JUMPDEST PUSH2 0x402 DUP3 PUSH2 0x1958 JUMP JUMPDEST SWAP2 SWAP1 POP JUMP JUMPDEST PUSH1 0x0 DUP1 SLOAD PUSH1 0x40 MLOAD PUSH4 0x79212195 PUSH1 0xE1 SHL DUP2 MSTORE PUSH1 0x1 PUSH1 0x1 PUSH1 0xA0 SHL SUB DUP1 DUP7 AND SWAP3 AND SWAP1 PUSH4 0xF242432A SWAP1 PUSH2 0x1081 SWAP1 ADDRESS SWAP1 CALLER SWAP1 DUP7 SWAP1 DUP10 SWAP1 PUSH1 0x4 ADD PUSH2 0x1EB7 JUMP JUMPDEST PUSH1 0x0 PUSH1 0x40 MLOAD DUP1 DUP4 SUB DUP2 PUSH1 0x0 DUP8 DUP1 EXTCODESIZE ISZERO DUP1 ISZERO PUSH2 0x109B JUMPI PUSH1 0x0 DUP1 REVERT JUMPDEST POP GAS CALL ISZERO DUP1 ISZERO PUSH2 0x10AF JUMPI RETURNDATASIZE PUSH1 0x0 DUP1 RETURNDATACOPY RETURNDATASIZE PUSH1 0x0 REVERT JUMPDEST POP POP CALLER PUSH1 0x0 SWAP1 DUP2 MSTORE PUSH1 0x2 PUSH1 0x20 SWAP1 DUP2 MSTORE PUSH1 0x40 DUP1 DUP4 KECCAK256 DUP7 DUP5 MSTORE SWAP1 SWAP2 MSTORE DUP2 KECCAK256 DUP1 SLOAD DUP8 SWAP5 POP SWAP1 SWAP3 POP PUSH2 0x10DE SWAP1 DUP5 SWAP1 PUSH2 0x1F31 JUMP JUMPDEST SWAP1 SWAP2 SSTORE POP PUSH1 0x1 SWAP6 SWAP5 POP POP POP POP POP JUMP JUMPDEST PUSH1 0x0 DUP1 SLOAD PUSH1 0x1 PUSH1 0x1 PUSH1 0xA0 SHL SUB AND CALLER EQ PUSH2 0x1148 JUMPI PUSH1 0x40 MLOAD PUSH3 0x461BCD PUSH1 0xE5 SHL DUP2 MSTORE PUSH1 0x20 PUSH1 0x4 DUP3 ADD MSTORE PUSH1 0x1F PUSH1 0x24 DUP3 ADD MSTORE PUSH32 0x63616C6C65642062792070726F6A65637420636F6E7472616374206F6E6C7900 PUSH1 0x44 DUP3 ADD MSTORE PUSH1 0x64 ADD PUSH2 0x4AC JUMP JUMPDEST PUSH1 0x1 PUSH1 0x1 PUSH1 0xA0 SHL SUB DUP4 AND PUSH1 0x0 SWAP1 DUP2 MSTORE PUSH1 0x11 PUSH1 0x20 MSTORE PUSH1 0x40 DUP2 KECCAK256 DUP1 SLOAD DUP5 SWAP3 SWAP1 PUSH2 0x1170 SWAP1 DUP5 SWAP1 PUSH2 0x1F31 JUMP JUMPDEST SWAP1 SWAP2 SSTORE POP PUSH2 0x117F SWAP1 POP DUP4 PUSH2 0x1958 JUMP JUMPDEST SWAP4 SWAP3 POP POP POP JUMP JUMPDEST PUSH1 0x0 DUP1 PUSH1 0x0 SWAP1 SLOAD SWAP1 PUSH2 0x100 EXP SWAP1 DIV PUSH1 0x1 PUSH1 0x1 PUSH1 0xA0 SHL SUB AND PUSH1 0x1 PUSH1 0x1 PUSH1 0xA0 SHL SUB AND PUSH4 0x348917CA PUSH1 0x40 MLOAD DUP2 PUSH4 0xFFFFFFFF AND PUSH1 0xE0 SHL DUP2 MSTORE PUSH1 0x4 ADD PUSH1 0x20 PUSH1 0x40 MLOAD DUP1 DUP4 SUB DUP2 DUP7 DUP1 EXTCODESIZE ISZERO DUP1 ISZERO PUSH2 0x11D5 JUMPI PUSH1 0x0 DUP1 REVERT JUMPDEST POP GAS STATICCALL ISZERO DUP1 ISZERO PUSH2 0x11E9 JUMPI RETURNDATASIZE PUSH1 0x0 DUP1 RETURNDATACOPY RETURNDATASIZE PUSH1 0x0 REVERT JUMPDEST POP POP POP POP PUSH1 0x40 MLOAD RETURNDATASIZE PUSH1 0x1F NOT PUSH1 0x1F DUP3 ADD AND DUP3 ADD DUP1 PUSH1 0x40 MSTORE POP DUP2 ADD SWAP1 PUSH2 0x120D SWAP2 SWAP1 PUSH2 0x1D95 JUMP JUMPDEST ISZERO PUSH2 0x122A JUMPI PUSH1 0x40 MLOAD PUSH3 0x461BCD PUSH1 0xE5 SHL DUP2 MSTORE PUSH1 0x4 ADD PUSH2 0x4AC SWAP1 PUSH2 0x1DB2 JUMP JUMPDEST PUSH1 0x0 DUP1 SLOAD SWAP1 PUSH2 0x100 EXP SWAP1 DIV PUSH1 0x1 PUSH1 0x1 PUSH1 0xA0 SHL SUB AND PUSH1 0x1 PUSH1 0x1 PUSH1 0xA0 SHL SUB AND PUSH4 0xE6D68595 PUSH1 0x40 MLOAD DUP2 PUSH4 0xFFFFFFFF AND PUSH1 0xE0 SHL DUP2 MSTORE PUSH1 0x4 ADD PUSH1 0x20 PUSH1 0x40 MLOAD DUP1 DUP4 SUB DUP2 DUP7 DUP1 EXTCODESIZE ISZERO DUP1 ISZERO PUSH2 0x1276 JUMPI PUSH1 0x0 DUP1 REVERT JUMPDEST POP GAS STATICCALL ISZERO DUP1 ISZERO PUSH2 0x128A JUMPI RETURNDATASIZE PUSH1 0x0 DUP1 RETURNDATACOPY RETURNDATASIZE PUSH1 0x0 REVERT JUMPDEST POP POP POP POP PUSH1 0x40 MLOAD RETURNDATASIZE PUSH1 0x1F NOT PUSH1 0x1F DUP3 ADD AND DUP3 ADD DUP1 PUSH1 0x40 MSTORE POP DUP2 ADD SWAP1 PUSH2 0x12AE SWAP2 SWAP1 PUSH2 0x1E3F JUMP JUMPDEST PUSH1 0x1 PUSH1 0x1 PUSH1 0xA0 SHL SUB AND CALLER PUSH1 0x1 PUSH1 0x1 PUSH1 0xA0 SHL SUB AND EQ PUSH2 0x12DE JUMPI PUSH1 0x40 MLOAD PUSH3 0x461BCD PUSH1 0xE5 SHL DUP2 MSTORE PUSH1 0x4 ADD PUSH2 0x4AC SWAP1 PUSH2 0x1E5C JUMP JUMPDEST PUSH1 0x13 SLOAD PUSH1 0xFF AND PUSH2 0x1300 JUMPI PUSH1 0x40 MLOAD PUSH3 0x461BCD PUSH1 0xE5 SHL DUP2 MSTORE PUSH1 0x4 ADD PUSH2 0x4AC SWAP1 PUSH2 0x1EEF JUMP JUMPDEST PUSH1 0x12 SLOAD PUSH1 0x0 SWAP1 DUP2 MSTORE PUSH1 0x6 PUSH1 0x20 MSTORE PUSH1 0x40 SWAP1 KECCAK256 SLOAD TIMESTAMP LT ISZERO PUSH2 0x1361 JUMPI PUSH1 0x40 MLOAD PUSH3 0x461BCD PUSH1 0xE5 SHL DUP2 MSTORE PUSH1 0x20 PUSH1 0x4 DUP3 ADD MSTORE PUSH1 0x1C PUSH1 0x24 DUP3 ADD MSTORE PUSH32 0x566F74696E6720706572696F6420686173206E6F742070617373656400000000 PUSH1 0x44 DUP3 ADD MSTORE PUSH1 0x64 ADD PUSH2 0x4AC JUMP JUMPDEST PUSH1 0x1 PUSH1 0x1 PUSH1 0xA0 SHL SUB DUP4 AND PUSH1 0x0 SWAP1 DUP2 MSTORE PUSH1 0x10 PUSH1 0x20 SWAP1 DUP2 MSTORE PUSH1 0x40 DUP1 DUP4 KECCAK256 SLOAD PUSH1 0xF SWAP1 SWAP3 MSTORE SWAP1 SWAP2 KECCAK256 SLOAD PUSH2 0x1390 SWAP2 SWAP1 PUSH2 0x1F31 JUMP JUMPDEST DUP3 GT ISZERO PUSH2 0x13D3 JUMPI PUSH1 0x40 MLOAD PUSH3 0x461BCD PUSH1 0xE5 SHL DUP2 MSTORE PUSH1 0x20 PUSH1 0x4 DUP3 ADD MSTORE PUSH1 0x11 PUSH1 0x24 DUP3 ADD MSTORE PUSH17 0x37BB32B930BABA3437B934B9B0BA34B7B7 PUSH1 0x79 SHL PUSH1 0x44 DUP3 ADD MSTORE PUSH1 0x64 ADD PUSH2 0x4AC JUMP JUMPDEST PUSH1 0x1 PUSH1 0x1 PUSH1 0xA0 SHL SUB DUP4 AND PUSH1 0x0 SWAP1 DUP2 MSTORE PUSH1 0xF PUSH1 0x20 MSTORE PUSH1 0x40 DUP2 KECCAK256 DUP1 SLOAD DUP5 SWAP3 SWAP1 PUSH2 0x13FB SWAP1 DUP5 SWAP1 PUSH2 0x1F31 JUMP JUMPDEST SWAP1 SWAP2 SSTORE POP POP PUSH1 0x1 PUSH1 0x1 PUSH1 0xA0 SHL SUB DUP4 AND PUSH1 0x0 SWAP1 DUP2 MSTORE PUSH1 0x11 PUSH1 0x20 MSTORE PUSH1 0x40 DUP2 KECCAK256 DUP1 SLOAD DUP5 SWAP3 SWAP1 PUSH2 0x1428 SWAP1 DUP5 SWAP1 PUSH2 0x1E0C JUMP JUMPDEST SWAP1 SWAP2 SSTORE POP POP PUSH1 0x1 PUSH1 0x1 PUSH1 0xA0 SHL SUB DUP4 AND PUSH1 0x0 SWAP1 DUP2 MSTORE PUSH1 0xF PUSH1 0x20 MSTORE PUSH1 0x40 SWAP1 KECCAK256 SLOAD PUSH2 0xA8A JUMPI POP POP PUSH1 0x13 DUP1 SLOAD PUSH1 0xFF NOT AND SWAP1 SSTORE POP PUSH1 0x1 SWAP1 JUMP JUMPDEST PUSH1 0x0 DUP1 PUSH1 0x0 SWAP1 SLOAD SWAP1 PUSH2 0x100 EXP SWAP1 DIV PUSH1 0x1 PUSH1 0x1 PUSH1 0xA0 SHL SUB AND PUSH1 0x1 PUSH1 0x1 PUSH1 0xA0 SHL SUB AND PUSH4 0x348917CA PUSH1 0x40 MLOAD DUP2 PUSH4 0xFFFFFFFF AND PUSH1 0xE0 SHL DUP2 MSTORE PUSH1 0x4 ADD PUSH1 0x20 PUSH1 0x40 MLOAD DUP1 DUP4 SUB DUP2 DUP7 DUP1 EXTCODESIZE ISZERO DUP1 ISZERO PUSH2 0x14AB JUMPI PUSH1 0x0 DUP1 REVERT JUMPDEST POP GAS STATICCALL ISZERO DUP1 ISZERO PUSH2 0x14BF JUMPI RETURNDATASIZE PUSH1 0x0 DUP1 RETURNDATACOPY RETURNDATASIZE PUSH1 0x0 REVERT JUMPDEST POP POP POP POP PUSH1 0x40 MLOAD RETURNDATASIZE PUSH1 0x1F NOT PUSH1 0x1F DUP3 ADD AND DUP3 ADD DUP1 PUSH1 0x40 MSTORE POP DUP2 ADD SWAP1 PUSH2 0x14E3 SWAP2 SWAP1 PUSH2 0x1D95 JUMP JUMPDEST ISZERO PUSH2 0x1500 JUMPI PUSH1 0x40 MLOAD PUSH3 0x461BCD PUSH1 0xE5 SHL DUP2 MSTORE PUSH1 0x4 ADD PUSH2 0x4AC SWAP1 PUSH2 0x1DB2 JUMP JUMPDEST PUSH1 0x0 DUP3 DUP2 MSTORE PUSH1 0x8 PUSH1 0x20 MSTORE PUSH1 0x40 DUP2 KECCAK256 SLOAD PUSH1 0xFF AND PUSH1 0x3 DUP2 GT ISZERO PUSH2 0x1523 JUMPI PUSH2 0x1523 PUSH2 0x1A60 JUMP JUMPDEST EQ ISZERO PUSH2 0x157D JUMPI PUSH1 0x40 MLOAD PUSH3 0x461BCD PUSH1 0xE5 SHL DUP2 MSTORE PUSH1 0x20 PUSH1 0x4 DUP3 ADD MSTORE PUSH1 0x24 DUP1 DUP3 ADD MSTORE PUSH32 0x4F626A656374696F6E2070726F706F73616C206973206E6F7420657865637574 PUSH1 0x44 DUP3 ADD MSTORE PUSH4 0x61626C65 PUSH1 0xE0 SHL PUSH1 0x64 DUP3 ADD MSTORE PUSH1 0x84 ADD PUSH2 0x4AC JUMP JUMPDEST PUSH1 0x0 DUP3 DUP2 MSTORE PUSH1 0x6 PUSH1 0x20 MSTORE PUSH1 0x40 SWAP1 KECCAK256 SLOAD TIMESTAMP LT ISZERO PUSH2 0x15DB JUMPI PUSH1 0x40 MLOAD PUSH3 0x461BCD PUSH1 0xE5 SHL DUP2 MSTORE PUSH1 0x20 PUSH1 0x4 DUP3 ADD MSTORE PUSH1 0x1C PUSH1 0x24 DUP3 ADD MSTORE PUSH32 0x566F74696E6720646561646C696E65206861736E277420706173742E00000000 PUSH1 0x44 DUP3 ADD MSTORE PUSH1 0x64 ADD PUSH2 0x4AC JUMP JUMPDEST PUSH1 0x0 DUP3 DUP2 MSTORE PUSH1 0xA PUSH1 0x20 SWAP1 DUP2 MSTORE PUSH1 0x40 DUP1 DUP4 KECCAK256 DUP4 DUP1 MSTORE SWAP1 SWAP2 MSTORE DUP1 DUP3 KECCAK256 SLOAD PUSH1 0x1 DUP4 MSTORE SWAP2 KECCAK256 SLOAD GT PUSH2 0x163D JUMPI PUSH1 0x40 MLOAD PUSH3 0x461BCD PUSH1 0xE5 SHL DUP2 MSTORE PUSH1 0x20 PUSH1 0x4 DUP3 ADD MSTORE PUSH1 0x10 PUSH1 0x24 DUP3 ADD MSTORE PUSH16 0x13585A9BDC9A5D1E481B9BDD081B595D PUSH1 0x82 SHL PUSH1 0x44 DUP3 ADD MSTORE PUSH1 0x64 ADD PUSH2 0x4AC JUMP JUMPDEST PUSH1 0x0 DUP3 DUP2 MSTORE PUSH1 0x5 PUSH1 0x20 MSTORE PUSH1 0x40 DUP1 DUP3 KECCAK256 SLOAD DUP3 SLOAD SWAP2 MLOAD PUSH4 0xAA771D39 PUSH1 0xE0 SHL DUP2 MSTORE PUSH1 0x1 PUSH1 0x1 PUSH1 0xA0 SHL SUB SWAP2 DUP3 AND PUSH1 0x4 DUP3 ADD DUP2 SWAP1 MSTORE SWAP4 SWAP3 SWAP2 SWAP1 SWAP2 AND SWAP1 PUSH4 0xAA771D39 SWAP1 PUSH1 0x24 ADD PUSH1 0x20 PUSH1 0x40 MLOAD DUP1 DUP4 SUB DUP2 DUP7 DUP1 EXTCODESIZE ISZERO DUP1 ISZERO PUSH2 0x1695 JUMPI PUSH1 0x0 DUP1 REVERT JUMPDEST POP GAS STATICCALL ISZERO DUP1 ISZERO PUSH2 0x16A9 JUMPI RETURNDATASIZE PUSH1 0x0 DUP1 RETURNDATACOPY RETURNDATASIZE PUSH1 0x0 REVERT JUMPDEST POP POP POP POP PUSH1 0x40 MLOAD RETURNDATASIZE PUSH1 0x1F NOT PUSH1 0x1F DUP3 ADD AND DUP3 ADD DUP1 PUSH1 0x40 MSTORE POP DUP2 ADD SWAP1 PUSH2 0x16CD SWAP2 SWAP1 PUSH2 0x1E88 JUMP JUMPDEST PUSH1 0x0 DUP6 DUP2 MSTORE PUSH1 0xC PUSH1 0x20 MSTORE PUSH1 0x40 SWAP1 KECCAK256 SLOAD SWAP1 SWAP2 POP PUSH1 0x64 SWAP1 PUSH2 0x16EF SWAP1 PUSH1 0xFF AND DUP4 PUSH2 0x1F48 JUMP JUMPDEST PUSH2 0x16F9 SWAP2 SWAP1 PUSH2 0x1F67 JUMP JUMPDEST PUSH1 0x0 DUP6 DUP2 MSTORE PUSH1 0xA PUSH1 0x20 SWAP1 DUP2 MSTORE PUSH1 0x40 DUP1 DUP4 KECCAK256 PUSH1 0x1 DUP5 MSTORE SWAP1 SWAP2 MSTORE SWAP1 KECCAK256 SLOAD GT PUSH2 0x1752 JUMPI PUSH1 0x40 MLOAD PUSH3 0x461BCD PUSH1 0xE5 SHL DUP2 MSTORE PUSH1 0x20 PUSH1 0x4 DUP3 ADD MSTORE PUSH1 0xE PUSH1 0x24 DUP3 ADD MSTORE PUSH14 0x145D5BDC9D5B481B9BDD081B595D PUSH1 0x92 SHL PUSH1 0x44 DUP3 ADD MSTORE PUSH1 0x64 ADD PUSH2 0x4AC JUMP JUMPDEST PUSH1 0x1 PUSH1 0x0 DUP6 DUP2 MSTORE PUSH1 0x8 PUSH1 0x20 MSTORE PUSH1 0x40 SWAP1 KECCAK256 SLOAD PUSH1 0xFF AND PUSH1 0x3 DUP2 GT ISZERO PUSH2 0x1777 JUMPI PUSH2 0x1777 PUSH2 0x1A60 JUMP JUMPDEST EQ ISZERO PUSH2 0x1814 JUMPI PUSH1 0x0 DUP1 SLOAD SWAP1 PUSH2 0x100 EXP SWAP1 DIV PUSH1 0x1 PUSH1 0x1 PUSH1 0xA0 SHL SUB AND PUSH1 0x1 PUSH1 0x1 PUSH1 0xA0 SHL SUB AND PUSH4 0x84DAC702 PUSH1 0x40 MLOAD DUP2 PUSH4 0xFFFFFFFF AND PUSH1 0xE0 SHL DUP2 MSTORE PUSH1 0x4 ADD PUSH1 0x20 PUSH1 0x40 MLOAD DUP1 DUP4 SUB DUP2 PUSH1 0x0 DUP8 DUP1 EXTCODESIZE ISZERO DUP1 ISZERO PUSH2 0x17CB JUMPI PUSH1 0x0 DUP1 REVERT JUMPDEST POP GAS CALL ISZERO DUP1 ISZERO PUSH2 0x17DF JUMPI RETURNDATASIZE PUSH1 0x0 DUP1 RETURNDATACOPY RETURNDATASIZE PUSH1 0x0 REVERT JUMPDEST POP POP POP POP PUSH1 0x40 MLOAD RETURNDATASIZE PUSH1 0x1F NOT PUSH1 0x1F DUP3 ADD AND DUP3 ADD DUP1 PUSH1 0x40 MSTORE POP DUP2 ADD SWAP1 PUSH2 0x1803 SWAP2 SWAP1 PUSH2 0x1D95 JUMP JUMPDEST PUSH2 0x180F JUMPI PUSH2 0x180F PUSH2 0x1EA1 JUMP JUMPDEST PUSH2 0x194E JUMP JUMPDEST PUSH1 0x2 PUSH1 0x0 DUP6 DUP2 MSTORE PUSH1 0x8 PUSH1 0x20 MSTORE PUSH1 0x40 SWAP1 KECCAK256 SLOAD PUSH1 0xFF AND PUSH1 0x3 DUP2 GT ISZERO PUSH2 0x1839 JUMPI PUSH2 0x1839 PUSH2 0x1A60 JUMP JUMPDEST EQ ISZERO PUSH2 0x188D JUMPI PUSH1 0x0 DUP1 SLOAD SWAP1 PUSH2 0x100 EXP SWAP1 DIV PUSH1 0x1 PUSH1 0x1 PUSH1 0xA0 SHL SUB AND PUSH1 0x1 PUSH1 0x1 PUSH1 0xA0 SHL SUB AND PUSH4 0x7F1660A1 PUSH1 0x40 MLOAD DUP2 PUSH4 0xFFFFFFFF AND PUSH1 0xE0 SHL DUP2 MSTORE PUSH1 0x4 ADD PUSH1 0x20 PUSH1 0x40 MLOAD DUP1 DUP4 SUB DUP2 PUSH1 0x0 DUP8 DUP1 EXTCODESIZE ISZERO DUP1 ISZERO PUSH2 0x17CB JUMPI PUSH1 0x0 DUP1 REVERT JUMPDEST PUSH1 0x3 PUSH1 0x0 DUP6 DUP2 MSTORE PUSH1 0x8 PUSH1 0x20 MSTORE PUSH1 0x40 SWAP1 KECCAK256 SLOAD PUSH1 0xFF AND PUSH1 0x3 DUP2 GT ISZERO PUSH2 0x18B2 JUMPI PUSH2 0x18B2 PUSH2 0x1A60 JUMP JUMPDEST EQ ISZERO PUSH2 0x190D JUMPI PUSH1 0x0 DUP1 SLOAD DUP6 DUP3 MSTORE PUSH1 0x5 PUSH1 0x20 MSTORE PUSH1 0x40 SWAP2 DUP3 SWAP1 KECCAK256 SLOAD SWAP2 MLOAD PUSH4 0x3CDFE21 PUSH1 0xE4 SHL DUP2 MSTORE PUSH1 0x1 PUSH1 0x1 PUSH1 0xA0 SHL SUB SWAP3 DUP4 AND PUSH1 0x4 DUP3 ADD MSTORE SWAP2 AND SWAP1 PUSH4 0x3CDFE210 SWAP1 PUSH1 0x24 ADD PUSH1 0x20 PUSH1 0x40 MLOAD DUP1 DUP4 SUB DUP2 PUSH1 0x0 DUP8 DUP1 EXTCODESIZE ISZERO DUP1 ISZERO PUSH2 0x17CB JUMPI PUSH1 0x0 DUP1 REVERT JUMPDEST PUSH1 0x40 MLOAD PUSH3 0x461BCD PUSH1 0xE5 SHL DUP2 MSTORE PUSH1 0x20 PUSH1 0x4 DUP3 ADD MSTORE PUSH1 0x16 PUSH1 0x24 DUP3 ADD MSTORE PUSH22 0x4572726F7220696E2070726F706F73616C2074797065 PUSH1 0x50 SHL PUSH1 0x44 DUP3 ADD MSTORE PUSH1 0x64 ADD PUSH2 0x4AC JUMP JUMPDEST POP PUSH1 0x1 SWAP4 SWAP3 POP POP POP JUMP JUMPDEST PUSH1 0x1 PUSH1 0x1 PUSH1 0xA0 SHL SUB AND PUSH1 0x0 SWAP1 DUP2 MSTORE PUSH1 0xF PUSH1 0x20 SWAP1 DUP2 MSTORE PUSH1 0x40 DUP1 DUP4 KECCAK256 DUP4 SWAP1 SSTORE PUSH1 0x10 SWAP1 SWAP2 MSTORE DUP2 KECCAK256 SSTORE PUSH1 0x13 DUP1 SLOAD PUSH1 0xFF NOT AND SWAP1 SSTORE PUSH1 0x1 SWAP1 JUMP JUMPDEST PUSH1 0x0 PUSH1 0x20 DUP3 DUP5 SUB SLT ISZERO PUSH2 0x199E JUMPI PUSH1 0x0 DUP1 REVERT JUMPDEST DUP2 CALLDATALOAD PUSH1 0x1 PUSH1 0x1 PUSH1 0xE0 SHL SUB NOT DUP2 AND DUP2 EQ PUSH2 0x117F JUMPI PUSH1 0x0 DUP1 REVERT JUMPDEST PUSH1 0x0 PUSH1 0x20 DUP3 DUP5 SUB SLT ISZERO PUSH2 0x19C8 JUMPI PUSH1 0x0 DUP1 REVERT JUMPDEST POP CALLDATALOAD SWAP2 SWAP1 POP JUMP JUMPDEST DUP1 CALLDATALOAD PUSH1 0xFF DUP2 AND DUP2 EQ PUSH2 0x1043 JUMPI PUSH1 0x0 DUP1 REVERT JUMPDEST PUSH1 0x1 PUSH1 0x1 PUSH1 0xA0 SHL SUB DUP2 AND DUP2 EQ PUSH2 0x19F5 JUMPI PUSH1 0x0 DUP1 REVERT JUMPDEST POP JUMP JUMPDEST PUSH1 0x0 DUP1 PUSH1 0x0 DUP1 PUSH1 0x80 DUP6 DUP8 SUB SLT ISZERO PUSH2 0x1A0E JUMPI PUSH1 0x0 DUP1 REVERT JUMPDEST PUSH2 0x1A17 DUP6 PUSH2 0x19CF JUMP JUMPDEST SWAP4 POP PUSH1 0x20 DUP6 ADD CALLDATALOAD PUSH2 0x1A27 DUP2 PUSH2 0x19E0 JUMP JUMPDEST SWAP3 POP PUSH2 0x1A35 PUSH1 0x40 DUP7 ADD PUSH2 0x19CF JUMP JUMPDEST SWAP4 SWAP7 SWAP3 SWAP6 POP SWAP3 SWAP4 PUSH1 0x60 ADD CALLDATALOAD SWAP3 POP POP JUMP JUMPDEST PUSH1 0x0 PUSH1 0x20 DUP3 DUP5 SUB SLT ISZERO PUSH2 0x1A57 JUMPI PUSH1 0x0 DUP1 REVERT JUMPDEST PUSH2 0x117F DUP3 PUSH2 0x19CF JUMP JUMPDEST PUSH4 0x4E487B71 PUSH1 0xE0 SHL PUSH1 0x0 MSTORE PUSH1 0x21 PUSH1 0x4 MSTORE PUSH1 0x24 PUSH1 0x0 REVERT JUMPDEST PUSH1 0x20 DUP2 ADD PUSH1 0x4 DUP4 LT PUSH2 0x1A98 JUMPI PUSH4 0x4E487B71 PUSH1 0xE0 SHL PUSH1 0x0 MSTORE PUSH1 0x21 PUSH1 0x4 MSTORE PUSH1 0x24 PUSH1 0x0 REVERT JUMPDEST SWAP2 SWAP1 MSTORE SWAP1 JUMP JUMPDEST PUSH1 0x0 DUP1 PUSH1 0x40 DUP4 DUP6 SUB SLT ISZERO PUSH2 0x1AB1 JUMPI PUSH1 0x0 DUP1 REVERT JUMPDEST DUP3 CALLDATALOAD PUSH2 0x1ABC DUP2 PUSH2 0x19E0 JUMP JUMPDEST SWAP5 PUSH1 0x20 SWAP4 SWAP1 SWAP4 ADD CALLDATALOAD SWAP4 POP POP POP JUMP JUMPDEST PUSH1 0x0 DUP1 PUSH1 0x40 DUP4 DUP6 SUB SLT ISZERO PUSH2 0x1ADD JUMPI PUSH1 0x0 DUP1 REVERT JUMPDEST POP POP DUP1 CALLDATALOAD SWAP3 PUSH1 0x20 SWAP1 SWAP2 ADD CALLDATALOAD SWAP2 POP JUMP JUMPDEST PUSH4 0x4E487B71 PUSH1 0xE0 SHL PUSH1 0x0 MSTORE PUSH1 0x41 PUSH1 0x4 MSTORE PUSH1 0x24 PUSH1 0x0 REVERT JUMPDEST PUSH1 0x40 MLOAD PUSH1 0x1F DUP3 ADD PUSH1 0x1F NOT AND DUP2 ADD PUSH8 0xFFFFFFFFFFFFFFFF DUP2 GT DUP3 DUP3 LT OR ISZERO PUSH2 0x1B2B JUMPI PUSH2 0x1B2B PUSH2 0x1AEC JUMP JUMPDEST PUSH1 0x40 MSTORE SWAP2 SWAP1 POP JUMP JUMPDEST PUSH1 0x0 DUP3 PUSH1 0x1F DUP4 ADD SLT PUSH2 0x1B44 JUMPI PUSH1 0x0 DUP1 REVERT JUMPDEST DUP2 CALLDATALOAD PUSH1 0x20 PUSH8 0xFFFFFFFFFFFFFFFF DUP3 GT ISZERO PUSH2 0x1B60 JUMPI PUSH2 0x1B60 PUSH2 0x1AEC JUMP JUMPDEST DUP2 PUSH1 0x5 SHL PUSH2 0x1B6F DUP3 DUP3 ADD PUSH2 0x1B02 JUMP JUMPDEST SWAP3 DUP4 MSTORE DUP5 DUP2 ADD DUP3 ADD SWAP3 DUP3 DUP2 ADD SWAP1 DUP8 DUP6 GT ISZERO PUSH2 0x1B89 JUMPI PUSH1 0x0 DUP1 REVERT JUMPDEST DUP4 DUP8 ADD SWAP3 POP JUMPDEST DUP5 DUP4 LT ISZERO PUSH2 0x1BA8 JUMPI DUP3 CALLDATALOAD DUP3 MSTORE SWAP2 DUP4 ADD SWAP2 SWAP1 DUP4 ADD SWAP1 PUSH2 0x1B8F JUMP JUMPDEST SWAP8 SWAP7 POP POP POP POP POP POP POP JUMP JUMPDEST PUSH1 0x0 DUP3 PUSH1 0x1F DUP4 ADD SLT PUSH2 0x1BC4 JUMPI PUSH1 0x0 DUP1 REVERT JUMPDEST DUP2 CALLDATALOAD PUSH8 0xFFFFFFFFFFFFFFFF DUP2 GT ISZERO PUSH2 0x1BDE JUMPI PUSH2 0x1BDE PUSH2 0x1AEC JUMP JUMPDEST PUSH2 0x1BF1 PUSH1 0x1F DUP3 ADD PUSH1 0x1F NOT AND PUSH1 0x20 ADD PUSH2 0x1B02 JUMP JUMPDEST DUP2 DUP2 MSTORE DUP5 PUSH1 0x20 DUP4 DUP7 ADD ADD GT ISZERO PUSH2 0x1C06 JUMPI PUSH1 0x0 DUP1 REVERT JUMPDEST DUP2 PUSH1 0x20 DUP6 ADD PUSH1 0x20 DUP4 ADD CALLDATACOPY PUSH1 0x0 SWAP2 DUP2 ADD PUSH1 0x20 ADD SWAP2 SWAP1 SWAP2 MSTORE SWAP4 SWAP3 POP POP POP JUMP JUMPDEST PUSH1 0x0 DUP1 PUSH1 0x0 DUP1 PUSH1 0x0 PUSH1 0xA0 DUP7 DUP9 SUB SLT ISZERO PUSH2 0x1C3B JUMPI PUSH1 0x0 DUP1 REVERT JUMPDEST DUP6 CALLDATALOAD PUSH2 0x1C46 DUP2 PUSH2 0x19E0 JUMP JUMPDEST SWAP5 POP PUSH1 0x20 DUP7 ADD CALLDATALOAD PUSH2 0x1C56 DUP2 PUSH2 0x19E0 JUMP JUMPDEST SWAP4 POP PUSH1 0x40 DUP7 ADD CALLDATALOAD PUSH8 0xFFFFFFFFFFFFFFFF DUP1 DUP3 GT ISZERO PUSH2 0x1C73 JUMPI PUSH1 0x0 DUP1 REVERT JUMPDEST PUSH2 0x1C7F DUP10 DUP4 DUP11 ADD PUSH2 0x1B33 JUMP JUMPDEST SWAP5 POP PUSH1 0x60 DUP9 ADD CALLDATALOAD SWAP2 POP DUP1 DUP3 GT ISZERO PUSH2 0x1C95 JUMPI PUSH1 0x0 DUP1 REVERT JUMPDEST PUSH2 0x1CA1 DUP10 DUP4 DUP11 ADD PUSH2 0x1B33 JUMP JUMPDEST SWAP4 POP PUSH1 0x80 DUP9 ADD CALLDATALOAD SWAP2 POP DUP1 DUP3 GT ISZERO PUSH2 0x1CB7 JUMPI PUSH1 0x0 DUP1 REVERT JUMPDEST POP PUSH2 0x1CC4 DUP9 DUP3 DUP10 ADD PUSH2 0x1BB3 JUMP JUMPDEST SWAP2 POP POP SWAP3 SWAP6 POP SWAP3 SWAP6 SWAP1 SWAP4 POP JUMP JUMPDEST DUP1 ISZERO ISZERO DUP2 EQ PUSH2 0x19F5 JUMPI PUSH1 0x0 DUP1 REVERT JUMPDEST PUSH1 0x0 DUP1 PUSH1 0x40 DUP4 DUP6 SUB SLT ISZERO PUSH2 0x1CF2 JUMPI PUSH1 0x0 DUP1 REVERT JUMPDEST DUP3 CALLDATALOAD SWAP2 POP PUSH1 0x20 DUP4 ADD CALLDATALOAD PUSH2 0x1D04 DUP2 PUSH2 0x1CD1 JUMP JUMPDEST DUP1 SWAP2 POP POP SWAP3 POP SWAP3 SWAP1 POP JUMP JUMPDEST PUSH1 0x0 PUSH1 0x20 DUP3 DUP5 SUB SLT ISZERO PUSH2 0x1D21 JUMPI PUSH1 0x0 DUP1 REVERT JUMPDEST DUP2 CALLDATALOAD PUSH2 0x117F DUP2 PUSH2 0x19E0 JUMP JUMPDEST PUSH1 0x0 DUP1 PUSH1 0x0 DUP1 PUSH1 0x0 PUSH1 0xA0 DUP7 DUP9 SUB SLT ISZERO PUSH2 0x1D44 JUMPI PUSH1 0x0 DUP1 REVERT JUMPDEST DUP6 CALLDATALOAD PUSH2 0x1D4F DUP2 PUSH2 0x19E0 JUMP JUMPDEST SWAP5 POP PUSH1 0x20 DUP7 ADD CALLDATALOAD PUSH2 0x1D5F DUP2 PUSH2 0x19E0 JUMP JUMPDEST SWAP4 POP PUSH1 0x40 DUP7 ADD CALLDATALOAD SWAP3 POP PUSH1 0x60 DUP7 ADD CALLDATALOAD SWAP2 POP PUSH1 0x80 DUP7 ADD CALLDATALOAD PUSH8 0xFFFFFFFFFFFFFFFF DUP2 GT ISZERO PUSH2 0x1D89 JUMPI PUSH1 0x0 DUP1 REVERT JUMPDEST PUSH2 0x1CC4 DUP9 DUP3 DUP10 ADD PUSH2 0x1BB3 JUMP JUMPDEST PUSH1 0x0 PUSH1 0x20 DUP3 DUP5 SUB SLT ISZERO PUSH2 0x1DA7 JUMPI PUSH1 0x0 DUP1 REVERT JUMPDEST DUP2 MLOAD PUSH2 0x117F DUP2 PUSH2 0x1CD1 JUMP JUMPDEST PUSH1 0x20 DUP1 DUP3 MSTORE PUSH1 0x24 SWAP1 DUP3 ADD MSTORE PUSH32 0x57697468647261776E2070726F6A6563742063616E6E6F742062652061637469 PUSH1 0x40 DUP3 ADD MSTORE PUSH4 0x1BDB9959 PUSH1 0xE2 SHL PUSH1 0x60 DUP3 ADD MSTORE PUSH1 0x80 ADD SWAP1 JUMP JUMPDEST PUSH4 0x4E487B71 PUSH1 0xE0 SHL PUSH1 0x0 MSTORE PUSH1 0x11 PUSH1 0x4 MSTORE PUSH1 0x24 PUSH1 0x0 REVERT JUMPDEST PUSH1 0x0 DUP3 NOT DUP3 GT ISZERO PUSH2 0x1E1F JUMPI PUSH2 0x1E1F PUSH2 0x1DF6 JUMP JUMPDEST POP ADD SWAP1 JUMP JUMPDEST PUSH1 0x0 PUSH1 0x0 NOT DUP3 EQ ISZERO PUSH2 0x1E38 JUMPI PUSH2 0x1E38 PUSH2 0x1DF6 JUMP JUMPDEST POP PUSH1 0x1 ADD SWAP1 JUMP JUMPDEST PUSH1 0x0 PUSH1 0x20 DUP3 DUP5 SUB SLT ISZERO PUSH2 0x1E51 JUMPI PUSH1 0x0 DUP1 REVERT JUMPDEST DUP2 MLOAD PUSH2 0x117F DUP2 PUSH2 0x19E0 JUMP JUMPDEST PUSH1 0x20 DUP1 DUP3 MSTORE PUSH1 0x12 SWAP1 DUP3 ADD MSTORE PUSH18 0x70726F6A656374206F776E6572206F6E6C79 PUSH1 0x70 SHL PUSH1 0x40 DUP3 ADD MSTORE PUSH1 0x60 ADD SWAP1 JUMP JUMPDEST PUSH1 0x0 PUSH1 0x20 DUP3 DUP5 SUB SLT ISZERO PUSH2 0x1E9A JUMPI PUSH1 0x0 DUP1 REVERT JUMPDEST POP MLOAD SWAP2 SWAP1 POP JUMP JUMPDEST PUSH4 0x4E487B71 PUSH1 0xE0 SHL PUSH1 0x0 MSTORE PUSH1 0x1 PUSH1 0x4 MSTORE PUSH1 0x24 PUSH1 0x0 REVERT JUMPDEST PUSH1 0x1 PUSH1 0x1 PUSH1 0xA0 SHL SUB SWAP5 DUP6 AND DUP2 MSTORE SWAP3 SWAP1 SWAP4 AND PUSH1 0x20 DUP4 ADD MSTORE PUSH1 0x40 DUP3 ADD MSTORE PUSH1 0x60 DUP2 ADD SWAP2 SWAP1 SWAP2 MSTORE PUSH1 0xA0 PUSH1 0x80 DUP3 ADD DUP2 SWAP1 MSTORE PUSH1 0x0 SWAP1 DUP3 ADD MSTORE PUSH1 0xC0 ADD SWAP1 JUMP JUMPDEST PUSH1 0x20 DUP1 DUP3 MSTORE PUSH1 0x22 SWAP1 DUP3 ADD MSTORE PUSH32 0x4E6F2070726F706F73616C206F7220616C6C6F77616E63652065786861757374 PUSH1 0x40 DUP3 ADD MSTORE PUSH2 0x1959 PUSH1 0xF2 SHL PUSH1 0x60 DUP3 ADD MSTORE PUSH1 0x80 ADD SWAP1 JUMP JUMPDEST PUSH1 0x0 DUP3 DUP3 LT ISZERO PUSH2 0x1F43 JUMPI PUSH2 0x1F43 PUSH2 0x1DF6 JUMP JUMPDEST POP SUB SWAP1 JUMP JUMPDEST PUSH1 0x0 DUP2 PUSH1 0x0 NOT DIV DUP4 GT DUP3 ISZERO ISZERO AND ISZERO PUSH2 0x1F62 JUMPI PUSH2 0x1F62 PUSH2 0x1DF6 JUMP JUMPDEST POP MUL SWAP1 JUMP JUMPDEST PUSH1 0x0 DUP3 PUSH2 0x1F84 JUMPI PUSH4 0x4E487B71 PUSH1 0xE0 SHL PUSH1 0x0 MSTORE PUSH1 0x12 PUSH1 0x4 MSTORE PUSH1 0x24 PUSH1 0x0 REVERT JUMPDEST POP DIV SWAP1 JUMP INVALID LOG2 PUSH5 0x6970667358 0x22 SLT KECCAK256 0xEA TIMESTAMP PUSH14 0x5B496947C93D3C207DF523B3CFA7 SWAP2 0xF9 NOT EXP 0xF8 PUSH1 0x39 PUSH17 0xA87241CF4D2B6C64736F6C634300080900 CALLER "
		},
		"gasEstimates": {
			"creation": {
				"codeDepositCost": "2406400",
				"executionCost": "infinite",
				"totalCost": "infinite"
			},
			"external": {
				"activateProject()": "29624",
				"addCurrency(address)": "54281",
				"addressToId(address)": "462",
				"adminBlockProject()": "infinite",
				"adminRefundProject()": "infinite",
				"adminUnblockProject()": "infinite",
				"balanceOf(address,uint256)": "2712",
				"balanceOfBatch(address[],uint256[])": "infinite",
				"claimRefund(address)": "infinite",
				"communityBlockProject()": "infinite",
				"communityRefundProject(address)": "infinite",
				"communityUnblockProject()": "infinite",
				"contribute(address,address,uint256)": "infinite",
				"deactivateProject()": "27480",
				"getControllerAddress()": "2398",
				"getOverseerAddress()": "2388",
				"getProjectActive()": "2394",
				"getProjectAddress()": "345",
				"getProjectCurrencies(uint256)": "infinite",
				"getProjectLifetimeContribution(uint256)": "2538",
				"getProjectOwner()": "2375",
				"getProjectWithdrawn()": "2427",
				"getReleaseTime()": "2326",
				"isApprovedForAll(address,address)": "infinite",
				"owner()": "2376",
				"renounceOwnership()": "infinite",
				"safeBatchTransferFrom(address,address,uint256[],uint256[],bytes)": "infinite",
				"safeTransferFrom(address,address,uint256,uint256,bytes)": "infinite",
				"setApprovalForAll(address,bool)": "infinite",
				"setProjectReleaseTime(uint256)": "24608",
				"setProposalDeadline(uint256,uint256)": "infinite",
				"supportsInterface(bytes4)": "590",
				"transferOwner(address)": "26890",
				"transferOwnership(address)": "infinite",
				"uri(uint256)": "infinite",
				"withdrawAll()": "infinite",
				"withdrawProjectBalance(address,uint256,bool)": "infinite"
			},
			"internal": {
				"_blockProject()": "infinite",
				"_refundProject(contract IERC20)": "infinite",
				"_unblockProject()": "infinite"
			}
		},
		"methodIdentifiers": {
			"activateProject()": "3cb78fe0",
			"addCurrency(address)": "8ab234b6",
			"addressToId(address)": "cb0e0d7d",
			"adminBlockProject()": "c8a62968",
			"adminRefundProject()": "244c60b5",
			"adminUnblockProject()": "fb166f91",
			"balanceOf(address,uint256)": "00fdd58e",
			"balanceOfBatch(address[],uint256[])": "4e1273f4",
			"claimRefund(address)": "bffa55d5",
			"communityBlockProject()": "84dac702",
			"communityRefundProject(address)": "3cdfe210",
			"communityUnblockProject()": "7f1660a1",
			"contribute(address,address,uint256)": "8d472709",
			"deactivateProject()": "bbffd04c",
			"getControllerAddress()": "c57380a2",
			"getOverseerAddress()": "2b10d14d",
			"getProjectActive()": "4e4cffce",
			"getProjectAddress()": "d47f4d2a",
			"getProjectCurrencies(uint256)": "74f60d36",
			"getProjectLifetimeContribution(uint256)": "aa771d39",
			"getProjectOwner()": "e6d68595",
			"getProjectWithdrawn()": "348917ca",
			"getReleaseTime()": "53462d6b",
			"isApprovedForAll(address,address)": "e985e9c5",
			"owner()": "8da5cb5b",
			"renounceOwnership()": "715018a6",
			"safeBatchTransferFrom(address,address,uint256[],uint256[],bytes)": "2eb2c2d6",
			"safeTransferFrom(address,address,uint256,uint256,bytes)": "f242432a",
			"setApprovalForAll(address,bool)": "a22cb465",
			"setProjectReleaseTime(uint256)": "9bb5da78",
			"setProposalDeadline(uint256,uint256)": "765add80",
			"supportsInterface(bytes4)": "01ffc9a7",
			"transferOwner(address)": "4fb2e45d",
			"transferOwnership(address)": "f2fde38b",
			"uri(uint256)": "0e89341c",
			"withdrawAll()": "853828b6",
			"withdrawProjectBalance(address,uint256,bool)": "20eaac7d"
		}
	},
	"abi": [
		{
			"inputs": [
				{
					"internalType": "address",
					"name": "_projectOwner",
					"type": "address"
				},
				{
					"internalType": "contract IERC20",
					"name": "_currency",
					"type": "address"
				},
				{
					"internalType": "address",
					"name": "_controllerAddress",
					"type": "address"
				},
				{
					"internalType": "address",
					"name": "_contributionRouterAddress",
					"type": "address"
				},
				{
					"internalType": "bool",
					"name": "_communityOversight",
					"type": "bool"
				},
				{
					"internalType": "uint256",
					"name": "_releaseEpoch",
					"type": "uint256"
				}
			],
			"stateMutability": "nonpayable",
			"type": "constructor"
		},
		{
			"anonymous": false,
			"inputs": [
				{
					"indexed": true,
					"internalType": "address",
					"name": "account",
					"type": "address"
				},
				{
					"indexed": true,
					"internalType": "address",
					"name": "operator",
					"type": "address"
				},
				{
					"indexed": false,
					"internalType": "bool",
					"name": "approved",
					"type": "bool"
				}
			],
			"name": "ApprovalForAll",
			"type": "event"
		},
		{
			"anonymous": false,
			"inputs": [],
			"name": "Blocked",
			"type": "event"
		},
		{
			"anonymous": false,
			"inputs": [
				{
					"indexed": false,
					"internalType": "address",
					"name": "contributor",
					"type": "address"
				},
				{
					"indexed": false,
					"internalType": "contract IERC20",
					"name": "token",
					"type": "address"
				},
				{
					"indexed": false,
					"internalType": "uint256",
					"name": "amount",
					"type": "uint256"
				}
			],
			"name": "Contributed",
			"type": "event"
		},
		{
			"anonymous": false,
			"inputs": [
				{
					"indexed": true,
					"internalType": "address",
					"name": "previousOwner",
					"type": "address"
				},
				{
					"indexed": true,
					"internalType": "address",
					"name": "newOwner",
					"type": "address"
				}
			],
			"name": "OwnershipTransferred",
			"type": "event"
		},
		{
			"anonymous": false,
			"inputs": [
				{
					"indexed": false,
					"internalType": "address",
					"name": "refunder",
					"type": "address"
				},
				{
					"indexed": false,
					"internalType": "contract IERC20",
					"name": "currency",
					"type": "address"
				},
				{
					"indexed": false,
					"internalType": "uint256",
					"name": "balance",
					"type": "uint256"
				}
			],
			"name": "Refunded",
			"type": "event"
		},
		{
			"anonymous": false,
			"inputs": [
				{
					"indexed": true,
					"internalType": "address",
					"name": "operator",
					"type": "address"
				},
				{
					"indexed": true,
					"internalType": "address",
					"name": "from",
					"type": "address"
				},
				{
					"indexed": true,
					"internalType": "address",
					"name": "to",
					"type": "address"
				},
				{
					"indexed": false,
					"internalType": "uint256[]",
					"name": "ids",
					"type": "uint256[]"
				},
				{
					"indexed": false,
					"internalType": "uint256[]",
					"name": "values",
					"type": "uint256[]"
				}
			],
			"name": "TransferBatch",
			"type": "event"
		},
		{
			"anonymous": false,
			"inputs": [
				{
					"indexed": true,
					"internalType": "address",
					"name": "operator",
					"type": "address"
				},
				{
					"indexed": true,
					"internalType": "address",
					"name": "from",
					"type": "address"
				},
				{
					"indexed": true,
					"internalType": "address",
					"name": "to",
					"type": "address"
				},
				{
					"indexed": false,
					"internalType": "uint256",
					"name": "id",
					"type": "uint256"
				},
				{
					"indexed": false,
					"internalType": "uint256",
					"name": "value",
					"type": "uint256"
				}
			],
			"name": "TransferSingle",
			"type": "event"
		},
		{
			"anonymous": false,
			"inputs": [
				{
					"indexed": false,
					"internalType": "string",
					"name": "value",
					"type": "string"
				},
				{
					"indexed": true,
					"internalType": "uint256",
					"name": "id",
					"type": "uint256"
				}
			],
			"name": "URI",
			"type": "event"
		},
		{
			"anonymous": false,
			"inputs": [],
			"name": "Unblocked",
			"type": "event"
		},
		{
			"anonymous": false,
			"inputs": [
				{
					"indexed": false,
					"internalType": "address",
					"name": "owner",
					"type": "address"
				},
				{
					"indexed": false,
					"internalType": "contract IERC20",
					"name": "token",
					"type": "address"
				},
				{
					"indexed": false,
					"internalType": "uint256",
					"name": "amount",
					"type": "uint256"
				}
			],
			"name": "Withdrawn",
			"type": "event"
		},
		{
			"anonymous": false,
			"inputs": [],
			"name": "projectActivated",
			"type": "event"
		},
		{
			"anonymous": false,
			"inputs": [
				{
					"indexed": false,
					"internalType": "contract IERC20",
					"name": "newCurrency",
					"type": "address"
				}
			],
			"name": "projectCurrencyAdded",
			"type": "event"
		},
		{
			"anonymous": false,
			"inputs": [],
			"name": "projectDeactivated",
			"type": "event"
		},
		{
			"anonymous": false,
			"inputs": [
				{
					"indexed": false,
					"internalType": "address",
					"name": "projectOwner",
					"type": "address"
				},
				{
					"indexed": false,
					"internalType": "uint256",
					"name": "releaseEpoch",
					"type": "uint256"
				}
			],
			"name": "projectInitiated",
			"type": "event"
		},
		{
			"anonymous": false,
			"inputs": [
				{
					"indexed": false,
					"internalType": "address",
					"name": "newOwner",
					"type": "address"
				}
			],
			"name": "projectOwnerChanged",
			"type": "event"
		},
		{
			"inputs": [],
			"name": "activateProject",
			"outputs": [
				{
					"internalType": "bool",
					"name": "",
					"type": "bool"
				}
			],
			"stateMutability": "nonpayable",
			"type": "function"
		},
		{
			"inputs": [
				{
					"internalType": "contract IERC20",
					"name": "_newCurrency",
					"type": "address"
				}
			],
			"name": "addCurrency",
			"outputs": [
				{
					"internalType": "bool",
					"name": "",
					"type": "bool"
				}
			],
			"stateMutability": "nonpayable",
			"type": "function"
		},
		{
			"inputs": [
				{
					"internalType": "contract IERC20",
					"name": "_currency",
					"type": "address"
				}
			],
			"name": "addressToId",
			"outputs": [
				{
					"internalType": "uint256",
					"name": "",
					"type": "uint256"
				}
			],
			"stateMutability": "pure",
			"type": "function"
		},
		{
			"inputs": [],
			"name": "adminBlockProject",
			"outputs": [
				{
					"internalType": "bool",
					"name": "",
					"type": "bool"
				}
			],
			"stateMutability": "nonpayable",
			"type": "function"
		},
		{
			"inputs": [],
			"name": "adminRefundProject",
			"outputs": [
				{
					"internalType": "bool",
					"name": "",
					"type": "bool"
				}
			],
			"stateMutability": "nonpayable",
			"type": "function"
		},
		{
			"inputs": [],
			"name": "adminUnblockProject",
			"outputs": [
				{
					"internalType": "bool",
					"name": "",
					"type": "bool"
				}
			],
			"stateMutability": "nonpayable",
			"type": "function"
		},
		{
			"inputs": [
				{
					"internalType": "address",
					"name": "account",
					"type": "address"
				},
				{
					"internalType": "uint256",
					"name": "id",
					"type": "uint256"
				}
			],
			"name": "balanceOf",
			"outputs": [
				{
					"internalType": "uint256",
					"name": "",
					"type": "uint256"
				}
			],
			"stateMutability": "view",
			"type": "function"
		},
		{
			"inputs": [
				{
					"internalType": "address[]",
					"name": "accounts",
					"type": "address[]"
				},
				{
					"internalType": "uint256[]",
					"name": "ids",
					"type": "uint256[]"
				}
			],
			"name": "balanceOfBatch",
			"outputs": [
				{
					"internalType": "uint256[]",
					"name": "",
					"type": "uint256[]"
				}
			],
			"stateMutability": "view",
			"type": "function"
		},
		{
			"inputs": [
				{
					"internalType": "contract IERC20",
					"name": "_currency",
					"type": "address"
				}
			],
			"name": "claimRefund",
			"outputs": [
				{
					"internalType": "bool",
					"name": "",
					"type": "bool"
				}
			],
			"stateMutability": "nonpayable",
			"type": "function"
		},
		{
			"inputs": [],
			"name": "communityBlockProject",
			"outputs": [
				{
					"internalType": "bool",
					"name": "",
					"type": "bool"
				}
			],
			"stateMutability": "nonpayable",
			"type": "function"
		},
		{
			"inputs": [
				{
					"internalType": "contract IERC20",
					"name": "_currency",
					"type": "address"
				}
			],
			"name": "communityRefundProject",
			"outputs": [
				{
					"internalType": "bool",
					"name": "",
					"type": "bool"
				}
			],
			"stateMutability": "nonpayable",
			"type": "function"
		},
		{
			"inputs": [],
			"name": "communityUnblockProject",
			"outputs": [
				{
					"internalType": "bool",
					"name": "",
					"type": "bool"
				}
			],
			"stateMutability": "nonpayable",
			"type": "function"
		},
		{
			"inputs": [
				{
					"internalType": "address",
					"name": "_contributor",
					"type": "address"
				},
				{
					"internalType": "contract IERC20",
					"name": "_projectCurrency",
					"type": "address"
				},
				{
					"internalType": "uint256",
					"name": "_amount",
					"type": "uint256"
				}
			],
			"name": "contribute",
			"outputs": [
				{
					"internalType": "bool",
					"name": "",
					"type": "bool"
				}
			],
			"stateMutability": "nonpayable",
			"type": "function"
		},
		{
			"inputs": [],
			"name": "deactivateProject",
			"outputs": [
				{
					"internalType": "bool",
					"name": "",
					"type": "bool"
				}
			],
			"stateMutability": "nonpayable",
			"type": "function"
		},
		{
			"inputs": [],
			"name": "getControllerAddress",
			"outputs": [
				{
					"internalType": "address",
					"name": "",
					"type": "address"
				}
			],
			"stateMutability": "view",
			"type": "function"
		},
		{
			"inputs": [],
			"name": "getOverseerAddress",
			"outputs": [
				{
					"internalType": "address",
					"name": "",
					"type": "address"
				}
			],
			"stateMutability": "view",
			"type": "function"
		},
		{
			"inputs": [],
			"name": "getProjectActive",
			"outputs": [
				{
					"internalType": "bool",
					"name": "",
					"type": "bool"
				}
			],
			"stateMutability": "view",
			"type": "function"
		},
		{
			"inputs": [],
			"name": "getProjectAddress",
			"outputs": [
				{
					"internalType": "address",
					"name": "",
					"type": "address"
				}
			],
			"stateMutability": "view",
			"type": "function"
		},
		{
			"inputs": [
				{
					"internalType": "uint256",
					"name": "",
					"type": "uint256"
				}
			],
			"name": "getProjectCurrencies",
			"outputs": [
				{
					"internalType": "contract IERC20[]",
					"name": "",
					"type": "address[]"
				}
			],
			"stateMutability": "view",
			"type": "function"
		},
		{
			"inputs": [
				{
					"internalType": "uint256",
					"name": "_currencyId",
					"type": "uint256"
				}
			],
			"name": "getProjectLifetimeContribution",
			"outputs": [
				{
					"internalType": "uint256",
					"name": "",
					"type": "uint256"
				}
			],
			"stateMutability": "view",
			"type": "function"
		},
		{
			"inputs": [],
			"name": "getProjectOwner",
			"outputs": [
				{
					"internalType": "address",
					"name": "",
					"type": "address"
				}
			],
			"stateMutability": "view",
			"type": "function"
		},
		{
			"inputs": [],
			"name": "getProjectWithdrawn",
			"outputs": [
				{
					"internalType": "bool",
					"name": "",
					"type": "bool"
				}
			],
			"stateMutability": "view",
			"type": "function"
		},
		{
			"inputs": [],
			"name": "getReleaseTime",
			"outputs": [
				{
					"internalType": "uint256",
					"name": "",
					"type": "uint256"
				}
			],
			"stateMutability": "view",
			"type": "function"
		},
		{
			"inputs": [
				{
					"internalType": "address",
					"name": "account",
					"type": "address"
				},
				{
					"internalType": "address",
					"name": "operator",
					"type": "address"
				}
			],
			"name": "isApprovedForAll",
			"outputs": [
				{
					"internalType": "bool",
					"name": "",
					"type": "bool"
				}
			],
			"stateMutability": "view",
			"type": "function"
		},
		{
			"inputs": [],
			"name": "owner",
			"outputs": [
				{
					"internalType": "address",
					"name": "",
					"type": "address"
				}
			],
			"stateMutability": "view",
			"type": "function"
		},
		{
			"inputs": [],
			"name": "renounceOwnership",
			"outputs": [],
			"stateMutability": "nonpayable",
			"type": "function"
		},
		{
			"inputs": [
				{
					"internalType": "address",
					"name": "from",
					"type": "address"
				},
				{
					"internalType": "address",
					"name": "to",
					"type": "address"
				},
				{
					"internalType": "uint256[]",
					"name": "ids",
					"type": "uint256[]"
				},
				{
					"internalType": "uint256[]",
					"name": "amounts",
					"type": "uint256[]"
				},
				{
					"internalType": "bytes",
					"name": "data",
					"type": "bytes"
				}
			],
			"name": "safeBatchTransferFrom",
			"outputs": [],
			"stateMutability": "nonpayable",
			"type": "function"
		},
		{
			"inputs": [
				{
					"internalType": "address",
					"name": "from",
					"type": "address"
				},
				{
					"internalType": "address",
					"name": "to",
					"type": "address"
				},
				{
					"internalType": "uint256",
					"name": "id",
					"type": "uint256"
				},
				{
					"internalType": "uint256",
					"name": "amount",
					"type": "uint256"
				},
				{
					"internalType": "bytes",
					"name": "data",
					"type": "bytes"
				}
			],
			"name": "safeTransferFrom",
			"outputs": [],
			"stateMutability": "nonpayable",
			"type": "function"
		},
		{
			"inputs": [
				{
					"internalType": "address",
					"name": "operator",
					"type": "address"
				},
				{
					"internalType": "bool",
					"name": "approved",
					"type": "bool"
				}
			],
			"name": "setApprovalForAll",
			"outputs": [],
			"stateMutability": "nonpayable",
			"type": "function"
		},
		{
			"inputs": [
				{
					"internalType": "uint256",
					"name": "_newValue",
					"type": "uint256"
				}
			],
			"name": "setProjectReleaseTime",
			"outputs": [
				{
					"internalType": "bool",
					"name": "",
					"type": "bool"
				}
			],
			"stateMutability": "nonpayable",
			"type": "function"
		},
		{
			"inputs": [
				{
					"internalType": "uint256",
					"name": "_proposalId",
					"type": "uint256"
				},
				{
					"internalType": "uint256",
					"name": "_newValue",
					"type": "uint256"
				}
			],
			"name": "setProposalDeadline",
			"outputs": [
				{
					"internalType": "bool",
					"name": "",
					"type": "bool"
				}
			],
			"stateMutability": "nonpayable",
			"type": "function"
		},
		{
			"inputs": [
				{
					"internalType": "bytes4",
					"name": "interfaceId",
					"type": "bytes4"
				}
			],
			"name": "supportsInterface",
			"outputs": [
				{
					"internalType": "bool",
					"name": "",
					"type": "bool"
				}
			],
			"stateMutability": "view",
			"type": "function"
		},
		{
			"inputs": [
				{
					"internalType": "address",
					"name": "_newOwner",
					"type": "address"
				}
			],
			"name": "transferOwner",
			"outputs": [
				{
					"internalType": "bool",
					"name": "",
					"type": "bool"
				}
			],
			"stateMutability": "nonpayable",
			"type": "function"
		},
		{
			"inputs": [
				{
					"internalType": "address",
					"name": "newOwner",
					"type": "address"
				}
			],
			"name": "transferOwnership",
			"outputs": [],
			"stateMutability": "nonpayable",
			"type": "function"
		},
		{
			"inputs": [
				{
					"internalType": "uint256",
					"name": "",
					"type": "uint256"
				}
			],
			"name": "uri",
			"outputs": [
				{
					"internalType": "string",
					"name": "",
					"type": "string"
				}
			],
			"stateMutability": "view",
			"type": "function"
		},
		{
			"inputs": [],
			"name": "withdrawAll",
			"outputs": [
				{
					"internalType": "bool",
					"name": "",
					"type": "bool"
				}
			],
			"stateMutability": "nonpayable",
			"type": "function"
		},
		{
			"inputs": [
				{
					"internalType": "contract IERC20",
					"name": "_currency",
					"type": "address"
				},
				{
					"internalType": "uint256",
					"name": "_withdrawalAmount",
					"type": "uint256"
				},
				{
					"internalType": "bool",
					"name": "_isShutdown",
					"type": "bool"
				}
			],
			"name": "withdrawProjectBalance",
			"outputs": [
				{
					"internalType": "bool",
					"name": "",
					"type": "bool"
				}
			],
			"stateMutability": "nonpayable",
			"type": "function"
		}
	]
}