{
	"contracts/utils.sol": {
		"FundoorUtils": {
			"abi": [
				{
					"inputs": [],
					"name": "timenow",
					"outputs": [
						{
							"internalType": "uint256",
							"name": "",
							"type": "uint256"
						}
					],
					"stateMutability": "view",
					"type": "function"
				}
			],
			"devdoc": {
				"kind": "dev",
				"methods": {},
				"version": 1
			},
			"evm": {
				"assembly": "    /* \"contracts/utils.sol\":57:174  contract FundoorUtils {... */\n  mstore(0x40, 0x80)\n  callvalue\n  dup1\n  iszero\n  tag_1\n  jumpi\n  0x00\n  dup1\n  revert\ntag_1:\n  pop\n  dataSize(sub_0)\n  dup1\n  dataOffset(sub_0)\n  0x00\n  codecopy\n  0x00\n  return\nstop\n\nsub_0: assembly {\n        /* \"contracts/utils.sol\":57:174  contract FundoorUtils {... */\n      mstore(0x40, 0x80)\n      callvalue\n      dup1\n      iszero\n      tag_1\n      jumpi\n      0x00\n      dup1\n      revert\n    tag_1:\n      pop\n      jumpi(tag_2, lt(calldatasize, 0x04))\n      shr(0xe0, calldataload(0x00))\n      dup1\n      0x3fae1928\n      eq\n      tag_3\n      jumpi\n    tag_2:\n      0x00\n      dup1\n      revert\n        /* \"contracts/utils.sol\":85:172  function timenow() external view returns (uint) {... */\n    tag_3:\n        /* \"contracts/utils.sol\":150:165  block.timestamp */\n      timestamp\n        /* \"contracts/utils.sol\":85:172  function timenow() external view returns (uint) {... */\n      mload(0x40)\n        /* \"#utility.yul\":160:185   */\n      swap1\n      dup2\n      mstore\n        /* \"#utility.yul\":148:150   */\n      0x20\n        /* \"#utility.yul\":133:151   */\n      add\n        /* \"contracts/utils.sol\":85:172  function timenow() external view returns (uint) {... */\n      mload(0x40)\n      dup1\n      swap2\n      sub\n      swap1\n      return\n\n    auxdata: 0xa26469706673582212200606268307472a8421e760a55fb18f33d0bb0775ad0a5ef9d3dc727443a9109164736f6c63430008090033\n}\n",
				"bytecode": {
					"linkReferences": {},
					"object": "6080604052348015600f57600080fd5b50607680601d6000396000f3fe6080604052348015600f57600080fd5b506004361060285760003560e01c80633fae192814602d575b600080fd5b4260405190815260200160405180910390f3fea26469706673582212200606268307472a8421e760a55fb18f33d0bb0775ad0a5ef9d3dc727443a9109164736f6c63430008090033",
					"opcodes": "PUSH1 0x80 PUSH1 0x40 MSTORE CALLVALUE DUP1 ISZERO PUSH1 0xF JUMPI PUSH1 0x0 DUP1 REVERT JUMPDEST POP PUSH1 0x76 DUP1 PUSH1 0x1D PUSH1 0x0 CODECOPY PUSH1 0x0 RETURN INVALID PUSH1 0x80 PUSH1 0x40 MSTORE CALLVALUE DUP1 ISZERO PUSH1 0xF JUMPI PUSH1 0x0 DUP1 REVERT JUMPDEST POP PUSH1 0x4 CALLDATASIZE LT PUSH1 0x28 JUMPI PUSH1 0x0 CALLDATALOAD PUSH1 0xE0 SHR DUP1 PUSH4 0x3FAE1928 EQ PUSH1 0x2D JUMPI JUMPDEST PUSH1 0x0 DUP1 REVERT JUMPDEST TIMESTAMP PUSH1 0x40 MLOAD SWAP1 DUP2 MSTORE PUSH1 0x20 ADD PUSH1 0x40 MLOAD DUP1 SWAP2 SUB SWAP1 RETURN INVALID LOG2 PUSH5 0x6970667358 0x22 SLT KECCAK256 MOD MOD 0x26 DUP4 SMOD SELFBALANCE 0x2A DUP5 0x21 0xE7 PUSH1 0xA5 0x5F 0xB1 DUP16 CALLER 0xD0 0xBB SMOD PUSH22 0xAD0A5EF9D3DC727443A9109164736F6C634300080900 CALLER "
				},
				"gasEstimates": {
					"creation": {
						"codeDepositCost": "23600",
						"executionCost": "75",
						"totalCost": "23675"
					},
					"external": {
						"timenow()": "145"
					}
				},
				"methodIdentifiers": {
					"timenow()": "3fae1928"
				}
			},
			"storageLayout": {
				"storage": [],
				"types": null
			},
			"userdoc": {
				"kind": "user",
				"methods": {},
				"version": 1
			}
		}
	}
}