{
	"contracts/FundoorLib.sol": {
		"FundoorLib": {
			"abi": [
				{
					"inputs": [
						{
							"internalType": "uint256",
							"name": "a",
							"type": "uint256"
						},
						{
							"internalType": "uint256",
							"name": "b",
							"type": "uint256"
						}
					],
					"name": "max",
					"outputs": [
						{
							"internalType": "uint256",
							"name": "",
							"type": "uint256"
						}
					],
					"stateMutability": "pure",
					"type": "function"
				},
				{
					"inputs": [
						{
							"internalType": "uint256",
							"name": "a",
							"type": "uint256"
						},
						{
							"internalType": "uint256",
							"name": "b",
							"type": "uint256"
						}
					],
					"name": "min",
					"outputs": [
						{
							"internalType": "uint256",
							"name": "",
							"type": "uint256"
						}
					],
					"stateMutability": "pure",
					"type": "function"
				}
			],
			"devdoc": {
				"kind": "dev",
				"methods": {},
				"version": 1
			},
			"evm": {
				"assembly": "    /* \"contracts/FundoorLib.sol\":106:343  library FundoorLib {... */\n  dataSize(sub_0)\n  dataOffset(sub_0)\n  0x0b\n  dup3\n  dup3\n  dup3\n  codecopy\n  dup1\n  mload\n  0x00\n  byte\n  0x73\n  eq\n  tag_1\n  jumpi\n  mstore(0x00, shl(0xe0, 0x4e487b71))\n  mstore(0x04, 0x00)\n  revert(0x00, 0x24)\ntag_1:\n  mstore(0x00, address)\n  0x73\n  dup2\n  mstore8\n  dup3\n  dup2\n  return\nstop\n\nsub_0: assembly {\n        /* \"contracts/FundoorLib.sol\":106:343  library FundoorLib {... */\n      eq(address, deployTimeAddress())\n      mstore(0x40, 0x80)\n      jumpi(tag_1, lt(calldatasize, 0x04))\n      shr(0xe0, calldataload(0x00))\n      dup1\n      0x6d5433e6\n      eq\n      tag_2\n      jumpi\n      dup1\n      0x7ae2b5c7\n      eq\n      tag_3\n      jumpi\n    tag_1:\n      0x00\n      dup1\n      revert\n        /* \"contracts/FundoorLib.sol\":239:341  function max(uint256 a, uint256 b) public pure returns (uint256) {... */\n    tag_2:\n      tag_4\n      tag_5\n      calldatasize\n      0x04\n      tag_6\n      jump\t// in\n    tag_5:\n      tag_7\n      jump\t// in\n    tag_4:\n      mload(0x40)\n        /* \"#utility.yul\":421:446   */\n      swap1\n      dup2\n      mstore\n        /* \"#utility.yul\":409:411   */\n      0x20\n        /* \"#utility.yul\":394:412   */\n      add\n        /* \"contracts/FundoorLib.sol\":239:341  function max(uint256 a, uint256 b) public pure returns (uint256) {... */\n      mload(0x40)\n      dup1\n      swap2\n      sub\n      swap1\n      return\n        /* \"contracts/FundoorLib.sol\":131:233  function min(uint256 a, uint256 b) public pure returns (uint256) {... */\n    tag_3:\n      tag_4\n      tag_11\n      calldatasize\n      0x04\n      tag_6\n      jump\t// in\n    tag_11:\n      tag_12\n      jump\t// in\n        /* \"contracts/FundoorLib.sol\":239:341  function max(uint256 a, uint256 b) public pure returns (uint256) {... */\n    tag_7:\n        /* \"contracts/FundoorLib.sol\":295:302  uint256 */\n      0x00\n        /* \"contracts/FundoorLib.sol\":325:326  b */\n      dup2\n        /* \"contracts/FundoorLib.sol\":321:322  a */\n      dup4\n        /* \"contracts/FundoorLib.sol\":321:326  a > b */\n      gt\n        /* \"contracts/FundoorLib.sol\":321:334  a > b ? a : b */\n      tag_15\n      jumpi\n        /* \"contracts/FundoorLib.sol\":333:334  b */\n      dup2\n        /* \"contracts/FundoorLib.sol\":321:334  a > b ? a : b */\n      jump(tag_16)\n    tag_15:\n        /* \"contracts/FundoorLib.sol\":329:330  a */\n      dup3\n        /* \"contracts/FundoorLib.sol\":321:334  a > b ? a : b */\n    tag_16:\n        /* \"contracts/FundoorLib.sol\":314:334  return a > b ? a : b */\n      swap4\n        /* \"contracts/FundoorLib.sol\":239:341  function max(uint256 a, uint256 b) public pure returns (uint256) {... */\n      swap3\n      pop\n      pop\n      pop\n      jump\t// out\n        /* \"contracts/FundoorLib.sol\":131:233  function min(uint256 a, uint256 b) public pure returns (uint256) {... */\n    tag_12:\n        /* \"contracts/FundoorLib.sol\":187:194  uint256 */\n      0x00\n        /* \"contracts/FundoorLib.sol\":217:218  b */\n      dup2\n        /* \"contracts/FundoorLib.sol\":213:214  a */\n      dup4\n        /* \"contracts/FundoorLib.sol\":213:218  a < b */\n      lt\n        /* \"contracts/FundoorLib.sol\":213:226  a < b ? a : b */\n      tag_15\n      jumpi\n        /* \"contracts/FundoorLib.sol\":225:226  b */\n      dup2\n        /* \"contracts/FundoorLib.sol\":213:226  a < b ? a : b */\n      jump(tag_16)\n        /* \"#utility.yul\":14:262   */\n    tag_6:\n        /* \"#utility.yul\":82:88   */\n      0x00\n        /* \"#utility.yul\":90:96   */\n      dup1\n        /* \"#utility.yul\":143:145   */\n      0x40\n        /* \"#utility.yul\":131:140   */\n      dup4\n        /* \"#utility.yul\":122:129   */\n      dup6\n        /* \"#utility.yul\":118:141   */\n      sub\n        /* \"#utility.yul\":114:146   */\n      slt\n        /* \"#utility.yul\":111:163   */\n      iszero\n      tag_22\n      jumpi\n        /* \"#utility.yul\":159:160   */\n      0x00\n        /* \"#utility.yul\":156:157   */\n      dup1\n        /* \"#utility.yul\":149:161   */\n      revert\n        /* \"#utility.yul\":111:163   */\n    tag_22:\n      pop\n      pop\n        /* \"#utility.yul\":182:205   */\n      dup1\n      calldataload\n      swap3\n        /* \"#utility.yul\":252:254   */\n      0x20\n        /* \"#utility.yul\":237:255   */\n      swap1\n      swap2\n      add\n        /* \"#utility.yul\":224:256   */\n      calldataload\n      swap2\n      pop\n        /* \"#utility.yul\":14:262   */\n      jump\t// out\n\n    auxdata: 0xa26469706673582212207d68a5004c1420bb1e8dfc335c67bb8220a9ea1b3545992060e85eb37e83ce4064736f6c63430008140033\n}\n",
				"bytecode": {
					"linkReferences": {},
					"object": "60e6610034600b8282823980515f1a60731461002857634e487b7160e01b5f525f60045260245ffd5b305f52607381538281f3fe7300000000000000000000000000000000000000003014608060405260043610603c575f3560e01c80636d5433e61460405780637ae2b5c7146061575b5f80fd5b604f604b3660046091565b6070565b60405190815260200160405180910390f35b604f606c3660046091565b6085565b5f818311607c5781607e565b825b9392505050565b5f818310607c5781607e565b5f806040838503121560a1575f80fd5b5050803592602090910135915056fea26469706673582212207d68a5004c1420bb1e8dfc335c67bb8220a9ea1b3545992060e85eb37e83ce4064736f6c63430008140033",
					"opcodes": "PUSH1 0xE6 PUSH2 0x34 PUSH1 0xB DUP3 DUP3 DUP3 CODECOPY DUP1 MLOAD PUSH0 BYTE PUSH1 0x73 EQ PUSH2 0x28 JUMPI PUSH4 0x4E487B71 PUSH1 0xE0 SHL PUSH0 MSTORE PUSH0 PUSH1 0x4 MSTORE PUSH1 0x24 PUSH0 REVERT JUMPDEST ADDRESS PUSH0 MSTORE PUSH1 0x73 DUP2 MSTORE8 DUP3 DUP2 RETURN INVALID PUSH20 0x0 ADDRESS EQ PUSH1 0x80 PUSH1 0x40 MSTORE PUSH1 0x4 CALLDATASIZE LT PUSH1 0x3C JUMPI PUSH0 CALLDATALOAD PUSH1 0xE0 SHR DUP1 PUSH4 0x6D5433E6 EQ PUSH1 0x40 JUMPI DUP1 PUSH4 0x7AE2B5C7 EQ PUSH1 0x61 JUMPI JUMPDEST PUSH0 DUP1 REVERT JUMPDEST PUSH1 0x4F PUSH1 0x4B CALLDATASIZE PUSH1 0x4 PUSH1 0x91 JUMP JUMPDEST PUSH1 0x70 JUMP JUMPDEST PUSH1 0x40 MLOAD SWAP1 DUP2 MSTORE PUSH1 0x20 ADD PUSH1 0x40 MLOAD DUP1 SWAP2 SUB SWAP1 RETURN JUMPDEST PUSH1 0x4F PUSH1 0x6C CALLDATASIZE PUSH1 0x4 PUSH1 0x91 JUMP JUMPDEST PUSH1 0x85 JUMP JUMPDEST PUSH0 DUP2 DUP4 GT PUSH1 0x7C JUMPI DUP2 PUSH1 0x7E JUMP JUMPDEST DUP3 JUMPDEST SWAP4 SWAP3 POP POP POP JUMP JUMPDEST PUSH0 DUP2 DUP4 LT PUSH1 0x7C JUMPI DUP2 PUSH1 0x7E JUMP JUMPDEST PUSH0 DUP1 PUSH1 0x40 DUP4 DUP6 SUB SLT ISZERO PUSH1 0xA1 JUMPI PUSH0 DUP1 REVERT JUMPDEST POP POP DUP1 CALLDATALOAD SWAP3 PUSH1 0x20 SWAP1 SWAP2 ADD CALLDATALOAD SWAP2 POP JUMP INVALID LOG2 PUSH5 0x6970667358 0x22 SLT KECCAK256 PUSH30 0x68A5004C1420BB1E8DFC335C67BB8220A9EA1B3545992060E85EB37E83CE BLOCKHASH PUSH5 0x736F6C6343 STOP ADDMOD EQ STOP CALLER "
				},
				"gasEstimates": {
					"creation": {
						"codeDepositCost": "46000",
						"executionCost": "126",
						"totalCost": "46126"
					},
					"external": {
						"max(uint256,uint256)": "300",
						"min(uint256,uint256)": "322"
					}
				},
				"methodIdentifiers": {
					"max(uint256,uint256)": "6d5433e6",
					"min(uint256,uint256)": "7ae2b5c7"
				}
			},
			"storageLayout": {
				"storage": [],
				"types": null
			},
			"userdoc": {
				"kind": "user",
				"methods": {},
				"version": 1
			}
		}
	}
}