{
	"data": {
		"bytecode": {
			"linkReferences": {
				"contracts/FundoorLib.sol": {
					"FundoorLib": [
						{
							"length": 20,
							"start": 3620
						},
						{
							"length": 20,
							"start": 3922
						}
					]
				}
			},
			"object": "608060405234801561000f575f80fd5b506153b08061001d5f395ff3fe608060405234801561000f575f80fd5b5060043610610034575f3560e01c806353d380e514610038578063dcc6012814610060575b5f80fd5b61004b6100463660046101b6565b610075565b60405190151581526020015b60405180910390f35b610068610133565b604051610057919061021a565b5f8033878787878760405161008990610192565b6001600160a01b0396871681529486166020860152928516604085015293166060830152911515608082015260a081019190915260c001604051809103905ff0801580156100d9573d5f803e3d5ffd5b505f8054600180820183559180527f290decd9548b62a8d60345a988386fc84ba6bc95484008f6362f93160ef3e5630180546001600160a01b0319166001600160a01b039390931692909217909155979650505050505050565b60605f80548060200260200160405190810160405280929190818152602001828054801561018857602002820191905f5260205f20905b81546001600160a01b0316815260019091019060200180831161016a575b5050505050905090565b6151148061026783390190565b6001600160a01b03811681146101b3575f80fd5b50565b5f805f805f60a086880312156101ca575f80fd5b85356101d58161019f565b945060208601356101e58161019f565b935060408601356101f58161019f565b925060608601358015158114610209575f80fd5b949793965091946080013592915050565b602080825282518282018190525f9190848201906040850190845b8181101561025a5783516001600160a01b031683529284019291840191600101610235565b5090969550505050505056fe608060405234801562000010575f80fd5b506040516200511438038062005114833981016040819052620000339162000290565b60408051602081019091525f81526200004c8162000207565b50620000583362000219565b600480546001600160a01b038087166001600160a01b03199283161790925560058054928616929091169190911790558115620000ea57306040516200009e906200026a565b6001600160a01b039091168152602001604051809103905ff080158015620000c8573d5f803e3d5ffd5b50600680546001600160a01b0319166001600160a01b03929092169190911790555b600780546001600160a01b0319166001600160a01b038816908117909155600b82905560408051918252602082018390527fc6b5d036565220527ce1cfc38a372c78adb8308d835c5c803fb3a17d0a106549910160405180910390a1600880546001810182555f919091527ff3f7a9fe364faab93b216da50a3214154f22a0a2b415b23a84c8169e8b636ee30180546001600160a01b0319166001600160a01b0387169081179091556040519081527fec38796d17f4fa8c88de20f9fb9da605573fdcb1dd79c6d39683df6d64175e5f9060200160405180910390a1600c805460ff191660011790556040517f1611757e154fd5430178688b28bebeab61bb8acec2b806091026e8b0fc3e7164905f90a15050505050506200047f565b6002620002158282620003b7565b5050565b600380546001600160a01b038381166001600160a01b0319831681179093556040519116919082907f8be0079c531659141344cd1fd0a4f28419497f9722a3daafe3b4186f6b6457e0905f90a35050565b61202880620030ec83390190565b6001600160a01b03811681146200028d575f80fd5b50565b5f805f805f8060c08789031215620002a6575f80fd5b8651620002b38162000278565b6020880151909650620002c68162000278565b6040880151909550620002d98162000278565b6060880151909450620002ec8162000278565b6080880151909350801515811462000302575f80fd5b8092505060a087015190509295509295509295565b634e487b7160e01b5f52604160045260245ffd5b600181811c908216806200034057607f821691505b6020821081036200035f57634e487b7160e01b5f52602260045260245ffd5b50919050565b601f821115620003b2575f81815260208120601f850160051c810160208610156200038d5750805b601f850160051c820191505b81811015620003ae5782815560010162000399565b5050505b505050565b81516001600160401b03811115620003d357620003d362000317565b620003eb81620003e484546200032b565b8462000365565b602080601f83116001811462000421575f8415620004095750858301515b5f19600386901b1c1916600185901b178555620003ae565b5f85815260208120601f198616915b82811015620004515788860151825594840194600190910190840162000430565b50858210156200046f57878501515f19600388901b60f8161c191681555b5050505050600190811b01905550565b612c5f806200048d5f395ff3fe608060405234801561000f575f80fd5b50600436106101e1575f3560e01c806384dac7021161010c578063c57380a2116100a5578063c57380a2146103e3578063c8a62968146103f4578063cb0e0d7d146103fc578063d47f4d2a14610416578063dc3f58631461041c578063e6d685951461042d578063e985e9c51461043e578063f242432a14610479578063f2fde38b1461048c578063fb166f911461049f575f80fd5b806384dac70214610344578063853828b61461034c5780638ab234b6146103545780638d472709146103675780638da5cb5b1461037a5780639bb5da781461038b578063a22cb4651461039e578063aa771d39146103b1578063bffa55d5146103d0575f80fd5b80634e1273f41161017e5780634e1273f4146102b35780634e4cffce146102d35780634fb2e45d146102de57806353462d6b146102f1578063715018a6146102f957806374f60d3614610301578063765add80146103215780637f1660a1146103345780638405ca671461033c575f80fd5b8062fdd58e146101e557806301ffc9a71461020b5780630e89341c1461022e57806320eaac7d1461024e578063244c60b5146102615780632a82cd87146102695780632b10d14d146102715780632eb2c2d61461028b5780633cdfe210146102a0575b5f80fd5b6101f86101f3366004612169565b6104a7565b6040519081526020015b60405180910390f35b61021e6102193660046121a8565b61053e565b6040519015158152602001610202565b61024161023c3660046121c3565b61058d565b604051610202919061221d565b61021e61025c36600461223c565b61061f565b61021e610a77565b61021e610b05565b6006546001600160a01b03165b604051610202919061227b565b61029e6102993660046123ce565b610b3e565b005b61021e6102ae366004612474565b610b8a565b6102c66102c136600461248f565b610bbf565b604051610202919061258e565b600c5460ff1661021e565b61021e6102ec366004612474565b610ce6565b600b546101f8565b61029e610d37565b61031461030f3660046121c3565b610d4a565b60405161020291906125a0565b61021e61032f3660046125ec565b610dab565b61021e610e50565b61021e610e84565b61021e610ece565b61021e610f02565b61021e610362366004612474565b611047565b61021e61037536600461260c565b61111f565b6003546001600160a01b031661027e565b61021e6103993660046121c3565b611244565b61029e6103ac36600461264a565b611279565b6101f86103bf3660046121c3565b5f9081526009602052604090205490565b61021e6103de366004612474565b611288565b6004546001600160a01b031661027e565b61021e611489565b6101f861040a366004612474565b6001600160a01b031690565b3061027e565b600c5462010000900460ff1661021e565b6007546001600160a01b031661027e565b61021e61044c366004612681565b6001600160a01b039182165f90815260016020908152604080832093909416825291909152205460ff1690565b61029e6104873660046126ad565b6114b5565b61029e61049a366004612474565b6114fa565b61021e611573565b5f6001600160a01b0383166105165760405162461bcd60e51b815260206004820152602a60248201527f455243313135353a2061646472657373207a65726f206973206e6f742061207660448201526930b634b21037bbb732b960b11b60648201526084015b60405180910390fd5b505f818152602081815260408083206001600160a01b03861684529091529020545b92915050565b5f6001600160e01b03198216636cdb3d1360e11b148061056e57506001600160e01b031982166303a24d0760e21b145b8061053857506301ffc9a760e01b6001600160e01b0319831614610538565b60606002805461059c90612710565b80601f01602080910402602001604051908101604052809291908181526020018280546105c890612710565b80156106135780601f106105ea57610100808354040283529160200191610613565b820191905f5260205f20905b8154815290600101906020018083116105f657829003601f168201915b50505050509050919050565b5f600b544210156106425760405162461bcd60e51b815260040161050d90612748565b6004546001600160a01b0316331461066c5760405162461bcd60e51b815260040161050d9061276a565b600c54610100900460ff1615610684576106846127af565b6040516370a0823160e01b81525f906001600160a01b038616906370a08231906106b290309060040161227b565b602060405180830381865afa1580156106cd573d5f803e3d5ffd5b505050506040513d601f19601f820116820180604052508101906106f191906127c3565b604051637ae2b5c760e01b815260048101869052602481018290529091505f9073__$63fe6f2e45cda758ee0ef974b91f7c72a2$__90637ae2b5c790604401602060405180830381865af415801561074b573d5f803e3d5ffd5b505050506040513d601f19601f8201168201806040525081019061076f91906127c3565b6006549091506001600160a01b03161561099557600654604051636582b41d60e11b81525f916001600160a01b03169063cb05683a906107b3908a9060040161227b565b602060405180830381865afa1580156107ce573d5f803e3d5ffd5b505050506040513d601f19601f820116820180604052508101906107f291906127c3565b1161082f5760405162461bcd60e51b815260206004820152600d60248201526c139bdb9948185c1c1c9bdd9959609a1b604482015260640161050d565b600654604051636582b41d60e11b815273__$63fe6f2e45cda758ee0ef974b91f7c72a2$__91637ae2b5c7916001600160a01b039091169063cb05683a9061087b908b9060040161227b565b602060405180830381865afa158015610896573d5f803e3d5ffd5b505050506040513d601f19601f820116820180604052508101906108ba91906127c3565b876040518363ffffffff1660e01b81526004016108e1929190918252602082015260400190565b602060405180830381865af41580156108fc573d5f803e3d5ffd5b505050506040513d601f19601f8201168201806040525081019061092091906127c3565b60065460405163e2ff2d4360e01b81529192506001600160a01b03169063e2ff2d439061095390899085906004016127da565b6020604051808303815f875af115801561096f573d5f803e3d5ffd5b505050506040513d601f19601f8201168201806040525081019061099391906127f3565b505b60075460405163a9059cbb60e01b81526001600160a01b038881169263a9059cbb926109c9929091169085906004016127da565b6020604051808303815f875af11580156109e5573d5f803e3d5ffd5b505050506040513d601f19601f82011682018060405250810190610a0991906127f3565b506007546040517fd1c19fbcd4551a5edfb66d43d2e337c04837afda3482b42bdf569a8fccdae5fb91610a4b916001600160a01b03909116908990859061280e565b60405180910390a18315610a6b57600c805462ff00ff1916620100001790555b50600195945050505050565b6004545f906001600160a01b03163314610aa35760405162461bcd60e51b815260040161050d9061276a565b5f5b600854811015610afc57610ade60088281548110610ac557610ac5612832565b5f918252602090912001546001600160a01b031661159f565b610aea57610aea6127af565b80610af48161285a565b915050610aa5565b50600190505b90565b6004545f906001600160a01b03163314610b315760405162461bcd60e51b815260040161050d9061276a565b610b3961169a565b905090565b6001600160a01b038516331480610b5a5750610b5a853361044c565b610b765760405162461bcd60e51b815260040161050d90612872565b610b8385858585856116d4565b5050505050565b6006545f906001600160a01b03163314610bb65760405162461bcd60e51b815260040161050d906128c0565b6105388261159f565b60608151835114610c245760405162461bcd60e51b815260206004820152602960248201527f455243313135353a206163636f756e747320616e6420696473206c656e677468604482015268040dad2e6dac2e8c6d60bb1b606482015260840161050d565b5f83516001600160401b03811115610c3e57610c3e61228f565b604051908082528060200260200182016040528015610c67578160200160208202803683370190505b5090505f5b8451811015610cde57610cb1858281518110610c8a57610c8a612832565b6020026020010151858381518110610ca457610ca4612832565b60200260200101516104a7565b828281518110610cc357610cc3612832565b6020908102919091010152610cd78161285a565b9050610c6c565b509392505050565b6004545f906001600160a01b03163314610d125760405162461bcd60e51b815260040161050d9061276a565b50600780546001600160a01b0383166001600160a01b03199091161790556001919050565b610d3f6118ac565b610d485f611906565b565b6060600880548060200260200160405190810160405280929190818152602001828054801561061357602002820191905f5260205f20905b81546001600160a01b03168152600190910190602001808311610d825750505050509050919050565b6004545f906001600160a01b03163314610dd75760405162461bcd60e51b815260040161050d9061276a565b60065460405162ecb5bb60e71b815260048101859052602481018490526001600160a01b039091169063765add80906044016020604051808303815f875af1158015610e25573d5f803e3d5ffd5b505050506040513d601f19601f82011682018060405250810190610e4991906127f3565b9392505050565b6006545f906001600160a01b03163314610e7c5760405162461bcd60e51b815260040161050d906128c0565b610b39611957565b6006545f906001600160a01b03163314610eb05760405162461bcd60e51b815260040161050d906128c0565b50600c805462ff000019166201000090811791829055900460ff1690565b6006545f906001600160a01b03163314610efa5760405162461bcd60e51b815260040161050d906128c0565b610b396119a5565b5f600b54421015610f255760405162461bcd60e51b815260040161050d90612748565b6004546001600160a01b03163314610f4f5760405162461bcd60e51b815260040161050d9061276a565b5f5b600854811015610afc5761102960088281548110610f7157610f71612832565b5f91825260209091200154600880546001600160a01b039092169184908110610f9c57610f9c612832565b5f918252602090912001546040516370a0823160e01b81526001600160a01b03909116906370a0823190610fd490309060040161227b565b602060405180830381865afa158015610fef573d5f803e3d5ffd5b505050506040513d601f19601f8201168201806040525081019061101391906127c3565b60085461102290600190612903565b841461061f565b611035576110356127af565b8061103f8161285a565b915050610f51565b6004545f906001600160a01b031633146110735760405162461bcd60e51b815260040161050d9061276a565b600c5460ff166110955760405162461bcd60e51b815260040161050d90612916565b600880546001810182555f919091527ff3f7a9fe364faab93b216da50a3214154f22a0a2b415b23a84c8169e8b636ee30180546001600160a01b0319166001600160a01b0384161790556040517fec38796d17f4fa8c88de20f9fb9da605573fdcb1dd79c6d39683df6d64175e5f9061110f90849061227b565b60405180910390a1506001919050565b600c545f9060ff166111435760405162461bcd60e51b815260040161050d90612916565b6005546001600160a01b031633146111b45760405162461bcd60e51b815260206004820152602e60248201527f4f6e6c7920636f6e747269627574696f6e20726f757465722063616e2072756e60448201526d103a3434b990333ab731ba34b7b760911b606482015260840161050d565b5f836001600160a01b031690506111db85828560405180602001604052805f8152506119f7565b5f81815260096020526040812080548592906111f8908490612960565b90915550506040517f188177a91f9b084dadc3c86215ff29aa75ddaf05ed75983c8c498c40989d58c9906112319087908790879061280e565b60405180910390a1506001949350505050565b6004545f906001600160a01b031633146112705760405162461bcd60e51b815260040161050d9061276a565b50600b55600190565b611284338383611af3565b5050565b6001600160a01b0381165f908152600a60205260408120546112e65760405162461bcd60e51b8152602060048201526017602482015276139bc8199d5b991cc81d1bc81899481c99599d5b991959604a1b604482015260640161050d565b6001600160a01b0382165f6112fb33836104a7565b90505f811161134c5760405162461bcd60e51b815260206004820152601e60248201527f4e6f20726566756e6473206f77656420746f206d73672073656e6465722e0000604482015260640161050d565b5f828152600960205260408082205490516370a0823160e01b81526001600160a01b038716906370a082319061138690309060040161227b565b602060405180830381865afa1580156113a1573d5f803e3d5ffd5b505050506040513d601f19601f820116820180604052508101906113c591906127c3565b6113cf9084612973565b6113d9919061298a565b60405163a9059cbb60e01b81529091506001600160a01b0386169063a9059cbb9061140a90339085906004016127da565b6020604051808303815f875af1158015611426573d5f803e3d5ffd5b505050506040513d601f19601f8201168201806040525081019061144a91906127f3565b50611456338484611bd2565b7fec1e5ed733e00f1a00915d56caef57b4f52312dde4f9b3165f213319a0da156b3386836040516112319392919061280e565b6004545f906001600160a01b03163314610efa5760405162461bcd60e51b815260040161050d9061276a565b6001600160a01b0385163314806114d157506114d1853361044c565b6114ed5760405162461bcd60e51b815260040161050d90612872565b610b838585858585611d36565b6115026118ac565b6001600160a01b0381166115675760405162461bcd60e51b815260206004820152602660248201527f4f776e61626c653a206e6577206f776e657220697320746865207a65726f206160448201526564647265737360d01b606482015260840161050d565b61157081611906565b50565b6004545f906001600160a01b03163314610e7c5760405162461bcd60e51b815260040161050d9061276a565b600c545f9062010000900460ff161561160d5760405162461bcd60e51b815260206004820152602a60248201527f4e6f2066756e647320746f20726566756e6420666f72207368757420646f776e60448201526910383937b532b1ba399760b11b606482015260840161050d565b6040516370a0823160e01b81526001600160a01b038316906370a082319061163990309060040161227b565b602060405180830381865afa158015611654573d5f803e3d5ffd5b505050506040513d601f19601f8201168201806040525081019061167891906127c3565b6001600160a01b039092165f908152600a602052604090209190915550600190565b600c805460ff191690556040515f907fa45acec63f6ac615004262a66fb13bfbc1eb0d6428dcced53efa9500185dc4a5908290a150600190565b81518351146117365760405162461bcd60e51b815260206004820152602860248201527f455243313135353a2069647320616e6420616d6f756e7473206c656e677468206044820152670dad2e6dac2e8c6d60c31b606482015260840161050d565b6001600160a01b03841661175c5760405162461bcd60e51b815260040161050d906129a9565b335f5b845181101561183e575f85828151811061177b5761177b612832565b602002602001015190505f85838151811061179857611798612832565b6020908102919091018101515f84815280835260408082206001600160a01b038e1683529093529190912054909150818110156117e75760405162461bcd60e51b815260040161050d906129ee565b5f838152602081815260408083206001600160a01b038e8116855292528083208585039055908b16825281208054849290611823908490612960565b92505081905550505050806118379061285a565b905061175f565b50846001600160a01b0316866001600160a01b0316826001600160a01b03167f4a39dc06d4c0dbc64b70af90fd698a233a518aa5d07e595d983b8c0526c8f7fb878760405161188e929190612a38565b60405180910390a46118a4818787878787611e49565b505050505050565b6003546001600160a01b03163314610d485760405162461bcd60e51b815260206004820181905260248201527f4f776e61626c653a2063616c6c6572206973206e6f7420746865206f776e6572604482015260640161050d565b600380546001600160a01b038381166001600160a01b0319831681179093556040519116919082907f8be0079c531659141344cd1fd0a4f28419497f9722a3daafe3b4186f6b6457e0905f90a35050565b600c805461ff00191690555f61196b611fa3565b611977576119776127af565b6040517f156d027f9d371e1464249dbd8daacdce9fa6f2a0d9fda528482a22c1583b0ea6905f90a150600190565b600c805461ff0019166101001790555f6119bd61169a565b6119c9576119c96127af565b6040517fa5baf151492801d3b7a89ece73c1ed0b6dde992d47a0e283ff7d352bba70e0f5905f90a150600190565b6001600160a01b038416611a575760405162461bcd60e51b815260206004820152602160248201527f455243313135353a206d696e7420746f20746865207a65726f206164647265736044820152607360f81b606482015260840161050d565b335f611a6285612052565b90505f611a6e85612052565b90505f868152602081815260408083206001600160a01b038b16845290915281208054879290611a9f908490612960565b909155505060408051878152602081018790526001600160a01b03808a16925f92918716915f80516020612c0a833981519152910160405180910390a4611aea835f8989898961209b565b50505050505050565b816001600160a01b0316836001600160a01b031603611b665760405162461bcd60e51b815260206004820152602960248201527f455243313135353a2073657474696e6720617070726f76616c20737461747573604482015268103337b91039b2b63360b91b606482015260840161050d565b6001600160a01b038381165f81815260016020908152604080832094871680845294825291829020805460ff191686151590811790915591519182527f17307eab39ab6107e8899845ad3d59bd9653f200f220920489ca2b5937696c31910160405180910390a3505050565b6001600160a01b038316611c345760405162461bcd60e51b815260206004820152602360248201527f455243313135353a206275726e2066726f6d20746865207a65726f206164647260448201526265737360e81b606482015260840161050d565b335f611c3f84612052565b90505f611c4b84612052565b60408051602080820183525f918290528882528181528282206001600160a01b038b1683529052205490915084811015611cd35760405162461bcd60e51b8152602060048201526024808201527f455243313135353a206275726e20616d6f756e7420657863656564732062616c604482015263616e636560e01b606482015260840161050d565b5f868152602081815260408083206001600160a01b038b81168086529184528285208a8703905582518b81529384018a90529092908816915f80516020612c0a833981519152910160405180910390a460408051602081019091525f9052611aea565b6001600160a01b038416611d5c5760405162461bcd60e51b815260040161050d906129a9565b335f611d6785612052565b90505f611d7385612052565b90505f868152602081815260408083206001600160a01b038c16845290915290205485811015611db55760405162461bcd60e51b815260040161050d906129ee565b5f878152602081815260408083206001600160a01b038d8116855292528083208985039055908a16825281208054889290611df1908490612960565b909155505060408051888152602081018890526001600160a01b03808b16928c821692918816915f80516020612c0a833981519152910160405180910390a4611e3e848a8a8a8a8a61209b565b505050505050505050565b6001600160a01b0384163b156118a45760405163bc197c8160e01b81526001600160a01b0385169063bc197c8190611e8d9089908990889088908890600401612a65565b6020604051808303815f875af1925050508015611ec7575060408051601f3d908101601f19168201909252611ec491810190612ac2565b60015b611f7357611ed3612add565b806308c379a003611f0c5750611ee7612af5565b80611ef25750611f0e565b8060405162461bcd60e51b815260040161050d919061221d565b505b60405162461bcd60e51b815260206004820152603460248201527f455243313135353a207472616e7366657220746f206e6f6e2d455243313135356044820152732932b1b2b4bb32b91034b6b83632b6b2b73a32b960611b606482015260840161050d565b6001600160e01b0319811663bc197c8160e01b14611aea5760405162461bcd60e51b815260040161050d90612b7d565b600c545f9062010000900460ff16156120175760405162461bcd60e51b815260206004820152603060248201527f556e61626c6520746f20726561637469766174652070726f6a6563742074686160448201526f3a103430b99039b43aba103237bbb71760811b606482015260840161050d565b600c805460ff191660011790556040517f1611757e154fd5430178688b28bebeab61bb8acec2b806091026e8b0fc3e7164905f90a150600190565b6040805160018082528183019092526060915f91906020808301908036833701905050905082815f8151811061208a5761208a612832565b602090810291909101015292915050565b6001600160a01b0384163b156118a45760405163f23a6e6160e01b81526001600160a01b0385169063f23a6e61906120df9089908990889088908890600401612bc5565b6020604051808303815f875af1925050508015612119575060408051601f3d908101601f1916820190925261211691810190612ac2565b60015b61212557611ed3612add565b6001600160e01b0319811663f23a6e6160e01b14611aea5760405162461bcd60e51b815260040161050d90612b7d565b6001600160a01b0381168114611570575f80fd5b5f806040838503121561217a575f80fd5b823561218581612155565b946020939093013593505050565b6001600160e01b031981168114611570575f80fd5b5f602082840312156121b8575f80fd5b8135610e4981612193565b5f602082840312156121d3575f80fd5b5035919050565b5f81518084525f5b818110156121fe576020818501810151868301820152016121e2565b505f602082860101526020601f19601f83011685010191505092915050565b602081525f610e4960208301846121da565b8015158114611570575f80fd5b5f805f6060848603121561224e575f80fd5b833561225981612155565b92506020840135915060408401356122708161222f565b809150509250925092565b6001600160a01b0391909116815260200190565b634e487b7160e01b5f52604160045260245ffd5b601f8201601f191681016001600160401b03811182821017156122c8576122c861228f565b6040525050565b5f6001600160401b038211156122e7576122e761228f565b5060051b60200190565b5f82601f830112612300575f80fd5b8135602061230d826122cf565b60405161231a82826122a3565b83815260059390931b8501820192828101915086841115612339575f80fd5b8286015b84811015612354578035835291830191830161233d565b509695505050505050565b5f82601f83011261236e575f80fd5b81356001600160401b038111156123875761238761228f565b60405161239e601f8301601f1916602001826122a3565b8181528460208386010111156123b2575f80fd5b816020850160208301375f918101602001919091529392505050565b5f805f805f60a086880312156123e2575f80fd5b85356123ed81612155565b945060208601356123fd81612155565b935060408601356001600160401b0380821115612418575f80fd5b61242489838a016122f1565b94506060880135915080821115612439575f80fd5b61244589838a016122f1565b9350608088013591508082111561245a575f80fd5b506124678882890161235f565b9150509295509295909350565b5f60208284031215612484575f80fd5b8135610e4981612155565b5f80604083850312156124a0575f80fd5b82356001600160401b03808211156124b6575f80fd5b818501915085601f8301126124c9575f80fd5b813560206124d6826122cf565b6040516124e382826122a3565b83815260059390931b8501820192828101915089841115612502575f80fd5b948201945b8386101561252957853561251a81612155565b82529482019490820190612507565b9650508601359250508082111561253e575f80fd5b5061254b858286016122f1565b9150509250929050565b5f8151808452602080850194508084015f5b8381101561258357815187529582019590820190600101612567565b509495945050505050565b602081525f610e496020830184612555565b602080825282518282018190525f9190848201906040850190845b818110156125e05783516001600160a01b0316835292840192918401916001016125bb565b50909695505050505050565b5f80604083850312156125fd575f80fd5b50508035926020909101359150565b5f805f6060848603121561261e575f80fd5b833561262981612155565b9250602084013561263981612155565b929592945050506040919091013590565b5f806040838503121561265b575f80fd5b823561266681612155565b915060208301356126768161222f565b809150509250929050565b5f8060408385031215612692575f80fd5b823561269d81612155565b9150602083013561267681612155565b5f805f805f60a086880312156126c1575f80fd5b85356126cc81612155565b945060208601356126dc81612155565b9350604086013592506060860135915060808601356001600160401b03811115612704575f80fd5b6124678882890161235f565b600181811c9082168061272457607f821691505b60208210810361274257634e487b7160e01b5f52602260045260245ffd5b50919050565b6020808252600890820152672a37b79039b7b7b760c11b604082015260600190565b60208082526025908201527f4f6e6c7920636f6e74726f6c6c65722063616e2072756e20746869732066756e60408201526431ba34b7b760d91b606082015260800190565b634e487b7160e01b5f52600160045260245ffd5b5f602082840312156127d3575f80fd5b5051919050565b6001600160a01b03929092168252602082015260400190565b5f60208284031215612803575f80fd5b8151610e498161222f565b6001600160a01b039384168152919092166020820152604081019190915260600190565b634e487b7160e01b5f52603260045260245ffd5b634e487b7160e01b5f52601160045260245ffd5b5f6001820161286b5761286b612846565b5060010190565b6020808252602e908201527f455243313135353a2063616c6c6572206973206e6f7420746f6b656e206f776e60408201526d195c881bdc88185c1c1c9bdd995960921b606082015260800190565b60208082526023908201527f4f6e6c79206f766572736565722063616e2072756e20746869732066756e637460408201526234b7b760e91b606082015260800190565b8181038181111561053857610538612846565b6020808252602a908201527f4f6e6c79206163746976652070726f6a6563742063616e2072756e207468697360408201526910333ab731ba34b7b71760b11b606082015260800190565b8082018082111561053857610538612846565b808202811582820484141761053857610538612846565b5f826129a457634e487b7160e01b5f52601260045260245ffd5b500490565b60208082526025908201527f455243313135353a207472616e7366657220746f20746865207a65726f206164604082015264647265737360d81b606082015260800190565b6020808252602a908201527f455243313135353a20696e73756666696369656e742062616c616e636520666f60408201526939103a3930b739b332b960b11b606082015260800190565b604081525f612a4a6040830185612555565b8281036020840152612a5c8185612555565b95945050505050565b6001600160a01b0386811682528516602082015260a0604082018190525f90612a9090830186612555565b8281036060840152612aa28186612555565b90508281036080840152612ab681856121da565b98975050505050505050565b5f60208284031215612ad2575f80fd5b8151610e4981612193565b5f60033d1115610b025760045f803e505f5160e01c90565b5f60443d1015612b025790565b6040516003193d81016004833e81513d6001600160401b038160248401118184111715612b3157505050505090565b8285019150815181811115612b495750505050505090565b843d8701016020828501011115612b635750505050505090565b612b72602082860101876122a3565b509095945050505050565b60208082526028908201527f455243313135353a204552433131353552656365697665722072656a656374656040820152676420746f6b656e7360c01b606082015260800190565b6001600160a01b03868116825285166020820152604081018490526060810183905260a0608082018190525f90612bfe908301846121da565b97965050505050505056fec3d58168c5ae7397731d063d5bbf3d657854427343f4c083240f7aacaa2d0f62a264697066735822122087a50eca243ad500668a570435e9ecd2cd26e735c71c98757c5b25fbdc91d9b364736f6c63430008140033608060405262093a80600d556002600d546200001c919062000073565b600e553480156200002b575f80fd5b5060405162002028380380620020288339810160408190526200004e9162000093565b5f80546001600160a01b0319166001600160a01b0392909216919091179055620000c2565b5f826200008e57634e487b7160e01b5f52601260045260245ffd5b500490565b5f60208284031215620000a4575f80fd5b81516001600160a01b0381168114620000bb575f80fd5b9392505050565b611f5880620000d05f395ff3fe608060405234801561000f575f80fd5b506004361061011f575f3560e01c8063bc197c81116100a5578063bc197c811461024a578063c9d27afe14610282578063cb05683a14610295578063d04e62d1146102bd578063d186c217146102d0578063d978ffba146102e3578063e2ff2d4314610305578063f23a6e6114610318578063f4970e7114610337578063f8aa3cea1461034a578063fe0d94c114610389575f80fd5b806301ffc9a714610123578063098eb8c61461014b5780630b27fb9a14610180578063169b5f75146101925780631bd85e301461019d57806335f23e27146101bf57806341ad7e1d146101d25780635d250f96146101f2578063765add80146102055780638f363200146102185780639b5b9b1814610237575b5f80fd5b61013661013136600461192f565b61039c565b60405190151581526020015b60405180910390f35b610173610159366004611956565b5f908152600560205260409020546001600160a01b031690565b604051610142919061196d565b6001545b604051908152602001610142565b60135460ff16610136565b6101366101ab366004611956565b5f9081526007602052604090205460ff1690565b6101366101cd3660046119a8565b6103d2565b6101e56101e03660046119f2565b610700565b6040516101429190611a1f565b610136610200366004611a45565b61075e565b610136610213366004611a6f565b610a04565b610184610226366004611956565b5f9081526006602052604090205490565b610136610245366004611a45565b610a43565b610269610258366004611bba565b63bc197c8160e01b95945050505050565b6040516001600160e01b03199091168152602001610142565b610136610290366004611c6d565b610b95565b6101846102a3366004611c9b565b6001600160a01b03165f9081526011602052604090205490565b6101366102cb366004611c9b565b610e6a565b6101366102de366004611a45565b610f3e565b6101e56102f1366004611956565b5f9081526008602052604090205460ff1690565b610136610313366004611a45565b6110a9565b610269610326366004611cb6565b63f23a6e6160e01b95945050505050565b610136610345366004611a45565b611110565b610184610358366004611a45565b5f908152600560209081526040808320546001600160a01b0394851684526002835281842094168352929052205490565b610136610397366004611956565b6113be565b5f6001600160e01b03198216630271189760e51b14806103cc57506301ffc9a760e01b6001600160e01b03198316145b92915050565b5f805f9054906101000a90046001600160a01b03166001600160a01b031663dc3f58636040518163ffffffff1660e01b8152600401602060405180830381865afa158015610422573d5f803e3d5ffd5b505050506040513d601f19601f820116820180604052508101906104469190611d19565b1561046c5760405162461bcd60e51b815260040161046390611d34565b60405180910390fd5b60648360ff1611156104bc5760405162461bcd60e51b815260206004820152601960248201527828bab7b93ab6903bb4b636103732bb32b91031329036b2ba1760391b6044820152606401610463565b5f6104c686610700565b60038111156104d7576104d7611a0b565b146105a75760198360ff1610156105305760405162461bcd60e51b815260206004820152601e60248201527f51756f72756d2073686f756c64206265206174206c65617374203235252e00006044820152606401610463565b600e5461053d9042611d8c565b8210156105a25760405162461bcd60e51b815260206004820152602d60248201527f446561646c696e65206d75737420626520616674657220766f74696e6750657260448201526c34b7b210333937b6903737bb9760991b6064820152608401610463565b61062a565b600d546105b49042611d8c565b8210156106235760405162461bcd60e51b815260206004820152603760248201527f446561646c696e65206d75737420626520616674657220776974686472617761604482015276362b37ba34b733a832b934b7b210333937b6903737bb9760491b6064820152608401610463565b6001546012555b600180546004805492830181555f527f8a35acfbc15ff81a39ae7d344fd709f28e8600b4aa8c65c6b64bfe7fe36bd19b9091015561066785610700565b600180545f9081526008602052604090208054909160ff199091169083600381111561069557610695611a0b565b0217905550600180545f90815260056020908152604080832080546001600160a01b0319166001600160a01b038a1617905583548352600682528083208690558354835260099091528120429055815491906106f083611d9f565b9091555060019695505050505050565b5f60048260ff16106107495760405162461bcd60e51b8152602060048201526012602482015271496e646578206f7574206f662072616e676560701b6044820152606401610463565b8160ff1660038111156103cc576103cc611a0b565b5f805f9054906101000a90046001600160a01b03166001600160a01b031663dc3f58636040518163ffffffff1660e01b8152600401602060405180830381865afa1580156107ae573d5f803e3d5ffd5b505050506040513d601f19601f820116820180604052508101906107d29190611d19565b156107ef5760405162461bcd60e51b815260040161046390611d34565b5f8054906101000a90046001600160a01b03166001600160a01b031663e6d685956040518163ffffffff1660e01b8152600401602060405180830381865afa15801561083d573d5f803e3d5ffd5b505050506040513d601f19601f820116820180604052508101906108619190611db7565b6001600160a01b0316336001600160a01b0316146108915760405162461bcd60e51b815260040161046390611dd2565b60135460ff16156108e05760405162461bcd60e51b815260206004820152601960248201527850726f706f73616c20616c726561647920696e20706c61636560381b6044820152606401610463565b5f546040516370a0823160e01b81526001600160a01b03858116926370a0823192610911929091169060040161196d565b602060405180830381865afa15801561092c573d5f803e3d5ffd5b505050506040513d601f19601f820116820180604052508101906109509190611dfe565b8211156109b25760405162461bcd60e51b815260206004820152602a60248201527f43616e6e6f7420617070726f7665206d6f7265207468616e2063757272656e746044820152690206f776e6572736869760b41b6064820152608401610463565b6001600160a01b0383165f908152600f602052604081208390556013805460ff19166001179055600d546109ef9190859082906101cd9042611d8c565b6109fb576109fb611e15565b50600192915050565b5f80546001600160a01b03163314610a2e5760405162461bcd60e51b815260040161046390611e29565b505f9182526006602052604090912055600190565b5f8054604051627eeac760e11b81523360048201526001600160a01b03808616602483018190528693909285929091169062fdd58e90604401602060405180830381865afa158015610a97573d5f803e3d5ffd5b505050506040513d601f19601f82011682018060405250810190610abb9190611dfe565b11610af65760405162461bcd60e51b815260206004820152600b60248201526a486f6c646572206f6e6c7960a81b6044820152606401610463565b5f54604051637921219560e11b81526001600160a01b0380881692169063f242432a90610b2d903390309086908b90600401611e60565b5f604051808303815f87803b158015610b44575f80fd5b505af1158015610b56573d5f803e3d5ffd5b5050335f90815260026020908152604080832086845290915281208054899450909250610b84908490611d8c565b909155506001979650505050505050565b5f805f9054906101000a90046001600160a01b03166001600160a01b031663dc3f58636040518163ffffffff1660e01b8152600401602060405180830381865afa158015610be5573d5f803e3d5ffd5b505050506040513d601f19601f82011682018060405250810190610c099190611d19565b15610c265760405162461bcd60e51b815260040161046390611d34565b5f83815260056020908152604080832054338452600283528184206001600160a01b0390911680855292528220549091819003610c935760405162461bcd60e51b815260206004820152600b60248201526a2b37ba32b91037b7363c9760a91b6044820152606401610463565b5f858152600b6020908152604080832033845290915290205460ff1615610cf15760405162461bcd60e51b815260206004820152601260248201527120b2323932b9b9903430b2103b37ba32b21760711b6044820152606401610463565b5f85815260066020526040902054421115610d4a5760405162461bcd60e51b81526020600482015260196024820152782b37ba34b733903232b0b23634b732903430b9903830b9ba1760391b6044820152606401610463565b335f908152600360209081526040808320858452825280832054888452600690925290912054811015610d9d575f8681526006602090815260408083205433845260038352818420878552909252909120555b5f8681526008602052604081205460ff166003811115610dbf57610dbf611a0b565b148015610dc95750845b15610e0c575f868152600560209081526040808320546001600160a01b03168352601090915281208054849290610e01908490611d8c565b90915550610e3c9050565b5f868152600a60209081526040808320881515845290915281208054849290610e36908490611d8c565b90915550505b5050505f9283525050600b602090815260408083203384529091529020805460ff1916600190811790915590565b5f805f9054906101000a90046001600160a01b03166001600160a01b031663e6d685956040518163ffffffff1660e01b8152600401602060405180830381865afa158015610eba573d5f803e3d5ffd5b505050506040513d601f19601f82011682018060405250810190610ede9190611db7565b6001600160a01b0316336001600160a01b031614610f0e5760405162461bcd60e51b815260040161046390611dd2565b60135460ff16610f305760405162461bcd60e51b815260040161046390611e97565b6103cc826118fc565b919050565b5f80546040805163dc3f586360e01b815290516001600160a01b0380871693169163dc3f58639160048083019260209291908290030181865afa158015610f87573d5f803e3d5ffd5b505050506040513d601f19601f82011682018060405250810190610fab9190611d19565b61100e57335f90815260036020908152604080832084845290915290205442101561100e5760405162461bcd60e51b8152602060048201526013602482015272746f6f206561726c7920746f2072656465656d60681b6044820152606401610463565b5f54604051637921219560e11b81526001600160a01b039091169063f242432a90611043903090339086908990600401611e60565b5f604051808303815f87803b15801561105a575f80fd5b505af115801561106c573d5f803e3d5ffd5b5050335f9081526002602090815260408083208684529091528120805487945090925061109a908490611ed9565b90915550600195945050505050565b5f80546001600160a01b031633146110d35760405162461bcd60e51b815260040161046390611e29565b6001600160a01b0383165f90815260116020526040812080548492906110fa908490611ed9565b909155506111099050836118fc565b9392505050565b5f805f9054906101000a90046001600160a01b03166001600160a01b031663dc3f58636040518163ffffffff1660e01b8152600401602060405180830381865afa158015611160573d5f803e3d5ffd5b505050506040513d601f19601f820116820180604052508101906111849190611d19565b156111a15760405162461bcd60e51b815260040161046390611d34565b5f8054906101000a90046001600160a01b03166001600160a01b031663e6d685956040518163ffffffff1660e01b8152600401602060405180830381865afa1580156111ef573d5f803e3d5ffd5b505050506040513d601f19601f820116820180604052508101906112139190611db7565b6001600160a01b0316336001600160a01b0316146112435760405162461bcd60e51b815260040161046390611dd2565b60135460ff166112655760405162461bcd60e51b815260040161046390611e97565b6012545f908152600660205260409020544210156112c55760405162461bcd60e51b815260206004820152601c60248201527f566f74696e6720706572696f6420686173206e6f7420706173736564000000006044820152606401610463565b6001600160a01b0383165f90815260106020908152604080832054600f909252909120546112f39190611ed9565b8211156113365760405162461bcd60e51b815260206004820152601160248201527037bb32b930baba3437b934b9b0ba34b7b760791b6044820152606401610463565b6001600160a01b0383165f908152600f60205260408120805484929061135d908490611ed9565b90915550506001600160a01b0383165f9081526011602052604081208054849290611389908490611d8c565b90915550506001600160a01b0383165f908152600f602052604081205490036109fb5750506013805460ff1916905550600190565b5f805f9054906101000a90046001600160a01b03166001600160a01b031663dc3f58636040518163ffffffff1660e01b8152600401602060405180830381865afa15801561140e573d5f803e3d5ffd5b505050506040513d601f19601f820116820180604052508101906114329190611d19565b1561144f5760405162461bcd60e51b815260040161046390611d34565b5f8281526008602052604081205460ff16600381111561147157611471611a0b565b036114ca5760405162461bcd60e51b8152602060048201526024808201527f4f626a656374696f6e2070726f706f73616c206973206e6f742065786563757460448201526361626c6560e01b6064820152608401610463565b5f828152600660205260409020544210156115275760405162461bcd60e51b815260206004820152601c60248201527f566f74696e6720646561646c696e65206861736e277420706173742e000000006044820152606401610463565b5f828152600a602090815260408083208380529091528082205460018352912054116115885760405162461bcd60e51b815260206004820152601060248201526f13585a9bdc9a5d1e481b9bdd081b595d60821b6044820152606401610463565b5f82815260056020526040808220548254915163aa771d3960e01b81526001600160a01b03918216600482018190529392919091169063aa771d3990602401602060405180830381865afa1580156115e2573d5f803e3d5ffd5b505050506040513d601f19601f820116820180604052508101906116069190611dfe565b5f858152600c60205260409020549091506064906116279060ff1683611eec565b6116319190611f03565b5f858152600a6020908152604080832060018452909152902054116116895760405162461bcd60e51b815260206004820152600e60248201526d145d5bdc9d5b481b9bdd081b595d60921b6044820152606401610463565b60015f8581526008602052604090205460ff1660038111156116ad576116ad611a0b565b03611736575f8054906101000a90046001600160a01b03166001600160a01b03166384dac7026040518163ffffffff1660e01b81526004016020604051808303815f875af1158015611701573d5f803e3d5ffd5b505050506040513d601f19601f820116820180604052508101906117259190611d19565b61173157611731611e15565b6118f2565b60025f8581526008602052604090205460ff16600381111561175a5761175a611a0b565b036117ae575f8054906101000a90046001600160a01b03166001600160a01b0316637f1660a16040518163ffffffff1660e01b81526004016020604051808303815f875af1158015611701573d5f803e3d5ffd5b60035f8581526008602052604090205460ff1660038111156117d2576117d2611a0b565b036118b1575f805485825260056020526040918290205491516303cdfe2160e41b81526001600160a01b0391821692633cdfe210926118169291169060040161196d565b6020604051808303815f875af1158015611832573d5f803e3d5ffd5b505050506040513d601f19601f820116820180604052508101906118569190611d19565b61186257611862611e15565b5f8054906101000a90046001600160a01b03166001600160a01b0316638405ca676040518163ffffffff1660e01b81526004016020604051808303815f875af1158015611701573d5f803e3d5ffd5b60405162461bcd60e51b81526020600482015260166024820152754572726f7220696e2070726f706f73616c207479706560501b6044820152606401610463565b5060019392505050565b6001600160a01b03165f908152600f6020908152604080832083905560109091528120556013805460ff19169055600190565b5f6020828403121561193f575f80fd5b81356001600160e01b031981168114611109575f80fd5b5f60208284031215611966575f80fd5b5035919050565b6001600160a01b0391909116815260200190565b803560ff81168114610f39575f80fd5b6001600160a01b03811681146119a5575f80fd5b50565b5f805f80608085870312156119bb575f80fd5b6119c485611981565b935060208501356119d481611991565b92506119e260408601611981565b9396929550929360600135925050565b5f60208284031215611a02575f80fd5b61110982611981565b634e487b7160e01b5f52602160045260245ffd5b6020810160048310611a3f57634e487b7160e01b5f52602160045260245ffd5b91905290565b5f8060408385031215611a56575f80fd5b8235611a6181611991565b946020939093013593505050565b5f8060408385031215611a80575f80fd5b50508035926020909101359150565b634e487b7160e01b5f52604160045260245ffd5b604051601f8201601f191681016001600160401b0381118282101715611acb57611acb611a8f565b604052919050565b5f82601f830112611ae2575f80fd5b813560206001600160401b03821115611afd57611afd611a8f565b8160051b611b0c828201611aa3565b9283528481018201928281019087851115611b25575f80fd5b83870192505b84831015611b4457823582529183019190830190611b2b565b979650505050505050565b5f82601f830112611b5e575f80fd5b81356001600160401b03811115611b7757611b77611a8f565b611b8a601f8201601f1916602001611aa3565b818152846020838601011115611b9e575f80fd5b816020850160208301375f918101602001919091529392505050565b5f805f805f60a08688031215611bce575f80fd5b8535611bd981611991565b94506020860135611be981611991565b935060408601356001600160401b0380821115611c04575f80fd5b611c1089838a01611ad3565b94506060880135915080821115611c25575f80fd5b611c3189838a01611ad3565b93506080880135915080821115611c46575f80fd5b50611c5388828901611b4f565b9150509295509295909350565b80151581146119a5575f80fd5b5f8060408385031215611c7e575f80fd5b823591506020830135611c9081611c60565b809150509250929050565b5f60208284031215611cab575f80fd5b813561110981611991565b5f805f805f60a08688031215611cca575f80fd5b8535611cd581611991565b94506020860135611ce581611991565b9350604086013592506060860135915060808601356001600160401b03811115611d0d575f80fd5b611c5388828901611b4f565b5f60208284031215611d29575f80fd5b815161110981611c60565b60208082526024908201527f57697468647261776e2070726f6a6563742063616e6e6f7420626520616374696040820152631bdb995960e21b606082015260800190565b634e487b7160e01b5f52601160045260245ffd5b808201808211156103cc576103cc611d78565b5f60018201611db057611db0611d78565b5060010190565b5f60208284031215611dc7575f80fd5b815161110981611991565b60208082526012908201527170726f6a656374206f776e6572206f6e6c7960701b604082015260600190565b5f60208284031215611e0e575f80fd5b5051919050565b634e487b7160e01b5f52600160045260245ffd5b6020808252601f908201527f63616c6c65642062792070726f6a65637420636f6e7472616374206f6e6c7900604082015260600190565b6001600160a01b0394851681529290931660208301526040820152606081019190915260a0608082018190525f9082015260c00190565b60208082526022908201527f4e6f2070726f706f73616c206f7220616c6c6f77616e63652065786861757374604082015261195960f21b606082015260800190565b818103818111156103cc576103cc611d78565b80820281158282048414176103cc576103cc611d78565b5f82611f1d57634e487b7160e01b5f52601260045260245ffd5b50049056fea2646970667358221220398e57a41df4a4414a81992b951c83758a7154334c4b0c0ec705017817be9c8264736f6c63430008140033a2646970667358221220bc92c54f1badcec6f8f9534e5d9dd66b14712890d79949a542da736e7657c88264736f6c63430008140033",
			"opcodes": "PUSH1 0x80 PUSH1 0x40 MSTORE CALLVALUE DUP1 ISZERO PUSH2 0xF JUMPI PUSH0 DUP1 REVERT JUMPDEST POP PUSH2 0x53B0 DUP1 PUSH2 0x1D PUSH0 CODECOPY PUSH0 RETURN INVALID PUSH1 0x80 PUSH1 0x40 MSTORE CALLVALUE DUP1 ISZERO PUSH2 0xF JUMPI PUSH0 DUP1 REVERT JUMPDEST POP PUSH1 0x4 CALLDATASIZE LT PUSH2 0x34 JUMPI PUSH0 CALLDATALOAD PUSH1 0xE0 SHR DUP1 PUSH4 0x53D380E5 EQ PUSH2 0x38 JUMPI DUP1 PUSH4 0xDCC60128 EQ PUSH2 0x60 JUMPI JUMPDEST PUSH0 DUP1 REVERT JUMPDEST PUSH2 0x4B PUSH2 0x46 CALLDATASIZE PUSH1 0x4 PUSH2 0x1B6 JUMP JUMPDEST PUSH2 0x75 JUMP JUMPDEST PUSH1 0x40 MLOAD SWAP1 ISZERO ISZERO DUP2 MSTORE PUSH1 0x20 ADD JUMPDEST PUSH1 0x40 MLOAD DUP1 SWAP2 SUB SWAP1 RETURN JUMPDEST PUSH2 0x68 PUSH2 0x133 JUMP JUMPDEST PUSH1 0x40 MLOAD PUSH2 0x57 SWAP2 SWAP1 PUSH2 0x21A JUMP JUMPDEST PUSH0 DUP1 CALLER DUP8 DUP8 DUP8 DUP8 DUP8 PUSH1 0x40 MLOAD PUSH2 0x89 SWAP1 PUSH2 0x192 JUMP JUMPDEST PUSH1 0x1 PUSH1 0x1 PUSH1 0xA0 SHL SUB SWAP7 DUP8 AND DUP2 MSTORE SWAP5 DUP7 AND PUSH1 0x20 DUP7 ADD MSTORE SWAP3 DUP6 AND PUSH1 0x40 DUP6 ADD MSTORE SWAP4 AND PUSH1 0x60 DUP4 ADD MSTORE SWAP2 ISZERO ISZERO PUSH1 0x80 DUP3 ADD MSTORE PUSH1 0xA0 DUP2 ADD SWAP2 SWAP1 SWAP2 MSTORE PUSH1 0xC0 ADD PUSH1 0x40 MLOAD DUP1 SWAP2 SUB SWAP1 PUSH0 CREATE DUP1 ISZERO DUP1 ISZERO PUSH2 0xD9 JUMPI RETURNDATASIZE PUSH0 DUP1 RETURNDATACOPY RETURNDATASIZE PUSH0 REVERT JUMPDEST POP PUSH0 DUP1 SLOAD PUSH1 0x1 DUP1 DUP3 ADD DUP4 SSTORE SWAP2 DUP1 MSTORE PUSH32 0x290DECD9548B62A8D60345A988386FC84BA6BC95484008F6362F93160EF3E563 ADD DUP1 SLOAD PUSH1 0x1 PUSH1 0x1 PUSH1 0xA0 SHL SUB NOT AND PUSH1 0x1 PUSH1 0x1 PUSH1 0xA0 SHL SUB SWAP4 SWAP1 SWAP4 AND SWAP3 SWAP1 SWAP3 OR SWAP1 SWAP2 SSTORE SWAP8 SWAP7 POP POP POP POP POP POP POP JUMP JUMPDEST PUSH1 0x60 PUSH0 DUP1 SLOAD DUP1 PUSH1 0x20 MUL PUSH1 0x20 ADD PUSH1 0x40 MLOAD SWAP1 DUP2 ADD PUSH1 0x40 MSTORE DUP1 SWAP3 SWAP2 SWAP1 DUP2 DUP2 MSTORE PUSH1 0x20 ADD DUP3 DUP1 SLOAD DUP1 ISZERO PUSH2 0x188 JUMPI PUSH1 0x20 MUL DUP3 ADD SWAP2 SWAP1 PUSH0 MSTORE PUSH1 0x20 PUSH0 KECCAK256 SWAP1 JUMPDEST DUP2 SLOAD PUSH1 0x1 PUSH1 0x1 PUSH1 0xA0 SHL SUB AND DUP2 MSTORE PUSH1 0x1 SWAP1 SWAP2 ADD SWAP1 PUSH1 0x20 ADD DUP1 DUP4 GT PUSH2 0x16A JUMPI JUMPDEST POP POP POP POP POP SWAP1 POP SWAP1 JUMP JUMPDEST PUSH2 0x5114 DUP1 PUSH2 0x267 DUP4 CODECOPY ADD SWAP1 JUMP JUMPDEST PUSH1 0x1 PUSH1 0x1 PUSH1 0xA0 SHL SUB DUP2 AND DUP2 EQ PUSH2 0x1B3 JUMPI PUSH0 DUP1 REVERT JUMPDEST POP JUMP JUMPDEST PUSH0 DUP1 PUSH0 DUP1 PUSH0 PUSH1 0xA0 DUP7 DUP9 SUB SLT ISZERO PUSH2 0x1CA JUMPI PUSH0 DUP1 REVERT JUMPDEST DUP6 CALLDATALOAD PUSH2 0x1D5 DUP2 PUSH2 0x19F JUMP JUMPDEST SWAP5 POP PUSH1 0x20 DUP7 ADD CALLDATALOAD PUSH2 0x1E5 DUP2 PUSH2 0x19F JUMP JUMPDEST SWAP4 POP PUSH1 0x40 DUP7 ADD CALLDATALOAD PUSH2 0x1F5 DUP2 PUSH2 0x19F JUMP JUMPDEST SWAP3 POP PUSH1 0x60 DUP7 ADD CALLDATALOAD DUP1 ISZERO ISZERO DUP2 EQ PUSH2 0x209 JUMPI PUSH0 DUP1 REVERT JUMPDEST SWAP5 SWAP8 SWAP4 SWAP7 POP SWAP2 SWAP5 PUSH1 0x80 ADD CALLDATALOAD SWAP3 SWAP2 POP POP JUMP JUMPDEST PUSH1 0x20 DUP1 DUP3 MSTORE DUP3 MLOAD DUP3 DUP3 ADD DUP2 SWAP1 MSTORE PUSH0 SWAP2 SWAP1 DUP5 DUP3 ADD SWAP1 PUSH1 0x40 DUP6 ADD SWAP1 DUP5 JUMPDEST DUP2 DUP2 LT ISZERO PUSH2 0x25A JUMPI DUP4 MLOAD PUSH1 0x1 PUSH1 0x1 PUSH1 0xA0 SHL SUB AND DUP4 MSTORE SWAP3 DUP5 ADD SWAP3 SWAP2 DUP5 ADD SWAP2 PUSH1 0x1 ADD PUSH2 0x235 JUMP JUMPDEST POP SWAP1 SWAP7 SWAP6 POP POP POP POP POP POP JUMP INVALID PUSH1 0x80 PUSH1 0x40 MSTORE CALLVALUE DUP1 ISZERO PUSH3 0x10 JUMPI PUSH0 DUP1 REVERT JUMPDEST POP PUSH1 0x40 MLOAD PUSH3 0x5114 CODESIZE SUB DUP1 PUSH3 0x5114 DUP4 CODECOPY DUP2 ADD PUSH1 0x40 DUP2 SWAP1 MSTORE PUSH3 0x33 SWAP2 PUSH3 0x290 JUMP JUMPDEST PUSH1 0x40 DUP1 MLOAD PUSH1 0x20 DUP2 ADD SWAP1 SWAP2 MSTORE PUSH0 DUP2 MSTORE PUSH3 0x4C DUP2 PUSH3 0x207 JUMP JUMPDEST POP PUSH3 0x58 CALLER PUSH3 0x219 JUMP JUMPDEST PUSH1 0x4 DUP1 SLOAD PUSH1 0x1 PUSH1 0x1 PUSH1 0xA0 SHL SUB DUP1 DUP8 AND PUSH1 0x1 PUSH1 0x1 PUSH1 0xA0 SHL SUB NOT SWAP3 DUP4 AND OR SWAP1 SWAP3 SSTORE PUSH1 0x5 DUP1 SLOAD SWAP3 DUP7 AND SWAP3 SWAP1 SWAP2 AND SWAP2 SWAP1 SWAP2 OR SWAP1 SSTORE DUP2 ISZERO PUSH3 0xEA JUMPI ADDRESS PUSH1 0x40 MLOAD PUSH3 0x9E SWAP1 PUSH3 0x26A JUMP JUMPDEST PUSH1 0x1 PUSH1 0x1 PUSH1 0xA0 SHL SUB SWAP1 SWAP2 AND DUP2 MSTORE PUSH1 0x20 ADD PUSH1 0x40 MLOAD DUP1 SWAP2 SUB SWAP1 PUSH0 CREATE DUP1 ISZERO DUP1 ISZERO PUSH3 0xC8 JUMPI RETURNDATASIZE PUSH0 DUP1 RETURNDATACOPY RETURNDATASIZE PUSH0 REVERT JUMPDEST POP PUSH1 0x6 DUP1 SLOAD PUSH1 0x1 PUSH1 0x1 PUSH1 0xA0 SHL SUB NOT AND PUSH1 0x1 PUSH1 0x1 PUSH1 0xA0 SHL SUB SWAP3 SWAP1 SWAP3 AND SWAP2 SWAP1 SWAP2 OR SWAP1 SSTORE JUMPDEST PUSH1 0x7 DUP1 SLOAD PUSH1 0x1 PUSH1 0x1 PUSH1 0xA0 SHL SUB NOT AND PUSH1 0x1 PUSH1 0x1 PUSH1 0xA0 SHL SUB DUP9 AND SWAP1 DUP2 OR SWAP1 SWAP2 SSTORE PUSH1 0xB DUP3 SWAP1 SSTORE PUSH1 0x40 DUP1 MLOAD SWAP2 DUP3 MSTORE PUSH1 0x20 DUP3 ADD DUP4 SWAP1 MSTORE PUSH32 0xC6B5D036565220527CE1CFC38A372C78ADB8308D835C5C803FB3A17D0A106549 SWAP2 ADD PUSH1 0x40 MLOAD DUP1 SWAP2 SUB SWAP1 LOG1 PUSH1 0x8 DUP1 SLOAD PUSH1 0x1 DUP2 ADD DUP3 SSTORE PUSH0 SWAP2 SWAP1 SWAP2 MSTORE PUSH32 0xF3F7A9FE364FAAB93B216DA50A3214154F22A0A2B415B23A84C8169E8B636EE3 ADD DUP1 SLOAD PUSH1 0x1 PUSH1 0x1 PUSH1 0xA0 SHL SUB NOT AND PUSH1 0x1 PUSH1 0x1 PUSH1 0xA0 SHL SUB DUP8 AND SWAP1 DUP2 OR SWAP1 SWAP2 SSTORE PUSH1 0x40 MLOAD SWAP1 DUP2 MSTORE PUSH32 0xEC38796D17F4FA8C88DE20F9FB9DA605573FDCB1DD79C6D39683DF6D64175E5F SWAP1 PUSH1 0x20 ADD PUSH1 0x40 MLOAD DUP1 SWAP2 SUB SWAP1 LOG1 PUSH1 0xC DUP1 SLOAD PUSH1 0xFF NOT AND PUSH1 0x1 OR SWAP1 SSTORE PUSH1 0x40 MLOAD PUSH32 0x1611757E154FD5430178688B28BEBEAB61BB8ACEC2B806091026E8B0FC3E7164 SWAP1 PUSH0 SWAP1 LOG1 POP POP POP POP POP POP PUSH3 0x47F JUMP JUMPDEST PUSH1 0x2 PUSH3 0x215 DUP3 DUP3 PUSH3 0x3B7 JUMP JUMPDEST POP POP JUMP JUMPDEST PUSH1 0x3 DUP1 SLOAD PUSH1 0x1 PUSH1 0x1 PUSH1 0xA0 SHL SUB DUP4 DUP2 AND PUSH1 0x1 PUSH1 0x1 PUSH1 0xA0 SHL SUB NOT DUP4 AND DUP2 OR SWAP1 SWAP4 SSTORE PUSH1 0x40 MLOAD SWAP2 AND SWAP2 SWAP1 DUP3 SWAP1 PUSH32 0x8BE0079C531659141344CD1FD0A4F28419497F9722A3DAAFE3B4186F6B6457E0 SWAP1 PUSH0 SWAP1 LOG3 POP POP JUMP JUMPDEST PUSH2 0x2028 DUP1 PUSH3 0x30EC DUP4 CODECOPY ADD SWAP1 JUMP JUMPDEST PUSH1 0x1 PUSH1 0x1 PUSH1 0xA0 SHL SUB DUP2 AND DUP2 EQ PUSH3 0x28D JUMPI PUSH0 DUP1 REVERT JUMPDEST POP JUMP JUMPDEST PUSH0 DUP1 PUSH0 DUP1 PUSH0 DUP1 PUSH1 0xC0 DUP8 DUP10 SUB SLT ISZERO PUSH3 0x2A6 JUMPI PUSH0 DUP1 REVERT JUMPDEST DUP7 MLOAD PUSH3 0x2B3 DUP2 PUSH3 0x278 JUMP JUMPDEST PUSH1 0x20 DUP9 ADD MLOAD SWAP1 SWAP7 POP PUSH3 0x2C6 DUP2 PUSH3 0x278 JUMP JUMPDEST PUSH1 0x40 DUP9 ADD MLOAD SWAP1 SWAP6 POP PUSH3 0x2D9 DUP2 PUSH3 0x278 JUMP JUMPDEST PUSH1 0x60 DUP9 ADD MLOAD SWAP1 SWAP5 POP PUSH3 0x2EC DUP2 PUSH3 0x278 JUMP JUMPDEST PUSH1 0x80 DUP9 ADD MLOAD SWAP1 SWAP4 POP DUP1 ISZERO ISZERO DUP2 EQ PUSH3 0x302 JUMPI PUSH0 DUP1 REVERT JUMPDEST DUP1 SWAP3 POP POP PUSH1 0xA0 DUP8 ADD MLOAD SWAP1 POP SWAP3 SWAP6 POP SWAP3 SWAP6 POP SWAP3 SWAP6 JUMP JUMPDEST PUSH4 0x4E487B71 PUSH1 0xE0 SHL PUSH0 MSTORE PUSH1 0x41 PUSH1 0x4 MSTORE PUSH1 0x24 PUSH0 REVERT JUMPDEST PUSH1 0x1 DUP2 DUP2 SHR SWAP1 DUP3 AND DUP1 PUSH3 0x340 JUMPI PUSH1 0x7F DUP3 AND SWAP2 POP JUMPDEST PUSH1 0x20 DUP3 LT DUP2 SUB PUSH3 0x35F JUMPI PUSH4 0x4E487B71 PUSH1 0xE0 SHL PUSH0 MSTORE PUSH1 0x22 PUSH1 0x4 MSTORE PUSH1 0x24 PUSH0 REVERT JUMPDEST POP SWAP2 SWAP1 POP JUMP JUMPDEST PUSH1 0x1F DUP3 GT ISZERO PUSH3 0x3B2 JUMPI PUSH0 DUP2 DUP2 MSTORE PUSH1 0x20 DUP2 KECCAK256 PUSH1 0x1F DUP6 ADD PUSH1 0x5 SHR DUP2 ADD PUSH1 0x20 DUP7 LT ISZERO PUSH3 0x38D JUMPI POP DUP1 JUMPDEST PUSH1 0x1F DUP6 ADD PUSH1 0x5 SHR DUP3 ADD SWAP2 POP JUMPDEST DUP2 DUP2 LT ISZERO PUSH3 0x3AE JUMPI DUP3 DUP2 SSTORE PUSH1 0x1 ADD PUSH3 0x399 JUMP JUMPDEST POP POP POP JUMPDEST POP POP POP JUMP JUMPDEST DUP2 MLOAD PUSH1 0x1 PUSH1 0x1 PUSH1 0x40 SHL SUB DUP2 GT ISZERO PUSH3 0x3D3 JUMPI PUSH3 0x3D3 PUSH3 0x317 JUMP JUMPDEST PUSH3 0x3EB DUP2 PUSH3 0x3E4 DUP5 SLOAD PUSH3 0x32B JUMP JUMPDEST DUP5 PUSH3 0x365 JUMP JUMPDEST PUSH1 0x20 DUP1 PUSH1 0x1F DUP4 GT PUSH1 0x1 DUP2 EQ PUSH3 0x421 JUMPI PUSH0 DUP5 ISZERO PUSH3 0x409 JUMPI POP DUP6 DUP4 ADD MLOAD JUMPDEST PUSH0 NOT PUSH1 0x3 DUP7 SWAP1 SHL SHR NOT AND PUSH1 0x1 DUP6 SWAP1 SHL OR DUP6 SSTORE PUSH3 0x3AE JUMP JUMPDEST PUSH0 DUP6 DUP2 MSTORE PUSH1 0x20 DUP2 KECCAK256 PUSH1 0x1F NOT DUP7 AND SWAP2 JUMPDEST DUP3 DUP2 LT ISZERO PUSH3 0x451 JUMPI DUP9 DUP7 ADD MLOAD DUP3 SSTORE SWAP5 DUP5 ADD SWAP5 PUSH1 0x1 SWAP1 SWAP2 ADD SWAP1 DUP5 ADD PUSH3 0x430 JUMP JUMPDEST POP DUP6 DUP3 LT ISZERO PUSH3 0x46F JUMPI DUP8 DUP6 ADD MLOAD PUSH0 NOT PUSH1 0x3 DUP9 SWAP1 SHL PUSH1 0xF8 AND SHR NOT AND DUP2 SSTORE JUMPDEST POP POP POP POP POP PUSH1 0x1 SWAP1 DUP2 SHL ADD SWAP1 SSTORE POP JUMP JUMPDEST PUSH2 0x2C5F DUP1 PUSH3 0x48D PUSH0 CODECOPY PUSH0 RETURN INVALID PUSH1 0x80 PUSH1 0x40 MSTORE CALLVALUE DUP1 ISZERO PUSH2 0xF JUMPI PUSH0 DUP1 REVERT JUMPDEST POP PUSH1 0x4 CALLDATASIZE LT PUSH2 0x1E1 JUMPI PUSH0 CALLDATALOAD PUSH1 0xE0 SHR DUP1 PUSH4 0x84DAC702 GT PUSH2 0x10C JUMPI DUP1 PUSH4 0xC57380A2 GT PUSH2 0xA5 JUMPI DUP1 PUSH4 0xC57380A2 EQ PUSH2 0x3E3 JUMPI DUP1 PUSH4 0xC8A62968 EQ PUSH2 0x3F4 JUMPI DUP1 PUSH4 0xCB0E0D7D EQ PUSH2 0x3FC JUMPI DUP1 PUSH4 0xD47F4D2A EQ PUSH2 0x416 JUMPI DUP1 PUSH4 0xDC3F5863 EQ PUSH2 0x41C JUMPI DUP1 PUSH4 0xE6D68595 EQ PUSH2 0x42D JUMPI DUP1 PUSH4 0xE985E9C5 EQ PUSH2 0x43E JUMPI DUP1 PUSH4 0xF242432A EQ PUSH2 0x479 JUMPI DUP1 PUSH4 0xF2FDE38B EQ PUSH2 0x48C JUMPI DUP1 PUSH4 0xFB166F91 EQ PUSH2 0x49F JUMPI PUSH0 DUP1 REVERT JUMPDEST DUP1 PUSH4 0x84DAC702 EQ PUSH2 0x344 JUMPI DUP1 PUSH4 0x853828B6 EQ PUSH2 0x34C JUMPI DUP1 PUSH4 0x8AB234B6 EQ PUSH2 0x354 JUMPI DUP1 PUSH4 0x8D472709 EQ PUSH2 0x367 JUMPI DUP1 PUSH4 0x8DA5CB5B EQ PUSH2 0x37A JUMPI DUP1 PUSH4 0x9BB5DA78 EQ PUSH2 0x38B JUMPI DUP1 PUSH4 0xA22CB465 EQ PUSH2 0x39E JUMPI DUP1 PUSH4 0xAA771D39 EQ PUSH2 0x3B1 JUMPI DUP1 PUSH4 0xBFFA55D5 EQ PUSH2 0x3D0 JUMPI PUSH0 DUP1 REVERT JUMPDEST DUP1 PUSH4 0x4E1273F4 GT PUSH2 0x17E JUMPI DUP1 PUSH4 0x4E1273F4 EQ PUSH2 0x2B3 JUMPI DUP1 PUSH4 0x4E4CFFCE EQ PUSH2 0x2D3 JUMPI DUP1 PUSH4 0x4FB2E45D EQ PUSH2 0x2DE JUMPI DUP1 PUSH4 0x53462D6B EQ PUSH2 0x2F1 JUMPI DUP1 PUSH4 0x715018A6 EQ PUSH2 0x2F9 JUMPI DUP1 PUSH4 0x74F60D36 EQ PUSH2 0x301 JUMPI DUP1 PUSH4 0x765ADD80 EQ PUSH2 0x321 JUMPI DUP1 PUSH4 0x7F1660A1 EQ PUSH2 0x334 JUMPI DUP1 PUSH4 0x8405CA67 EQ PUSH2 0x33C JUMPI PUSH0 DUP1 REVERT JUMPDEST DUP1 PUSH3 0xFDD58E EQ PUSH2 0x1E5 JUMPI DUP1 PUSH4 0x1FFC9A7 EQ PUSH2 0x20B JUMPI DUP1 PUSH4 0xE89341C EQ PUSH2 0x22E JUMPI DUP1 PUSH4 0x20EAAC7D EQ PUSH2 0x24E JUMPI DUP1 PUSH4 0x244C60B5 EQ PUSH2 0x261 JUMPI DUP1 PUSH4 0x2A82CD87 EQ PUSH2 0x269 JUMPI DUP1 PUSH4 0x2B10D14D EQ PUSH2 0x271 JUMPI DUP1 PUSH4 0x2EB2C2D6 EQ PUSH2 0x28B JUMPI DUP1 PUSH4 0x3CDFE210 EQ PUSH2 0x2A0 JUMPI JUMPDEST PUSH0 DUP1 REVERT JUMPDEST PUSH2 0x1F8 PUSH2 0x1F3 CALLDATASIZE PUSH1 0x4 PUSH2 0x2169 JUMP JUMPDEST PUSH2 0x4A7 JUMP JUMPDEST PUSH1 0x40 MLOAD SWAP1 DUP2 MSTORE PUSH1 0x20 ADD JUMPDEST PUSH1 0x40 MLOAD DUP1 SWAP2 SUB SWAP1 RETURN JUMPDEST PUSH2 0x21E PUSH2 0x219 CALLDATASIZE PUSH1 0x4 PUSH2 0x21A8 JUMP JUMPDEST PUSH2 0x53E JUMP JUMPDEST PUSH1 0x40 MLOAD SWAP1 ISZERO ISZERO DUP2 MSTORE PUSH1 0x20 ADD PUSH2 0x202 JUMP JUMPDEST PUSH2 0x241 PUSH2 0x23C CALLDATASIZE PUSH1 0x4 PUSH2 0x21C3 JUMP JUMPDEST PUSH2 0x58D JUMP JUMPDEST PUSH1 0x40 MLOAD PUSH2 0x202 SWAP2 SWAP1 PUSH2 0x221D JUMP JUMPDEST PUSH2 0x21E PUSH2 0x25C CALLDATASIZE PUSH1 0x4 PUSH2 0x223C JUMP JUMPDEST PUSH2 0x61F JUMP JUMPDEST PUSH2 0x21E PUSH2 0xA77 JUMP JUMPDEST PUSH2 0x21E PUSH2 0xB05 JUMP JUMPDEST PUSH1 0x6 SLOAD PUSH1 0x1 PUSH1 0x1 PUSH1 0xA0 SHL SUB AND JUMPDEST PUSH1 0x40 MLOAD PUSH2 0x202 SWAP2 SWAP1 PUSH2 0x227B JUMP JUMPDEST PUSH2 0x29E PUSH2 0x299 CALLDATASIZE PUSH1 0x4 PUSH2 0x23CE JUMP JUMPDEST PUSH2 0xB3E JUMP JUMPDEST STOP JUMPDEST PUSH2 0x21E PUSH2 0x2AE CALLDATASIZE PUSH1 0x4 PUSH2 0x2474 JUMP JUMPDEST PUSH2 0xB8A JUMP JUMPDEST PUSH2 0x2C6 PUSH2 0x2C1 CALLDATASIZE PUSH1 0x4 PUSH2 0x248F JUMP JUMPDEST PUSH2 0xBBF JUMP JUMPDEST PUSH1 0x40 MLOAD PUSH2 0x202 SWAP2 SWAP1 PUSH2 0x258E JUMP JUMPDEST PUSH1 0xC SLOAD PUSH1 0xFF AND PUSH2 0x21E JUMP JUMPDEST PUSH2 0x21E PUSH2 0x2EC CALLDATASIZE PUSH1 0x4 PUSH2 0x2474 JUMP JUMPDEST PUSH2 0xCE6 JUMP JUMPDEST PUSH1 0xB SLOAD PUSH2 0x1F8 JUMP JUMPDEST PUSH2 0x29E PUSH2 0xD37 JUMP JUMPDEST PUSH2 0x314 PUSH2 0x30F CALLDATASIZE PUSH1 0x4 PUSH2 0x21C3 JUMP JUMPDEST PUSH2 0xD4A JUMP JUMPDEST PUSH1 0x40 MLOAD PUSH2 0x202 SWAP2 SWAP1 PUSH2 0x25A0 JUMP JUMPDEST PUSH2 0x21E PUSH2 0x32F CALLDATASIZE PUSH1 0x4 PUSH2 0x25EC JUMP JUMPDEST PUSH2 0xDAB JUMP JUMPDEST PUSH2 0x21E PUSH2 0xE50 JUMP JUMPDEST PUSH2 0x21E PUSH2 0xE84 JUMP JUMPDEST PUSH2 0x21E PUSH2 0xECE JUMP JUMPDEST PUSH2 0x21E PUSH2 0xF02 JUMP JUMPDEST PUSH2 0x21E PUSH2 0x362 CALLDATASIZE PUSH1 0x4 PUSH2 0x2474 JUMP JUMPDEST PUSH2 0x1047 JUMP JUMPDEST PUSH2 0x21E PUSH2 0x375 CALLDATASIZE PUSH1 0x4 PUSH2 0x260C JUMP JUMPDEST PUSH2 0x111F JUMP JUMPDEST PUSH1 0x3 SLOAD PUSH1 0x1 PUSH1 0x1 PUSH1 0xA0 SHL SUB AND PUSH2 0x27E JUMP JUMPDEST PUSH2 0x21E PUSH2 0x399 CALLDATASIZE PUSH1 0x4 PUSH2 0x21C3 JUMP JUMPDEST PUSH2 0x1244 JUMP JUMPDEST PUSH2 0x29E PUSH2 0x3AC CALLDATASIZE PUSH1 0x4 PUSH2 0x264A JUMP JUMPDEST PUSH2 0x1279 JUMP JUMPDEST PUSH2 0x1F8 PUSH2 0x3BF CALLDATASIZE PUSH1 0x4 PUSH2 0x21C3 JUMP JUMPDEST PUSH0 SWAP1 DUP2 MSTORE PUSH1 0x9 PUSH1 0x20 MSTORE PUSH1 0x40 SWAP1 KECCAK256 SLOAD SWAP1 JUMP JUMPDEST PUSH2 0x21E PUSH2 0x3DE CALLDATASIZE PUSH1 0x4 PUSH2 0x2474 JUMP JUMPDEST PUSH2 0x1288 JUMP JUMPDEST PUSH1 0x4 SLOAD PUSH1 0x1 PUSH1 0x1 PUSH1 0xA0 SHL SUB AND PUSH2 0x27E JUMP JUMPDEST PUSH2 0x21E PUSH2 0x1489 JUMP JUMPDEST PUSH2 0x1F8 PUSH2 0x40A CALLDATASIZE PUSH1 0x4 PUSH2 0x2474 JUMP JUMPDEST PUSH1 0x1 PUSH1 0x1 PUSH1 0xA0 SHL SUB AND SWAP1 JUMP JUMPDEST ADDRESS PUSH2 0x27E JUMP JUMPDEST PUSH1 0xC SLOAD PUSH3 0x10000 SWAP1 DIV PUSH1 0xFF AND PUSH2 0x21E JUMP JUMPDEST PUSH1 0x7 SLOAD PUSH1 0x1 PUSH1 0x1 PUSH1 0xA0 SHL SUB AND PUSH2 0x27E JUMP JUMPDEST PUSH2 0x21E PUSH2 0x44C CALLDATASIZE PUSH1 0x4 PUSH2 0x2681 JUMP JUMPDEST PUSH1 0x1 PUSH1 0x1 PUSH1 0xA0 SHL SUB SWAP2 DUP3 AND PUSH0 SWAP1 DUP2 MSTORE PUSH1 0x1 PUSH1 0x20 SWAP1 DUP2 MSTORE PUSH1 0x40 DUP1 DUP4 KECCAK256 SWAP4 SWAP1 SWAP5 AND DUP3 MSTORE SWAP2 SWAP1 SWAP2 MSTORE KECCAK256 SLOAD PUSH1 0xFF AND SWAP1 JUMP JUMPDEST PUSH2 0x29E PUSH2 0x487 CALLDATASIZE PUSH1 0x4 PUSH2 0x26AD JUMP JUMPDEST PUSH2 0x14B5 JUMP JUMPDEST PUSH2 0x29E PUSH2 0x49A CALLDATASIZE PUSH1 0x4 PUSH2 0x2474 JUMP JUMPDEST PUSH2 0x14FA JUMP JUMPDEST PUSH2 0x21E PUSH2 0x1573 JUMP JUMPDEST PUSH0 PUSH1 0x1 PUSH1 0x1 PUSH1 0xA0 SHL SUB DUP4 AND PUSH2 0x516 JUMPI PUSH1 0x40 MLOAD PUSH3 0x461BCD PUSH1 0xE5 SHL DUP2 MSTORE PUSH1 0x20 PUSH1 0x4 DUP3 ADD MSTORE PUSH1 0x2A PUSH1 0x24 DUP3 ADD MSTORE PUSH32 0x455243313135353A2061646472657373207A65726F206973206E6F7420612076 PUSH1 0x44 DUP3 ADD MSTORE PUSH10 0x30B634B21037BBB732B9 PUSH1 0xB1 SHL PUSH1 0x64 DUP3 ADD MSTORE PUSH1 0x84 ADD JUMPDEST PUSH1 0x40 MLOAD DUP1 SWAP2 SUB SWAP1 REVERT JUMPDEST POP PUSH0 DUP2 DUP2 MSTORE PUSH1 0x20 DUP2 DUP2 MSTORE PUSH1 0x40 DUP1 DUP4 KECCAK256 PUSH1 0x1 PUSH1 0x1 PUSH1 0xA0 SHL SUB DUP7 AND DUP5 MSTORE SWAP1 SWAP2 MSTORE SWAP1 KECCAK256 SLOAD JUMPDEST SWAP3 SWAP2 POP POP JUMP JUMPDEST PUSH0 PUSH1 0x1 PUSH1 0x1 PUSH1 0xE0 SHL SUB NOT DUP3 AND PUSH4 0x6CDB3D13 PUSH1 0xE1 SHL EQ DUP1 PUSH2 0x56E JUMPI POP PUSH1 0x1 PUSH1 0x1 PUSH1 0xE0 SHL SUB NOT DUP3 AND PUSH4 0x3A24D07 PUSH1 0xE2 SHL EQ JUMPDEST DUP1 PUSH2 0x538 JUMPI POP PUSH4 0x1FFC9A7 PUSH1 0xE0 SHL PUSH1 0x1 PUSH1 0x1 PUSH1 0xE0 SHL SUB NOT DUP4 AND EQ PUSH2 0x538 JUMP JUMPDEST PUSH1 0x60 PUSH1 0x2 DUP1 SLOAD PUSH2 0x59C SWAP1 PUSH2 0x2710 JUMP JUMPDEST DUP1 PUSH1 0x1F ADD PUSH1 0x20 DUP1 SWAP2 DIV MUL PUSH1 0x20 ADD PUSH1 0x40 MLOAD SWAP1 DUP2 ADD PUSH1 0x40 MSTORE DUP1 SWAP3 SWAP2 SWAP1 DUP2 DUP2 MSTORE PUSH1 0x20 ADD DUP3 DUP1 SLOAD PUSH2 0x5C8 SWAP1 PUSH2 0x2710 JUMP JUMPDEST DUP1 ISZERO PUSH2 0x613 JUMPI DUP1 PUSH1 0x1F LT PUSH2 0x5EA JUMPI PUSH2 0x100 DUP1 DUP4 SLOAD DIV MUL DUP4 MSTORE SWAP2 PUSH1 0x20 ADD SWAP2 PUSH2 0x613 JUMP JUMPDEST DUP3 ADD SWAP2 SWAP1 PUSH0 MSTORE PUSH1 0x20 PUSH0 KECCAK256 SWAP1 JUMPDEST DUP2 SLOAD DUP2 MSTORE SWAP1 PUSH1 0x1 ADD SWAP1 PUSH1 0x20 ADD DUP1 DUP4 GT PUSH2 0x5F6 JUMPI DUP3 SWAP1 SUB PUSH1 0x1F AND DUP3 ADD SWAP2 JUMPDEST POP POP POP POP POP SWAP1 POP SWAP2 SWAP1 POP JUMP JUMPDEST PUSH0 PUSH1 0xB SLOAD TIMESTAMP LT ISZERO PUSH2 0x642 JUMPI PUSH1 0x40 MLOAD PUSH3 0x461BCD PUSH1 0xE5 SHL DUP2 MSTORE PUSH1 0x4 ADD PUSH2 0x50D SWAP1 PUSH2 0x2748 JUMP JUMPDEST PUSH1 0x4 SLOAD PUSH1 0x1 PUSH1 0x1 PUSH1 0xA0 SHL SUB AND CALLER EQ PUSH2 0x66C JUMPI PUSH1 0x40 MLOAD PUSH3 0x461BCD PUSH1 0xE5 SHL DUP2 MSTORE PUSH1 0x4 ADD PUSH2 0x50D SWAP1 PUSH2 0x276A JUMP JUMPDEST PUSH1 0xC SLOAD PUSH2 0x100 SWAP1 DIV PUSH1 0xFF AND ISZERO PUSH2 0x684 JUMPI PUSH2 0x684 PUSH2 0x27AF JUMP JUMPDEST PUSH1 0x40 MLOAD PUSH4 0x70A08231 PUSH1 0xE0 SHL DUP2 MSTORE PUSH0 SWAP1 PUSH1 0x1 PUSH1 0x1 PUSH1 0xA0 SHL SUB DUP7 AND SWAP1 PUSH4 0x70A08231 SWAP1 PUSH2 0x6B2 SWAP1 ADDRESS SWAP1 PUSH1 0x4 ADD PUSH2 0x227B JUMP JUMPDEST PUSH1 0x20 PUSH1 0x40 MLOAD DUP1 DUP4 SUB DUP2 DUP7 GAS STATICCALL ISZERO DUP1 ISZERO PUSH2 0x6CD JUMPI RETURNDATASIZE PUSH0 DUP1 RETURNDATACOPY RETURNDATASIZE PUSH0 REVERT JUMPDEST POP POP POP POP PUSH1 0x40 MLOAD RETURNDATASIZE PUSH1 0x1F NOT PUSH1 0x1F DUP3 ADD AND DUP3 ADD DUP1 PUSH1 0x40 MSTORE POP DUP2 ADD SWAP1 PUSH2 0x6F1 SWAP2 SWAP1 PUSH2 0x27C3 JUMP JUMPDEST PUSH1 0x40 MLOAD PUSH4 0x7AE2B5C7 PUSH1 0xE0 SHL DUP2 MSTORE PUSH1 0x4 DUP2 ADD DUP7 SWAP1 MSTORE PUSH1 0x24 DUP2 ADD DUP3 SWAP1 MSTORE SWAP1 SWAP2 POP PUSH0 SWAP1 PUSH20 0x0 SWAP1 PUSH4 0x7AE2B5C7 SWAP1 PUSH1 0x44 ADD PUSH1 0x20 PUSH1 0x40 MLOAD DUP1 DUP4 SUB DUP2 DUP7 GAS DELEGATECALL ISZERO DUP1 ISZERO PUSH2 0x74B JUMPI RETURNDATASIZE PUSH0 DUP1 RETURNDATACOPY RETURNDATASIZE PUSH0 REVERT JUMPDEST POP POP POP POP PUSH1 0x40 MLOAD RETURNDATASIZE PUSH1 0x1F NOT PUSH1 0x1F DUP3 ADD AND DUP3 ADD DUP1 PUSH1 0x40 MSTORE POP DUP2 ADD SWAP1 PUSH2 0x76F SWAP2 SWAP1 PUSH2 0x27C3 JUMP JUMPDEST PUSH1 0x6 SLOAD SWAP1 SWAP2 POP PUSH1 0x1 PUSH1 0x1 PUSH1 0xA0 SHL SUB AND ISZERO PUSH2 0x995 JUMPI PUSH1 0x6 SLOAD PUSH1 0x40 MLOAD PUSH4 0x6582B41D PUSH1 0xE1 SHL DUP2 MSTORE PUSH0 SWAP2 PUSH1 0x1 PUSH1 0x1 PUSH1 0xA0 SHL SUB AND SWAP1 PUSH4 0xCB05683A SWAP1 PUSH2 0x7B3 SWAP1 DUP11 SWAP1 PUSH1 0x4 ADD PUSH2 0x227B JUMP JUMPDEST PUSH1 0x20 PUSH1 0x40 MLOAD DUP1 DUP4 SUB DUP2 DUP7 GAS STATICCALL ISZERO DUP1 ISZERO PUSH2 0x7CE JUMPI RETURNDATASIZE PUSH0 DUP1 RETURNDATACOPY RETURNDATASIZE PUSH0 REVERT JUMPDEST POP POP POP POP PUSH1 0x40 MLOAD RETURNDATASIZE PUSH1 0x1F NOT PUSH1 0x1F DUP3 ADD AND DUP3 ADD DUP1 PUSH1 0x40 MSTORE POP DUP2 ADD SWAP1 PUSH2 0x7F2 SWAP2 SWAP1 PUSH2 0x27C3 JUMP JUMPDEST GT PUSH2 0x82F JUMPI PUSH1 0x40 MLOAD PUSH3 0x461BCD PUSH1 0xE5 SHL DUP2 MSTORE PUSH1 0x20 PUSH1 0x4 DUP3 ADD MSTORE PUSH1 0xD PUSH1 0x24 DUP3 ADD MSTORE PUSH13 0x139BDB9948185C1C1C9BDD9959 PUSH1 0x9A SHL PUSH1 0x44 DUP3 ADD MSTORE PUSH1 0x64 ADD PUSH2 0x50D JUMP JUMPDEST PUSH1 0x6 SLOAD PUSH1 0x40 MLOAD PUSH4 0x6582B41D PUSH1 0xE1 SHL DUP2 MSTORE PUSH20 0x0 SWAP2 PUSH4 0x7AE2B5C7 SWAP2 PUSH1 0x1 PUSH1 0x1 PUSH1 0xA0 SHL SUB SWAP1 SWAP2 AND SWAP1 PUSH4 0xCB05683A SWAP1 PUSH2 0x87B SWAP1 DUP12 SWAP1 PUSH1 0x4 ADD PUSH2 0x227B JUMP JUMPDEST PUSH1 0x20 PUSH1 0x40 MLOAD DUP1 DUP4 SUB DUP2 DUP7 GAS STATICCALL ISZERO DUP1 ISZERO PUSH2 0x896 JUMPI RETURNDATASIZE PUSH0 DUP1 RETURNDATACOPY RETURNDATASIZE PUSH0 REVERT JUMPDEST POP POP POP POP PUSH1 0x40 MLOAD RETURNDATASIZE PUSH1 0x1F NOT PUSH1 0x1F DUP3 ADD AND DUP3 ADD DUP1 PUSH1 0x40 MSTORE POP DUP2 ADD SWAP1 PUSH2 0x8BA SWAP2 SWAP1 PUSH2 0x27C3 JUMP JUMPDEST DUP8 PUSH1 0x40 MLOAD DUP4 PUSH4 0xFFFFFFFF AND PUSH1 0xE0 SHL DUP2 MSTORE PUSH1 0x4 ADD PUSH2 0x8E1 SWAP3 SWAP2 SWAP1 SWAP2 DUP3 MSTORE PUSH1 0x20 DUP3 ADD MSTORE PUSH1 0x40 ADD SWAP1 JUMP JUMPDEST PUSH1 0x20 PUSH1 0x40 MLOAD DUP1 DUP4 SUB DUP2 DUP7 GAS DELEGATECALL ISZERO DUP1 ISZERO PUSH2 0x8FC JUMPI RETURNDATASIZE PUSH0 DUP1 RETURNDATACOPY RETURNDATASIZE PUSH0 REVERT JUMPDEST POP POP POP POP PUSH1 0x40 MLOAD RETURNDATASIZE PUSH1 0x1F NOT PUSH1 0x1F DUP3 ADD AND DUP3 ADD DUP1 PUSH1 0x40 MSTORE POP DUP2 ADD SWAP1 PUSH2 0x920 SWAP2 SWAP1 PUSH2 0x27C3 JUMP JUMPDEST PUSH1 0x6 SLOAD PUSH1 0x40 MLOAD PUSH4 0xE2FF2D43 PUSH1 0xE0 SHL DUP2 MSTORE SWAP2 SWAP3 POP PUSH1 0x1 PUSH1 0x1 PUSH1 0xA0 SHL SUB AND SWAP1 PUSH4 0xE2FF2D43 SWAP1 PUSH2 0x953 SWAP1 DUP10 SWAP1 DUP6 SWAP1 PUSH1 0x4 ADD PUSH2 0x27DA JUMP JUMPDEST PUSH1 0x20 PUSH1 0x40 MLOAD DUP1 DUP4 SUB DUP2 PUSH0 DUP8 GAS CALL ISZERO DUP1 ISZERO PUSH2 0x96F JUMPI RETURNDATASIZE PUSH0 DUP1 RETURNDATACOPY RETURNDATASIZE PUSH0 REVERT JUMPDEST POP POP POP POP PUSH1 0x40 MLOAD RETURNDATASIZE PUSH1 0x1F NOT PUSH1 0x1F DUP3 ADD AND DUP3 ADD DUP1 PUSH1 0x40 MSTORE POP DUP2 ADD SWAP1 PUSH2 0x993 SWAP2 SWAP1 PUSH2 0x27F3 JUMP JUMPDEST POP JUMPDEST PUSH1 0x7 SLOAD PUSH1 0x40 MLOAD PUSH4 0xA9059CBB PUSH1 0xE0 SHL DUP2 MSTORE PUSH1 0x1 PUSH1 0x1 PUSH1 0xA0 SHL SUB DUP9 DUP2 AND SWAP3 PUSH4 0xA9059CBB SWAP3 PUSH2 0x9C9 SWAP3 SWAP1 SWAP2 AND SWAP1 DUP6 SWAP1 PUSH1 0x4 ADD PUSH2 0x27DA JUMP JUMPDEST PUSH1 0x20 PUSH1 0x40 MLOAD DUP1 DUP4 SUB DUP2 PUSH0 DUP8 GAS CALL ISZERO DUP1 ISZERO PUSH2 0x9E5 JUMPI RETURNDATASIZE PUSH0 DUP1 RETURNDATACOPY RETURNDATASIZE PUSH0 REVERT JUMPDEST POP POP POP POP PUSH1 0x40 MLOAD RETURNDATASIZE PUSH1 0x1F NOT PUSH1 0x1F DUP3 ADD AND DUP3 ADD DUP1 PUSH1 0x40 MSTORE POP DUP2 ADD SWAP1 PUSH2 0xA09 SWAP2 SWAP1 PUSH2 0x27F3 JUMP JUMPDEST POP PUSH1 0x7 SLOAD PUSH1 0x40 MLOAD PUSH32 0xD1C19FBCD4551A5EDFB66D43D2E337C04837AFDA3482B42BDF569A8FCCDAE5FB SWAP2 PUSH2 0xA4B SWAP2 PUSH1 0x1 PUSH1 0x1 PUSH1 0xA0 SHL SUB SWAP1 SWAP2 AND SWAP1 DUP10 SWAP1 DUP6 SWAP1 PUSH2 0x280E JUMP JUMPDEST PUSH1 0x40 MLOAD DUP1 SWAP2 SUB SWAP1 LOG1 DUP4 ISZERO PUSH2 0xA6B JUMPI PUSH1 0xC DUP1 SLOAD PUSH3 0xFF00FF NOT AND PUSH3 0x10000 OR SWAP1 SSTORE JUMPDEST POP PUSH1 0x1 SWAP6 SWAP5 POP POP POP POP POP JUMP JUMPDEST PUSH1 0x4 SLOAD PUSH0 SWAP1 PUSH1 0x1 PUSH1 0x1 PUSH1 0xA0 SHL SUB AND CALLER EQ PUSH2 0xAA3 JUMPI PUSH1 0x40 MLOAD PUSH3 0x461BCD PUSH1 0xE5 SHL DUP2 MSTORE PUSH1 0x4 ADD PUSH2 0x50D SWAP1 PUSH2 0x276A JUMP JUMPDEST PUSH0 JUMPDEST PUSH1 0x8 SLOAD DUP2 LT ISZERO PUSH2 0xAFC JUMPI PUSH2 0xADE PUSH1 0x8 DUP3 DUP2 SLOAD DUP2 LT PUSH2 0xAC5 JUMPI PUSH2 0xAC5 PUSH2 0x2832 JUMP JUMPDEST PUSH0 SWAP2 DUP3 MSTORE PUSH1 0x20 SWAP1 SWAP2 KECCAK256 ADD SLOAD PUSH1 0x1 PUSH1 0x1 PUSH1 0xA0 SHL SUB AND PUSH2 0x159F JUMP JUMPDEST PUSH2 0xAEA JUMPI PUSH2 0xAEA PUSH2 0x27AF JUMP JUMPDEST DUP1 PUSH2 0xAF4 DUP2 PUSH2 0x285A JUMP JUMPDEST SWAP2 POP POP PUSH2 0xAA5 JUMP JUMPDEST POP PUSH1 0x1 SWAP1 POP JUMPDEST SWAP1 JUMP JUMPDEST PUSH1 0x4 SLOAD PUSH0 SWAP1 PUSH1 0x1 PUSH1 0x1 PUSH1 0xA0 SHL SUB AND CALLER EQ PUSH2 0xB31 JUMPI PUSH1 0x40 MLOAD PUSH3 0x461BCD PUSH1 0xE5 SHL DUP2 MSTORE PUSH1 0x4 ADD PUSH2 0x50D SWAP1 PUSH2 0x276A JUMP JUMPDEST PUSH2 0xB39 PUSH2 0x169A JUMP JUMPDEST SWAP1 POP SWAP1 JUMP JUMPDEST PUSH1 0x1 PUSH1 0x1 PUSH1 0xA0 SHL SUB DUP6 AND CALLER EQ DUP1 PUSH2 0xB5A JUMPI POP PUSH2 0xB5A DUP6 CALLER PUSH2 0x44C JUMP JUMPDEST PUSH2 0xB76 JUMPI PUSH1 0x40 MLOAD PUSH3 0x461BCD PUSH1 0xE5 SHL DUP2 MSTORE PUSH1 0x4 ADD PUSH2 0x50D SWAP1 PUSH2 0x2872 JUMP JUMPDEST PUSH2 0xB83 DUP6 DUP6 DUP6 DUP6 DUP6 PUSH2 0x16D4 JUMP JUMPDEST POP POP POP POP POP JUMP JUMPDEST PUSH1 0x6 SLOAD PUSH0 SWAP1 PUSH1 0x1 PUSH1 0x1 PUSH1 0xA0 SHL SUB AND CALLER EQ PUSH2 0xBB6 JUMPI PUSH1 0x40 MLOAD PUSH3 0x461BCD PUSH1 0xE5 SHL DUP2 MSTORE PUSH1 0x4 ADD PUSH2 0x50D SWAP1 PUSH2 0x28C0 JUMP JUMPDEST PUSH2 0x538 DUP3 PUSH2 0x159F JUMP JUMPDEST PUSH1 0x60 DUP2 MLOAD DUP4 MLOAD EQ PUSH2 0xC24 JUMPI PUSH1 0x40 MLOAD PUSH3 0x461BCD PUSH1 0xE5 SHL DUP2 MSTORE PUSH1 0x20 PUSH1 0x4 DUP3 ADD MSTORE PUSH1 0x29 PUSH1 0x24 DUP3 ADD MSTORE PUSH32 0x455243313135353A206163636F756E747320616E6420696473206C656E677468 PUSH1 0x44 DUP3 ADD MSTORE PUSH9 0x40DAD2E6DAC2E8C6D PUSH1 0xBB SHL PUSH1 0x64 DUP3 ADD MSTORE PUSH1 0x84 ADD PUSH2 0x50D JUMP JUMPDEST PUSH0 DUP4 MLOAD PUSH1 0x1 PUSH1 0x1 PUSH1 0x40 SHL SUB DUP2 GT ISZERO PUSH2 0xC3E JUMPI PUSH2 0xC3E PUSH2 0x228F JUMP JUMPDEST PUSH1 0x40 MLOAD SWAP1 DUP1 DUP3 MSTORE DUP1 PUSH1 0x20 MUL PUSH1 0x20 ADD DUP3 ADD PUSH1 0x40 MSTORE DUP1 ISZERO PUSH2 0xC67 JUMPI DUP2 PUSH1 0x20 ADD PUSH1 0x20 DUP3 MUL DUP1 CALLDATASIZE DUP4 CALLDATACOPY ADD SWAP1 POP JUMPDEST POP SWAP1 POP PUSH0 JUMPDEST DUP5 MLOAD DUP2 LT ISZERO PUSH2 0xCDE JUMPI PUSH2 0xCB1 DUP6 DUP3 DUP2 MLOAD DUP2 LT PUSH2 0xC8A JUMPI PUSH2 0xC8A PUSH2 0x2832 JUMP JUMPDEST PUSH1 0x20 MUL PUSH1 0x20 ADD ADD MLOAD DUP6 DUP4 DUP2 MLOAD DUP2 LT PUSH2 0xCA4 JUMPI PUSH2 0xCA4 PUSH2 0x2832 JUMP JUMPDEST PUSH1 0x20 MUL PUSH1 0x20 ADD ADD MLOAD PUSH2 0x4A7 JUMP JUMPDEST DUP3 DUP3 DUP2 MLOAD DUP2 LT PUSH2 0xCC3 JUMPI PUSH2 0xCC3 PUSH2 0x2832 JUMP JUMPDEST PUSH1 0x20 SWAP1 DUP2 MUL SWAP2 SWAP1 SWAP2 ADD ADD MSTORE PUSH2 0xCD7 DUP2 PUSH2 0x285A JUMP JUMPDEST SWAP1 POP PUSH2 0xC6C JUMP JUMPDEST POP SWAP4 SWAP3 POP POP POP JUMP JUMPDEST PUSH1 0x4 SLOAD PUSH0 SWAP1 PUSH1 0x1 PUSH1 0x1 PUSH1 0xA0 SHL SUB AND CALLER EQ PUSH2 0xD12 JUMPI PUSH1 0x40 MLOAD PUSH3 0x461BCD PUSH1 0xE5 SHL DUP2 MSTORE PUSH1 0x4 ADD PUSH2 0x50D SWAP1 PUSH2 0x276A JUMP JUMPDEST POP PUSH1 0x7 DUP1 SLOAD PUSH1 0x1 PUSH1 0x1 PUSH1 0xA0 SHL SUB DUP4 AND PUSH1 0x1 PUSH1 0x1 PUSH1 0xA0 SHL SUB NOT SWAP1 SWAP2 AND OR SWAP1 SSTORE PUSH1 0x1 SWAP2 SWAP1 POP JUMP JUMPDEST PUSH2 0xD3F PUSH2 0x18AC JUMP JUMPDEST PUSH2 0xD48 PUSH0 PUSH2 0x1906 JUMP JUMPDEST JUMP JUMPDEST PUSH1 0x60 PUSH1 0x8 DUP1 SLOAD DUP1 PUSH1 0x20 MUL PUSH1 0x20 ADD PUSH1 0x40 MLOAD SWAP1 DUP2 ADD PUSH1 0x40 MSTORE DUP1 SWAP3 SWAP2 SWAP1 DUP2 DUP2 MSTORE PUSH1 0x20 ADD DUP3 DUP1 SLOAD DUP1 ISZERO PUSH2 0x613 JUMPI PUSH1 0x20 MUL DUP3 ADD SWAP2 SWAP1 PUSH0 MSTORE PUSH1 0x20 PUSH0 KECCAK256 SWAP1 JUMPDEST DUP2 SLOAD PUSH1 0x1 PUSH1 0x1 PUSH1 0xA0 SHL SUB AND DUP2 MSTORE PUSH1 0x1 SWAP1 SWAP2 ADD SWAP1 PUSH1 0x20 ADD DUP1 DUP4 GT PUSH2 0xD82 JUMPI POP POP POP POP POP SWAP1 POP SWAP2 SWAP1 POP JUMP JUMPDEST PUSH1 0x4 SLOAD PUSH0 SWAP1 PUSH1 0x1 PUSH1 0x1 PUSH1 0xA0 SHL SUB AND CALLER EQ PUSH2 0xDD7 JUMPI PUSH1 0x40 MLOAD PUSH3 0x461BCD PUSH1 0xE5 SHL DUP2 MSTORE PUSH1 0x4 ADD PUSH2 0x50D SWAP1 PUSH2 0x276A JUMP JUMPDEST PUSH1 0x6 SLOAD PUSH1 0x40 MLOAD PUSH3 0xECB5BB PUSH1 0xE7 SHL DUP2 MSTORE PUSH1 0x4 DUP2 ADD DUP6 SWAP1 MSTORE PUSH1 0x24 DUP2 ADD DUP5 SWAP1 MSTORE PUSH1 0x1 PUSH1 0x1 PUSH1 0xA0 SHL SUB SWAP1 SWAP2 AND SWAP1 PUSH4 0x765ADD80 SWAP1 PUSH1 0x44 ADD PUSH1 0x20 PUSH1 0x40 MLOAD DUP1 DUP4 SUB DUP2 PUSH0 DUP8 GAS CALL ISZERO DUP1 ISZERO PUSH2 0xE25 JUMPI RETURNDATASIZE PUSH0 DUP1 RETURNDATACOPY RETURNDATASIZE PUSH0 REVERT JUMPDEST POP POP POP POP PUSH1 0x40 MLOAD RETURNDATASIZE PUSH1 0x1F NOT PUSH1 0x1F DUP3 ADD AND DUP3 ADD DUP1 PUSH1 0x40 MSTORE POP DUP2 ADD SWAP1 PUSH2 0xE49 SWAP2 SWAP1 PUSH2 0x27F3 JUMP JUMPDEST SWAP4 SWAP3 POP POP POP JUMP JUMPDEST PUSH1 0x6 SLOAD PUSH0 SWAP1 PUSH1 0x1 PUSH1 0x1 PUSH1 0xA0 SHL SUB AND CALLER EQ PUSH2 0xE7C JUMPI PUSH1 0x40 MLOAD PUSH3 0x461BCD PUSH1 0xE5 SHL DUP2 MSTORE PUSH1 0x4 ADD PUSH2 0x50D SWAP1 PUSH2 0x28C0 JUMP JUMPDEST PUSH2 0xB39 PUSH2 0x1957 JUMP JUMPDEST PUSH1 0x6 SLOAD PUSH0 SWAP1 PUSH1 0x1 PUSH1 0x1 PUSH1 0xA0 SHL SUB AND CALLER EQ PUSH2 0xEB0 JUMPI PUSH1 0x40 MLOAD PUSH3 0x461BCD PUSH1 0xE5 SHL DUP2 MSTORE PUSH1 0x4 ADD PUSH2 0x50D SWAP1 PUSH2 0x28C0 JUMP JUMPDEST POP PUSH1 0xC DUP1 SLOAD PUSH3 0xFF0000 NOT AND PUSH3 0x10000 SWAP1 DUP2 OR SWAP2 DUP3 SWAP1 SSTORE SWAP1 DIV PUSH1 0xFF AND SWAP1 JUMP JUMPDEST PUSH1 0x6 SLOAD PUSH0 SWAP1 PUSH1 0x1 PUSH1 0x1 PUSH1 0xA0 SHL SUB AND CALLER EQ PUSH2 0xEFA JUMPI PUSH1 0x40 MLOAD PUSH3 0x461BCD PUSH1 0xE5 SHL DUP2 MSTORE PUSH1 0x4 ADD PUSH2 0x50D SWAP1 PUSH2 0x28C0 JUMP JUMPDEST PUSH2 0xB39 PUSH2 0x19A5 JUMP JUMPDEST PUSH0 PUSH1 0xB SLOAD TIMESTAMP LT ISZERO PUSH2 0xF25 JUMPI PUSH1 0x40 MLOAD PUSH3 0x461BCD PUSH1 0xE5 SHL DUP2 MSTORE PUSH1 0x4 ADD PUSH2 0x50D SWAP1 PUSH2 0x2748 JUMP JUMPDEST PUSH1 0x4 SLOAD PUSH1 0x1 PUSH1 0x1 PUSH1 0xA0 SHL SUB AND CALLER EQ PUSH2 0xF4F JUMPI PUSH1 0x40 MLOAD PUSH3 0x461BCD PUSH1 0xE5 SHL DUP2 MSTORE PUSH1 0x4 ADD PUSH2 0x50D SWAP1 PUSH2 0x276A JUMP JUMPDEST PUSH0 JUMPDEST PUSH1 0x8 SLOAD DUP2 LT ISZERO PUSH2 0xAFC JUMPI PUSH2 0x1029 PUSH1 0x8 DUP3 DUP2 SLOAD DUP2 LT PUSH2 0xF71 JUMPI PUSH2 0xF71 PUSH2 0x2832 JUMP JUMPDEST PUSH0 SWAP2 DUP3 MSTORE PUSH1 0x20 SWAP1 SWAP2 KECCAK256 ADD SLOAD PUSH1 0x8 DUP1 SLOAD PUSH1 0x1 PUSH1 0x1 PUSH1 0xA0 SHL SUB SWAP1 SWAP3 AND SWAP2 DUP5 SWAP1 DUP2 LT PUSH2 0xF9C JUMPI PUSH2 0xF9C PUSH2 0x2832 JUMP JUMPDEST PUSH0 SWAP2 DUP3 MSTORE PUSH1 0x20 SWAP1 SWAP2 KECCAK256 ADD SLOAD PUSH1 0x40 MLOAD PUSH4 0x70A08231 PUSH1 0xE0 SHL DUP2 MSTORE PUSH1 0x1 PUSH1 0x1 PUSH1 0xA0 SHL SUB SWAP1 SWAP2 AND SWAP1 PUSH4 0x70A08231 SWAP1 PUSH2 0xFD4 SWAP1 ADDRESS SWAP1 PUSH1 0x4 ADD PUSH2 0x227B JUMP JUMPDEST PUSH1 0x20 PUSH1 0x40 MLOAD DUP1 DUP4 SUB DUP2 DUP7 GAS STATICCALL ISZERO DUP1 ISZERO PUSH2 0xFEF JUMPI RETURNDATASIZE PUSH0 DUP1 RETURNDATACOPY RETURNDATASIZE PUSH0 REVERT JUMPDEST POP POP POP POP PUSH1 0x40 MLOAD RETURNDATASIZE PUSH1 0x1F NOT PUSH1 0x1F DUP3 ADD AND DUP3 ADD DUP1 PUSH1 0x40 MSTORE POP DUP2 ADD SWAP1 PUSH2 0x1013 SWAP2 SWAP1 PUSH2 0x27C3 JUMP JUMPDEST PUSH1 0x8 SLOAD PUSH2 0x1022 SWAP1 PUSH1 0x1 SWAP1 PUSH2 0x2903 JUMP JUMPDEST DUP5 EQ PUSH2 0x61F JUMP JUMPDEST PUSH2 0x1035 JUMPI PUSH2 0x1035 PUSH2 0x27AF JUMP JUMPDEST DUP1 PUSH2 0x103F DUP2 PUSH2 0x285A JUMP JUMPDEST SWAP2 POP POP PUSH2 0xF51 JUMP JUMPDEST PUSH1 0x4 SLOAD PUSH0 SWAP1 PUSH1 0x1 PUSH1 0x1 PUSH1 0xA0 SHL SUB AND CALLER EQ PUSH2 0x1073 JUMPI PUSH1 0x40 MLOAD PUSH3 0x461BCD PUSH1 0xE5 SHL DUP2 MSTORE PUSH1 0x4 ADD PUSH2 0x50D SWAP1 PUSH2 0x276A JUMP JUMPDEST PUSH1 0xC SLOAD PUSH1 0xFF AND PUSH2 0x1095 JUMPI PUSH1 0x40 MLOAD PUSH3 0x461BCD PUSH1 0xE5 SHL DUP2 MSTORE PUSH1 0x4 ADD PUSH2 0x50D SWAP1 PUSH2 0x2916 JUMP JUMPDEST PUSH1 0x8 DUP1 SLOAD PUSH1 0x1 DUP2 ADD DUP3 SSTORE PUSH0 SWAP2 SWAP1 SWAP2 MSTORE PUSH32 0xF3F7A9FE364FAAB93B216DA50A3214154F22A0A2B415B23A84C8169E8B636EE3 ADD DUP1 SLOAD PUSH1 0x1 PUSH1 0x1 PUSH1 0xA0 SHL SUB NOT AND PUSH1 0x1 PUSH1 0x1 PUSH1 0xA0 SHL SUB DUP5 AND OR SWAP1 SSTORE PUSH1 0x40 MLOAD PUSH32 0xEC38796D17F4FA8C88DE20F9FB9DA605573FDCB1DD79C6D39683DF6D64175E5F SWAP1 PUSH2 0x110F SWAP1 DUP5 SWAP1 PUSH2 0x227B JUMP JUMPDEST PUSH1 0x40 MLOAD DUP1 SWAP2 SUB SWAP1 LOG1 POP PUSH1 0x1 SWAP2 SWAP1 POP JUMP JUMPDEST PUSH1 0xC SLOAD PUSH0 SWAP1 PUSH1 0xFF AND PUSH2 0x1143 JUMPI PUSH1 0x40 MLOAD PUSH3 0x461BCD PUSH1 0xE5 SHL DUP2 MSTORE PUSH1 0x4 ADD PUSH2 0x50D SWAP1 PUSH2 0x2916 JUMP JUMPDEST PUSH1 0x5 SLOAD PUSH1 0x1 PUSH1 0x1 PUSH1 0xA0 SHL SUB AND CALLER EQ PUSH2 0x11B4 JUMPI PUSH1 0x40 MLOAD PUSH3 0x461BCD PUSH1 0xE5 SHL DUP2 MSTORE PUSH1 0x20 PUSH1 0x4 DUP3 ADD MSTORE PUSH1 0x2E PUSH1 0x24 DUP3 ADD MSTORE PUSH32 0x4F6E6C7920636F6E747269627574696F6E20726F757465722063616E2072756E PUSH1 0x44 DUP3 ADD MSTORE PUSH14 0x103A3434B990333AB731BA34B7B7 PUSH1 0x91 SHL PUSH1 0x64 DUP3 ADD MSTORE PUSH1 0x84 ADD PUSH2 0x50D JUMP JUMPDEST PUSH0 DUP4 PUSH1 0x1 PUSH1 0x1 PUSH1 0xA0 SHL SUB AND SWAP1 POP PUSH2 0x11DB DUP6 DUP3 DUP6 PUSH1 0x40 MLOAD DUP1 PUSH1 0x20 ADD PUSH1 0x40 MSTORE DUP1 PUSH0 DUP2 MSTORE POP PUSH2 0x19F7 JUMP JUMPDEST PUSH0 DUP2 DUP2 MSTORE PUSH1 0x9 PUSH1 0x20 MSTORE PUSH1 0x40 DUP2 KECCAK256 DUP1 SLOAD DUP6 SWAP3 SWAP1 PUSH2 0x11F8 SWAP1 DUP5 SWAP1 PUSH2 0x2960 JUMP JUMPDEST SWAP1 SWAP2 SSTORE POP POP PUSH1 0x40 MLOAD PUSH32 0x188177A91F9B084DADC3C86215FF29AA75DDAF05ED75983C8C498C40989D58C9 SWAP1 PUSH2 0x1231 SWAP1 DUP8 SWAP1 DUP8 SWAP1 DUP8 SWAP1 PUSH2 0x280E JUMP JUMPDEST PUSH1 0x40 MLOAD DUP1 SWAP2 SUB SWAP1 LOG1 POP PUSH1 0x1 SWAP5 SWAP4 POP POP POP POP JUMP JUMPDEST PUSH1 0x4 SLOAD PUSH0 SWAP1 PUSH1 0x1 PUSH1 0x1 PUSH1 0xA0 SHL SUB AND CALLER EQ PUSH2 0x1270 JUMPI PUSH1 0x40 MLOAD PUSH3 0x461BCD PUSH1 0xE5 SHL DUP2 MSTORE PUSH1 0x4 ADD PUSH2 0x50D SWAP1 PUSH2 0x276A JUMP JUMPDEST POP PUSH1 0xB SSTORE PUSH1 0x1 SWAP1 JUMP JUMPDEST PUSH2 0x1284 CALLER DUP4 DUP4 PUSH2 0x1AF3 JUMP JUMPDEST POP POP JUMP JUMPDEST PUSH1 0x1 PUSH1 0x1 PUSH1 0xA0 SHL SUB DUP2 AND PUSH0 SWAP1 DUP2 MSTORE PUSH1 0xA PUSH1 0x20 MSTORE PUSH1 0x40 DUP2 KECCAK256 SLOAD PUSH2 0x12E6 JUMPI PUSH1 0x40 MLOAD PUSH3 0x461BCD PUSH1 0xE5 SHL DUP2 MSTORE PUSH1 0x20 PUSH1 0x4 DUP3 ADD MSTORE PUSH1 0x17 PUSH1 0x24 DUP3 ADD MSTORE PUSH23 0x139BC8199D5B991CC81D1BC81899481C99599D5B991959 PUSH1 0x4A SHL PUSH1 0x44 DUP3 ADD MSTORE PUSH1 0x64 ADD PUSH2 0x50D JUMP JUMPDEST PUSH1 0x1 PUSH1 0x1 PUSH1 0xA0 SHL SUB DUP3 AND PUSH0 PUSH2 0x12FB CALLER DUP4 PUSH2 0x4A7 JUMP JUMPDEST SWAP1 POP PUSH0 DUP2 GT PUSH2 0x134C JUMPI PUSH1 0x40 MLOAD PUSH3 0x461BCD PUSH1 0xE5 SHL DUP2 MSTORE PUSH1 0x20 PUSH1 0x4 DUP3 ADD MSTORE PUSH1 0x1E PUSH1 0x24 DUP3 ADD MSTORE PUSH32 0x4E6F20726566756E6473206F77656420746F206D73672073656E6465722E0000 PUSH1 0x44 DUP3 ADD MSTORE PUSH1 0x64 ADD PUSH2 0x50D JUMP JUMPDEST PUSH0 DUP3 DUP2 MSTORE PUSH1 0x9 PUSH1 0x20 MSTORE PUSH1 0x40 DUP1 DUP3 KECCAK256 SLOAD SWAP1 MLOAD PUSH4 0x70A08231 PUSH1 0xE0 SHL DUP2 MSTORE PUSH1 0x1 PUSH1 0x1 PUSH1 0xA0 SHL SUB DUP8 AND SWAP1 PUSH4 0x70A08231 SWAP1 PUSH2 0x1386 SWAP1 ADDRESS SWAP1 PUSH1 0x4 ADD PUSH2 0x227B JUMP JUMPDEST PUSH1 0x20 PUSH1 0x40 MLOAD DUP1 DUP4 SUB DUP2 DUP7 GAS STATICCALL ISZERO DUP1 ISZERO PUSH2 0x13A1 JUMPI RETURNDATASIZE PUSH0 DUP1 RETURNDATACOPY RETURNDATASIZE PUSH0 REVERT JUMPDEST POP POP POP POP PUSH1 0x40 MLOAD RETURNDATASIZE PUSH1 0x1F NOT PUSH1 0x1F DUP3 ADD AND DUP3 ADD DUP1 PUSH1 0x40 MSTORE POP DUP2 ADD SWAP1 PUSH2 0x13C5 SWAP2 SWAP1 PUSH2 0x27C3 JUMP JUMPDEST PUSH2 0x13CF SWAP1 DUP5 PUSH2 0x2973 JUMP JUMPDEST PUSH2 0x13D9 SWAP2 SWAP1 PUSH2 0x298A JUMP JUMPDEST PUSH1 0x40 MLOAD PUSH4 0xA9059CBB PUSH1 0xE0 SHL DUP2 MSTORE SWAP1 SWAP2 POP PUSH1 0x1 PUSH1 0x1 PUSH1 0xA0 SHL SUB DUP7 AND SWAP1 PUSH4 0xA9059CBB SWAP1 PUSH2 0x140A SWAP1 CALLER SWAP1 DUP6 SWAP1 PUSH1 0x4 ADD PUSH2 0x27DA JUMP JUMPDEST PUSH1 0x20 PUSH1 0x40 MLOAD DUP1 DUP4 SUB DUP2 PUSH0 DUP8 GAS CALL ISZERO DUP1 ISZERO PUSH2 0x1426 JUMPI RETURNDATASIZE PUSH0 DUP1 RETURNDATACOPY RETURNDATASIZE PUSH0 REVERT JUMPDEST POP POP POP POP PUSH1 0x40 MLOAD RETURNDATASIZE PUSH1 0x1F NOT PUSH1 0x1F DUP3 ADD AND DUP3 ADD DUP1 PUSH1 0x40 MSTORE POP DUP2 ADD SWAP1 PUSH2 0x144A SWAP2 SWAP1 PUSH2 0x27F3 JUMP JUMPDEST POP PUSH2 0x1456 CALLER DUP5 DUP5 PUSH2 0x1BD2 JUMP JUMPDEST PUSH32 0xEC1E5ED733E00F1A00915D56CAEF57B4F52312DDE4F9B3165F213319A0DA156B CALLER DUP7 DUP4 PUSH1 0x40 MLOAD PUSH2 0x1231 SWAP4 SWAP3 SWAP2 SWAP1 PUSH2 0x280E JUMP JUMPDEST PUSH1 0x4 SLOAD PUSH0 SWAP1 PUSH1 0x1 PUSH1 0x1 PUSH1 0xA0 SHL SUB AND CALLER EQ PUSH2 0xEFA JUMPI PUSH1 0x40 MLOAD PUSH3 0x461BCD PUSH1 0xE5 SHL DUP2 MSTORE PUSH1 0x4 ADD PUSH2 0x50D SWAP1 PUSH2 0x276A JUMP JUMPDEST PUSH1 0x1 PUSH1 0x1 PUSH1 0xA0 SHL SUB DUP6 AND CALLER EQ DUP1 PUSH2 0x14D1 JUMPI POP PUSH2 0x14D1 DUP6 CALLER PUSH2 0x44C JUMP JUMPDEST PUSH2 0x14ED JUMPI PUSH1 0x40 MLOAD PUSH3 0x461BCD PUSH1 0xE5 SHL DUP2 MSTORE PUSH1 0x4 ADD PUSH2 0x50D SWAP1 PUSH2 0x2872 JUMP JUMPDEST PUSH2 0xB83 DUP6 DUP6 DUP6 DUP6 DUP6 PUSH2 0x1D36 JUMP JUMPDEST PUSH2 0x1502 PUSH2 0x18AC JUMP JUMPDEST PUSH1 0x1 PUSH1 0x1 PUSH1 0xA0 SHL SUB DUP2 AND PUSH2 0x1567 JUMPI PUSH1 0x40 MLOAD PUSH3 0x461BCD PUSH1 0xE5 SHL DUP2 MSTORE PUSH1 0x20 PUSH1 0x4 DUP3 ADD MSTORE PUSH1 0x26 PUSH1 0x24 DUP3 ADD MSTORE PUSH32 0x4F776E61626C653A206E6577206F776E657220697320746865207A65726F2061 PUSH1 0x44 DUP3 ADD MSTORE PUSH6 0x646472657373 PUSH1 0xD0 SHL PUSH1 0x64 DUP3 ADD MSTORE PUSH1 0x84 ADD PUSH2 0x50D JUMP JUMPDEST PUSH2 0x1570 DUP2 PUSH2 0x1906 JUMP JUMPDEST POP JUMP JUMPDEST PUSH1 0x4 SLOAD PUSH0 SWAP1 PUSH1 0x1 PUSH1 0x1 PUSH1 0xA0 SHL SUB AND CALLER EQ PUSH2 0xE7C JUMPI PUSH1 0x40 MLOAD PUSH3 0x461BCD PUSH1 0xE5 SHL DUP2 MSTORE PUSH1 0x4 ADD PUSH2 0x50D SWAP1 PUSH2 0x276A JUMP JUMPDEST PUSH1 0xC SLOAD PUSH0 SWAP1 PUSH3 0x10000 SWAP1 DIV PUSH1 0xFF AND ISZERO PUSH2 0x160D JUMPI PUSH1 0x40 MLOAD PUSH3 0x461BCD PUSH1 0xE5 SHL DUP2 MSTORE PUSH1 0x20 PUSH1 0x4 DUP3 ADD MSTORE PUSH1 0x2A PUSH1 0x24 DUP3 ADD MSTORE PUSH32 0x4E6F2066756E647320746F20726566756E6420666F72207368757420646F776E PUSH1 0x44 DUP3 ADD MSTORE PUSH10 0x10383937B532B1BA3997 PUSH1 0xB1 SHL PUSH1 0x64 DUP3 ADD MSTORE PUSH1 0x84 ADD PUSH2 0x50D JUMP JUMPDEST PUSH1 0x40 MLOAD PUSH4 0x70A08231 PUSH1 0xE0 SHL DUP2 MSTORE PUSH1 0x1 PUSH1 0x1 PUSH1 0xA0 SHL SUB DUP4 AND SWAP1 PUSH4 0x70A08231 SWAP1 PUSH2 0x1639 SWAP1 ADDRESS SWAP1 PUSH1 0x4 ADD PUSH2 0x227B JUMP JUMPDEST PUSH1 0x20 PUSH1 0x40 MLOAD DUP1 DUP4 SUB DUP2 DUP7 GAS STATICCALL ISZERO DUP1 ISZERO PUSH2 0x1654 JUMPI RETURNDATASIZE PUSH0 DUP1 RETURNDATACOPY RETURNDATASIZE PUSH0 REVERT JUMPDEST POP POP POP POP PUSH1 0x40 MLOAD RETURNDATASIZE PUSH1 0x1F NOT PUSH1 0x1F DUP3 ADD AND DUP3 ADD DUP1 PUSH1 0x40 MSTORE POP DUP2 ADD SWAP1 PUSH2 0x1678 SWAP2 SWAP1 PUSH2 0x27C3 JUMP JUMPDEST PUSH1 0x1 PUSH1 0x1 PUSH1 0xA0 SHL SUB SWAP1 SWAP3 AND PUSH0 SWAP1 DUP2 MSTORE PUSH1 0xA PUSH1 0x20 MSTORE PUSH1 0x40 SWAP1 KECCAK256 SWAP2 SWAP1 SWAP2 SSTORE POP PUSH1 0x1 SWAP1 JUMP JUMPDEST PUSH1 0xC DUP1 SLOAD PUSH1 0xFF NOT AND SWAP1 SSTORE PUSH1 0x40 MLOAD PUSH0 SWAP1 PUSH32 0xA45ACEC63F6AC615004262A66FB13BFBC1EB0D6428DCCED53EFA9500185DC4A5 SWAP1 DUP3 SWAP1 LOG1 POP PUSH1 0x1 SWAP1 JUMP JUMPDEST DUP2 MLOAD DUP4 MLOAD EQ PUSH2 0x1736 JUMPI PUSH1 0x40 MLOAD PUSH3 0x461BCD PUSH1 0xE5 SHL DUP2 MSTORE PUSH1 0x20 PUSH1 0x4 DUP3 ADD MSTORE PUSH1 0x28 PUSH1 0x24 DUP3 ADD MSTORE PUSH32 0x455243313135353A2069647320616E6420616D6F756E7473206C656E67746820 PUSH1 0x44 DUP3 ADD MSTORE PUSH8 0xDAD2E6DAC2E8C6D PUSH1 0xC3 SHL PUSH1 0x64 DUP3 ADD MSTORE PUSH1 0x84 ADD PUSH2 0x50D JUMP JUMPDEST PUSH1 0x1 PUSH1 0x1 PUSH1 0xA0 SHL SUB DUP5 AND PUSH2 0x175C JUMPI PUSH1 0x40 MLOAD PUSH3 0x461BCD PUSH1 0xE5 SHL DUP2 MSTORE PUSH1 0x4 ADD PUSH2 0x50D SWAP1 PUSH2 0x29A9 JUMP JUMPDEST CALLER PUSH0 JUMPDEST DUP5 MLOAD DUP2 LT ISZERO PUSH2 0x183E JUMPI PUSH0 DUP6 DUP3 DUP2 MLOAD DUP2 LT PUSH2 0x177B JUMPI PUSH2 0x177B PUSH2 0x2832 JUMP JUMPDEST PUSH1 0x20 MUL PUSH1 0x20 ADD ADD MLOAD SWAP1 POP PUSH0 DUP6 DUP4 DUP2 MLOAD DUP2 LT PUSH2 0x1798 JUMPI PUSH2 0x1798 PUSH2 0x2832 JUMP JUMPDEST PUSH1 0x20 SWAP1 DUP2 MUL SWAP2 SWAP1 SWAP2 ADD DUP2 ADD MLOAD PUSH0 DUP5 DUP2 MSTORE DUP1 DUP4 MSTORE PUSH1 0x40 DUP1 DUP3 KECCAK256 PUSH1 0x1 PUSH1 0x1 PUSH1 0xA0 SHL SUB DUP15 AND DUP4 MSTORE SWAP1 SWAP4 MSTORE SWAP2 SWAP1 SWAP2 KECCAK256 SLOAD SWAP1 SWAP2 POP DUP2 DUP2 LT ISZERO PUSH2 0x17E7 JUMPI PUSH1 0x40 MLOAD PUSH3 0x461BCD PUSH1 0xE5 SHL DUP2 MSTORE PUSH1 0x4 ADD PUSH2 0x50D SWAP1 PUSH2 0x29EE JUMP JUMPDEST PUSH0 DUP4 DUP2 MSTORE PUSH1 0x20 DUP2 DUP2 MSTORE PUSH1 0x40 DUP1 DUP4 KECCAK256 PUSH1 0x1 PUSH1 0x1 PUSH1 0xA0 SHL SUB DUP15 DUP2 AND DUP6 MSTORE SWAP3 MSTORE DUP1 DUP4 KECCAK256 DUP6 DUP6 SUB SWAP1 SSTORE SWAP1 DUP12 AND DUP3 MSTORE DUP2 KECCAK256 DUP1 SLOAD DUP5 SWAP3 SWAP1 PUSH2 0x1823 SWAP1 DUP5 SWAP1 PUSH2 0x2960 JUMP JUMPDEST SWAP3 POP POP DUP2 SWAP1 SSTORE POP POP POP POP DUP1 PUSH2 0x1837 SWAP1 PUSH2 0x285A JUMP JUMPDEST SWAP1 POP PUSH2 0x175F JUMP JUMPDEST POP DUP5 PUSH1 0x1 PUSH1 0x1 PUSH1 0xA0 SHL SUB AND DUP7 PUSH1 0x1 PUSH1 0x1 PUSH1 0xA0 SHL SUB AND DUP3 PUSH1 0x1 PUSH1 0x1 PUSH1 0xA0 SHL SUB AND PUSH32 0x4A39DC06D4C0DBC64B70AF90FD698A233A518AA5D07E595D983B8C0526C8F7FB DUP8 DUP8 PUSH1 0x40 MLOAD PUSH2 0x188E SWAP3 SWAP2 SWAP1 PUSH2 0x2A38 JUMP JUMPDEST PUSH1 0x40 MLOAD DUP1 SWAP2 SUB SWAP1 LOG4 PUSH2 0x18A4 DUP2 DUP8 DUP8 DUP8 DUP8 DUP8 PUSH2 0x1E49 JUMP JUMPDEST POP POP POP POP POP POP JUMP JUMPDEST PUSH1 0x3 SLOAD PUSH1 0x1 PUSH1 0x1 PUSH1 0xA0 SHL SUB AND CALLER EQ PUSH2 0xD48 JUMPI PUSH1 0x40 MLOAD PUSH3 0x461BCD PUSH1 0xE5 SHL DUP2 MSTORE PUSH1 0x20 PUSH1 0x4 DUP3 ADD DUP2 SWAP1 MSTORE PUSH1 0x24 DUP3 ADD MSTORE PUSH32 0x4F776E61626C653A2063616C6C6572206973206E6F7420746865206F776E6572 PUSH1 0x44 DUP3 ADD MSTORE PUSH1 0x64 ADD PUSH2 0x50D JUMP JUMPDEST PUSH1 0x3 DUP1 SLOAD PUSH1 0x1 PUSH1 0x1 PUSH1 0xA0 SHL SUB DUP4 DUP2 AND PUSH1 0x1 PUSH1 0x1 PUSH1 0xA0 SHL SUB NOT DUP4 AND DUP2 OR SWAP1 SWAP4 SSTORE PUSH1 0x40 MLOAD SWAP2 AND SWAP2 SWAP1 DUP3 SWAP1 PUSH32 0x8BE0079C531659141344CD1FD0A4F28419497F9722A3DAAFE3B4186F6B6457E0 SWAP1 PUSH0 SWAP1 LOG3 POP POP JUMP JUMPDEST PUSH1 0xC DUP1 SLOAD PUSH2 0xFF00 NOT AND SWAP1 SSTORE PUSH0 PUSH2 0x196B PUSH2 0x1FA3 JUMP JUMPDEST PUSH2 0x1977 JUMPI PUSH2 0x1977 PUSH2 0x27AF JUMP JUMPDEST PUSH1 0x40 MLOAD PUSH32 0x156D027F9D371E1464249DBD8DAACDCE9FA6F2A0D9FDA528482A22C1583B0EA6 SWAP1 PUSH0 SWAP1 LOG1 POP PUSH1 0x1 SWAP1 JUMP JUMPDEST PUSH1 0xC DUP1 SLOAD PUSH2 0xFF00 NOT AND PUSH2 0x100 OR SWAP1 SSTORE PUSH0 PUSH2 0x19BD PUSH2 0x169A JUMP JUMPDEST PUSH2 0x19C9 JUMPI PUSH2 0x19C9 PUSH2 0x27AF JUMP JUMPDEST PUSH1 0x40 MLOAD PUSH32 0xA5BAF151492801D3B7A89ECE73C1ED0B6DDE992D47A0E283FF7D352BBA70E0F5 SWAP1 PUSH0 SWAP1 LOG1 POP PUSH1 0x1 SWAP1 JUMP JUMPDEST PUSH1 0x1 PUSH1 0x1 PUSH1 0xA0 SHL SUB DUP5 AND PUSH2 0x1A57 JUMPI PUSH1 0x40 MLOAD PUSH3 0x461BCD PUSH1 0xE5 SHL DUP2 MSTORE PUSH1 0x20 PUSH1 0x4 DUP3 ADD MSTORE PUSH1 0x21 PUSH1 0x24 DUP3 ADD MSTORE PUSH32 0x455243313135353A206D696E7420746F20746865207A65726F20616464726573 PUSH1 0x44 DUP3 ADD MSTORE PUSH1 0x73 PUSH1 0xF8 SHL PUSH1 0x64 DUP3 ADD MSTORE PUSH1 0x84 ADD PUSH2 0x50D JUMP JUMPDEST CALLER PUSH0 PUSH2 0x1A62 DUP6 PUSH2 0x2052 JUMP JUMPDEST SWAP1 POP PUSH0 PUSH2 0x1A6E DUP6 PUSH2 0x2052 JUMP JUMPDEST SWAP1 POP PUSH0 DUP7 DUP2 MSTORE PUSH1 0x20 DUP2 DUP2 MSTORE PUSH1 0x40 DUP1 DUP4 KECCAK256 PUSH1 0x1 PUSH1 0x1 PUSH1 0xA0 SHL SUB DUP12 AND DUP5 MSTORE SWAP1 SWAP2 MSTORE DUP2 KECCAK256 DUP1 SLOAD DUP8 SWAP3 SWAP1 PUSH2 0x1A9F SWAP1 DUP5 SWAP1 PUSH2 0x2960 JUMP JUMPDEST SWAP1 SWAP2 SSTORE POP POP PUSH1 0x40 DUP1 MLOAD DUP8 DUP2 MSTORE PUSH1 0x20 DUP2 ADD DUP8 SWAP1 MSTORE PUSH1 0x1 PUSH1 0x1 PUSH1 0xA0 SHL SUB DUP1 DUP11 AND SWAP3 PUSH0 SWAP3 SWAP2 DUP8 AND SWAP2 PUSH0 DUP1 MLOAD PUSH1 0x20 PUSH2 0x2C0A DUP4 CODECOPY DUP2 MLOAD SWAP2 MSTORE SWAP2 ADD PUSH1 0x40 MLOAD DUP1 SWAP2 SUB SWAP1 LOG4 PUSH2 0x1AEA DUP4 PUSH0 DUP10 DUP10 DUP10 DUP10 PUSH2 0x209B JUMP JUMPDEST POP POP POP POP POP POP POP JUMP JUMPDEST DUP2 PUSH1 0x1 PUSH1 0x1 PUSH1 0xA0 SHL SUB AND DUP4 PUSH1 0x1 PUSH1 0x1 PUSH1 0xA0 SHL SUB AND SUB PUSH2 0x1B66 JUMPI PUSH1 0x40 MLOAD PUSH3 0x461BCD PUSH1 0xE5 SHL DUP2 MSTORE PUSH1 0x20 PUSH1 0x4 DUP3 ADD MSTORE PUSH1 0x29 PUSH1 0x24 DUP3 ADD MSTORE PUSH32 0x455243313135353A2073657474696E6720617070726F76616C20737461747573 PUSH1 0x44 DUP3 ADD MSTORE PUSH9 0x103337B91039B2B633 PUSH1 0xB9 SHL PUSH1 0x64 DUP3 ADD MSTORE PUSH1 0x84 ADD PUSH2 0x50D JUMP JUMPDEST PUSH1 0x1 PUSH1 0x1 PUSH1 0xA0 SHL SUB DUP4 DUP2 AND PUSH0 DUP2 DUP2 MSTORE PUSH1 0x1 PUSH1 0x20 SWAP1 DUP2 MSTORE PUSH1 0x40 DUP1 DUP4 KECCAK256 SWAP5 DUP8 AND DUP1 DUP5 MSTORE SWAP5 DUP3 MSTORE SWAP2 DUP3 SWAP1 KECCAK256 DUP1 SLOAD PUSH1 0xFF NOT AND DUP7 ISZERO ISZERO SWAP1 DUP2 OR SWAP1 SWAP2 SSTORE SWAP2 MLOAD SWAP2 DUP3 MSTORE PUSH32 0x17307EAB39AB6107E8899845AD3D59BD9653F200F220920489CA2B5937696C31 SWAP2 ADD PUSH1 0x40 MLOAD DUP1 SWAP2 SUB SWAP1 LOG3 POP POP POP JUMP JUMPDEST PUSH1 0x1 PUSH1 0x1 PUSH1 0xA0 SHL SUB DUP4 AND PUSH2 0x1C34 JUMPI PUSH1 0x40 MLOAD PUSH3 0x461BCD PUSH1 0xE5 SHL DUP2 MSTORE PUSH1 0x20 PUSH1 0x4 DUP3 ADD MSTORE PUSH1 0x23 PUSH1 0x24 DUP3 ADD MSTORE PUSH32 0x455243313135353A206275726E2066726F6D20746865207A65726F2061646472 PUSH1 0x44 DUP3 ADD MSTORE PUSH3 0x657373 PUSH1 0xE8 SHL PUSH1 0x64 DUP3 ADD MSTORE PUSH1 0x84 ADD PUSH2 0x50D JUMP JUMPDEST CALLER PUSH0 PUSH2 0x1C3F DUP5 PUSH2 0x2052 JUMP JUMPDEST SWAP1 POP PUSH0 PUSH2 0x1C4B DUP5 PUSH2 0x2052 JUMP JUMPDEST PUSH1 0x40 DUP1 MLOAD PUSH1 0x20 DUP1 DUP3 ADD DUP4 MSTORE PUSH0 SWAP2 DUP3 SWAP1 MSTORE DUP9 DUP3 MSTORE DUP2 DUP2 MSTORE DUP3 DUP3 KECCAK256 PUSH1 0x1 PUSH1 0x1 PUSH1 0xA0 SHL SUB DUP12 AND DUP4 MSTORE SWAP1 MSTORE KECCAK256 SLOAD SWAP1 SWAP2 POP DUP5 DUP2 LT ISZERO PUSH2 0x1CD3 JUMPI PUSH1 0x40 MLOAD PUSH3 0x461BCD PUSH1 0xE5 SHL DUP2 MSTORE PUSH1 0x20 PUSH1 0x4 DUP3 ADD MSTORE PUSH1 0x24 DUP1 DUP3 ADD MSTORE PUSH32 0x455243313135353A206275726E20616D6F756E7420657863656564732062616C PUSH1 0x44 DUP3 ADD MSTORE PUSH4 0x616E6365 PUSH1 0xE0 SHL PUSH1 0x64 DUP3 ADD MSTORE PUSH1 0x84 ADD PUSH2 0x50D JUMP JUMPDEST PUSH0 DUP7 DUP2 MSTORE PUSH1 0x20 DUP2 DUP2 MSTORE PUSH1 0x40 DUP1 DUP4 KECCAK256 PUSH1 0x1 PUSH1 0x1 PUSH1 0xA0 SHL SUB DUP12 DUP2 AND DUP1 DUP7 MSTORE SWAP2 DUP5 MSTORE DUP3 DUP6 KECCAK256 DUP11 DUP8 SUB SWAP1 SSTORE DUP3 MLOAD DUP12 DUP2 MSTORE SWAP4 DUP5 ADD DUP11 SWAP1 MSTORE SWAP1 SWAP3 SWAP1 DUP9 AND SWAP2 PUSH0 DUP1 MLOAD PUSH1 0x20 PUSH2 0x2C0A DUP4 CODECOPY DUP2 MLOAD SWAP2 MSTORE SWAP2 ADD PUSH1 0x40 MLOAD DUP1 SWAP2 SUB SWAP1 LOG4 PUSH1 0x40 DUP1 MLOAD PUSH1 0x20 DUP2 ADD SWAP1 SWAP2 MSTORE PUSH0 SWAP1 MSTORE PUSH2 0x1AEA JUMP JUMPDEST PUSH1 0x1 PUSH1 0x1 PUSH1 0xA0 SHL SUB DUP5 AND PUSH2 0x1D5C JUMPI PUSH1 0x40 MLOAD PUSH3 0x461BCD PUSH1 0xE5 SHL DUP2 MSTORE PUSH1 0x4 ADD PUSH2 0x50D SWAP1 PUSH2 0x29A9 JUMP JUMPDEST CALLER PUSH0 PUSH2 0x1D67 DUP6 PUSH2 0x2052 JUMP JUMPDEST SWAP1 POP PUSH0 PUSH2 0x1D73 DUP6 PUSH2 0x2052 JUMP JUMPDEST SWAP1 POP PUSH0 DUP7 DUP2 MSTORE PUSH1 0x20 DUP2 DUP2 MSTORE PUSH1 0x40 DUP1 DUP4 KECCAK256 PUSH1 0x1 PUSH1 0x1 PUSH1 0xA0 SHL SUB DUP13 AND DUP5 MSTORE SWAP1 SWAP2 MSTORE SWAP1 KECCAK256 SLOAD DUP6 DUP2 LT ISZERO PUSH2 0x1DB5 JUMPI PUSH1 0x40 MLOAD PUSH3 0x461BCD PUSH1 0xE5 SHL DUP2 MSTORE PUSH1 0x4 ADD PUSH2 0x50D SWAP1 PUSH2 0x29EE JUMP JUMPDEST PUSH0 DUP8 DUP2 MSTORE PUSH1 0x20 DUP2 DUP2 MSTORE PUSH1 0x40 DUP1 DUP4 KECCAK256 PUSH1 0x1 PUSH1 0x1 PUSH1 0xA0 SHL SUB DUP14 DUP2 AND DUP6 MSTORE SWAP3 MSTORE DUP1 DUP4 KECCAK256 DUP10 DUP6 SUB SWAP1 SSTORE SWAP1 DUP11 AND DUP3 MSTORE DUP2 KECCAK256 DUP1 SLOAD DUP9 SWAP3 SWAP1 PUSH2 0x1DF1 SWAP1 DUP5 SWAP1 PUSH2 0x2960 JUMP JUMPDEST SWAP1 SWAP2 SSTORE POP POP PUSH1 0x40 DUP1 MLOAD DUP9 DUP2 MSTORE PUSH1 0x20 DUP2 ADD DUP9 SWAP1 MSTORE PUSH1 0x1 PUSH1 0x1 PUSH1 0xA0 SHL SUB DUP1 DUP12 AND SWAP3 DUP13 DUP3 AND SWAP3 SWAP2 DUP9 AND SWAP2 PUSH0 DUP1 MLOAD PUSH1 0x20 PUSH2 0x2C0A DUP4 CODECOPY DUP2 MLOAD SWAP2 MSTORE SWAP2 ADD PUSH1 0x40 MLOAD DUP1 SWAP2 SUB SWAP1 LOG4 PUSH2 0x1E3E DUP5 DUP11 DUP11 DUP11 DUP11 DUP11 PUSH2 0x209B JUMP JUMPDEST POP POP POP POP POP POP POP POP POP JUMP JUMPDEST PUSH1 0x1 PUSH1 0x1 PUSH1 0xA0 SHL SUB DUP5 AND EXTCODESIZE ISZERO PUSH2 0x18A4 JUMPI PUSH1 0x40 MLOAD PUSH4 0xBC197C81 PUSH1 0xE0 SHL DUP2 MSTORE PUSH1 0x1 PUSH1 0x1 PUSH1 0xA0 SHL SUB DUP6 AND SWAP1 PUSH4 0xBC197C81 SWAP1 PUSH2 0x1E8D SWAP1 DUP10 SWAP1 DUP10 SWAP1 DUP9 SWAP1 DUP9 SWAP1 DUP9 SWAP1 PUSH1 0x4 ADD PUSH2 0x2A65 JUMP JUMPDEST PUSH1 0x20 PUSH1 0x40 MLOAD DUP1 DUP4 SUB DUP2 PUSH0 DUP8 GAS CALL SWAP3 POP POP POP DUP1 ISZERO PUSH2 0x1EC7 JUMPI POP PUSH1 0x40 DUP1 MLOAD PUSH1 0x1F RETURNDATASIZE SWAP1 DUP2 ADD PUSH1 0x1F NOT AND DUP3 ADD SWAP1 SWAP3 MSTORE PUSH2 0x1EC4 SWAP2 DUP2 ADD SWAP1 PUSH2 0x2AC2 JUMP JUMPDEST PUSH1 0x1 JUMPDEST PUSH2 0x1F73 JUMPI PUSH2 0x1ED3 PUSH2 0x2ADD JUMP JUMPDEST DUP1 PUSH4 0x8C379A0 SUB PUSH2 0x1F0C JUMPI POP PUSH2 0x1EE7 PUSH2 0x2AF5 JUMP JUMPDEST DUP1 PUSH2 0x1EF2 JUMPI POP PUSH2 0x1F0E JUMP JUMPDEST DUP1 PUSH1 0x40 MLOAD PUSH3 0x461BCD PUSH1 0xE5 SHL DUP2 MSTORE PUSH1 0x4 ADD PUSH2 0x50D SWAP2 SWAP1 PUSH2 0x221D JUMP JUMPDEST POP JUMPDEST PUSH1 0x40 MLOAD PUSH3 0x461BCD PUSH1 0xE5 SHL DUP2 MSTORE PUSH1 0x20 PUSH1 0x4 DUP3 ADD MSTORE PUSH1 0x34 PUSH1 0x24 DUP3 ADD MSTORE PUSH32 0x455243313135353A207472616E7366657220746F206E6F6E2D45524331313535 PUSH1 0x44 DUP3 ADD MSTORE PUSH20 0x2932B1B2B4BB32B91034B6B83632B6B2B73A32B9 PUSH1 0x61 SHL PUSH1 0x64 DUP3 ADD MSTORE PUSH1 0x84 ADD PUSH2 0x50D JUMP JUMPDEST PUSH1 0x1 PUSH1 0x1 PUSH1 0xE0 SHL SUB NOT DUP2 AND PUSH4 0xBC197C81 PUSH1 0xE0 SHL EQ PUSH2 0x1AEA JUMPI PUSH1 0x40 MLOAD PUSH3 0x461BCD PUSH1 0xE5 SHL DUP2 MSTORE PUSH1 0x4 ADD PUSH2 0x50D SWAP1 PUSH2 0x2B7D JUMP JUMPDEST PUSH1 0xC SLOAD PUSH0 SWAP1 PUSH3 0x10000 SWAP1 DIV PUSH1 0xFF AND ISZERO PUSH2 0x2017 JUMPI PUSH1 0x40 MLOAD PUSH3 0x461BCD PUSH1 0xE5 SHL DUP2 MSTORE PUSH1 0x20 PUSH1 0x4 DUP3 ADD MSTORE PUSH1 0x30 PUSH1 0x24 DUP3 ADD MSTORE PUSH32 0x556E61626C6520746F20726561637469766174652070726F6A65637420746861 PUSH1 0x44 DUP3 ADD MSTORE PUSH16 0x3A103430B99039B43ABA103237BBB717 PUSH1 0x81 SHL PUSH1 0x64 DUP3 ADD MSTORE PUSH1 0x84 ADD PUSH2 0x50D JUMP JUMPDEST PUSH1 0xC DUP1 SLOAD PUSH1 0xFF NOT AND PUSH1 0x1 OR SWAP1 SSTORE PUSH1 0x40 MLOAD PUSH32 0x1611757E154FD5430178688B28BEBEAB61BB8ACEC2B806091026E8B0FC3E7164 SWAP1 PUSH0 SWAP1 LOG1 POP PUSH1 0x1 SWAP1 JUMP JUMPDEST PUSH1 0x40 DUP1 MLOAD PUSH1 0x1 DUP1 DUP3 MSTORE DUP2 DUP4 ADD SWAP1 SWAP3 MSTORE PUSH1 0x60 SWAP2 PUSH0 SWAP2 SWAP1 PUSH1 0x20 DUP1 DUP4 ADD SWAP1 DUP1 CALLDATASIZE DUP4 CALLDATACOPY ADD SWAP1 POP POP SWAP1 POP DUP3 DUP2 PUSH0 DUP2 MLOAD DUP2 LT PUSH2 0x208A JUMPI PUSH2 0x208A PUSH2 0x2832 JUMP JUMPDEST PUSH1 0x20 SWAP1 DUP2 MUL SWAP2 SWAP1 SWAP2 ADD ADD MSTORE SWAP3 SWAP2 POP POP JUMP JUMPDEST PUSH1 0x1 PUSH1 0x1 PUSH1 0xA0 SHL SUB DUP5 AND EXTCODESIZE ISZERO PUSH2 0x18A4 JUMPI PUSH1 0x40 MLOAD PUSH4 0xF23A6E61 PUSH1 0xE0 SHL DUP2 MSTORE PUSH1 0x1 PUSH1 0x1 PUSH1 0xA0 SHL SUB DUP6 AND SWAP1 PUSH4 0xF23A6E61 SWAP1 PUSH2 0x20DF SWAP1 DUP10 SWAP1 DUP10 SWAP1 DUP9 SWAP1 DUP9 SWAP1 DUP9 SWAP1 PUSH1 0x4 ADD PUSH2 0x2BC5 JUMP JUMPDEST PUSH1 0x20 PUSH1 0x40 MLOAD DUP1 DUP4 SUB DUP2 PUSH0 DUP8 GAS CALL SWAP3 POP POP POP DUP1 ISZERO PUSH2 0x2119 JUMPI POP PUSH1 0x40 DUP1 MLOAD PUSH1 0x1F RETURNDATASIZE SWAP1 DUP2 ADD PUSH1 0x1F NOT AND DUP3 ADD SWAP1 SWAP3 MSTORE PUSH2 0x2116 SWAP2 DUP2 ADD SWAP1 PUSH2 0x2AC2 JUMP JUMPDEST PUSH1 0x1 JUMPDEST PUSH2 0x2125 JUMPI PUSH2 0x1ED3 PUSH2 0x2ADD JUMP JUMPDEST PUSH1 0x1 PUSH1 0x1 PUSH1 0xE0 SHL SUB NOT DUP2 AND PUSH4 0xF23A6E61 PUSH1 0xE0 SHL EQ PUSH2 0x1AEA JUMPI PUSH1 0x40 MLOAD PUSH3 0x461BCD PUSH1 0xE5 SHL DUP2 MSTORE PUSH1 0x4 ADD PUSH2 0x50D SWAP1 PUSH2 0x2B7D JUMP JUMPDEST PUSH1 0x1 PUSH1 0x1 PUSH1 0xA0 SHL SUB DUP2 AND DUP2 EQ PUSH2 0x1570 JUMPI PUSH0 DUP1 REVERT JUMPDEST PUSH0 DUP1 PUSH1 0x40 DUP4 DUP6 SUB SLT ISZERO PUSH2 0x217A JUMPI PUSH0 DUP1 REVERT JUMPDEST DUP3 CALLDATALOAD PUSH2 0x2185 DUP2 PUSH2 0x2155 JUMP JUMPDEST SWAP5 PUSH1 0x20 SWAP4 SWAP1 SWAP4 ADD CALLDATALOAD SWAP4 POP POP POP JUMP JUMPDEST PUSH1 0x1 PUSH1 0x1 PUSH1 0xE0 SHL SUB NOT DUP2 AND DUP2 EQ PUSH2 0x1570 JUMPI PUSH0 DUP1 REVERT JUMPDEST PUSH0 PUSH1 0x20 DUP3 DUP5 SUB SLT ISZERO PUSH2 0x21B8 JUMPI PUSH0 DUP1 REVERT JUMPDEST DUP2 CALLDATALOAD PUSH2 0xE49 DUP2 PUSH2 0x2193 JUMP JUMPDEST PUSH0 PUSH1 0x20 DUP3 DUP5 SUB SLT ISZERO PUSH2 0x21D3 JUMPI PUSH0 DUP1 REVERT JUMPDEST POP CALLDATALOAD SWAP2 SWAP1 POP JUMP JUMPDEST PUSH0 DUP2 MLOAD DUP1 DUP5 MSTORE PUSH0 JUMPDEST DUP2 DUP2 LT ISZERO PUSH2 0x21FE JUMPI PUSH1 0x20 DUP2 DUP6 ADD DUP2 ADD MLOAD DUP7 DUP4 ADD DUP3 ADD MSTORE ADD PUSH2 0x21E2 JUMP JUMPDEST POP PUSH0 PUSH1 0x20 DUP3 DUP7 ADD ADD MSTORE PUSH1 0x20 PUSH1 0x1F NOT PUSH1 0x1F DUP4 ADD AND DUP6 ADD ADD SWAP2 POP POP SWAP3 SWAP2 POP POP JUMP JUMPDEST PUSH1 0x20 DUP2 MSTORE PUSH0 PUSH2 0xE49 PUSH1 0x20 DUP4 ADD DUP5 PUSH2 0x21DA JUMP JUMPDEST DUP1 ISZERO ISZERO DUP2 EQ PUSH2 0x1570 JUMPI PUSH0 DUP1 REVERT JUMPDEST PUSH0 DUP1 PUSH0 PUSH1 0x60 DUP5 DUP7 SUB SLT ISZERO PUSH2 0x224E JUMPI PUSH0 DUP1 REVERT JUMPDEST DUP4 CALLDATALOAD PUSH2 0x2259 DUP2 PUSH2 0x2155 JUMP JUMPDEST SWAP3 POP PUSH1 0x20 DUP5 ADD CALLDATALOAD SWAP2 POP PUSH1 0x40 DUP5 ADD CALLDATALOAD PUSH2 0x2270 DUP2 PUSH2 0x222F JUMP JUMPDEST DUP1 SWAP2 POP POP SWAP3 POP SWAP3 POP SWAP3 JUMP JUMPDEST PUSH1 0x1 PUSH1 0x1 PUSH1 0xA0 SHL SUB SWAP2 SWAP1 SWAP2 AND DUP2 MSTORE PUSH1 0x20 ADD SWAP1 JUMP JUMPDEST PUSH4 0x4E487B71 PUSH1 0xE0 SHL PUSH0 MSTORE PUSH1 0x41 PUSH1 0x4 MSTORE PUSH1 0x24 PUSH0 REVERT JUMPDEST PUSH1 0x1F DUP3 ADD PUSH1 0x1F NOT AND DUP2 ADD PUSH1 0x1 PUSH1 0x1 PUSH1 0x40 SHL SUB DUP2 GT DUP3 DUP3 LT OR ISZERO PUSH2 0x22C8 JUMPI PUSH2 0x22C8 PUSH2 0x228F JUMP JUMPDEST PUSH1 0x40 MSTORE POP POP JUMP JUMPDEST PUSH0 PUSH1 0x1 PUSH1 0x1 PUSH1 0x40 SHL SUB DUP3 GT ISZERO PUSH2 0x22E7 JUMPI PUSH2 0x22E7 PUSH2 0x228F JUMP JUMPDEST POP PUSH1 0x5 SHL PUSH1 0x20 ADD SWAP1 JUMP JUMPDEST PUSH0 DUP3 PUSH1 0x1F DUP4 ADD SLT PUSH2 0x2300 JUMPI PUSH0 DUP1 REVERT JUMPDEST DUP2 CALLDATALOAD PUSH1 0x20 PUSH2 0x230D DUP3 PUSH2 0x22CF JUMP JUMPDEST PUSH1 0x40 MLOAD PUSH2 0x231A DUP3 DUP3 PUSH2 0x22A3 JUMP JUMPDEST DUP4 DUP2 MSTORE PUSH1 0x5 SWAP4 SWAP1 SWAP4 SHL DUP6 ADD DUP3 ADD SWAP3 DUP3 DUP2 ADD SWAP2 POP DUP7 DUP5 GT ISZERO PUSH2 0x2339 JUMPI PUSH0 DUP1 REVERT JUMPDEST DUP3 DUP7 ADD JUMPDEST DUP5 DUP2 LT ISZERO PUSH2 0x2354 JUMPI DUP1 CALLDATALOAD DUP4 MSTORE SWAP2 DUP4 ADD SWAP2 DUP4 ADD PUSH2 0x233D JUMP JUMPDEST POP SWAP7 SWAP6 POP POP POP POP POP POP JUMP JUMPDEST PUSH0 DUP3 PUSH1 0x1F DUP4 ADD SLT PUSH2 0x236E JUMPI PUSH0 DUP1 REVERT JUMPDEST DUP2 CALLDATALOAD PUSH1 0x1 PUSH1 0x1 PUSH1 0x40 SHL SUB DUP2 GT ISZERO PUSH2 0x2387 JUMPI PUSH2 0x2387 PUSH2 0x228F JUMP JUMPDEST PUSH1 0x40 MLOAD PUSH2 0x239E PUSH1 0x1F DUP4 ADD PUSH1 0x1F NOT AND PUSH1 0x20 ADD DUP3 PUSH2 0x22A3 JUMP JUMPDEST DUP2 DUP2 MSTORE DUP5 PUSH1 0x20 DUP4 DUP7 ADD ADD GT ISZERO PUSH2 0x23B2 JUMPI PUSH0 DUP1 REVERT JUMPDEST DUP2 PUSH1 0x20 DUP6 ADD PUSH1 0x20 DUP4 ADD CALLDATACOPY PUSH0 SWAP2 DUP2 ADD PUSH1 0x20 ADD SWAP2 SWAP1 SWAP2 MSTORE SWAP4 SWAP3 POP POP POP JUMP JUMPDEST PUSH0 DUP1 PUSH0 DUP1 PUSH0 PUSH1 0xA0 DUP7 DUP9 SUB SLT ISZERO PUSH2 0x23E2 JUMPI PUSH0 DUP1 REVERT JUMPDEST DUP6 CALLDATALOAD PUSH2 0x23ED DUP2 PUSH2 0x2155 JUMP JUMPDEST SWAP5 POP PUSH1 0x20 DUP7 ADD CALLDATALOAD PUSH2 0x23FD DUP2 PUSH2 0x2155 JUMP JUMPDEST SWAP4 POP PUSH1 0x40 DUP7 ADD CALLDATALOAD PUSH1 0x1 PUSH1 0x1 PUSH1 0x40 SHL SUB DUP1 DUP3 GT ISZERO PUSH2 0x2418 JUMPI PUSH0 DUP1 REVERT JUMPDEST PUSH2 0x2424 DUP10 DUP4 DUP11 ADD PUSH2 0x22F1 JUMP JUMPDEST SWAP5 POP PUSH1 0x60 DUP9 ADD CALLDATALOAD SWAP2 POP DUP1 DUP3 GT ISZERO PUSH2 0x2439 JUMPI PUSH0 DUP1 REVERT JUMPDEST PUSH2 0x2445 DUP10 DUP4 DUP11 ADD PUSH2 0x22F1 JUMP JUMPDEST SWAP4 POP PUSH1 0x80 DUP9 ADD CALLDATALOAD SWAP2 POP DUP1 DUP3 GT ISZERO PUSH2 0x245A JUMPI PUSH0 DUP1 REVERT JUMPDEST POP PUSH2 0x2467 DUP9 DUP3 DUP10 ADD PUSH2 0x235F JUMP JUMPDEST SWAP2 POP POP SWAP3 SWAP6 POP SWAP3 SWAP6 SWAP1 SWAP4 POP JUMP JUMPDEST PUSH0 PUSH1 0x20 DUP3 DUP5 SUB SLT ISZERO PUSH2 0x2484 JUMPI PUSH0 DUP1 REVERT JUMPDEST DUP2 CALLDATALOAD PUSH2 0xE49 DUP2 PUSH2 0x2155 JUMP JUMPDEST PUSH0 DUP1 PUSH1 0x40 DUP4 DUP6 SUB SLT ISZERO PUSH2 0x24A0 JUMPI PUSH0 DUP1 REVERT JUMPDEST DUP3 CALLDATALOAD PUSH1 0x1 PUSH1 0x1 PUSH1 0x40 SHL SUB DUP1 DUP3 GT ISZERO PUSH2 0x24B6 JUMPI PUSH0 DUP1 REVERT JUMPDEST DUP2 DUP6 ADD SWAP2 POP DUP6 PUSH1 0x1F DUP4 ADD SLT PUSH2 0x24C9 JUMPI PUSH0 DUP1 REVERT JUMPDEST DUP2 CALLDATALOAD PUSH1 0x20 PUSH2 0x24D6 DUP3 PUSH2 0x22CF JUMP JUMPDEST PUSH1 0x40 MLOAD PUSH2 0x24E3 DUP3 DUP3 PUSH2 0x22A3 JUMP JUMPDEST DUP4 DUP2 MSTORE PUSH1 0x5 SWAP4 SWAP1 SWAP4 SHL DUP6 ADD DUP3 ADD SWAP3 DUP3 DUP2 ADD SWAP2 POP DUP10 DUP5 GT ISZERO PUSH2 0x2502 JUMPI PUSH0 DUP1 REVERT JUMPDEST SWAP5 DUP3 ADD SWAP5 JUMPDEST DUP4 DUP7 LT ISZERO PUSH2 0x2529 JUMPI DUP6 CALLDATALOAD PUSH2 0x251A DUP2 PUSH2 0x2155 JUMP JUMPDEST DUP3 MSTORE SWAP5 DUP3 ADD SWAP5 SWAP1 DUP3 ADD SWAP1 PUSH2 0x2507 JUMP JUMPDEST SWAP7 POP POP DUP7 ADD CALLDATALOAD SWAP3 POP POP DUP1 DUP3 GT ISZERO PUSH2 0x253E JUMPI PUSH0 DUP1 REVERT JUMPDEST POP PUSH2 0x254B DUP6 DUP3 DUP7 ADD PUSH2 0x22F1 JUMP JUMPDEST SWAP2 POP POP SWAP3 POP SWAP3 SWAP1 POP JUMP JUMPDEST PUSH0 DUP2 MLOAD DUP1 DUP5 MSTORE PUSH1 0x20 DUP1 DUP6 ADD SWAP5 POP DUP1 DUP5 ADD PUSH0 JUMPDEST DUP4 DUP2 LT ISZERO PUSH2 0x2583 JUMPI DUP2 MLOAD DUP8 MSTORE SWAP6 DUP3 ADD SWAP6 SWAP1 DUP3 ADD SWAP1 PUSH1 0x1 ADD PUSH2 0x2567 JUMP JUMPDEST POP SWAP5 SWAP6 SWAP5 POP POP POP POP POP JUMP JUMPDEST PUSH1 0x20 DUP2 MSTORE PUSH0 PUSH2 0xE49 PUSH1 0x20 DUP4 ADD DUP5 PUSH2 0x2555 JUMP JUMPDEST PUSH1 0x20 DUP1 DUP3 MSTORE DUP3 MLOAD DUP3 DUP3 ADD DUP2 SWAP1 MSTORE PUSH0 SWAP2 SWAP1 DUP5 DUP3 ADD SWAP1 PUSH1 0x40 DUP6 ADD SWAP1 DUP5 JUMPDEST DUP2 DUP2 LT ISZERO PUSH2 0x25E0 JUMPI DUP4 MLOAD PUSH1 0x1 PUSH1 0x1 PUSH1 0xA0 SHL SUB AND DUP4 MSTORE SWAP3 DUP5 ADD SWAP3 SWAP2 DUP5 ADD SWAP2 PUSH1 0x1 ADD PUSH2 0x25BB JUMP JUMPDEST POP SWAP1 SWAP7 SWAP6 POP POP POP POP POP POP JUMP JUMPDEST PUSH0 DUP1 PUSH1 0x40 DUP4 DUP6 SUB SLT ISZERO PUSH2 0x25FD JUMPI PUSH0 DUP1 REVERT JUMPDEST POP POP DUP1 CALLDATALOAD SWAP3 PUSH1 0x20 SWAP1 SWAP2 ADD CALLDATALOAD SWAP2 POP JUMP JUMPDEST PUSH0 DUP1 PUSH0 PUSH1 0x60 DUP5 DUP7 SUB SLT ISZERO PUSH2 0x261E JUMPI PUSH0 DUP1 REVERT JUMPDEST DUP4 CALLDATALOAD PUSH2 0x2629 DUP2 PUSH2 0x2155 JUMP JUMPDEST SWAP3 POP PUSH1 0x20 DUP5 ADD CALLDATALOAD PUSH2 0x2639 DUP2 PUSH2 0x2155 JUMP JUMPDEST SWAP3 SWAP6 SWAP3 SWAP5 POP POP POP PUSH1 0x40 SWAP2 SWAP1 SWAP2 ADD CALLDATALOAD SWAP1 JUMP JUMPDEST PUSH0 DUP1 PUSH1 0x40 DUP4 DUP6 SUB SLT ISZERO PUSH2 0x265B JUMPI PUSH0 DUP1 REVERT JUMPDEST DUP3 CALLDATALOAD PUSH2 0x2666 DUP2 PUSH2 0x2155 JUMP JUMPDEST SWAP2 POP PUSH1 0x20 DUP4 ADD CALLDATALOAD PUSH2 0x2676 DUP2 PUSH2 0x222F JUMP JUMPDEST DUP1 SWAP2 POP POP SWAP3 POP SWAP3 SWAP1 POP JUMP JUMPDEST PUSH0 DUP1 PUSH1 0x40 DUP4 DUP6 SUB SLT ISZERO PUSH2 0x2692 JUMPI PUSH0 DUP1 REVERT JUMPDEST DUP3 CALLDATALOAD PUSH2 0x269D DUP2 PUSH2 0x2155 JUMP JUMPDEST SWAP2 POP PUSH1 0x20 DUP4 ADD CALLDATALOAD PUSH2 0x2676 DUP2 PUSH2 0x2155 JUMP JUMPDEST PUSH0 DUP1 PUSH0 DUP1 PUSH0 PUSH1 0xA0 DUP7 DUP9 SUB SLT ISZERO PUSH2 0x26C1 JUMPI PUSH0 DUP1 REVERT JUMPDEST DUP6 CALLDATALOAD PUSH2 0x26CC DUP2 PUSH2 0x2155 JUMP JUMPDEST SWAP5 POP PUSH1 0x20 DUP7 ADD CALLDATALOAD PUSH2 0x26DC DUP2 PUSH2 0x2155 JUMP JUMPDEST SWAP4 POP PUSH1 0x40 DUP7 ADD CALLDATALOAD SWAP3 POP PUSH1 0x60 DUP7 ADD CALLDATALOAD SWAP2 POP PUSH1 0x80 DUP7 ADD CALLDATALOAD PUSH1 0x1 PUSH1 0x1 PUSH1 0x40 SHL SUB DUP2 GT ISZERO PUSH2 0x2704 JUMPI PUSH0 DUP1 REVERT JUMPDEST PUSH2 0x2467 DUP9 DUP3 DUP10 ADD PUSH2 0x235F JUMP JUMPDEST PUSH1 0x1 DUP2 DUP2 SHR SWAP1 DUP3 AND DUP1 PUSH2 0x2724 JUMPI PUSH1 0x7F DUP3 AND SWAP2 POP JUMPDEST PUSH1 0x20 DUP3 LT DUP2 SUB PUSH2 0x2742 JUMPI PUSH4 0x4E487B71 PUSH1 0xE0 SHL PUSH0 MSTORE PUSH1 0x22 PUSH1 0x4 MSTORE PUSH1 0x24 PUSH0 REVERT JUMPDEST POP SWAP2 SWAP1 POP JUMP JUMPDEST PUSH1 0x20 DUP1 DUP3 MSTORE PUSH1 0x8 SWAP1 DUP3 ADD MSTORE PUSH8 0x2A37B79039B7B7B7 PUSH1 0xC1 SHL PUSH1 0x40 DUP3 ADD MSTORE PUSH1 0x60 ADD SWAP1 JUMP JUMPDEST PUSH1 0x20 DUP1 DUP3 MSTORE PUSH1 0x25 SWAP1 DUP3 ADD MSTORE PUSH32 0x4F6E6C7920636F6E74726F6C6C65722063616E2072756E20746869732066756E PUSH1 0x40 DUP3 ADD MSTORE PUSH5 0x31BA34B7B7 PUSH1 0xD9 SHL PUSH1 0x60 DUP3 ADD MSTORE PUSH1 0x80 ADD SWAP1 JUMP JUMPDEST PUSH4 0x4E487B71 PUSH1 0xE0 SHL PUSH0 MSTORE PUSH1 0x1 PUSH1 0x4 MSTORE PUSH1 0x24 PUSH0 REVERT JUMPDEST PUSH0 PUSH1 0x20 DUP3 DUP5 SUB SLT ISZERO PUSH2 0x27D3 JUMPI PUSH0 DUP1 REVERT JUMPDEST POP MLOAD SWAP2 SWAP1 POP JUMP JUMPDEST PUSH1 0x1 PUSH1 0x1 PUSH1 0xA0 SHL SUB SWAP3 SWAP1 SWAP3 AND DUP3 MSTORE PUSH1 0x20 DUP3 ADD MSTORE PUSH1 0x40 ADD SWAP1 JUMP JUMPDEST PUSH0 PUSH1 0x20 DUP3 DUP5 SUB SLT ISZERO PUSH2 0x2803 JUMPI PUSH0 DUP1 REVERT JUMPDEST DUP2 MLOAD PUSH2 0xE49 DUP2 PUSH2 0x222F JUMP JUMPDEST PUSH1 0x1 PUSH1 0x1 PUSH1 0xA0 SHL SUB SWAP4 DUP5 AND DUP2 MSTORE SWAP2 SWAP1 SWAP3 AND PUSH1 0x20 DUP3 ADD MSTORE PUSH1 0x40 DUP2 ADD SWAP2 SWAP1 SWAP2 MSTORE PUSH1 0x60 ADD SWAP1 JUMP JUMPDEST PUSH4 0x4E487B71 PUSH1 0xE0 SHL PUSH0 MSTORE PUSH1 0x32 PUSH1 0x4 MSTORE PUSH1 0x24 PUSH0 REVERT JUMPDEST PUSH4 0x4E487B71 PUSH1 0xE0 SHL PUSH0 MSTORE PUSH1 0x11 PUSH1 0x4 MSTORE PUSH1 0x24 PUSH0 REVERT JUMPDEST PUSH0 PUSH1 0x1 DUP3 ADD PUSH2 0x286B JUMPI PUSH2 0x286B PUSH2 0x2846 JUMP JUMPDEST POP PUSH1 0x1 ADD SWAP1 JUMP JUMPDEST PUSH1 0x20 DUP1 DUP3 MSTORE PUSH1 0x2E SWAP1 DUP3 ADD MSTORE PUSH32 0x455243313135353A2063616C6C6572206973206E6F7420746F6B656E206F776E PUSH1 0x40 DUP3 ADD MSTORE PUSH14 0x195C881BDC88185C1C1C9BDD9959 PUSH1 0x92 SHL PUSH1 0x60 DUP3 ADD MSTORE PUSH1 0x80 ADD SWAP1 JUMP JUMPDEST PUSH1 0x20 DUP1 DUP3 MSTORE PUSH1 0x23 SWAP1 DUP3 ADD MSTORE PUSH32 0x4F6E6C79206F766572736565722063616E2072756E20746869732066756E6374 PUSH1 0x40 DUP3 ADD MSTORE PUSH3 0x34B7B7 PUSH1 0xE9 SHL PUSH1 0x60 DUP3 ADD MSTORE PUSH1 0x80 ADD SWAP1 JUMP JUMPDEST DUP2 DUP2 SUB DUP2 DUP2 GT ISZERO PUSH2 0x538 JUMPI PUSH2 0x538 PUSH2 0x2846 JUMP JUMPDEST PUSH1 0x20 DUP1 DUP3 MSTORE PUSH1 0x2A SWAP1 DUP3 ADD MSTORE PUSH32 0x4F6E6C79206163746976652070726F6A6563742063616E2072756E2074686973 PUSH1 0x40 DUP3 ADD MSTORE PUSH10 0x10333AB731BA34B7B717 PUSH1 0xB1 SHL PUSH1 0x60 DUP3 ADD MSTORE PUSH1 0x80 ADD SWAP1 JUMP JUMPDEST DUP1 DUP3 ADD DUP1 DUP3 GT ISZERO PUSH2 0x538 JUMPI PUSH2 0x538 PUSH2 0x2846 JUMP JUMPDEST DUP1 DUP3 MUL DUP2 ISZERO DUP3 DUP3 DIV DUP5 EQ OR PUSH2 0x538 JUMPI PUSH2 0x538 PUSH2 0x2846 JUMP JUMPDEST PUSH0 DUP3 PUSH2 0x29A4 JUMPI PUSH4 0x4E487B71 PUSH1 0xE0 SHL PUSH0 MSTORE PUSH1 0x12 PUSH1 0x4 MSTORE PUSH1 0x24 PUSH0 REVERT JUMPDEST POP DIV SWAP1 JUMP JUMPDEST PUSH1 0x20 DUP1 DUP3 MSTORE PUSH1 0x25 SWAP1 DUP3 ADD MSTORE PUSH32 0x455243313135353A207472616E7366657220746F20746865207A65726F206164 PUSH1 0x40 DUP3 ADD MSTORE PUSH5 0x6472657373 PUSH1 0xD8 SHL PUSH1 0x60 DUP3 ADD MSTORE PUSH1 0x80 ADD SWAP1 JUMP JUMPDEST PUSH1 0x20 DUP1 DUP3 MSTORE PUSH1 0x2A SWAP1 DUP3 ADD MSTORE PUSH32 0x455243313135353A20696E73756666696369656E742062616C616E636520666F PUSH1 0x40 DUP3 ADD MSTORE PUSH10 0x39103A3930B739B332B9 PUSH1 0xB1 SHL PUSH1 0x60 DUP3 ADD MSTORE PUSH1 0x80 ADD SWAP1 JUMP JUMPDEST PUSH1 0x40 DUP2 MSTORE PUSH0 PUSH2 0x2A4A PUSH1 0x40 DUP4 ADD DUP6 PUSH2 0x2555 JUMP JUMPDEST DUP3 DUP2 SUB PUSH1 0x20 DUP5 ADD MSTORE PUSH2 0x2A5C DUP2 DUP6 PUSH2 0x2555 JUMP JUMPDEST SWAP6 SWAP5 POP POP POP POP POP JUMP JUMPDEST PUSH1 0x1 PUSH1 0x1 PUSH1 0xA0 SHL SUB DUP7 DUP2 AND DUP3 MSTORE DUP6 AND PUSH1 0x20 DUP3 ADD MSTORE PUSH1 0xA0 PUSH1 0x40 DUP3 ADD DUP2 SWAP1 MSTORE PUSH0 SWAP1 PUSH2 0x2A90 SWAP1 DUP4 ADD DUP7 PUSH2 0x2555 JUMP JUMPDEST DUP3 DUP2 SUB PUSH1 0x60 DUP5 ADD MSTORE PUSH2 0x2AA2 DUP2 DUP7 PUSH2 0x2555 JUMP JUMPDEST SWAP1 POP DUP3 DUP2 SUB PUSH1 0x80 DUP5 ADD MSTORE PUSH2 0x2AB6 DUP2 DUP6 PUSH2 0x21DA JUMP JUMPDEST SWAP9 SWAP8 POP POP POP POP POP POP POP POP JUMP JUMPDEST PUSH0 PUSH1 0x20 DUP3 DUP5 SUB SLT ISZERO PUSH2 0x2AD2 JUMPI PUSH0 DUP1 REVERT JUMPDEST DUP2 MLOAD PUSH2 0xE49 DUP2 PUSH2 0x2193 JUMP JUMPDEST PUSH0 PUSH1 0x3 RETURNDATASIZE GT ISZERO PUSH2 0xB02 JUMPI PUSH1 0x4 PUSH0 DUP1 RETURNDATACOPY POP PUSH0 MLOAD PUSH1 0xE0 SHR SWAP1 JUMP JUMPDEST PUSH0 PUSH1 0x44 RETURNDATASIZE LT ISZERO PUSH2 0x2B02 JUMPI SWAP1 JUMP JUMPDEST PUSH1 0x40 MLOAD PUSH1 0x3 NOT RETURNDATASIZE DUP2 ADD PUSH1 0x4 DUP4 RETURNDATACOPY DUP2 MLOAD RETURNDATASIZE PUSH1 0x1 PUSH1 0x1 PUSH1 0x40 SHL SUB DUP2 PUSH1 0x24 DUP5 ADD GT DUP2 DUP5 GT OR ISZERO PUSH2 0x2B31 JUMPI POP POP POP POP POP SWAP1 JUMP JUMPDEST DUP3 DUP6 ADD SWAP2 POP DUP2 MLOAD DUP2 DUP2 GT ISZERO PUSH2 0x2B49 JUMPI POP POP POP POP POP POP SWAP1 JUMP JUMPDEST DUP5 RETURNDATASIZE DUP8 ADD ADD PUSH1 0x20 DUP3 DUP6 ADD ADD GT ISZERO PUSH2 0x2B63 JUMPI POP POP POP POP POP POP SWAP1 JUMP JUMPDEST PUSH2 0x2B72 PUSH1 0x20 DUP3 DUP7 ADD ADD DUP8 PUSH2 0x22A3 JUMP JUMPDEST POP SWAP1 SWAP6 SWAP5 POP POP POP POP POP JUMP JUMPDEST PUSH1 0x20 DUP1 DUP3 MSTORE PUSH1 0x28 SWAP1 DUP3 ADD MSTORE PUSH32 0x455243313135353A204552433131353552656365697665722072656A65637465 PUSH1 0x40 DUP3 ADD MSTORE PUSH8 0x6420746F6B656E73 PUSH1 0xC0 SHL PUSH1 0x60 DUP3 ADD MSTORE PUSH1 0x80 ADD SWAP1 JUMP JUMPDEST PUSH1 0x1 PUSH1 0x1 PUSH1 0xA0 SHL SUB DUP7 DUP2 AND DUP3 MSTORE DUP6 AND PUSH1 0x20 DUP3 ADD MSTORE PUSH1 0x40 DUP2 ADD DUP5 SWAP1 MSTORE PUSH1 0x60 DUP2 ADD DUP4 SWAP1 MSTORE PUSH1 0xA0 PUSH1 0x80 DUP3 ADD DUP2 SWAP1 MSTORE PUSH0 SWAP1 PUSH2 0x2BFE SWAP1 DUP4 ADD DUP5 PUSH2 0x21DA JUMP JUMPDEST SWAP8 SWAP7 POP POP POP POP POP POP POP JUMP INVALID 0xC3 0xD5 DUP2 PUSH9 0xC5AE7397731D063D5B 0xBF RETURNDATASIZE PUSH6 0x7854427343F4 0xC0 DUP4 0x24 0xF PUSH27 0xACAA2D0F62A264697066735822122087A50ECA243AD500668A5704 CALLDATALOAD 0xE9 0xEC 0xD2 0xCD 0x26 0xE7 CALLDATALOAD 0xC7 SHR SWAP9 PUSH22 0x7C5B25FBDC91D9B364736F6C63430008140033608060 BLOCKHASH MSTORE PUSH3 0x93A80 PUSH1 0xD SSTORE PUSH1 0x2 PUSH1 0xD SLOAD PUSH3 0x1C SWAP2 SWAP1 PUSH3 0x73 JUMP JUMPDEST PUSH1 0xE SSTORE CALLVALUE DUP1 ISZERO PUSH3 0x2B JUMPI PUSH0 DUP1 REVERT JUMPDEST POP PUSH1 0x40 MLOAD PUSH3 0x2028 CODESIZE SUB DUP1 PUSH3 0x2028 DUP4 CODECOPY DUP2 ADD PUSH1 0x40 DUP2 SWAP1 MSTORE PUSH3 0x4E SWAP2 PUSH3 0x93 JUMP JUMPDEST PUSH0 DUP1 SLOAD PUSH1 0x1 PUSH1 0x1 PUSH1 0xA0 SHL SUB NOT AND PUSH1 0x1 PUSH1 0x1 PUSH1 0xA0 SHL SUB SWAP3 SWAP1 SWAP3 AND SWAP2 SWAP1 SWAP2 OR SWAP1 SSTORE PUSH3 0xC2 JUMP JUMPDEST PUSH0 DUP3 PUSH3 0x8E JUMPI PUSH4 0x4E487B71 PUSH1 0xE0 SHL PUSH0 MSTORE PUSH1 0x12 PUSH1 0x4 MSTORE PUSH1 0x24 PUSH0 REVERT JUMPDEST POP DIV SWAP1 JUMP JUMPDEST PUSH0 PUSH1 0x20 DUP3 DUP5 SUB SLT ISZERO PUSH3 0xA4 JUMPI PUSH0 DUP1 REVERT JUMPDEST DUP2 MLOAD PUSH1 0x1 PUSH1 0x1 PUSH1 0xA0 SHL SUB DUP2 AND DUP2 EQ PUSH3 0xBB JUMPI PUSH0 DUP1 REVERT JUMPDEST SWAP4 SWAP3 POP POP POP JUMP JUMPDEST PUSH2 0x1F58 DUP1 PUSH3 0xD0 PUSH0 CODECOPY PUSH0 RETURN INVALID PUSH1 0x80 PUSH1 0x40 MSTORE CALLVALUE DUP1 ISZERO PUSH2 0xF JUMPI PUSH0 DUP1 REVERT JUMPDEST POP PUSH1 0x4 CALLDATASIZE LT PUSH2 0x11F JUMPI PUSH0 CALLDATALOAD PUSH1 0xE0 SHR DUP1 PUSH4 0xBC197C81 GT PUSH2 0xA5 JUMPI DUP1 PUSH4 0xBC197C81 EQ PUSH2 0x24A JUMPI DUP1 PUSH4 0xC9D27AFE EQ PUSH2 0x282 JUMPI DUP1 PUSH4 0xCB05683A EQ PUSH2 0x295 JUMPI DUP1 PUSH4 0xD04E62D1 EQ PUSH2 0x2BD JUMPI DUP1 PUSH4 0xD186C217 EQ PUSH2 0x2D0 JUMPI DUP1 PUSH4 0xD978FFBA EQ PUSH2 0x2E3 JUMPI DUP1 PUSH4 0xE2FF2D43 EQ PUSH2 0x305 JUMPI DUP1 PUSH4 0xF23A6E61 EQ PUSH2 0x318 JUMPI DUP1 PUSH4 0xF4970E71 EQ PUSH2 0x337 JUMPI DUP1 PUSH4 0xF8AA3CEA EQ PUSH2 0x34A JUMPI DUP1 PUSH4 0xFE0D94C1 EQ PUSH2 0x389 JUMPI PUSH0 DUP1 REVERT JUMPDEST DUP1 PUSH4 0x1FFC9A7 EQ PUSH2 0x123 JUMPI DUP1 PUSH4 0x98EB8C6 EQ PUSH2 0x14B JUMPI DUP1 PUSH4 0xB27FB9A EQ PUSH2 0x180 JUMPI DUP1 PUSH4 0x169B5F75 EQ PUSH2 0x192 JUMPI DUP1 PUSH4 0x1BD85E30 EQ PUSH2 0x19D JUMPI DUP1 PUSH4 0x35F23E27 EQ PUSH2 0x1BF JUMPI DUP1 PUSH4 0x41AD7E1D EQ PUSH2 0x1D2 JUMPI DUP1 PUSH4 0x5D250F96 EQ PUSH2 0x1F2 JUMPI DUP1 PUSH4 0x765ADD80 EQ PUSH2 0x205 JUMPI DUP1 PUSH4 0x8F363200 EQ PUSH2 0x218 JUMPI DUP1 PUSH4 0x9B5B9B18 EQ PUSH2 0x237 JUMPI JUMPDEST PUSH0 DUP1 REVERT JUMPDEST PUSH2 0x136 PUSH2 0x131 CALLDATASIZE PUSH1 0x4 PUSH2 0x192F JUMP JUMPDEST PUSH2 0x39C JUMP JUMPDEST PUSH1 0x40 MLOAD SWAP1 ISZERO ISZERO DUP2 MSTORE PUSH1 0x20 ADD JUMPDEST PUSH1 0x40 MLOAD DUP1 SWAP2 SUB SWAP1 RETURN JUMPDEST PUSH2 0x173 PUSH2 0x159 CALLDATASIZE PUSH1 0x4 PUSH2 0x1956 JUMP JUMPDEST PUSH0 SWAP1 DUP2 MSTORE PUSH1 0x5 PUSH1 0x20 MSTORE PUSH1 0x40 SWAP1 KECCAK256 SLOAD PUSH1 0x1 PUSH1 0x1 PUSH1 0xA0 SHL SUB AND SWAP1 JUMP JUMPDEST PUSH1 0x40 MLOAD PUSH2 0x142 SWAP2 SWAP1 PUSH2 0x196D JUMP JUMPDEST PUSH1 0x1 SLOAD JUMPDEST PUSH1 0x40 MLOAD SWAP1 DUP2 MSTORE PUSH1 0x20 ADD PUSH2 0x142 JUMP JUMPDEST PUSH1 0x13 SLOAD PUSH1 0xFF AND PUSH2 0x136 JUMP JUMPDEST PUSH2 0x136 PUSH2 0x1AB CALLDATASIZE PUSH1 0x4 PUSH2 0x1956 JUMP JUMPDEST PUSH0 SWAP1 DUP2 MSTORE PUSH1 0x7 PUSH1 0x20 MSTORE PUSH1 0x40 SWAP1 KECCAK256 SLOAD PUSH1 0xFF AND SWAP1 JUMP JUMPDEST PUSH2 0x136 PUSH2 0x1CD CALLDATASIZE PUSH1 0x4 PUSH2 0x19A8 JUMP JUMPDEST PUSH2 0x3D2 JUMP JUMPDEST PUSH2 0x1E5 PUSH2 0x1E0 CALLDATASIZE PUSH1 0x4 PUSH2 0x19F2 JUMP JUMPDEST PUSH2 0x700 JUMP JUMPDEST PUSH1 0x40 MLOAD PUSH2 0x142 SWAP2 SWAP1 PUSH2 0x1A1F JUMP JUMPDEST PUSH2 0x136 PUSH2 0x200 CALLDATASIZE PUSH1 0x4 PUSH2 0x1A45 JUMP JUMPDEST PUSH2 0x75E JUMP JUMPDEST PUSH2 0x136 PUSH2 0x213 CALLDATASIZE PUSH1 0x4 PUSH2 0x1A6F JUMP JUMPDEST PUSH2 0xA04 JUMP JUMPDEST PUSH2 0x184 PUSH2 0x226 CALLDATASIZE PUSH1 0x4 PUSH2 0x1956 JUMP JUMPDEST PUSH0 SWAP1 DUP2 MSTORE PUSH1 0x6 PUSH1 0x20 MSTORE PUSH1 0x40 SWAP1 KECCAK256 SLOAD SWAP1 JUMP JUMPDEST PUSH2 0x136 PUSH2 0x245 CALLDATASIZE PUSH1 0x4 PUSH2 0x1A45 JUMP JUMPDEST PUSH2 0xA43 JUMP JUMPDEST PUSH2 0x269 PUSH2 0x258 CALLDATASIZE PUSH1 0x4 PUSH2 0x1BBA JUMP JUMPDEST PUSH4 0xBC197C81 PUSH1 0xE0 SHL SWAP6 SWAP5 POP POP POP POP POP JUMP JUMPDEST PUSH1 0x40 MLOAD PUSH1 0x1 PUSH1 0x1 PUSH1 0xE0 SHL SUB NOT SWAP1 SWAP2 AND DUP2 MSTORE PUSH1 0x20 ADD PUSH2 0x142 JUMP JUMPDEST PUSH2 0x136 PUSH2 0x290 CALLDATASIZE PUSH1 0x4 PUSH2 0x1C6D JUMP JUMPDEST PUSH2 0xB95 JUMP JUMPDEST PUSH2 0x184 PUSH2 0x2A3 CALLDATASIZE PUSH1 0x4 PUSH2 0x1C9B JUMP JUMPDEST PUSH1 0x1 PUSH1 0x1 PUSH1 0xA0 SHL SUB AND PUSH0 SWAP1 DUP2 MSTORE PUSH1 0x11 PUSH1 0x20 MSTORE PUSH1 0x40 SWAP1 KECCAK256 SLOAD SWAP1 JUMP JUMPDEST PUSH2 0x136 PUSH2 0x2CB CALLDATASIZE PUSH1 0x4 PUSH2 0x1C9B JUMP JUMPDEST PUSH2 0xE6A JUMP JUMPDEST PUSH2 0x136 PUSH2 0x2DE CALLDATASIZE PUSH1 0x4 PUSH2 0x1A45 JUMP JUMPDEST PUSH2 0xF3E JUMP JUMPDEST PUSH2 0x1E5 PUSH2 0x2F1 CALLDATASIZE PUSH1 0x4 PUSH2 0x1956 JUMP JUMPDEST PUSH0 SWAP1 DUP2 MSTORE PUSH1 0x8 PUSH1 0x20 MSTORE PUSH1 0x40 SWAP1 KECCAK256 SLOAD PUSH1 0xFF AND SWAP1 JUMP JUMPDEST PUSH2 0x136 PUSH2 0x313 CALLDATASIZE PUSH1 0x4 PUSH2 0x1A45 JUMP JUMPDEST PUSH2 0x10A9 JUMP JUMPDEST PUSH2 0x269 PUSH2 0x326 CALLDATASIZE PUSH1 0x4 PUSH2 0x1CB6 JUMP JUMPDEST PUSH4 0xF23A6E61 PUSH1 0xE0 SHL SWAP6 SWAP5 POP POP POP POP POP JUMP JUMPDEST PUSH2 0x136 PUSH2 0x345 CALLDATASIZE PUSH1 0x4 PUSH2 0x1A45 JUMP JUMPDEST PUSH2 0x1110 JUMP JUMPDEST PUSH2 0x184 PUSH2 0x358 CALLDATASIZE PUSH1 0x4 PUSH2 0x1A45 JUMP JUMPDEST PUSH0 SWAP1 DUP2 MSTORE PUSH1 0x5 PUSH1 0x20 SWAP1 DUP2 MSTORE PUSH1 0x40 DUP1 DUP4 KECCAK256 SLOAD PUSH1 0x1 PUSH1 0x1 PUSH1 0xA0 SHL SUB SWAP5 DUP6 AND DUP5 MSTORE PUSH1 0x2 DUP4 MSTORE DUP2 DUP5 KECCAK256 SWAP5 AND DUP4 MSTORE SWAP3 SWAP1 MSTORE KECCAK256 SLOAD SWAP1 JUMP JUMPDEST PUSH2 0x136 PUSH2 0x397 CALLDATASIZE PUSH1 0x4 PUSH2 0x1956 JUMP JUMPDEST PUSH2 0x13BE JUMP JUMPDEST PUSH0 PUSH1 0x1 PUSH1 0x1 PUSH1 0xE0 SHL SUB NOT DUP3 AND PUSH4 0x2711897 PUSH1 0xE5 SHL EQ DUP1 PUSH2 0x3CC JUMPI POP PUSH4 0x1FFC9A7 PUSH1 0xE0 SHL PUSH1 0x1 PUSH1 0x1 PUSH1 0xE0 SHL SUB NOT DUP4 AND EQ JUMPDEST SWAP3 SWAP2 POP POP JUMP JUMPDEST PUSH0 DUP1 PUSH0 SWAP1 SLOAD SWAP1 PUSH2 0x100 EXP SWAP1 DIV PUSH1 0x1 PUSH1 0x1 PUSH1 0xA0 SHL SUB AND PUSH1 0x1 PUSH1 0x1 PUSH1 0xA0 SHL SUB AND PUSH4 0xDC3F5863 PUSH1 0x40 MLOAD DUP2 PUSH4 0xFFFFFFFF AND PUSH1 0xE0 SHL DUP2 MSTORE PUSH1 0x4 ADD PUSH1 0x20 PUSH1 0x40 MLOAD DUP1 DUP4 SUB DUP2 DUP7 GAS STATICCALL ISZERO DUP1 ISZERO PUSH2 0x422 JUMPI RETURNDATASIZE PUSH0 DUP1 RETURNDATACOPY RETURNDATASIZE PUSH0 REVERT JUMPDEST POP POP POP POP PUSH1 0x40 MLOAD RETURNDATASIZE PUSH1 0x1F NOT PUSH1 0x1F DUP3 ADD AND DUP3 ADD DUP1 PUSH1 0x40 MSTORE POP DUP2 ADD SWAP1 PUSH2 0x446 SWAP2 SWAP1 PUSH2 0x1D19 JUMP JUMPDEST ISZERO PUSH2 0x46C JUMPI PUSH1 0x40 MLOAD PUSH3 0x461BCD PUSH1 0xE5 SHL DUP2 MSTORE PUSH1 0x4 ADD PUSH2 0x463 SWAP1 PUSH2 0x1D34 JUMP JUMPDEST PUSH1 0x40 MLOAD DUP1 SWAP2 SUB SWAP1 REVERT JUMPDEST PUSH1 0x64 DUP4 PUSH1 0xFF AND GT ISZERO PUSH2 0x4BC JUMPI PUSH1 0x40 MLOAD PUSH3 0x461BCD PUSH1 0xE5 SHL DUP2 MSTORE PUSH1 0x20 PUSH1 0x4 DUP3 ADD MSTORE PUSH1 0x19 PUSH1 0x24 DUP3 ADD MSTORE PUSH25 0x28BAB7B93AB6903BB4B636103732BB32B91031329036B2BA17 PUSH1 0x39 SHL PUSH1 0x44 DUP3 ADD MSTORE PUSH1 0x64 ADD PUSH2 0x463 JUMP JUMPDEST PUSH0 PUSH2 0x4C6 DUP7 PUSH2 0x700 JUMP JUMPDEST PUSH1 0x3 DUP2 GT ISZERO PUSH2 0x4D7 JUMPI PUSH2 0x4D7 PUSH2 0x1A0B JUMP JUMPDEST EQ PUSH2 0x5A7 JUMPI PUSH1 0x19 DUP4 PUSH1 0xFF AND LT ISZERO PUSH2 0x530 JUMPI PUSH1 0x40 MLOAD PUSH3 0x461BCD PUSH1 0xE5 SHL DUP2 MSTORE PUSH1 0x20 PUSH1 0x4 DUP3 ADD MSTORE PUSH1 0x1E PUSH1 0x24 DUP3 ADD MSTORE PUSH32 0x51756F72756D2073686F756C64206265206174206C65617374203235252E0000 PUSH1 0x44 DUP3 ADD MSTORE PUSH1 0x64 ADD PUSH2 0x463 JUMP JUMPDEST PUSH1 0xE SLOAD PUSH2 0x53D SWAP1 TIMESTAMP PUSH2 0x1D8C JUMP JUMPDEST DUP3 LT ISZERO PUSH2 0x5A2 JUMPI PUSH1 0x40 MLOAD PUSH3 0x461BCD PUSH1 0xE5 SHL DUP2 MSTORE PUSH1 0x20 PUSH1 0x4 DUP3 ADD MSTORE PUSH1 0x2D PUSH1 0x24 DUP3 ADD MSTORE PUSH32 0x446561646C696E65206D75737420626520616674657220766F74696E67506572 PUSH1 0x44 DUP3 ADD MSTORE PUSH13 0x34B7B210333937B6903737BB97 PUSH1 0x99 SHL PUSH1 0x64 DUP3 ADD MSTORE PUSH1 0x84 ADD PUSH2 0x463 JUMP JUMPDEST PUSH2 0x62A JUMP JUMPDEST PUSH1 0xD SLOAD PUSH2 0x5B4 SWAP1 TIMESTAMP PUSH2 0x1D8C JUMP JUMPDEST DUP3 LT ISZERO PUSH2 0x623 JUMPI PUSH1 0x40 MLOAD PUSH3 0x461BCD PUSH1 0xE5 SHL DUP2 MSTORE PUSH1 0x20 PUSH1 0x4 DUP3 ADD MSTORE PUSH1 0x37 PUSH1 0x24 DUP3 ADD MSTORE PUSH32 0x446561646C696E65206D75737420626520616674657220776974686472617761 PUSH1 0x44 DUP3 ADD MSTORE PUSH23 0x362B37BA34B733A832B934B7B210333937B6903737BB97 PUSH1 0x49 SHL PUSH1 0x64 DUP3 ADD MSTORE PUSH1 0x84 ADD PUSH2 0x463 JUMP JUMPDEST PUSH1 0x1 SLOAD PUSH1 0x12 SSTORE JUMPDEST PUSH1 0x1 DUP1 SLOAD PUSH1 0x4 DUP1 SLOAD SWAP3 DUP4 ADD DUP2 SSTORE PUSH0 MSTORE PUSH32 0x8A35ACFBC15FF81A39AE7D344FD709F28E8600B4AA8C65C6B64BFE7FE36BD19B SWAP1 SWAP2 ADD SSTORE PUSH2 0x667 DUP6 PUSH2 0x700 JUMP JUMPDEST PUSH1 0x1 DUP1 SLOAD PUSH0 SWAP1 DUP2 MSTORE PUSH1 0x8 PUSH1 0x20 MSTORE PUSH1 0x40 SWAP1 KECCAK256 DUP1 SLOAD SWAP1 SWAP2 PUSH1 0xFF NOT SWAP1 SWAP2 AND SWAP1 DUP4 PUSH1 0x3 DUP2 GT ISZERO PUSH2 0x695 JUMPI PUSH2 0x695 PUSH2 0x1A0B JUMP JUMPDEST MUL OR SWAP1 SSTORE POP PUSH1 0x1 DUP1 SLOAD PUSH0 SWAP1 DUP2 MSTORE PUSH1 0x5 PUSH1 0x20 SWAP1 DUP2 MSTORE PUSH1 0x40 DUP1 DUP4 KECCAK256 DUP1 SLOAD PUSH1 0x1 PUSH1 0x1 PUSH1 0xA0 SHL SUB NOT AND PUSH1 0x1 PUSH1 0x1 PUSH1 0xA0 SHL SUB DUP11 AND OR SWAP1 SSTORE DUP4 SLOAD DUP4 MSTORE PUSH1 0x6 DUP3 MSTORE DUP1 DUP4 KECCAK256 DUP7 SWAP1 SSTORE DUP4 SLOAD DUP4 MSTORE PUSH1 0x9 SWAP1 SWAP2 MSTORE DUP2 KECCAK256 TIMESTAMP SWAP1 SSTORE DUP2 SLOAD SWAP2 SWAP1 PUSH2 0x6F0 DUP4 PUSH2 0x1D9F JUMP JUMPDEST SWAP1 SWAP2 SSTORE POP PUSH1 0x1 SWAP7 SWAP6 POP POP POP POP POP POP JUMP JUMPDEST PUSH0 PUSH1 0x4 DUP3 PUSH1 0xFF AND LT PUSH2 0x749 JUMPI PUSH1 0x40 MLOAD PUSH3 0x461BCD PUSH1 0xE5 SHL DUP2 MSTORE PUSH1 0x20 PUSH1 0x4 DUP3 ADD MSTORE PUSH1 0x12 PUSH1 0x24 DUP3 ADD MSTORE PUSH18 0x496E646578206F7574206F662072616E6765 PUSH1 0x70 SHL PUSH1 0x44 DUP3 ADD MSTORE PUSH1 0x64 ADD PUSH2 0x463 JUMP JUMPDEST DUP2 PUSH1 0xFF AND PUSH1 0x3 DUP2 GT ISZERO PUSH2 0x3CC JUMPI PUSH2 0x3CC PUSH2 0x1A0B JUMP JUMPDEST PUSH0 DUP1 PUSH0 SWAP1 SLOAD SWAP1 PUSH2 0x100 EXP SWAP1 DIV PUSH1 0x1 PUSH1 0x1 PUSH1 0xA0 SHL SUB AND PUSH1 0x1 PUSH1 0x1 PUSH1 0xA0 SHL SUB AND PUSH4 0xDC3F5863 PUSH1 0x40 MLOAD DUP2 PUSH4 0xFFFFFFFF AND PUSH1 0xE0 SHL DUP2 MSTORE PUSH1 0x4 ADD PUSH1 0x20 PUSH1 0x40 MLOAD DUP1 DUP4 SUB DUP2 DUP7 GAS STATICCALL ISZERO DUP1 ISZERO PUSH2 0x7AE JUMPI RETURNDATASIZE PUSH0 DUP1 RETURNDATACOPY RETURNDATASIZE PUSH0 REVERT JUMPDEST POP POP POP POP PUSH1 0x40 MLOAD RETURNDATASIZE PUSH1 0x1F NOT PUSH1 0x1F DUP3 ADD AND DUP3 ADD DUP1 PUSH1 0x40 MSTORE POP DUP2 ADD SWAP1 PUSH2 0x7D2 SWAP2 SWAP1 PUSH2 0x1D19 JUMP JUMPDEST ISZERO PUSH2 0x7EF JUMPI PUSH1 0x40 MLOAD PUSH3 0x461BCD PUSH1 0xE5 SHL DUP2 MSTORE PUSH1 0x4 ADD PUSH2 0x463 SWAP1 PUSH2 0x1D34 JUMP JUMPDEST PUSH0 DUP1 SLOAD SWAP1 PUSH2 0x100 EXP SWAP1 DIV PUSH1 0x1 PUSH1 0x1 PUSH1 0xA0 SHL SUB AND PUSH1 0x1 PUSH1 0x1 PUSH1 0xA0 SHL SUB AND PUSH4 0xE6D68595 PUSH1 0x40 MLOAD DUP2 PUSH4 0xFFFFFFFF AND PUSH1 0xE0 SHL DUP2 MSTORE PUSH1 0x4 ADD PUSH1 0x20 PUSH1 0x40 MLOAD DUP1 DUP4 SUB DUP2 DUP7 GAS STATICCALL ISZERO DUP1 ISZERO PUSH2 0x83D JUMPI RETURNDATASIZE PUSH0 DUP1 RETURNDATACOPY RETURNDATASIZE PUSH0 REVERT JUMPDEST POP POP POP POP PUSH1 0x40 MLOAD RETURNDATASIZE PUSH1 0x1F NOT PUSH1 0x1F DUP3 ADD AND DUP3 ADD DUP1 PUSH1 0x40 MSTORE POP DUP2 ADD SWAP1 PUSH2 0x861 SWAP2 SWAP1 PUSH2 0x1DB7 JUMP JUMPDEST PUSH1 0x1 PUSH1 0x1 PUSH1 0xA0 SHL SUB AND CALLER PUSH1 0x1 PUSH1 0x1 PUSH1 0xA0 SHL SUB AND EQ PUSH2 0x891 JUMPI PUSH1 0x40 MLOAD PUSH3 0x461BCD PUSH1 0xE5 SHL DUP2 MSTORE PUSH1 0x4 ADD PUSH2 0x463 SWAP1 PUSH2 0x1DD2 JUMP JUMPDEST PUSH1 0x13 SLOAD PUSH1 0xFF AND ISZERO PUSH2 0x8E0 JUMPI PUSH1 0x40 MLOAD PUSH3 0x461BCD PUSH1 0xE5 SHL DUP2 MSTORE PUSH1 0x20 PUSH1 0x4 DUP3 ADD MSTORE PUSH1 0x19 PUSH1 0x24 DUP3 ADD MSTORE PUSH25 0x50726F706F73616C20616C726561647920696E20706C616365 PUSH1 0x38 SHL PUSH1 0x44 DUP3 ADD MSTORE PUSH1 0x64 ADD PUSH2 0x463 JUMP JUMPDEST PUSH0 SLOAD PUSH1 0x40 MLOAD PUSH4 0x70A08231 PUSH1 0xE0 SHL DUP2 MSTORE PUSH1 0x1 PUSH1 0x1 PUSH1 0xA0 SHL SUB DUP6 DUP2 AND SWAP3 PUSH4 0x70A08231 SWAP3 PUSH2 0x911 SWAP3 SWAP1 SWAP2 AND SWAP1 PUSH1 0x4 ADD PUSH2 0x196D JUMP JUMPDEST PUSH1 0x20 PUSH1 0x40 MLOAD DUP1 DUP4 SUB DUP2 DUP7 GAS STATICCALL ISZERO DUP1 ISZERO PUSH2 0x92C JUMPI RETURNDATASIZE PUSH0 DUP1 RETURNDATACOPY RETURNDATASIZE PUSH0 REVERT JUMPDEST POP POP POP POP PUSH1 0x40 MLOAD RETURNDATASIZE PUSH1 0x1F NOT PUSH1 0x1F DUP3 ADD AND DUP3 ADD DUP1 PUSH1 0x40 MSTORE POP DUP2 ADD SWAP1 PUSH2 0x950 SWAP2 SWAP1 PUSH2 0x1DFE JUMP JUMPDEST DUP3 GT ISZERO PUSH2 0x9B2 JUMPI PUSH1 0x40 MLOAD PUSH3 0x461BCD PUSH1 0xE5 SHL DUP2 MSTORE PUSH1 0x20 PUSH1 0x4 DUP3 ADD MSTORE PUSH1 0x2A PUSH1 0x24 DUP3 ADD MSTORE PUSH32 0x43616E6E6F7420617070726F7665206D6F7265207468616E2063757272656E74 PUSH1 0x44 DUP3 ADD MSTORE PUSH10 0x206F776E65727368697 PUSH1 0xB4 SHL PUSH1 0x64 DUP3 ADD MSTORE PUSH1 0x84 ADD PUSH2 0x463 JUMP JUMPDEST PUSH1 0x1 PUSH1 0x1 PUSH1 0xA0 SHL SUB DUP4 AND PUSH0 SWAP1 DUP2 MSTORE PUSH1 0xF PUSH1 0x20 MSTORE PUSH1 0x40 DUP2 KECCAK256 DUP4 SWAP1 SSTORE PUSH1 0x13 DUP1 SLOAD PUSH1 0xFF NOT AND PUSH1 0x1 OR SWAP1 SSTORE PUSH1 0xD SLOAD PUSH2 0x9EF SWAP2 SWAP1 DUP6 SWAP1 DUP3 SWAP1 PUSH2 0x1CD SWAP1 TIMESTAMP PUSH2 0x1D8C JUMP JUMPDEST PUSH2 0x9FB JUMPI PUSH2 0x9FB PUSH2 0x1E15 JUMP JUMPDEST POP PUSH1 0x1 SWAP3 SWAP2 POP POP JUMP JUMPDEST PUSH0 DUP1 SLOAD PUSH1 0x1 PUSH1 0x1 PUSH1 0xA0 SHL SUB AND CALLER EQ PUSH2 0xA2E JUMPI PUSH1 0x40 MLOAD PUSH3 0x461BCD PUSH1 0xE5 SHL DUP2 MSTORE PUSH1 0x4 ADD PUSH2 0x463 SWAP1 PUSH2 0x1E29 JUMP JUMPDEST POP PUSH0 SWAP2 DUP3 MSTORE PUSH1 0x6 PUSH1 0x20 MSTORE PUSH1 0x40 SWAP1 SWAP2 KECCAK256 SSTORE PUSH1 0x1 SWAP1 JUMP JUMPDEST PUSH0 DUP1 SLOAD PUSH1 0x40 MLOAD PUSH3 0x7EEAC7 PUSH1 0xE1 SHL DUP2 MSTORE CALLER PUSH1 0x4 DUP3 ADD MSTORE PUSH1 0x1 PUSH1 0x1 PUSH1 0xA0 SHL SUB DUP1 DUP7 AND PUSH1 0x24 DUP4 ADD DUP2 SWAP1 MSTORE DUP7 SWAP4 SWAP1 SWAP3 DUP6 SWAP3 SWAP1 SWAP2 AND SWAP1 PUSH3 0xFDD58E SWAP1 PUSH1 0x44 ADD PUSH1 0x20 PUSH1 0x40 MLOAD DUP1 DUP4 SUB DUP2 DUP7 GAS STATICCALL ISZERO DUP1 ISZERO PUSH2 0xA97 JUMPI RETURNDATASIZE PUSH0 DUP1 RETURNDATACOPY RETURNDATASIZE PUSH0 REVERT JUMPDEST POP POP POP POP PUSH1 0x40 MLOAD RETURNDATASIZE PUSH1 0x1F NOT PUSH1 0x1F DUP3 ADD AND DUP3 ADD DUP1 PUSH1 0x40 MSTORE POP DUP2 ADD SWAP1 PUSH2 0xABB SWAP2 SWAP1 PUSH2 0x1DFE JUMP JUMPDEST GT PUSH2 0xAF6 JUMPI PUSH1 0x40 MLOAD PUSH3 0x461BCD PUSH1 0xE5 SHL DUP2 MSTORE PUSH1 0x20 PUSH1 0x4 DUP3 ADD MSTORE PUSH1 0xB PUSH1 0x24 DUP3 ADD MSTORE PUSH11 0x486F6C646572206F6E6C79 PUSH1 0xA8 SHL PUSH1 0x44 DUP3 ADD MSTORE PUSH1 0x64 ADD PUSH2 0x463 JUMP JUMPDEST PUSH0 SLOAD PUSH1 0x40 MLOAD PUSH4 0x79212195 PUSH1 0xE1 SHL DUP2 MSTORE PUSH1 0x1 PUSH1 0x1 PUSH1 0xA0 SHL SUB DUP1 DUP9 AND SWAP3 AND SWAP1 PUSH4 0xF242432A SWAP1 PUSH2 0xB2D SWAP1 CALLER SWAP1 ADDRESS SWAP1 DUP7 SWAP1 DUP12 SWAP1 PUSH1 0x4 ADD PUSH2 0x1E60 JUMP JUMPDEST PUSH0 PUSH1 0x40 MLOAD DUP1 DUP4 SUB DUP2 PUSH0 DUP8 DUP1 EXTCODESIZE ISZERO DUP1 ISZERO PUSH2 0xB44 JUMPI PUSH0 DUP1 REVERT JUMPDEST POP GAS CALL ISZERO DUP1 ISZERO PUSH2 0xB56 JUMPI RETURNDATASIZE PUSH0 DUP1 RETURNDATACOPY RETURNDATASIZE PUSH0 REVERT JUMPDEST POP POP CALLER PUSH0 SWAP1 DUP2 MSTORE PUSH1 0x2 PUSH1 0x20 SWAP1 DUP2 MSTORE PUSH1 0x40 DUP1 DUP4 KECCAK256 DUP7 DUP5 MSTORE SWAP1 SWAP2 MSTORE DUP2 KECCAK256 DUP1 SLOAD DUP10 SWAP5 POP SWAP1 SWAP3 POP PUSH2 0xB84 SWAP1 DUP5 SWAP1 PUSH2 0x1D8C JUMP JUMPDEST SWAP1 SWAP2 SSTORE POP PUSH1 0x1 SWAP8 SWAP7 POP POP POP POP POP POP POP JUMP JUMPDEST PUSH0 DUP1 PUSH0 SWAP1 SLOAD SWAP1 PUSH2 0x100 EXP SWAP1 DIV PUSH1 0x1 PUSH1 0x1 PUSH1 0xA0 SHL SUB AND PUSH1 0x1 PUSH1 0x1 PUSH1 0xA0 SHL SUB AND PUSH4 0xDC3F5863 PUSH1 0x40 MLOAD DUP2 PUSH4 0xFFFFFFFF AND PUSH1 0xE0 SHL DUP2 MSTORE PUSH1 0x4 ADD PUSH1 0x20 PUSH1 0x40 MLOAD DUP1 DUP4 SUB DUP2 DUP7 GAS STATICCALL ISZERO DUP1 ISZERO PUSH2 0xBE5 JUMPI RETURNDATASIZE PUSH0 DUP1 RETURNDATACOPY RETURNDATASIZE PUSH0 REVERT JUMPDEST POP POP POP POP PUSH1 0x40 MLOAD RETURNDATASIZE PUSH1 0x1F NOT PUSH1 0x1F DUP3 ADD AND DUP3 ADD DUP1 PUSH1 0x40 MSTORE POP DUP2 ADD SWAP1 PUSH2 0xC09 SWAP2 SWAP1 PUSH2 0x1D19 JUMP JUMPDEST ISZERO PUSH2 0xC26 JUMPI PUSH1 0x40 MLOAD PUSH3 0x461BCD PUSH1 0xE5 SHL DUP2 MSTORE PUSH1 0x4 ADD PUSH2 0x463 SWAP1 PUSH2 0x1D34 JUMP JUMPDEST PUSH0 DUP4 DUP2 MSTORE PUSH1 0x5 PUSH1 0x20 SWAP1 DUP2 MSTORE PUSH1 0x40 DUP1 DUP4 KECCAK256 SLOAD CALLER DUP5 MSTORE PUSH1 0x2 DUP4 MSTORE DUP2 DUP5 KECCAK256 PUSH1 0x1 PUSH1 0x1 PUSH1 0xA0 SHL SUB SWAP1 SWAP2 AND DUP1 DUP6 MSTORE SWAP3 MSTORE DUP3 KECCAK256 SLOAD SWAP1 SWAP2 DUP2 SWAP1 SUB PUSH2 0xC93 JUMPI PUSH1 0x40 MLOAD PUSH3 0x461BCD PUSH1 0xE5 SHL DUP2 MSTORE PUSH1 0x20 PUSH1 0x4 DUP3 ADD MSTORE PUSH1 0xB PUSH1 0x24 DUP3 ADD MSTORE PUSH11 0x2B37BA32B91037B7363C97 PUSH1 0xA9 SHL PUSH1 0x44 DUP3 ADD MSTORE PUSH1 0x64 ADD PUSH2 0x463 JUMP JUMPDEST PUSH0 DUP6 DUP2 MSTORE PUSH1 0xB PUSH1 0x20 SWAP1 DUP2 MSTORE PUSH1 0x40 DUP1 DUP4 KECCAK256 CALLER DUP5 MSTORE SWAP1 SWAP2 MSTORE SWAP1 KECCAK256 SLOAD PUSH1 0xFF AND ISZERO PUSH2 0xCF1 JUMPI PUSH1 0x40 MLOAD PUSH3 0x461BCD PUSH1 0xE5 SHL DUP2 MSTORE PUSH1 0x20 PUSH1 0x4 DUP3 ADD MSTORE PUSH1 0x12 PUSH1 0x24 DUP3 ADD MSTORE PUSH18 0x20B2323932B9B9903430B2103B37BA32B217 PUSH1 0x71 SHL PUSH1 0x44 DUP3 ADD MSTORE PUSH1 0x64 ADD PUSH2 0x463 JUMP JUMPDEST PUSH0 DUP6 DUP2 MSTORE PUSH1 0x6 PUSH1 0x20 MSTORE PUSH1 0x40 SWAP1 KECCAK256 SLOAD TIMESTAMP GT ISZERO PUSH2 0xD4A JUMPI PUSH1 0x40 MLOAD PUSH3 0x461BCD PUSH1 0xE5 SHL DUP2 MSTORE PUSH1 0x20 PUSH1 0x4 DUP3 ADD MSTORE PUSH1 0x19 PUSH1 0x24 DUP3 ADD MSTORE PUSH25 0x2B37BA34B733903232B0B23634B732903430B9903830B9BA17 PUSH1 0x39 SHL PUSH1 0x44 DUP3 ADD MSTORE PUSH1 0x64 ADD PUSH2 0x463 JUMP JUMPDEST CALLER PUSH0 SWAP1 DUP2 MSTORE PUSH1 0x3 PUSH1 0x20 SWAP1 DUP2 MSTORE PUSH1 0x40 DUP1 DUP4 KECCAK256 DUP6 DUP5 MSTORE DUP3 MSTORE DUP1 DUP4 KECCAK256 SLOAD DUP9 DUP5 MSTORE PUSH1 0x6 SWAP1 SWAP3 MSTORE SWAP1 SWAP2 KECCAK256 SLOAD DUP2 LT ISZERO PUSH2 0xD9D JUMPI PUSH0 DUP7 DUP2 MSTORE PUSH1 0x6 PUSH1 0x20 SWAP1 DUP2 MSTORE PUSH1 0x40 DUP1 DUP4 KECCAK256 SLOAD CALLER DUP5 MSTORE PUSH1 0x3 DUP4 MSTORE DUP2 DUP5 KECCAK256 DUP8 DUP6 MSTORE SWAP1 SWAP3 MSTORE SWAP1 SWAP2 KECCAK256 SSTORE JUMPDEST PUSH0 DUP7 DUP2 MSTORE PUSH1 0x8 PUSH1 0x20 MSTORE PUSH1 0x40 DUP2 KECCAK256 SLOAD PUSH1 0xFF AND PUSH1 0x3 DUP2 GT ISZERO PUSH2 0xDBF JUMPI PUSH2 0xDBF PUSH2 0x1A0B JUMP JUMPDEST EQ DUP1 ISZERO PUSH2 0xDC9 JUMPI POP DUP5 JUMPDEST ISZERO PUSH2 0xE0C JUMPI PUSH0 DUP7 DUP2 MSTORE PUSH1 0x5 PUSH1 0x20 SWAP1 DUP2 MSTORE PUSH1 0x40 DUP1 DUP4 KECCAK256 SLOAD PUSH1 0x1 PUSH1 0x1 PUSH1 0xA0 SHL SUB AND DUP4 MSTORE PUSH1 0x10 SWAP1 SWAP2 MSTORE DUP2 KECCAK256 DUP1 SLOAD DUP5 SWAP3 SWAP1 PUSH2 0xE01 SWAP1 DUP5 SWAP1 PUSH2 0x1D8C JUMP JUMPDEST SWAP1 SWAP2 SSTORE POP PUSH2 0xE3C SWAP1 POP JUMP JUMPDEST PUSH0 DUP7 DUP2 MSTORE PUSH1 0xA PUSH1 0x20 SWAP1 DUP2 MSTORE PUSH1 0x40 DUP1 DUP4 KECCAK256 DUP9 ISZERO ISZERO DUP5 MSTORE SWAP1 SWAP2 MSTORE DUP2 KECCAK256 DUP1 SLOAD DUP5 SWAP3 SWAP1 PUSH2 0xE36 SWAP1 DUP5 SWAP1 PUSH2 0x1D8C JUMP JUMPDEST SWAP1 SWAP2 SSTORE POP POP JUMPDEST POP POP POP PUSH0 SWAP3 DUP4 MSTORE POP POP PUSH1 0xB PUSH1 0x20 SWAP1 DUP2 MSTORE PUSH1 0x40 DUP1 DUP4 KECCAK256 CALLER DUP5 MSTORE SWAP1 SWAP2 MSTORE SWAP1 KECCAK256 DUP1 SLOAD PUSH1 0xFF NOT AND PUSH1 0x1 SWAP1 DUP2 OR SWAP1 SWAP2 SSTORE SWAP1 JUMP JUMPDEST PUSH0 DUP1 PUSH0 SWAP1 SLOAD SWAP1 PUSH2 0x100 EXP SWAP1 DIV PUSH1 0x1 PUSH1 0x1 PUSH1 0xA0 SHL SUB AND PUSH1 0x1 PUSH1 0x1 PUSH1 0xA0 SHL SUB AND PUSH4 0xE6D68595 PUSH1 0x40 MLOAD DUP2 PUSH4 0xFFFFFFFF AND PUSH1 0xE0 SHL DUP2 MSTORE PUSH1 0x4 ADD PUSH1 0x20 PUSH1 0x40 MLOAD DUP1 DUP4 SUB DUP2 DUP7 GAS STATICCALL ISZERO DUP1 ISZERO PUSH2 0xEBA JUMPI RETURNDATASIZE PUSH0 DUP1 RETURNDATACOPY RETURNDATASIZE PUSH0 REVERT JUMPDEST POP POP POP POP PUSH1 0x40 MLOAD RETURNDATASIZE PUSH1 0x1F NOT PUSH1 0x1F DUP3 ADD AND DUP3 ADD DUP1 PUSH1 0x40 MSTORE POP DUP2 ADD SWAP1 PUSH2 0xEDE SWAP2 SWAP1 PUSH2 0x1DB7 JUMP JUMPDEST PUSH1 0x1 PUSH1 0x1 PUSH1 0xA0 SHL SUB AND CALLER PUSH1 0x1 PUSH1 0x1 PUSH1 0xA0 SHL SUB AND EQ PUSH2 0xF0E JUMPI PUSH1 0x40 MLOAD PUSH3 0x461BCD PUSH1 0xE5 SHL DUP2 MSTORE PUSH1 0x4 ADD PUSH2 0x463 SWAP1 PUSH2 0x1DD2 JUMP JUMPDEST PUSH1 0x13 SLOAD PUSH1 0xFF AND PUSH2 0xF30 JUMPI PUSH1 0x40 MLOAD PUSH3 0x461BCD PUSH1 0xE5 SHL DUP2 MSTORE PUSH1 0x4 ADD PUSH2 0x463 SWAP1 PUSH2 0x1E97 JUMP JUMPDEST PUSH2 0x3CC DUP3 PUSH2 0x18FC JUMP JUMPDEST SWAP2 SWAP1 POP JUMP JUMPDEST PUSH0 DUP1 SLOAD PUSH1 0x40 DUP1 MLOAD PUSH4 0xDC3F5863 PUSH1 0xE0 SHL DUP2 MSTORE SWAP1 MLOAD PUSH1 0x1 PUSH1 0x1 PUSH1 0xA0 SHL SUB DUP1 DUP8 AND SWAP4 AND SWAP2 PUSH4 0xDC3F5863 SWAP2 PUSH1 0x4 DUP1 DUP4 ADD SWAP3 PUSH1 0x20 SWAP3 SWAP2 SWAP1 DUP3 SWAP1 SUB ADD DUP2 DUP7 GAS STATICCALL ISZERO DUP1 ISZERO PUSH2 0xF87 JUMPI RETURNDATASIZE PUSH0 DUP1 RETURNDATACOPY RETURNDATASIZE PUSH0 REVERT JUMPDEST POP POP POP POP PUSH1 0x40 MLOAD RETURNDATASIZE PUSH1 0x1F NOT PUSH1 0x1F DUP3 ADD AND DUP3 ADD DUP1 PUSH1 0x40 MSTORE POP DUP2 ADD SWAP1 PUSH2 0xFAB SWAP2 SWAP1 PUSH2 0x1D19 JUMP JUMPDEST PUSH2 0x100E JUMPI CALLER PUSH0 SWAP1 DUP2 MSTORE PUSH1 0x3 PUSH1 0x20 SWAP1 DUP2 MSTORE PUSH1 0x40 DUP1 DUP4 KECCAK256 DUP5 DUP5 MSTORE SWAP1 SWAP2 MSTORE SWAP1 KECCAK256 SLOAD TIMESTAMP LT ISZERO PUSH2 0x100E JUMPI PUSH1 0x40 MLOAD PUSH3 0x461BCD PUSH1 0xE5 SHL DUP2 MSTORE PUSH1 0x20 PUSH1 0x4 DUP3 ADD MSTORE PUSH1 0x13 PUSH1 0x24 DUP3 ADD MSTORE PUSH19 0x746F6F206561726C7920746F2072656465656D PUSH1 0x68 SHL PUSH1 0x44 DUP3 ADD MSTORE PUSH1 0x64 ADD PUSH2 0x463 JUMP JUMPDEST PUSH0 SLOAD PUSH1 0x40 MLOAD PUSH4 0x79212195 PUSH1 0xE1 SHL DUP2 MSTORE PUSH1 0x1 PUSH1 0x1 PUSH1 0xA0 SHL SUB SWAP1 SWAP2 AND SWAP1 PUSH4 0xF242432A SWAP1 PUSH2 0x1043 SWAP1 ADDRESS SWAP1 CALLER SWAP1 DUP7 SWAP1 DUP10 SWAP1 PUSH1 0x4 ADD PUSH2 0x1E60 JUMP JUMPDEST PUSH0 PUSH1 0x40 MLOAD DUP1 DUP4 SUB DUP2 PUSH0 DUP8 DUP1 EXTCODESIZE ISZERO DUP1 ISZERO PUSH2 0x105A JUMPI PUSH0 DUP1 REVERT JUMPDEST POP GAS CALL ISZERO DUP1 ISZERO PUSH2 0x106C JUMPI RETURNDATASIZE PUSH0 DUP1 RETURNDATACOPY RETURNDATASIZE PUSH0 REVERT JUMPDEST POP POP CALLER PUSH0 SWAP1 DUP2 MSTORE PUSH1 0x2 PUSH1 0x20 SWAP1 DUP2 MSTORE PUSH1 0x40 DUP1 DUP4 KECCAK256 DUP7 DUP5 MSTORE SWAP1 SWAP2 MSTORE DUP2 KECCAK256 DUP1 SLOAD DUP8 SWAP5 POP SWAP1 SWAP3 POP PUSH2 0x109A SWAP1 DUP5 SWAP1 PUSH2 0x1ED9 JUMP JUMPDEST SWAP1 SWAP2 SSTORE POP PUSH1 0x1 SWAP6 SWAP5 POP POP POP POP POP JUMP JUMPDEST PUSH0 DUP1 SLOAD PUSH1 0x1 PUSH1 0x1 PUSH1 0xA0 SHL SUB AND CALLER EQ PUSH2 0x10D3 JUMPI PUSH1 0x40 MLOAD PUSH3 0x461BCD PUSH1 0xE5 SHL DUP2 MSTORE PUSH1 0x4 ADD PUSH2 0x463 SWAP1 PUSH2 0x1E29 JUMP JUMPDEST PUSH1 0x1 PUSH1 0x1 PUSH1 0xA0 SHL SUB DUP4 AND PUSH0 SWAP1 DUP2 MSTORE PUSH1 0x11 PUSH1 0x20 MSTORE PUSH1 0x40 DUP2 KECCAK256 DUP1 SLOAD DUP5 SWAP3 SWAP1 PUSH2 0x10FA SWAP1 DUP5 SWAP1 PUSH2 0x1ED9 JUMP JUMPDEST SWAP1 SWAP2 SSTORE POP PUSH2 0x1109 SWAP1 POP DUP4 PUSH2 0x18FC JUMP JUMPDEST SWAP4 SWAP3 POP POP POP JUMP JUMPDEST PUSH0 DUP1 PUSH0 SWAP1 SLOAD SWAP1 PUSH2 0x100 EXP SWAP1 DIV PUSH1 0x1 PUSH1 0x1 PUSH1 0xA0 SHL SUB AND PUSH1 0x1 PUSH1 0x1 PUSH1 0xA0 SHL SUB AND PUSH4 0xDC3F5863 PUSH1 0x40 MLOAD DUP2 PUSH4 0xFFFFFFFF AND PUSH1 0xE0 SHL DUP2 MSTORE PUSH1 0x4 ADD PUSH1 0x20 PUSH1 0x40 MLOAD DUP1 DUP4 SUB DUP2 DUP7 GAS STATICCALL ISZERO DUP1 ISZERO PUSH2 0x1160 JUMPI RETURNDATASIZE PUSH0 DUP1 RETURNDATACOPY RETURNDATASIZE PUSH0 REVERT JUMPDEST POP POP POP POP PUSH1 0x40 MLOAD RETURNDATASIZE PUSH1 0x1F NOT PUSH1 0x1F DUP3 ADD AND DUP3 ADD DUP1 PUSH1 0x40 MSTORE POP DUP2 ADD SWAP1 PUSH2 0x1184 SWAP2 SWAP1 PUSH2 0x1D19 JUMP JUMPDEST ISZERO PUSH2 0x11A1 JUMPI PUSH1 0x40 MLOAD PUSH3 0x461BCD PUSH1 0xE5 SHL DUP2 MSTORE PUSH1 0x4 ADD PUSH2 0x463 SWAP1 PUSH2 0x1D34 JUMP JUMPDEST PUSH0 DUP1 SLOAD SWAP1 PUSH2 0x100 EXP SWAP1 DIV PUSH1 0x1 PUSH1 0x1 PUSH1 0xA0 SHL SUB AND PUSH1 0x1 PUSH1 0x1 PUSH1 0xA0 SHL SUB AND PUSH4 0xE6D68595 PUSH1 0x40 MLOAD DUP2 PUSH4 0xFFFFFFFF AND PUSH1 0xE0 SHL DUP2 MSTORE PUSH1 0x4 ADD PUSH1 0x20 PUSH1 0x40 MLOAD DUP1 DUP4 SUB DUP2 DUP7 GAS STATICCALL ISZERO DUP1 ISZERO PUSH2 0x11EF JUMPI RETURNDATASIZE PUSH0 DUP1 RETURNDATACOPY RETURNDATASIZE PUSH0 REVERT JUMPDEST POP POP POP POP PUSH1 0x40 MLOAD RETURNDATASIZE PUSH1 0x1F NOT PUSH1 0x1F DUP3 ADD AND DUP3 ADD DUP1 PUSH1 0x40 MSTORE POP DUP2 ADD SWAP1 PUSH2 0x1213 SWAP2 SWAP1 PUSH2 0x1DB7 JUMP JUMPDEST PUSH1 0x1 PUSH1 0x1 PUSH1 0xA0 SHL SUB AND CALLER PUSH1 0x1 PUSH1 0x1 PUSH1 0xA0 SHL SUB AND EQ PUSH2 0x1243 JUMPI PUSH1 0x40 MLOAD PUSH3 0x461BCD PUSH1 0xE5 SHL DUP2 MSTORE PUSH1 0x4 ADD PUSH2 0x463 SWAP1 PUSH2 0x1DD2 JUMP JUMPDEST PUSH1 0x13 SLOAD PUSH1 0xFF AND PUSH2 0x1265 JUMPI PUSH1 0x40 MLOAD PUSH3 0x461BCD PUSH1 0xE5 SHL DUP2 MSTORE PUSH1 0x4 ADD PUSH2 0x463 SWAP1 PUSH2 0x1E97 JUMP JUMPDEST PUSH1 0x12 SLOAD PUSH0 SWAP1 DUP2 MSTORE PUSH1 0x6 PUSH1 0x20 MSTORE PUSH1 0x40 SWAP1 KECCAK256 SLOAD TIMESTAMP LT ISZERO PUSH2 0x12C5 JUMPI PUSH1 0x40 MLOAD PUSH3 0x461BCD PUSH1 0xE5 SHL DUP2 MSTORE PUSH1 0x20 PUSH1 0x4 DUP3 ADD MSTORE PUSH1 0x1C PUSH1 0x24 DUP3 ADD MSTORE PUSH32 0x566F74696E6720706572696F6420686173206E6F742070617373656400000000 PUSH1 0x44 DUP3 ADD MSTORE PUSH1 0x64 ADD PUSH2 0x463 JUMP JUMPDEST PUSH1 0x1 PUSH1 0x1 PUSH1 0xA0 SHL SUB DUP4 AND PUSH0 SWAP1 DUP2 MSTORE PUSH1 0x10 PUSH1 0x20 SWAP1 DUP2 MSTORE PUSH1 0x40 DUP1 DUP4 KECCAK256 SLOAD PUSH1 0xF SWAP1 SWAP3 MSTORE SWAP1 SWAP2 KECCAK256 SLOAD PUSH2 0x12F3 SWAP2 SWAP1 PUSH2 0x1ED9 JUMP JUMPDEST DUP3 GT ISZERO PUSH2 0x1336 JUMPI PUSH1 0x40 MLOAD PUSH3 0x461BCD PUSH1 0xE5 SHL DUP2 MSTORE PUSH1 0x20 PUSH1 0x4 DUP3 ADD MSTORE PUSH1 0x11 PUSH1 0x24 DUP3 ADD MSTORE PUSH17 0x37BB32B930BABA3437B934B9B0BA34B7B7 PUSH1 0x79 SHL PUSH1 0x44 DUP3 ADD MSTORE PUSH1 0x64 ADD PUSH2 0x463 JUMP JUMPDEST PUSH1 0x1 PUSH1 0x1 PUSH1 0xA0 SHL SUB DUP4 AND PUSH0 SWAP1 DUP2 MSTORE PUSH1 0xF PUSH1 0x20 MSTORE PUSH1 0x40 DUP2 KECCAK256 DUP1 SLOAD DUP5 SWAP3 SWAP1 PUSH2 0x135D SWAP1 DUP5 SWAP1 PUSH2 0x1ED9 JUMP JUMPDEST SWAP1 SWAP2 SSTORE POP POP PUSH1 0x1 PUSH1 0x1 PUSH1 0xA0 SHL SUB DUP4 AND PUSH0 SWAP1 DUP2 MSTORE PUSH1 0x11 PUSH1 0x20 MSTORE PUSH1 0x40 DUP2 KECCAK256 DUP1 SLOAD DUP5 SWAP3 SWAP1 PUSH2 0x1389 SWAP1 DUP5 SWAP1 PUSH2 0x1D8C JUMP JUMPDEST SWAP1 SWAP2 SSTORE POP POP PUSH1 0x1 PUSH1 0x1 PUSH1 0xA0 SHL SUB DUP4 AND PUSH0 SWAP1 DUP2 MSTORE PUSH1 0xF PUSH1 0x20 MSTORE PUSH1 0x40 DUP2 KECCAK256 SLOAD SWAP1 SUB PUSH2 0x9FB JUMPI POP POP PUSH1 0x13 DUP1 SLOAD PUSH1 0xFF NOT AND SWAP1 SSTORE POP PUSH1 0x1 SWAP1 JUMP JUMPDEST PUSH0 DUP1 PUSH0 SWAP1 SLOAD SWAP1 PUSH2 0x100 EXP SWAP1 DIV PUSH1 0x1 PUSH1 0x1 PUSH1 0xA0 SHL SUB AND PUSH1 0x1 PUSH1 0x1 PUSH1 0xA0 SHL SUB AND PUSH4 0xDC3F5863 PUSH1 0x40 MLOAD DUP2 PUSH4 0xFFFFFFFF AND PUSH1 0xE0 SHL DUP2 MSTORE PUSH1 0x4 ADD PUSH1 0x20 PUSH1 0x40 MLOAD DUP1 DUP4 SUB DUP2 DUP7 GAS STATICCALL ISZERO DUP1 ISZERO PUSH2 0x140E JUMPI RETURNDATASIZE PUSH0 DUP1 RETURNDATACOPY RETURNDATASIZE PUSH0 REVERT JUMPDEST POP POP POP POP PUSH1 0x40 MLOAD RETURNDATASIZE PUSH1 0x1F NOT PUSH1 0x1F DUP3 ADD AND DUP3 ADD DUP1 PUSH1 0x40 MSTORE POP DUP2 ADD SWAP1 PUSH2 0x1432 SWAP2 SWAP1 PUSH2 0x1D19 JUMP JUMPDEST ISZERO PUSH2 0x144F JUMPI PUSH1 0x40 MLOAD PUSH3 0x461BCD PUSH1 0xE5 SHL DUP2 MSTORE PUSH1 0x4 ADD PUSH2 0x463 SWAP1 PUSH2 0x1D34 JUMP JUMPDEST PUSH0 DUP3 DUP2 MSTORE PUSH1 0x8 PUSH1 0x20 MSTORE PUSH1 0x40 DUP2 KECCAK256 SLOAD PUSH1 0xFF AND PUSH1 0x3 DUP2 GT ISZERO PUSH2 0x1471 JUMPI PUSH2 0x1471 PUSH2 0x1A0B JUMP JUMPDEST SUB PUSH2 0x14CA JUMPI PUSH1 0x40 MLOAD PUSH3 0x461BCD PUSH1 0xE5 SHL DUP2 MSTORE PUSH1 0x20 PUSH1 0x4 DUP3 ADD MSTORE PUSH1 0x24 DUP1 DUP3 ADD MSTORE PUSH32 0x4F626A656374696F6E2070726F706F73616C206973206E6F7420657865637574 PUSH1 0x44 DUP3 ADD MSTORE PUSH4 0x61626C65 PUSH1 0xE0 SHL PUSH1 0x64 DUP3 ADD MSTORE PUSH1 0x84 ADD PUSH2 0x463 JUMP JUMPDEST PUSH0 DUP3 DUP2 MSTORE PUSH1 0x6 PUSH1 0x20 MSTORE PUSH1 0x40 SWAP1 KECCAK256 SLOAD TIMESTAMP LT ISZERO PUSH2 0x1527 JUMPI PUSH1 0x40 MLOAD PUSH3 0x461BCD PUSH1 0xE5 SHL DUP2 MSTORE PUSH1 0x20 PUSH1 0x4 DUP3 ADD MSTORE PUSH1 0x1C PUSH1 0x24 DUP3 ADD MSTORE PUSH32 0x566F74696E6720646561646C696E65206861736E277420706173742E00000000 PUSH1 0x44 DUP3 ADD MSTORE PUSH1 0x64 ADD PUSH2 0x463 JUMP JUMPDEST PUSH0 DUP3 DUP2 MSTORE PUSH1 0xA PUSH1 0x20 SWAP1 DUP2 MSTORE PUSH1 0x40 DUP1 DUP4 KECCAK256 DUP4 DUP1 MSTORE SWAP1 SWAP2 MSTORE DUP1 DUP3 KECCAK256 SLOAD PUSH1 0x1 DUP4 MSTORE SWAP2 KECCAK256 SLOAD GT PUSH2 0x1588 JUMPI PUSH1 0x40 MLOAD PUSH3 0x461BCD PUSH1 0xE5 SHL DUP2 MSTORE PUSH1 0x20 PUSH1 0x4 DUP3 ADD MSTORE PUSH1 0x10 PUSH1 0x24 DUP3 ADD MSTORE PUSH16 0x13585A9BDC9A5D1E481B9BDD081B595D PUSH1 0x82 SHL PUSH1 0x44 DUP3 ADD MSTORE PUSH1 0x64 ADD PUSH2 0x463 JUMP JUMPDEST PUSH0 DUP3 DUP2 MSTORE PUSH1 0x5 PUSH1 0x20 MSTORE PUSH1 0x40 DUP1 DUP3 KECCAK256 SLOAD DUP3 SLOAD SWAP2 MLOAD PUSH4 0xAA771D39 PUSH1 0xE0 SHL DUP2 MSTORE PUSH1 0x1 PUSH1 0x1 PUSH1 0xA0 SHL SUB SWAP2 DUP3 AND PUSH1 0x4 DUP3 ADD DUP2 SWAP1 MSTORE SWAP4 SWAP3 SWAP2 SWAP1 SWAP2 AND SWAP1 PUSH4 0xAA771D39 SWAP1 PUSH1 0x24 ADD PUSH1 0x20 PUSH1 0x40 MLOAD DUP1 DUP4 SUB DUP2 DUP7 GAS STATICCALL ISZERO DUP1 ISZERO PUSH2 0x15E2 JUMPI RETURNDATASIZE PUSH0 DUP1 RETURNDATACOPY RETURNDATASIZE PUSH0 REVERT JUMPDEST POP POP POP POP PUSH1 0x40 MLOAD RETURNDATASIZE PUSH1 0x1F NOT PUSH1 0x1F DUP3 ADD AND DUP3 ADD DUP1 PUSH1 0x40 MSTORE POP DUP2 ADD SWAP1 PUSH2 0x1606 SWAP2 SWAP1 PUSH2 0x1DFE JUMP JUMPDEST PUSH0 DUP6 DUP2 MSTORE PUSH1 0xC PUSH1 0x20 MSTORE PUSH1 0x40 SWAP1 KECCAK256 SLOAD SWAP1 SWAP2 POP PUSH1 0x64 SWAP1 PUSH2 0x1627 SWAP1 PUSH1 0xFF AND DUP4 PUSH2 0x1EEC JUMP JUMPDEST PUSH2 0x1631 SWAP2 SWAP1 PUSH2 0x1F03 JUMP JUMPDEST PUSH0 DUP6 DUP2 MSTORE PUSH1 0xA PUSH1 0x20 SWAP1 DUP2 MSTORE PUSH1 0x40 DUP1 DUP4 KECCAK256 PUSH1 0x1 DUP5 MSTORE SWAP1 SWAP2 MSTORE SWAP1 KECCAK256 SLOAD GT PUSH2 0x1689 JUMPI PUSH1 0x40 MLOAD PUSH3 0x461BCD PUSH1 0xE5 SHL DUP2 MSTORE PUSH1 0x20 PUSH1 0x4 DUP3 ADD MSTORE PUSH1 0xE PUSH1 0x24 DUP3 ADD MSTORE PUSH14 0x145D5BDC9D5B481B9BDD081B595D PUSH1 0x92 SHL PUSH1 0x44 DUP3 ADD MSTORE PUSH1 0x64 ADD PUSH2 0x463 JUMP JUMPDEST PUSH1 0x1 PUSH0 DUP6 DUP2 MSTORE PUSH1 0x8 PUSH1 0x20 MSTORE PUSH1 0x40 SWAP1 KECCAK256 SLOAD PUSH1 0xFF AND PUSH1 0x3 DUP2 GT ISZERO PUSH2 0x16AD JUMPI PUSH2 0x16AD PUSH2 0x1A0B JUMP JUMPDEST SUB PUSH2 0x1736 JUMPI PUSH0 DUP1 SLOAD SWAP1 PUSH2 0x100 EXP SWAP1 DIV PUSH1 0x1 PUSH1 0x1 PUSH1 0xA0 SHL SUB AND PUSH1 0x1 PUSH1 0x1 PUSH1 0xA0 SHL SUB AND PUSH4 0x84DAC702 PUSH1 0x40 MLOAD DUP2 PUSH4 0xFFFFFFFF AND PUSH1 0xE0 SHL DUP2 MSTORE PUSH1 0x4 ADD PUSH1 0x20 PUSH1 0x40 MLOAD DUP1 DUP4 SUB DUP2 PUSH0 DUP8 GAS CALL ISZERO DUP1 ISZERO PUSH2 0x1701 JUMPI RETURNDATASIZE PUSH0 DUP1 RETURNDATACOPY RETURNDATASIZE PUSH0 REVERT JUMPDEST POP POP POP POP PUSH1 0x40 MLOAD RETURNDATASIZE PUSH1 0x1F NOT PUSH1 0x1F DUP3 ADD AND DUP3 ADD DUP1 PUSH1 0x40 MSTORE POP DUP2 ADD SWAP1 PUSH2 0x1725 SWAP2 SWAP1 PUSH2 0x1D19 JUMP JUMPDEST PUSH2 0x1731 JUMPI PUSH2 0x1731 PUSH2 0x1E15 JUMP JUMPDEST PUSH2 0x18F2 JUMP JUMPDEST PUSH1 0x2 PUSH0 DUP6 DUP2 MSTORE PUSH1 0x8 PUSH1 0x20 MSTORE PUSH1 0x40 SWAP1 KECCAK256 SLOAD PUSH1 0xFF AND PUSH1 0x3 DUP2 GT ISZERO PUSH2 0x175A JUMPI PUSH2 0x175A PUSH2 0x1A0B JUMP JUMPDEST SUB PUSH2 0x17AE JUMPI PUSH0 DUP1 SLOAD SWAP1 PUSH2 0x100 EXP SWAP1 DIV PUSH1 0x1 PUSH1 0x1 PUSH1 0xA0 SHL SUB AND PUSH1 0x1 PUSH1 0x1 PUSH1 0xA0 SHL SUB AND PUSH4 0x7F1660A1 PUSH1 0x40 MLOAD DUP2 PUSH4 0xFFFFFFFF AND PUSH1 0xE0 SHL DUP2 MSTORE PUSH1 0x4 ADD PUSH1 0x20 PUSH1 0x40 MLOAD DUP1 DUP4 SUB DUP2 PUSH0 DUP8 GAS CALL ISZERO DUP1 ISZERO PUSH2 0x1701 JUMPI RETURNDATASIZE PUSH0 DUP1 RETURNDATACOPY RETURNDATASIZE PUSH0 REVERT JUMPDEST PUSH1 0x3 PUSH0 DUP6 DUP2 MSTORE PUSH1 0x8 PUSH1 0x20 MSTORE PUSH1 0x40 SWAP1 KECCAK256 SLOAD PUSH1 0xFF AND PUSH1 0x3 DUP2 GT ISZERO PUSH2 0x17D2 JUMPI PUSH2 0x17D2 PUSH2 0x1A0B JUMP JUMPDEST SUB PUSH2 0x18B1 JUMPI PUSH0 DUP1 SLOAD DUP6 DUP3 MSTORE PUSH1 0x5 PUSH1 0x20 MSTORE PUSH1 0x40 SWAP2 DUP3 SWAP1 KECCAK256 SLOAD SWAP2 MLOAD PUSH4 0x3CDFE21 PUSH1 0xE4 SHL DUP2 MSTORE PUSH1 0x1 PUSH1 0x1 PUSH1 0xA0 SHL SUB SWAP2 DUP3 AND SWAP3 PUSH4 0x3CDFE210 SWAP3 PUSH2 0x1816 SWAP3 SWAP2 AND SWAP1 PUSH1 0x4 ADD PUSH2 0x196D JUMP JUMPDEST PUSH1 0x20 PUSH1 0x40 MLOAD DUP1 DUP4 SUB DUP2 PUSH0 DUP8 GAS CALL ISZERO DUP1 ISZERO PUSH2 0x1832 JUMPI RETURNDATASIZE PUSH0 DUP1 RETURNDATACOPY RETURNDATASIZE PUSH0 REVERT JUMPDEST POP POP POP POP PUSH1 0x40 MLOAD RETURNDATASIZE PUSH1 0x1F NOT PUSH1 0x1F DUP3 ADD AND DUP3 ADD DUP1 PUSH1 0x40 MSTORE POP DUP2 ADD SWAP1 PUSH2 0x1856 SWAP2 SWAP1 PUSH2 0x1D19 JUMP JUMPDEST PUSH2 0x1862 JUMPI PUSH2 0x1862 PUSH2 0x1E15 JUMP JUMPDEST PUSH0 DUP1 SLOAD SWAP1 PUSH2 0x100 EXP SWAP1 DIV PUSH1 0x1 PUSH1 0x1 PUSH1 0xA0 SHL SUB AND PUSH1 0x1 PUSH1 0x1 PUSH1 0xA0 SHL SUB AND PUSH4 0x8405CA67 PUSH1 0x40 MLOAD DUP2 PUSH4 0xFFFFFFFF AND PUSH1 0xE0 SHL DUP2 MSTORE PUSH1 0x4 ADD PUSH1 0x20 PUSH1 0x40 MLOAD DUP1 DUP4 SUB DUP2 PUSH0 DUP8 GAS CALL ISZERO DUP1 ISZERO PUSH2 0x1701 JUMPI RETURNDATASIZE PUSH0 DUP1 RETURNDATACOPY RETURNDATASIZE PUSH0 REVERT JUMPDEST PUSH1 0x40 MLOAD PUSH3 0x461BCD PUSH1 0xE5 SHL DUP2 MSTORE PUSH1 0x20 PUSH1 0x4 DUP3 ADD MSTORE PUSH1 0x16 PUSH1 0x24 DUP3 ADD MSTORE PUSH22 0x4572726F7220696E2070726F706F73616C2074797065 PUSH1 0x50 SHL PUSH1 0x44 DUP3 ADD MSTORE PUSH1 0x64 ADD PUSH2 0x463 JUMP JUMPDEST POP PUSH1 0x1 SWAP4 SWAP3 POP POP POP JUMP JUMPDEST PUSH1 0x1 PUSH1 0x1 PUSH1 0xA0 SHL SUB AND PUSH0 SWAP1 DUP2 MSTORE PUSH1 0xF PUSH1 0x20 SWAP1 DUP2 MSTORE PUSH1 0x40 DUP1 DUP4 KECCAK256 DUP4 SWAP1 SSTORE PUSH1 0x10 SWAP1 SWAP2 MSTORE DUP2 KECCAK256 SSTORE PUSH1 0x13 DUP1 SLOAD PUSH1 0xFF NOT AND SWAP1 SSTORE PUSH1 0x1 SWAP1 JUMP JUMPDEST PUSH0 PUSH1 0x20 DUP3 DUP5 SUB SLT ISZERO PUSH2 0x193F JUMPI PUSH0 DUP1 REVERT JUMPDEST DUP2 CALLDATALOAD PUSH1 0x1 PUSH1 0x1 PUSH1 0xE0 SHL SUB NOT DUP2 AND DUP2 EQ PUSH2 0x1109 JUMPI PUSH0 DUP1 REVERT JUMPDEST PUSH0 PUSH1 0x20 DUP3 DUP5 SUB SLT ISZERO PUSH2 0x1966 JUMPI PUSH0 DUP1 REVERT JUMPDEST POP CALLDATALOAD SWAP2 SWAP1 POP JUMP JUMPDEST PUSH1 0x1 PUSH1 0x1 PUSH1 0xA0 SHL SUB SWAP2 SWAP1 SWAP2 AND DUP2 MSTORE PUSH1 0x20 ADD SWAP1 JUMP JUMPDEST DUP1 CALLDATALOAD PUSH1 0xFF DUP2 AND DUP2 EQ PUSH2 0xF39 JUMPI PUSH0 DUP1 REVERT JUMPDEST PUSH1 0x1 PUSH1 0x1 PUSH1 0xA0 SHL SUB DUP2 AND DUP2 EQ PUSH2 0x19A5 JUMPI PUSH0 DUP1 REVERT JUMPDEST POP JUMP JUMPDEST PUSH0 DUP1 PUSH0 DUP1 PUSH1 0x80 DUP6 DUP8 SUB SLT ISZERO PUSH2 0x19BB JUMPI PUSH0 DUP1 REVERT JUMPDEST PUSH2 0x19C4 DUP6 PUSH2 0x1981 JUMP JUMPDEST SWAP4 POP PUSH1 0x20 DUP6 ADD CALLDATALOAD PUSH2 0x19D4 DUP2 PUSH2 0x1991 JUMP JUMPDEST SWAP3 POP PUSH2 0x19E2 PUSH1 0x40 DUP7 ADD PUSH2 0x1981 JUMP JUMPDEST SWAP4 SWAP7 SWAP3 SWAP6 POP SWAP3 SWAP4 PUSH1 0x60 ADD CALLDATALOAD SWAP3 POP POP JUMP JUMPDEST PUSH0 PUSH1 0x20 DUP3 DUP5 SUB SLT ISZERO PUSH2 0x1A02 JUMPI PUSH0 DUP1 REVERT JUMPDEST PUSH2 0x1109 DUP3 PUSH2 0x1981 JUMP JUMPDEST PUSH4 0x4E487B71 PUSH1 0xE0 SHL PUSH0 MSTORE PUSH1 0x21 PUSH1 0x4 MSTORE PUSH1 0x24 PUSH0 REVERT JUMPDEST PUSH1 0x20 DUP2 ADD PUSH1 0x4 DUP4 LT PUSH2 0x1A3F JUMPI PUSH4 0x4E487B71 PUSH1 0xE0 SHL PUSH0 MSTORE PUSH1 0x21 PUSH1 0x4 MSTORE PUSH1 0x24 PUSH0 REVERT JUMPDEST SWAP2 SWAP1 MSTORE SWAP1 JUMP JUMPDEST PUSH0 DUP1 PUSH1 0x40 DUP4 DUP6 SUB SLT ISZERO PUSH2 0x1A56 JUMPI PUSH0 DUP1 REVERT JUMPDEST DUP3 CALLDATALOAD PUSH2 0x1A61 DUP2 PUSH2 0x1991 JUMP JUMPDEST SWAP5 PUSH1 0x20 SWAP4 SWAP1 SWAP4 ADD CALLDATALOAD SWAP4 POP POP POP JUMP JUMPDEST PUSH0 DUP1 PUSH1 0x40 DUP4 DUP6 SUB SLT ISZERO PUSH2 0x1A80 JUMPI PUSH0 DUP1 REVERT JUMPDEST POP POP DUP1 CALLDATALOAD SWAP3 PUSH1 0x20 SWAP1 SWAP2 ADD CALLDATALOAD SWAP2 POP JUMP JUMPDEST PUSH4 0x4E487B71 PUSH1 0xE0 SHL PUSH0 MSTORE PUSH1 0x41 PUSH1 0x4 MSTORE PUSH1 0x24 PUSH0 REVERT JUMPDEST PUSH1 0x40 MLOAD PUSH1 0x1F DUP3 ADD PUSH1 0x1F NOT AND DUP2 ADD PUSH1 0x1 PUSH1 0x1 PUSH1 0x40 SHL SUB DUP2 GT DUP3 DUP3 LT OR ISZERO PUSH2 0x1ACB JUMPI PUSH2 0x1ACB PUSH2 0x1A8F JUMP JUMPDEST PUSH1 0x40 MSTORE SWAP2 SWAP1 POP JUMP JUMPDEST PUSH0 DUP3 PUSH1 0x1F DUP4 ADD SLT PUSH2 0x1AE2 JUMPI PUSH0 DUP1 REVERT JUMPDEST DUP2 CALLDATALOAD PUSH1 0x20 PUSH1 0x1 PUSH1 0x1 PUSH1 0x40 SHL SUB DUP3 GT ISZERO PUSH2 0x1AFD JUMPI PUSH2 0x1AFD PUSH2 0x1A8F JUMP JUMPDEST DUP2 PUSH1 0x5 SHL PUSH2 0x1B0C DUP3 DUP3 ADD PUSH2 0x1AA3 JUMP JUMPDEST SWAP3 DUP4 MSTORE DUP5 DUP2 ADD DUP3 ADD SWAP3 DUP3 DUP2 ADD SWAP1 DUP8 DUP6 GT ISZERO PUSH2 0x1B25 JUMPI PUSH0 DUP1 REVERT JUMPDEST DUP4 DUP8 ADD SWAP3 POP JUMPDEST DUP5 DUP4 LT ISZERO PUSH2 0x1B44 JUMPI DUP3 CALLDATALOAD DUP3 MSTORE SWAP2 DUP4 ADD SWAP2 SWAP1 DUP4 ADD SWAP1 PUSH2 0x1B2B JUMP JUMPDEST SWAP8 SWAP7 POP POP POP POP POP POP POP JUMP JUMPDEST PUSH0 DUP3 PUSH1 0x1F DUP4 ADD SLT PUSH2 0x1B5E JUMPI PUSH0 DUP1 REVERT JUMPDEST DUP2 CALLDATALOAD PUSH1 0x1 PUSH1 0x1 PUSH1 0x40 SHL SUB DUP2 GT ISZERO PUSH2 0x1B77 JUMPI PUSH2 0x1B77 PUSH2 0x1A8F JUMP JUMPDEST PUSH2 0x1B8A PUSH1 0x1F DUP3 ADD PUSH1 0x1F NOT AND PUSH1 0x20 ADD PUSH2 0x1AA3 JUMP JUMPDEST DUP2 DUP2 MSTORE DUP5 PUSH1 0x20 DUP4 DUP7 ADD ADD GT ISZERO PUSH2 0x1B9E JUMPI PUSH0 DUP1 REVERT JUMPDEST DUP2 PUSH1 0x20 DUP6 ADD PUSH1 0x20 DUP4 ADD CALLDATACOPY PUSH0 SWAP2 DUP2 ADD PUSH1 0x20 ADD SWAP2 SWAP1 SWAP2 MSTORE SWAP4 SWAP3 POP POP POP JUMP JUMPDEST PUSH0 DUP1 PUSH0 DUP1 PUSH0 PUSH1 0xA0 DUP7 DUP9 SUB SLT ISZERO PUSH2 0x1BCE JUMPI PUSH0 DUP1 REVERT JUMPDEST DUP6 CALLDATALOAD PUSH2 0x1BD9 DUP2 PUSH2 0x1991 JUMP JUMPDEST SWAP5 POP PUSH1 0x20 DUP7 ADD CALLDATALOAD PUSH2 0x1BE9 DUP2 PUSH2 0x1991 JUMP JUMPDEST SWAP4 POP PUSH1 0x40 DUP7 ADD CALLDATALOAD PUSH1 0x1 PUSH1 0x1 PUSH1 0x40 SHL SUB DUP1 DUP3 GT ISZERO PUSH2 0x1C04 JUMPI PUSH0 DUP1 REVERT JUMPDEST PUSH2 0x1C10 DUP10 DUP4 DUP11 ADD PUSH2 0x1AD3 JUMP JUMPDEST SWAP5 POP PUSH1 0x60 DUP9 ADD CALLDATALOAD SWAP2 POP DUP1 DUP3 GT ISZERO PUSH2 0x1C25 JUMPI PUSH0 DUP1 REVERT JUMPDEST PUSH2 0x1C31 DUP10 DUP4 DUP11 ADD PUSH2 0x1AD3 JUMP JUMPDEST SWAP4 POP PUSH1 0x80 DUP9 ADD CALLDATALOAD SWAP2 POP DUP1 DUP3 GT ISZERO PUSH2 0x1C46 JUMPI PUSH0 DUP1 REVERT JUMPDEST POP PUSH2 0x1C53 DUP9 DUP3 DUP10 ADD PUSH2 0x1B4F JUMP JUMPDEST SWAP2 POP POP SWAP3 SWAP6 POP SWAP3 SWAP6 SWAP1 SWAP4 POP JUMP JUMPDEST DUP1 ISZERO ISZERO DUP2 EQ PUSH2 0x19A5 JUMPI PUSH0 DUP1 REVERT JUMPDEST PUSH0 DUP1 PUSH1 0x40 DUP4 DUP6 SUB SLT ISZERO PUSH2 0x1C7E JUMPI PUSH0 DUP1 REVERT JUMPDEST DUP3 CALLDATALOAD SWAP2 POP PUSH1 0x20 DUP4 ADD CALLDATALOAD PUSH2 0x1C90 DUP2 PUSH2 0x1C60 JUMP JUMPDEST DUP1 SWAP2 POP POP SWAP3 POP SWAP3 SWAP1 POP JUMP JUMPDEST PUSH0 PUSH1 0x20 DUP3 DUP5 SUB SLT ISZERO PUSH2 0x1CAB JUMPI PUSH0 DUP1 REVERT JUMPDEST DUP2 CALLDATALOAD PUSH2 0x1109 DUP2 PUSH2 0x1991 JUMP JUMPDEST PUSH0 DUP1 PUSH0 DUP1 PUSH0 PUSH1 0xA0 DUP7 DUP9 SUB SLT ISZERO PUSH2 0x1CCA JUMPI PUSH0 DUP1 REVERT JUMPDEST DUP6 CALLDATALOAD PUSH2 0x1CD5 DUP2 PUSH2 0x1991 JUMP JUMPDEST SWAP5 POP PUSH1 0x20 DUP7 ADD CALLDATALOAD PUSH2 0x1CE5 DUP2 PUSH2 0x1991 JUMP JUMPDEST SWAP4 POP PUSH1 0x40 DUP7 ADD CALLDATALOAD SWAP3 POP PUSH1 0x60 DUP7 ADD CALLDATALOAD SWAP2 POP PUSH1 0x80 DUP7 ADD CALLDATALOAD PUSH1 0x1 PUSH1 0x1 PUSH1 0x40 SHL SUB DUP2 GT ISZERO PUSH2 0x1D0D JUMPI PUSH0 DUP1 REVERT JUMPDEST PUSH2 0x1C53 DUP9 DUP3 DUP10 ADD PUSH2 0x1B4F JUMP JUMPDEST PUSH0 PUSH1 0x20 DUP3 DUP5 SUB SLT ISZERO PUSH2 0x1D29 JUMPI PUSH0 DUP1 REVERT JUMPDEST DUP2 MLOAD PUSH2 0x1109 DUP2 PUSH2 0x1C60 JUMP JUMPDEST PUSH1 0x20 DUP1 DUP3 MSTORE PUSH1 0x24 SWAP1 DUP3 ADD MSTORE PUSH32 0x57697468647261776E2070726F6A6563742063616E6E6F742062652061637469 PUSH1 0x40 DUP3 ADD MSTORE PUSH4 0x1BDB9959 PUSH1 0xE2 SHL PUSH1 0x60 DUP3 ADD MSTORE PUSH1 0x80 ADD SWAP1 JUMP JUMPDEST PUSH4 0x4E487B71 PUSH1 0xE0 SHL PUSH0 MSTORE PUSH1 0x11 PUSH1 0x4 MSTORE PUSH1 0x24 PUSH0 REVERT JUMPDEST DUP1 DUP3 ADD DUP1 DUP3 GT ISZERO PUSH2 0x3CC JUMPI PUSH2 0x3CC PUSH2 0x1D78 JUMP JUMPDEST PUSH0 PUSH1 0x1 DUP3 ADD PUSH2 0x1DB0 JUMPI PUSH2 0x1DB0 PUSH2 0x1D78 JUMP JUMPDEST POP PUSH1 0x1 ADD SWAP1 JUMP JUMPDEST PUSH0 PUSH1 0x20 DUP3 DUP5 SUB SLT ISZERO PUSH2 0x1DC7 JUMPI PUSH0 DUP1 REVERT JUMPDEST DUP2 MLOAD PUSH2 0x1109 DUP2 PUSH2 0x1991 JUMP JUMPDEST PUSH1 0x20 DUP1 DUP3 MSTORE PUSH1 0x12 SWAP1 DUP3 ADD MSTORE PUSH18 0x70726F6A656374206F776E6572206F6E6C79 PUSH1 0x70 SHL PUSH1 0x40 DUP3 ADD MSTORE PUSH1 0x60 ADD SWAP1 JUMP JUMPDEST PUSH0 PUSH1 0x20 DUP3 DUP5 SUB SLT ISZERO PUSH2 0x1E0E JUMPI PUSH0 DUP1 REVERT JUMPDEST POP MLOAD SWAP2 SWAP1 POP JUMP JUMPDEST PUSH4 0x4E487B71 PUSH1 0xE0 SHL PUSH0 MSTORE PUSH1 0x1 PUSH1 0x4 MSTORE PUSH1 0x24 PUSH0 REVERT JUMPDEST PUSH1 0x20 DUP1 DUP3 MSTORE PUSH1 0x1F SWAP1 DUP3 ADD MSTORE PUSH32 0x63616C6C65642062792070726F6A65637420636F6E7472616374206F6E6C7900 PUSH1 0x40 DUP3 ADD MSTORE PUSH1 0x60 ADD SWAP1 JUMP JUMPDEST PUSH1 0x1 PUSH1 0x1 PUSH1 0xA0 SHL SUB SWAP5 DUP6 AND DUP2 MSTORE SWAP3 SWAP1 SWAP4 AND PUSH1 0x20 DUP4 ADD MSTORE PUSH1 0x40 DUP3 ADD MSTORE PUSH1 0x60 DUP2 ADD SWAP2 SWAP1 SWAP2 MSTORE PUSH1 0xA0 PUSH1 0x80 DUP3 ADD DUP2 SWAP1 MSTORE PUSH0 SWAP1 DUP3 ADD MSTORE PUSH1 0xC0 ADD SWAP1 JUMP JUMPDEST PUSH1 0x20 DUP1 DUP3 MSTORE PUSH1 0x22 SWAP1 DUP3 ADD MSTORE PUSH32 0x4E6F2070726F706F73616C206F7220616C6C6F77616E63652065786861757374 PUSH1 0x40 DUP3 ADD MSTORE PUSH2 0x1959 PUSH1 0xF2 SHL PUSH1 0x60 DUP3 ADD MSTORE PUSH1 0x80 ADD SWAP1 JUMP JUMPDEST DUP2 DUP2 SUB DUP2 DUP2 GT ISZERO PUSH2 0x3CC JUMPI PUSH2 0x3CC PUSH2 0x1D78 JUMP JUMPDEST DUP1 DUP3 MUL DUP2 ISZERO DUP3 DUP3 DIV DUP5 EQ OR PUSH2 0x3CC JUMPI PUSH2 0x3CC PUSH2 0x1D78 JUMP JUMPDEST PUSH0 DUP3 PUSH2 0x1F1D JUMPI PUSH4 0x4E487B71 PUSH1 0xE0 SHL PUSH0 MSTORE PUSH1 0x12 PUSH1 0x4 MSTORE PUSH1 0x24 PUSH0 REVERT JUMPDEST POP DIV SWAP1 JUMP INVALID LOG2 PUSH5 0x6970667358 0x22 SLT KECCAK256 CODECOPY DUP15 JUMPI LOG4 SAR DELEGATECALL LOG4 COINBASE 0x4A DUP2 SWAP10 0x2B SWAP6 SHR DUP4 PUSH22 0x8A7154334C4B0C0EC705017817BE9C8264736F6C6343 STOP ADDMOD EQ STOP CALLER LOG2 PUSH5 0x6970667358 0x22 SLT KECCAK256 0xBC SWAP3 0xC5 0x4F SHL 0xAD 0xCE 0xC6 0xF8 0xF9 MSTORE8 0x4E 0x5D SWAP14 0xD6 PUSH12 0x14712890D79949A542DA736E PUSH23 0x57C88264736F6C63430008140033000000000000000000 "
		},
		"gasEstimates": {
			"creation": {
				"codeDepositCost": "4284800",
				"executionCost": "4945",
				"totalCost": "4289745"
			},
			"external": {
				"getProjects()": "infinite",
				"initiateProject(address,address,address,bool,uint256)": "infinite"
			}
		},
		"methodIdentifiers": {
			"getProjects()": "dcc60128",
			"initiateProject(address,address,address,bool,uint256)": "53d380e5"
		}
	},
	"abi": [
		{
			"inputs": [],
			"name": "getProjects",
			"outputs": [
				{
					"internalType": "address[]",
					"name": "",
					"type": "address[]"
				}
			],
			"stateMutability": "view",
			"type": "function"
		},
		{
			"inputs": [
				{
					"internalType": "contract IERC20",
					"name": "_currency",
					"type": "address"
				},
				{
					"internalType": "address",
					"name": "_controller",
					"type": "address"
				},
				{
					"internalType": "address",
					"name": "_router",
					"type": "address"
				},
				{
					"internalType": "bool",
					"name": "_communityOversight",
					"type": "bool"
				},
				{
					"internalType": "uint256",
					"name": "_releaseEpoch",
					"type": "uint256"
				}
			],
			"name": "initiateProject",
			"outputs": [
				{
					"internalType": "bool",
					"name": "",
					"type": "bool"
				}
			],
			"stateMutability": "nonpayable",
			"type": "function"
		}
	]
}