{
	"data": {
		"bytecode": {
			"linkReferences": {},
			"object": "608060405234801561000f575f80fd5b506100193361001e565b61006d565b5f80546001600160a01b038381166001600160a01b0319831681178455604051919092169283917f8be0079c531659141344cd1fd0a4f28419497f9722a3daafe3b4186f6b6457e09190a35050565b610a678061007a5f395ff3fe608060405234801561000f575f80fd5b50600436106100a2575f3560e01c80630af95750146100a657806331678cf6146100ce57806341b8cc6f146100e15780634789561e146100f45780635c2fb156146101075780636c301b941461011a578063715018a61461012d57806372e3dd77146101375780638da5cb5b1461014a578063c57d85b414610162578063f2fde38b14610175578063f55bdf8f14610188575b5f80fd5b6100b96100b43660046108b8565b61019b565b60405190151581526020015b60405180910390f35b6100b96100dc3660046108d3565b6102a8565b6100b96100ef3660046108b8565b6103b6565b6100b96101023660046108b8565b61042b565b6100b9610115366004610917565b610475565b6100b96101283660046108d3565b610592565b610135610656565b005b6100b96101453660046108b8565b610669565b5f546001600160a01b03166040516100c59190610967565b6100b961017036600461097b565b6106b3565b6101356101833660046108b8565b610708565b6100b96101963660046109ad565b610781565b5f815f819050336001600160a01b0316816001600160a01b031663e6d685956040518163ffffffff1660e01b8152600401602060405180830381865afa1580156101e7573d5f803e3d5ffd5b505050506040513d601f19601f8201168201806040525081019061020b91906109d7565b6001600160a01b03161461023a5760405162461bcd60e51b8152600401610231906109f2565b60405180910390fd5b5f849050806001600160a01b0316632a82cd876040518163ffffffff1660e01b81526004016020604051808303815f875af115801561027b573d5f803e3d5ffd5b505050506040513d601f19601f8201168201806040525081019061029f9190610a16565b95945050505050565b5f825f819050336001600160a01b0316816001600160a01b031663e6d685956040518163ffffffff1660e01b8152600401602060405180830381865afa1580156102f4573d5f803e3d5ffd5b505050506040513d601f19601f8201168201806040525081019061031891906109d7565b6001600160a01b03161461033e5760405162461bcd60e51b8152600401610231906109f2565b604051634fb2e45d60e01b815285906001600160a01b03821690634fb2e45d9061036c908890600401610967565b6020604051808303815f875af1158015610388573d5f803e3d5ffd5b505050506040513d601f19601f820116820180604052508101906103ac9190610a16565b9695505050505050565b5f6103bf6107fc565b5f829050806001600160a01b031663fb166f916040518163ffffffff1660e01b81526004016020604051808303815f875af1158015610400573d5f803e3d5ffd5b505050506040513d601f19601f820116820180604052508101906104249190610a16565b9392505050565b5f6104346107fc565b5f829050806001600160a01b031663c8a629686040518163ffffffff1660e01b81526004016020604051808303815f875af1158015610400573d5f803e3d5ffd5b5f845f819050336001600160a01b0316816001600160a01b031663e6d685956040518163ffffffff1660e01b8152600401602060405180830381865afa1580156104c1573d5f803e3d5ffd5b505050506040513d601f19601f820116820180604052508101906104e591906109d7565b6001600160a01b03161461050b5760405162461bcd60e51b8152600401610231906109f2565b6040516320eaac7d60e01b81526001600160a01b0387811660048301526024820187905285151560448301528891908216906320eaac7d906064016020604051808303815f875af1158015610562573d5f803e3d5ffd5b505050506040513d601f19601f820116820180604052508101906105869190610a16565b98975050505050505050565b5f825f819050336001600160a01b0316816001600160a01b031663e6d685956040518163ffffffff1660e01b8152600401602060405180830381865afa1580156105de573d5f803e3d5ffd5b505050506040513d601f19601f8201168201806040525081019061060291906109d7565b6001600160a01b0316146106285760405162461bcd60e51b8152600401610231906109f2565b6040516345591a5b60e11b815285906001600160a01b03821690638ab234b69061036c908890600401610967565b61065e6107fc565b6106675f610855565b565b5f6106726107fc565b5f829050806001600160a01b031663244c60b56040518163ffffffff1660e01b81526004016020604051808303815f875af1158015610400573d5f803e3d5ffd5b5f6106bc6107fc565b60405162ecb5bb60e71b8152600481018490526024810183905284906001600160a01b0382169063765add80906044016020604051808303815f875af115801561027b573d5f803e3d5ffd5b6107106107fc565b6001600160a01b0381166107755760405162461bcd60e51b815260206004820152602660248201527f4f776e61626c653a206e6577206f776e657220697320746865207a65726f206160448201526564647265737360d01b6064820152608401610231565b61077e81610855565b50565b5f61078a6107fc565b604051631376bb4f60e31b81526004810183905283906001600160a01b03821690639bb5da78906024016020604051808303815f875af11580156107d0573d5f803e3d5ffd5b505050506040513d601f19601f820116820180604052508101906107f49190610a16565b949350505050565b5f546001600160a01b031633146106675760405162461bcd60e51b815260206004820181905260248201527f4f776e61626c653a2063616c6c6572206973206e6f7420746865206f776e65726044820152606401610231565b5f80546001600160a01b038381166001600160a01b0319831681178455604051919092169283917f8be0079c531659141344cd1fd0a4f28419497f9722a3daafe3b4186f6b6457e09190a35050565b6001600160a01b038116811461077e575f80fd5b5f602082840312156108c8575f80fd5b8135610424816108a4565b5f80604083850312156108e4575f80fd5b82356108ef816108a4565b915060208301356108ff816108a4565b809150509250929050565b801515811461077e575f80fd5b5f805f806080858703121561092a575f80fd5b8435610935816108a4565b93506020850135610945816108a4565b925060408501359150606085013561095c8161090a565b939692955090935050565b6001600160a01b0391909116815260200190565b5f805f6060848603121561098d575f80fd5b8335610998816108a4565b95602085013595506040909401359392505050565b5f80604083850312156109be575f80fd5b82356109c9816108a4565b946020939093013593505050565b5f602082840312156109e7575f80fd5b8151610424816108a4565b6020808252600a908201526927b7363c9037bbb732b960b11b604082015260600190565b5f60208284031215610a26575f80fd5b81516104248161090a56fea26469706673582212209a976e3629cb33565587809901eaec4ab72c256413c3bf438d533d658f12ce7f64736f6c63430008140033",
			"opcodes": "PUSH1 0x80 PUSH1 0x40 MSTORE CALLVALUE DUP1 ISZERO PUSH2 0xF JUMPI PUSH0 DUP1 REVERT JUMPDEST POP PUSH2 0x19 CALLER PUSH2 0x1E JUMP JUMPDEST PUSH2 0x6D JUMP JUMPDEST PUSH0 DUP1 SLOAD PUSH1 0x1 PUSH1 0x1 PUSH1 0xA0 SHL SUB DUP4 DUP2 AND PUSH1 0x1 PUSH1 0x1 PUSH1 0xA0 SHL SUB NOT DUP4 AND DUP2 OR DUP5 SSTORE PUSH1 0x40 MLOAD SWAP2 SWAP1 SWAP3 AND SWAP3 DUP4 SWAP2 PUSH32 0x8BE0079C531659141344CD1FD0A4F28419497F9722A3DAAFE3B4186F6B6457E0 SWAP2 SWAP1 LOG3 POP POP JUMP JUMPDEST PUSH2 0xA67 DUP1 PUSH2 0x7A PUSH0 CODECOPY PUSH0 RETURN INVALID PUSH1 0x80 PUSH1 0x40 MSTORE CALLVALUE DUP1 ISZERO PUSH2 0xF JUMPI PUSH0 DUP1 REVERT JUMPDEST POP PUSH1 0x4 CALLDATASIZE LT PUSH2 0xA2 JUMPI PUSH0 CALLDATALOAD PUSH1 0xE0 SHR DUP1 PUSH4 0xAF95750 EQ PUSH2 0xA6 JUMPI DUP1 PUSH4 0x31678CF6 EQ PUSH2 0xCE JUMPI DUP1 PUSH4 0x41B8CC6F EQ PUSH2 0xE1 JUMPI DUP1 PUSH4 0x4789561E EQ PUSH2 0xF4 JUMPI DUP1 PUSH4 0x5C2FB156 EQ PUSH2 0x107 JUMPI DUP1 PUSH4 0x6C301B94 EQ PUSH2 0x11A JUMPI DUP1 PUSH4 0x715018A6 EQ PUSH2 0x12D JUMPI DUP1 PUSH4 0x72E3DD77 EQ PUSH2 0x137 JUMPI DUP1 PUSH4 0x8DA5CB5B EQ PUSH2 0x14A JUMPI DUP1 PUSH4 0xC57D85B4 EQ PUSH2 0x162 JUMPI DUP1 PUSH4 0xF2FDE38B EQ PUSH2 0x175 JUMPI DUP1 PUSH4 0xF55BDF8F EQ PUSH2 0x188 JUMPI JUMPDEST PUSH0 DUP1 REVERT JUMPDEST PUSH2 0xB9 PUSH2 0xB4 CALLDATASIZE PUSH1 0x4 PUSH2 0x8B8 JUMP JUMPDEST PUSH2 0x19B JUMP JUMPDEST PUSH1 0x40 MLOAD SWAP1 ISZERO ISZERO DUP2 MSTORE PUSH1 0x20 ADD JUMPDEST PUSH1 0x40 MLOAD DUP1 SWAP2 SUB SWAP1 RETURN JUMPDEST PUSH2 0xB9 PUSH2 0xDC CALLDATASIZE PUSH1 0x4 PUSH2 0x8D3 JUMP JUMPDEST PUSH2 0x2A8 JUMP JUMPDEST PUSH2 0xB9 PUSH2 0xEF CALLDATASIZE PUSH1 0x4 PUSH2 0x8B8 JUMP JUMPDEST PUSH2 0x3B6 JUMP JUMPDEST PUSH2 0xB9 PUSH2 0x102 CALLDATASIZE PUSH1 0x4 PUSH2 0x8B8 JUMP JUMPDEST PUSH2 0x42B JUMP JUMPDEST PUSH2 0xB9 PUSH2 0x115 CALLDATASIZE PUSH1 0x4 PUSH2 0x917 JUMP JUMPDEST PUSH2 0x475 JUMP JUMPDEST PUSH2 0xB9 PUSH2 0x128 CALLDATASIZE PUSH1 0x4 PUSH2 0x8D3 JUMP JUMPDEST PUSH2 0x592 JUMP JUMPDEST PUSH2 0x135 PUSH2 0x656 JUMP JUMPDEST STOP JUMPDEST PUSH2 0xB9 PUSH2 0x145 CALLDATASIZE PUSH1 0x4 PUSH2 0x8B8 JUMP JUMPDEST PUSH2 0x669 JUMP JUMPDEST PUSH0 SLOAD PUSH1 0x1 PUSH1 0x1 PUSH1 0xA0 SHL SUB AND PUSH1 0x40 MLOAD PUSH2 0xC5 SWAP2 SWAP1 PUSH2 0x967 JUMP JUMPDEST PUSH2 0xB9 PUSH2 0x170 CALLDATASIZE PUSH1 0x4 PUSH2 0x97B JUMP JUMPDEST PUSH2 0x6B3 JUMP JUMPDEST PUSH2 0x135 PUSH2 0x183 CALLDATASIZE PUSH1 0x4 PUSH2 0x8B8 JUMP JUMPDEST PUSH2 0x708 JUMP JUMPDEST PUSH2 0xB9 PUSH2 0x196 CALLDATASIZE PUSH1 0x4 PUSH2 0x9AD JUMP JUMPDEST PUSH2 0x781 JUMP JUMPDEST PUSH0 DUP2 PUSH0 DUP2 SWAP1 POP CALLER PUSH1 0x1 PUSH1 0x1 PUSH1 0xA0 SHL SUB AND DUP2 PUSH1 0x1 PUSH1 0x1 PUSH1 0xA0 SHL SUB AND PUSH4 0xE6D68595 PUSH1 0x40 MLOAD DUP2 PUSH4 0xFFFFFFFF AND PUSH1 0xE0 SHL DUP2 MSTORE PUSH1 0x4 ADD PUSH1 0x20 PUSH1 0x40 MLOAD DUP1 DUP4 SUB DUP2 DUP7 GAS STATICCALL ISZERO DUP1 ISZERO PUSH2 0x1E7 JUMPI RETURNDATASIZE PUSH0 DUP1 RETURNDATACOPY RETURNDATASIZE PUSH0 REVERT JUMPDEST POP POP POP POP PUSH1 0x40 MLOAD RETURNDATASIZE PUSH1 0x1F NOT PUSH1 0x1F DUP3 ADD AND DUP3 ADD DUP1 PUSH1 0x40 MSTORE POP DUP2 ADD SWAP1 PUSH2 0x20B SWAP2 SWAP1 PUSH2 0x9D7 JUMP JUMPDEST PUSH1 0x1 PUSH1 0x1 PUSH1 0xA0 SHL SUB AND EQ PUSH2 0x23A JUMPI PUSH1 0x40 MLOAD PUSH3 0x461BCD PUSH1 0xE5 SHL DUP2 MSTORE PUSH1 0x4 ADD PUSH2 0x231 SWAP1 PUSH2 0x9F2 JUMP JUMPDEST PUSH1 0x40 MLOAD DUP1 SWAP2 SUB SWAP1 REVERT JUMPDEST PUSH0 DUP5 SWAP1 POP DUP1 PUSH1 0x1 PUSH1 0x1 PUSH1 0xA0 SHL SUB AND PUSH4 0x2A82CD87 PUSH1 0x40 MLOAD DUP2 PUSH4 0xFFFFFFFF AND PUSH1 0xE0 SHL DUP2 MSTORE PUSH1 0x4 ADD PUSH1 0x20 PUSH1 0x40 MLOAD DUP1 DUP4 SUB DUP2 PUSH0 DUP8 GAS CALL ISZERO DUP1 ISZERO PUSH2 0x27B JUMPI RETURNDATASIZE PUSH0 DUP1 RETURNDATACOPY RETURNDATASIZE PUSH0 REVERT JUMPDEST POP POP POP POP PUSH1 0x40 MLOAD RETURNDATASIZE PUSH1 0x1F NOT PUSH1 0x1F DUP3 ADD AND DUP3 ADD DUP1 PUSH1 0x40 MSTORE POP DUP2 ADD SWAP1 PUSH2 0x29F SWAP2 SWAP1 PUSH2 0xA16 JUMP JUMPDEST SWAP6 SWAP5 POP POP POP POP POP JUMP JUMPDEST PUSH0 DUP3 PUSH0 DUP2 SWAP1 POP CALLER PUSH1 0x1 PUSH1 0x1 PUSH1 0xA0 SHL SUB AND DUP2 PUSH1 0x1 PUSH1 0x1 PUSH1 0xA0 SHL SUB AND PUSH4 0xE6D68595 PUSH1 0x40 MLOAD DUP2 PUSH4 0xFFFFFFFF AND PUSH1 0xE0 SHL DUP2 MSTORE PUSH1 0x4 ADD PUSH1 0x20 PUSH1 0x40 MLOAD DUP1 DUP4 SUB DUP2 DUP7 GAS STATICCALL ISZERO DUP1 ISZERO PUSH2 0x2F4 JUMPI RETURNDATASIZE PUSH0 DUP1 RETURNDATACOPY RETURNDATASIZE PUSH0 REVERT JUMPDEST POP POP POP POP PUSH1 0x40 MLOAD RETURNDATASIZE PUSH1 0x1F NOT PUSH1 0x1F DUP3 ADD AND DUP3 ADD DUP1 PUSH1 0x40 MSTORE POP DUP2 ADD SWAP1 PUSH2 0x318 SWAP2 SWAP1 PUSH2 0x9D7 JUMP JUMPDEST PUSH1 0x1 PUSH1 0x1 PUSH1 0xA0 SHL SUB AND EQ PUSH2 0x33E JUMPI PUSH1 0x40 MLOAD PUSH3 0x461BCD PUSH1 0xE5 SHL DUP2 MSTORE PUSH1 0x4 ADD PUSH2 0x231 SWAP1 PUSH2 0x9F2 JUMP JUMPDEST PUSH1 0x40 MLOAD PUSH4 0x4FB2E45D PUSH1 0xE0 SHL DUP2 MSTORE DUP6 SWAP1 PUSH1 0x1 PUSH1 0x1 PUSH1 0xA0 SHL SUB DUP3 AND SWAP1 PUSH4 0x4FB2E45D SWAP1 PUSH2 0x36C SWAP1 DUP9 SWAP1 PUSH1 0x4 ADD PUSH2 0x967 JUMP JUMPDEST PUSH1 0x20 PUSH1 0x40 MLOAD DUP1 DUP4 SUB DUP2 PUSH0 DUP8 GAS CALL ISZERO DUP1 ISZERO PUSH2 0x388 JUMPI RETURNDATASIZE PUSH0 DUP1 RETURNDATACOPY RETURNDATASIZE PUSH0 REVERT JUMPDEST POP POP POP POP PUSH1 0x40 MLOAD RETURNDATASIZE PUSH1 0x1F NOT PUSH1 0x1F DUP3 ADD AND DUP3 ADD DUP1 PUSH1 0x40 MSTORE POP DUP2 ADD SWAP1 PUSH2 0x3AC SWAP2 SWAP1 PUSH2 0xA16 JUMP JUMPDEST SWAP7 SWAP6 POP POP POP POP POP POP JUMP JUMPDEST PUSH0 PUSH2 0x3BF PUSH2 0x7FC JUMP JUMPDEST PUSH0 DUP3 SWAP1 POP DUP1 PUSH1 0x1 PUSH1 0x1 PUSH1 0xA0 SHL SUB AND PUSH4 0xFB166F91 PUSH1 0x40 MLOAD DUP2 PUSH4 0xFFFFFFFF AND PUSH1 0xE0 SHL DUP2 MSTORE PUSH1 0x4 ADD PUSH1 0x20 PUSH1 0x40 MLOAD DUP1 DUP4 SUB DUP2 PUSH0 DUP8 GAS CALL ISZERO DUP1 ISZERO PUSH2 0x400 JUMPI RETURNDATASIZE PUSH0 DUP1 RETURNDATACOPY RETURNDATASIZE PUSH0 REVERT JUMPDEST POP POP POP POP PUSH1 0x40 MLOAD RETURNDATASIZE PUSH1 0x1F NOT PUSH1 0x1F DUP3 ADD AND DUP3 ADD DUP1 PUSH1 0x40 MSTORE POP DUP2 ADD SWAP1 PUSH2 0x424 SWAP2 SWAP1 PUSH2 0xA16 JUMP JUMPDEST SWAP4 SWAP3 POP POP POP JUMP JUMPDEST PUSH0 PUSH2 0x434 PUSH2 0x7FC JUMP JUMPDEST PUSH0 DUP3 SWAP1 POP DUP1 PUSH1 0x1 PUSH1 0x1 PUSH1 0xA0 SHL SUB AND PUSH4 0xC8A62968 PUSH1 0x40 MLOAD DUP2 PUSH4 0xFFFFFFFF AND PUSH1 0xE0 SHL DUP2 MSTORE PUSH1 0x4 ADD PUSH1 0x20 PUSH1 0x40 MLOAD DUP1 DUP4 SUB DUP2 PUSH0 DUP8 GAS CALL ISZERO DUP1 ISZERO PUSH2 0x400 JUMPI RETURNDATASIZE PUSH0 DUP1 RETURNDATACOPY RETURNDATASIZE PUSH0 REVERT JUMPDEST PUSH0 DUP5 PUSH0 DUP2 SWAP1 POP CALLER PUSH1 0x1 PUSH1 0x1 PUSH1 0xA0 SHL SUB AND DUP2 PUSH1 0x1 PUSH1 0x1 PUSH1 0xA0 SHL SUB AND PUSH4 0xE6D68595 PUSH1 0x40 MLOAD DUP2 PUSH4 0xFFFFFFFF AND PUSH1 0xE0 SHL DUP2 MSTORE PUSH1 0x4 ADD PUSH1 0x20 PUSH1 0x40 MLOAD DUP1 DUP4 SUB DUP2 DUP7 GAS STATICCALL ISZERO DUP1 ISZERO PUSH2 0x4C1 JUMPI RETURNDATASIZE PUSH0 DUP1 RETURNDATACOPY RETURNDATASIZE PUSH0 REVERT JUMPDEST POP POP POP POP PUSH1 0x40 MLOAD RETURNDATASIZE PUSH1 0x1F NOT PUSH1 0x1F DUP3 ADD AND DUP3 ADD DUP1 PUSH1 0x40 MSTORE POP DUP2 ADD SWAP1 PUSH2 0x4E5 SWAP2 SWAP1 PUSH2 0x9D7 JUMP JUMPDEST PUSH1 0x1 PUSH1 0x1 PUSH1 0xA0 SHL SUB AND EQ PUSH2 0x50B JUMPI PUSH1 0x40 MLOAD PUSH3 0x461BCD PUSH1 0xE5 SHL DUP2 MSTORE PUSH1 0x4 ADD PUSH2 0x231 SWAP1 PUSH2 0x9F2 JUMP JUMPDEST PUSH1 0x40 MLOAD PUSH4 0x20EAAC7D PUSH1 0xE0 SHL DUP2 MSTORE PUSH1 0x1 PUSH1 0x1 PUSH1 0xA0 SHL SUB DUP8 DUP2 AND PUSH1 0x4 DUP4 ADD MSTORE PUSH1 0x24 DUP3 ADD DUP8 SWAP1 MSTORE DUP6 ISZERO ISZERO PUSH1 0x44 DUP4 ADD MSTORE DUP9 SWAP2 SWAP1 DUP3 AND SWAP1 PUSH4 0x20EAAC7D SWAP1 PUSH1 0x64 ADD PUSH1 0x20 PUSH1 0x40 MLOAD DUP1 DUP4 SUB DUP2 PUSH0 DUP8 GAS CALL ISZERO DUP1 ISZERO PUSH2 0x562 JUMPI RETURNDATASIZE PUSH0 DUP1 RETURNDATACOPY RETURNDATASIZE PUSH0 REVERT JUMPDEST POP POP POP POP PUSH1 0x40 MLOAD RETURNDATASIZE PUSH1 0x1F NOT PUSH1 0x1F DUP3 ADD AND DUP3 ADD DUP1 PUSH1 0x40 MSTORE POP DUP2 ADD SWAP1 PUSH2 0x586 SWAP2 SWAP1 PUSH2 0xA16 JUMP JUMPDEST SWAP9 SWAP8 POP POP POP POP POP POP POP POP JUMP JUMPDEST PUSH0 DUP3 PUSH0 DUP2 SWAP1 POP CALLER PUSH1 0x1 PUSH1 0x1 PUSH1 0xA0 SHL SUB AND DUP2 PUSH1 0x1 PUSH1 0x1 PUSH1 0xA0 SHL SUB AND PUSH4 0xE6D68595 PUSH1 0x40 MLOAD DUP2 PUSH4 0xFFFFFFFF AND PUSH1 0xE0 SHL DUP2 MSTORE PUSH1 0x4 ADD PUSH1 0x20 PUSH1 0x40 MLOAD DUP1 DUP4 SUB DUP2 DUP7 GAS STATICCALL ISZERO DUP1 ISZERO PUSH2 0x5DE JUMPI RETURNDATASIZE PUSH0 DUP1 RETURNDATACOPY RETURNDATASIZE PUSH0 REVERT JUMPDEST POP POP POP POP PUSH1 0x40 MLOAD RETURNDATASIZE PUSH1 0x1F NOT PUSH1 0x1F DUP3 ADD AND DUP3 ADD DUP1 PUSH1 0x40 MSTORE POP DUP2 ADD SWAP1 PUSH2 0x602 SWAP2 SWAP1 PUSH2 0x9D7 JUMP JUMPDEST PUSH1 0x1 PUSH1 0x1 PUSH1 0xA0 SHL SUB AND EQ PUSH2 0x628 JUMPI PUSH1 0x40 MLOAD PUSH3 0x461BCD PUSH1 0xE5 SHL DUP2 MSTORE PUSH1 0x4 ADD PUSH2 0x231 SWAP1 PUSH2 0x9F2 JUMP JUMPDEST PUSH1 0x40 MLOAD PUSH4 0x45591A5B PUSH1 0xE1 SHL DUP2 MSTORE DUP6 SWAP1 PUSH1 0x1 PUSH1 0x1 PUSH1 0xA0 SHL SUB DUP3 AND SWAP1 PUSH4 0x8AB234B6 SWAP1 PUSH2 0x36C SWAP1 DUP9 SWAP1 PUSH1 0x4 ADD PUSH2 0x967 JUMP JUMPDEST PUSH2 0x65E PUSH2 0x7FC JUMP JUMPDEST PUSH2 0x667 PUSH0 PUSH2 0x855 JUMP JUMPDEST JUMP JUMPDEST PUSH0 PUSH2 0x672 PUSH2 0x7FC JUMP JUMPDEST PUSH0 DUP3 SWAP1 POP DUP1 PUSH1 0x1 PUSH1 0x1 PUSH1 0xA0 SHL SUB AND PUSH4 0x244C60B5 PUSH1 0x40 MLOAD DUP2 PUSH4 0xFFFFFFFF AND PUSH1 0xE0 SHL DUP2 MSTORE PUSH1 0x4 ADD PUSH1 0x20 PUSH1 0x40 MLOAD DUP1 DUP4 SUB DUP2 PUSH0 DUP8 GAS CALL ISZERO DUP1 ISZERO PUSH2 0x400 JUMPI RETURNDATASIZE PUSH0 DUP1 RETURNDATACOPY RETURNDATASIZE PUSH0 REVERT JUMPDEST PUSH0 PUSH2 0x6BC PUSH2 0x7FC JUMP JUMPDEST PUSH1 0x40 MLOAD PUSH3 0xECB5BB PUSH1 0xE7 SHL DUP2 MSTORE PUSH1 0x4 DUP2 ADD DUP5 SWAP1 MSTORE PUSH1 0x24 DUP2 ADD DUP4 SWAP1 MSTORE DUP5 SWAP1 PUSH1 0x1 PUSH1 0x1 PUSH1 0xA0 SHL SUB DUP3 AND SWAP1 PUSH4 0x765ADD80 SWAP1 PUSH1 0x44 ADD PUSH1 0x20 PUSH1 0x40 MLOAD DUP1 DUP4 SUB DUP2 PUSH0 DUP8 GAS CALL ISZERO DUP1 ISZERO PUSH2 0x27B JUMPI RETURNDATASIZE PUSH0 DUP1 RETURNDATACOPY RETURNDATASIZE PUSH0 REVERT JUMPDEST PUSH2 0x710 PUSH2 0x7FC JUMP JUMPDEST PUSH1 0x1 PUSH1 0x1 PUSH1 0xA0 SHL SUB DUP2 AND PUSH2 0x775 JUMPI PUSH1 0x40 MLOAD PUSH3 0x461BCD PUSH1 0xE5 SHL DUP2 MSTORE PUSH1 0x20 PUSH1 0x4 DUP3 ADD MSTORE PUSH1 0x26 PUSH1 0x24 DUP3 ADD MSTORE PUSH32 0x4F776E61626C653A206E6577206F776E657220697320746865207A65726F2061 PUSH1 0x44 DUP3 ADD MSTORE PUSH6 0x646472657373 PUSH1 0xD0 SHL PUSH1 0x64 DUP3 ADD MSTORE PUSH1 0x84 ADD PUSH2 0x231 JUMP JUMPDEST PUSH2 0x77E DUP2 PUSH2 0x855 JUMP JUMPDEST POP JUMP JUMPDEST PUSH0 PUSH2 0x78A PUSH2 0x7FC JUMP JUMPDEST PUSH1 0x40 MLOAD PUSH4 0x1376BB4F PUSH1 0xE3 SHL DUP2 MSTORE PUSH1 0x4 DUP2 ADD DUP4 SWAP1 MSTORE DUP4 SWAP1 PUSH1 0x1 PUSH1 0x1 PUSH1 0xA0 SHL SUB DUP3 AND SWAP1 PUSH4 0x9BB5DA78 SWAP1 PUSH1 0x24 ADD PUSH1 0x20 PUSH1 0x40 MLOAD DUP1 DUP4 SUB DUP2 PUSH0 DUP8 GAS CALL ISZERO DUP1 ISZERO PUSH2 0x7D0 JUMPI RETURNDATASIZE PUSH0 DUP1 RETURNDATACOPY RETURNDATASIZE PUSH0 REVERT JUMPDEST POP POP POP POP PUSH1 0x40 MLOAD RETURNDATASIZE PUSH1 0x1F NOT PUSH1 0x1F DUP3 ADD AND DUP3 ADD DUP1 PUSH1 0x40 MSTORE POP DUP2 ADD SWAP1 PUSH2 0x7F4 SWAP2 SWAP1 PUSH2 0xA16 JUMP JUMPDEST SWAP5 SWAP4 POP POP POP POP JUMP JUMPDEST PUSH0 SLOAD PUSH1 0x1 PUSH1 0x1 PUSH1 0xA0 SHL SUB AND CALLER EQ PUSH2 0x667 JUMPI PUSH1 0x40 MLOAD PUSH3 0x461BCD PUSH1 0xE5 SHL DUP2 MSTORE PUSH1 0x20 PUSH1 0x4 DUP3 ADD DUP2 SWAP1 MSTORE PUSH1 0x24 DUP3 ADD MSTORE PUSH32 0x4F776E61626C653A2063616C6C6572206973206E6F7420746865206F776E6572 PUSH1 0x44 DUP3 ADD MSTORE PUSH1 0x64 ADD PUSH2 0x231 JUMP JUMPDEST PUSH0 DUP1 SLOAD PUSH1 0x1 PUSH1 0x1 PUSH1 0xA0 SHL SUB DUP4 DUP2 AND PUSH1 0x1 PUSH1 0x1 PUSH1 0xA0 SHL SUB NOT DUP4 AND DUP2 OR DUP5 SSTORE PUSH1 0x40 MLOAD SWAP2 SWAP1 SWAP3 AND SWAP3 DUP4 SWAP2 PUSH32 0x8BE0079C531659141344CD1FD0A4F28419497F9722A3DAAFE3B4186F6B6457E0 SWAP2 SWAP1 LOG3 POP POP JUMP JUMPDEST PUSH1 0x1 PUSH1 0x1 PUSH1 0xA0 SHL SUB DUP2 AND DUP2 EQ PUSH2 0x77E JUMPI PUSH0 DUP1 REVERT JUMPDEST PUSH0 PUSH1 0x20 DUP3 DUP5 SUB SLT ISZERO PUSH2 0x8C8 JUMPI PUSH0 DUP1 REVERT JUMPDEST DUP2 CALLDATALOAD PUSH2 0x424 DUP2 PUSH2 0x8A4 JUMP JUMPDEST PUSH0 DUP1 PUSH1 0x40 DUP4 DUP6 SUB SLT ISZERO PUSH2 0x8E4 JUMPI PUSH0 DUP1 REVERT JUMPDEST DUP3 CALLDATALOAD PUSH2 0x8EF DUP2 PUSH2 0x8A4 JUMP JUMPDEST SWAP2 POP PUSH1 0x20 DUP4 ADD CALLDATALOAD PUSH2 0x8FF DUP2 PUSH2 0x8A4 JUMP JUMPDEST DUP1 SWAP2 POP POP SWAP3 POP SWAP3 SWAP1 POP JUMP JUMPDEST DUP1 ISZERO ISZERO DUP2 EQ PUSH2 0x77E JUMPI PUSH0 DUP1 REVERT JUMPDEST PUSH0 DUP1 PUSH0 DUP1 PUSH1 0x80 DUP6 DUP8 SUB SLT ISZERO PUSH2 0x92A JUMPI PUSH0 DUP1 REVERT JUMPDEST DUP5 CALLDATALOAD PUSH2 0x935 DUP2 PUSH2 0x8A4 JUMP JUMPDEST SWAP4 POP PUSH1 0x20 DUP6 ADD CALLDATALOAD PUSH2 0x945 DUP2 PUSH2 0x8A4 JUMP JUMPDEST SWAP3 POP PUSH1 0x40 DUP6 ADD CALLDATALOAD SWAP2 POP PUSH1 0x60 DUP6 ADD CALLDATALOAD PUSH2 0x95C DUP2 PUSH2 0x90A JUMP JUMPDEST SWAP4 SWAP7 SWAP3 SWAP6 POP SWAP1 SWAP4 POP POP JUMP JUMPDEST PUSH1 0x1 PUSH1 0x1 PUSH1 0xA0 SHL SUB SWAP2 SWAP1 SWAP2 AND DUP2 MSTORE PUSH1 0x20 ADD SWAP1 JUMP JUMPDEST PUSH0 DUP1 PUSH0 PUSH1 0x60 DUP5 DUP7 SUB SLT ISZERO PUSH2 0x98D JUMPI PUSH0 DUP1 REVERT JUMPDEST DUP4 CALLDATALOAD PUSH2 0x998 DUP2 PUSH2 0x8A4 JUMP JUMPDEST SWAP6 PUSH1 0x20 DUP6 ADD CALLDATALOAD SWAP6 POP PUSH1 0x40 SWAP1 SWAP5 ADD CALLDATALOAD SWAP4 SWAP3 POP POP POP JUMP JUMPDEST PUSH0 DUP1 PUSH1 0x40 DUP4 DUP6 SUB SLT ISZERO PUSH2 0x9BE JUMPI PUSH0 DUP1 REVERT JUMPDEST DUP3 CALLDATALOAD PUSH2 0x9C9 DUP2 PUSH2 0x8A4 JUMP JUMPDEST SWAP5 PUSH1 0x20 SWAP4 SWAP1 SWAP4 ADD CALLDATALOAD SWAP4 POP POP POP JUMP JUMPDEST PUSH0 PUSH1 0x20 DUP3 DUP5 SUB SLT ISZERO PUSH2 0x9E7 JUMPI PUSH0 DUP1 REVERT JUMPDEST DUP2 MLOAD PUSH2 0x424 DUP2 PUSH2 0x8A4 JUMP JUMPDEST PUSH1 0x20 DUP1 DUP3 MSTORE PUSH1 0xA SWAP1 DUP3 ADD MSTORE PUSH10 0x27B7363C9037BBB732B9 PUSH1 0xB1 SHL PUSH1 0x40 DUP3 ADD MSTORE PUSH1 0x60 ADD SWAP1 JUMP JUMPDEST PUSH0 PUSH1 0x20 DUP3 DUP5 SUB SLT ISZERO PUSH2 0xA26 JUMPI PUSH0 DUP1 REVERT JUMPDEST DUP2 MLOAD PUSH2 0x424 DUP2 PUSH2 0x90A JUMP INVALID LOG2 PUSH5 0x6970667358 0x22 SLT KECCAK256 SWAP11 SWAP8 PUSH15 0x3629CB33565587809901EAEC4AB72C 0x25 PUSH5 0x13C3BF438D MSTORE8 RETURNDATASIZE PUSH6 0x8F12CE7F6473 PUSH16 0x6C634300081400330000000000000000 "
		},
		"gasEstimates": {
			"creation": {
				"codeDepositCost": "532600",
				"executionCost": "26406",
				"totalCost": "559006"
			},
			"external": {
				"addProjectCurrency(address,address)": "infinite",
				"blockProject(address)": "infinite",
				"deactivateProject(address)": "infinite",
				"owner()": "2495",
				"refundProject(address)": "infinite",
				"renounceOwnership()": "infinite",
				"setProjectProposalDeadline(address,uint256,uint256)": "infinite",
				"setProjectReleaseTime(address,uint256)": "infinite",
				"transferOwner(address,address)": "infinite",
				"transferOwnership(address)": "infinite",
				"unblockProject(address)": "infinite",
				"withdrawProjectBalance(address,address,uint256,bool)": "infinite"
			}
		},
		"methodIdentifiers": {
			"addProjectCurrency(address,address)": "6c301b94",
			"blockProject(address)": "4789561e",
			"deactivateProject(address)": "0af95750",
			"owner()": "8da5cb5b",
			"refundProject(address)": "72e3dd77",
			"renounceOwnership()": "715018a6",
			"setProjectProposalDeadline(address,uint256,uint256)": "c57d85b4",
			"setProjectReleaseTime(address,uint256)": "f55bdf8f",
			"transferOwner(address,address)": "31678cf6",
			"transferOwnership(address)": "f2fde38b",
			"unblockProject(address)": "41b8cc6f",
			"withdrawProjectBalance(address,address,uint256,bool)": "5c2fb156"
		}
	},
	"abi": [
		{
			"anonymous": false,
			"inputs": [
				{
					"indexed": true,
					"internalType": "address",
					"name": "previousOwner",
					"type": "address"
				},
				{
					"indexed": true,
					"internalType": "address",
					"name": "newOwner",
					"type": "address"
				}
			],
			"name": "OwnershipTransferred",
			"type": "event"
		},
		{
			"inputs": [
				{
					"internalType": "address",
					"name": "_projectAddress",
					"type": "address"
				},
				{
					"internalType": "contract IERC20",
					"name": "_currency",
					"type": "address"
				}
			],
			"name": "addProjectCurrency",
			"outputs": [
				{
					"internalType": "bool",
					"name": "",
					"type": "bool"
				}
			],
			"stateMutability": "nonpayable",
			"type": "function"
		},
		{
			"inputs": [
				{
					"internalType": "address",
					"name": "_projectAddress",
					"type": "address"
				}
			],
			"name": "blockProject",
			"outputs": [
				{
					"internalType": "bool",
					"name": "",
					"type": "bool"
				}
			],
			"stateMutability": "nonpayable",
			"type": "function"
		},
		{
			"inputs": [
				{
					"internalType": "address",
					"name": "_projectAddress",
					"type": "address"
				}
			],
			"name": "deactivateProject",
			"outputs": [
				{
					"internalType": "bool",
					"name": "",
					"type": "bool"
				}
			],
			"stateMutability": "nonpayable",
			"type": "function"
		},
		{
			"inputs": [],
			"name": "owner",
			"outputs": [
				{
					"internalType": "address",
					"name": "",
					"type": "address"
				}
			],
			"stateMutability": "view",
			"type": "function"
		},
		{
			"inputs": [
				{
					"internalType": "address",
					"name": "_projectAddress",
					"type": "address"
				}
			],
			"name": "refundProject",
			"outputs": [
				{
					"internalType": "bool",
					"name": "",
					"type": "bool"
				}
			],
			"stateMutability": "nonpayable",
			"type": "function"
		},
		{
			"inputs": [],
			"name": "renounceOwnership",
			"outputs": [],
			"stateMutability": "nonpayable",
			"type": "function"
		},
		{
			"inputs": [
				{
					"internalType": "address",
					"name": "_projectAddress",
					"type": "address"
				},
				{
					"internalType": "uint256",
					"name": "_proposalId",
					"type": "uint256"
				},
				{
					"internalType": "uint256",
					"name": "_newValue",
					"type": "uint256"
				}
			],
			"name": "setProjectProposalDeadline",
			"outputs": [
				{
					"internalType": "bool",
					"name": "",
					"type": "bool"
				}
			],
			"stateMutability": "nonpayable",
			"type": "function"
		},
		{
			"inputs": [
				{
					"internalType": "address",
					"name": "_projectAddress",
					"type": "address"
				},
				{
					"internalType": "uint256",
					"name": "_newValue",
					"type": "uint256"
				}
			],
			"name": "setProjectReleaseTime",
			"outputs": [
				{
					"internalType": "bool",
					"name": "",
					"type": "bool"
				}
			],
			"stateMutability": "nonpayable",
			"type": "function"
		},
		{
			"inputs": [
				{
					"internalType": "address",
					"name": "_projectAddress",
					"type": "address"
				},
				{
					"internalType": "address",
					"name": "_newOwner",
					"type": "address"
				}
			],
			"name": "transferOwner",
			"outputs": [
				{
					"internalType": "bool",
					"name": "",
					"type": "bool"
				}
			],
			"stateMutability": "nonpayable",
			"type": "function"
		},
		{
			"inputs": [
				{
					"internalType": "address",
					"name": "newOwner",
					"type": "address"
				}
			],
			"name": "transferOwnership",
			"outputs": [],
			"stateMutability": "nonpayable",
			"type": "function"
		},
		{
			"inputs": [
				{
					"internalType": "address",
					"name": "_projectAddress",
					"type": "address"
				}
			],
			"name": "unblockProject",
			"outputs": [
				{
					"internalType": "bool",
					"name": "",
					"type": "bool"
				}
			],
			"stateMutability": "nonpayable",
			"type": "function"
		},
		{
			"inputs": [
				{
					"internalType": "address",
					"name": "_projectAddress",
					"type": "address"
				},
				{
					"internalType": "contract IERC20",
					"name": "_currency",
					"type": "address"
				},
				{
					"internalType": "uint256",
					"name": "_withdrawalAmount",
					"type": "uint256"
				},
				{
					"internalType": "bool",
					"name": "_isShutdown",
					"type": "bool"
				}
			],
			"name": "withdrawProjectBalance",
			"outputs": [
				{
					"internalType": "bool",
					"name": "",
					"type": "bool"
				}
			],
			"stateMutability": "nonpayable",
			"type": "function"
		}
	]
}